{
  "address": "0xCe8AEac842559b1652FcC77c5e4967DC6BDFbf65",
  "abi": [
    {
      "anonymous": false,
      "inputs": [
        {
          "indexed": true,
          "internalType": "address",
          "name": "owner",
          "type": "address"
        },
        {
          "indexed": true,
          "internalType": "address",
          "name": "approved",
          "type": "address"
        },
        {
          "indexed": true,
          "internalType": "uint256",
          "name": "tokenId",
          "type": "uint256"
        }
      ],
      "name": "Approval",
      "type": "event"
    },
    {
      "anonymous": false,
      "inputs": [
        {
          "indexed": true,
          "internalType": "address",
          "name": "owner",
          "type": "address"
        },
        {
          "indexed": true,
          "internalType": "address",
          "name": "operator",
          "type": "address"
        },
        {
          "indexed": false,
          "internalType": "bool",
          "name": "approved",
          "type": "bool"
        }
      ],
      "name": "ApprovalForAll",
      "type": "event"
    },
    {
      "anonymous": false,
      "inputs": [
        {
          "indexed": false,
          "internalType": "uint256",
          "name": "blueprintID",
          "type": "uint256"
        },
        {
          "indexed": false,
          "internalType": "address",
          "name": "artist",
          "type": "address"
        },
        {
          "indexed": false,
          "internalType": "address",
          "name": "purchaser",
          "type": "address"
        },
        {
          "indexed": false,
          "internalType": "uint128",
          "name": "tokenId",
          "type": "uint128"
        },
        {
          "indexed": false,
          "internalType": "uint64",
          "name": "newCapacity",
          "type": "uint64"
        },
        {
          "indexed": false,
          "internalType": "bytes32",
          "name": "seedPrefix",
          "type": "bytes32"
        }
      ],
      "name": "BlueprintMinted",
      "type": "event"
    },
    {
      "anonymous": false,
      "inputs": [
        {
          "indexed": false,
          "internalType": "uint256",
          "name": "blueprintID",
          "type": "uint256"
        },
        {
          "indexed": false,
          "internalType": "address",
          "name": "artist",
          "type": "address"
        },
        {
          "indexed": false,
          "internalType": "uint64",
          "name": "capacity",
          "type": "uint64"
        },
        {
          "indexed": false,
          "internalType": "string",
          "name": "blueprintMetaData",
          "type": "string"
        },
        {
          "indexed": false,
          "internalType": "string",
          "name": "baseTokenUri",
          "type": "string"
        }
      ],
      "name": "BlueprintPrepared",
      "type": "event"
    },
    {
      "anonymous": false,
      "inputs": [
        {
          "indexed": false,
          "internalType": "uint256",
          "name": "blueprintID",
          "type": "uint256"
        },
        {
          "indexed": false,
          "internalType": "string",
          "name": "randomSeed",
          "type": "string"
        }
      ],
      "name": "BlueprintSeed",
      "type": "event"
    },
    {
      "anonymous": false,
      "inputs": [
        {
          "indexed": false,
          "internalType": "uint256",
          "name": "blueprintID",
          "type": "uint256"
        },
        {
          "indexed": false,
          "internalType": "uint128",
          "name": "price",
          "type": "uint128"
        },
        {
          "indexed": false,
          "internalType": "uint32",
          "name": "newMintAmountArtist",
          "type": "uint32"
        },
        {
          "indexed": false,
          "internalType": "uint32",
          "name": "newMintAmountPlatform",
          "type": "uint32"
        },
        {
          "indexed": false,
          "internalType": "uint32",
          "name": "newSaleState",
          "type": "uint32"
        },
        {
          "indexed": false,
          "internalType": "uint64",
          "name": "newMaxPurchaseAmount",
          "type": "uint64"
        },
        {
          "indexed": false,
          "internalType": "bytes32",
          "name": "newMerkleRoot",
          "type": "bytes32"
        }
      ],
      "name": "BlueprintSettingsUpdated",
      "type": "event"
    },
    {
      "anonymous": false,
      "inputs": [
        {
          "indexed": false,
          "internalType": "uint256",
          "name": "blueprintID",
          "type": "uint256"
        },
        {
          "indexed": false,
          "internalType": "string",
          "name": "newBaseTokenUri",
          "type": "string"
        }
      ],
      "name": "BlueprintTokenUriUpdated",
      "type": "event"
    },
    {
      "anonymous": false,
      "inputs": [
        {
          "indexed": false,
          "internalType": "uint8",
          "name": "version",
          "type": "uint8"
        }
      ],
      "name": "Initialized",
      "type": "event"
    },
    {
      "anonymous": false,
      "inputs": [
        {
          "indexed": true,
          "internalType": "bytes32",
          "name": "role",
          "type": "bytes32"
        },
        {
          "indexed": true,
          "internalType": "bytes32",
          "name": "previousAdminRole",
          "type": "bytes32"
        },
        {
          "indexed": true,
          "internalType": "bytes32",
          "name": "newAdminRole",
          "type": "bytes32"
        }
      ],
      "name": "RoleAdminChanged",
      "type": "event"
    },
    {
      "anonymous": false,
      "inputs": [
        {
          "indexed": true,
          "internalType": "bytes32",
          "name": "role",
          "type": "bytes32"
        },
        {
          "indexed": true,
          "internalType": "address",
          "name": "account",
          "type": "address"
        },
        {
          "indexed": true,
          "internalType": "address",
          "name": "sender",
          "type": "address"
        }
      ],
      "name": "RoleGranted",
      "type": "event"
    },
    {
      "anonymous": false,
      "inputs": [
        {
          "indexed": true,
          "internalType": "bytes32",
          "name": "role",
          "type": "bytes32"
        },
        {
          "indexed": true,
          "internalType": "address",
          "name": "account",
          "type": "address"
        },
        {
          "indexed": true,
          "internalType": "address",
          "name": "sender",
          "type": "address"
        }
      ],
      "name": "RoleRevoked",
      "type": "event"
    },
    {
      "anonymous": false,
      "inputs": [
        {
          "indexed": false,
          "internalType": "uint256",
          "name": "blueprintID",
          "type": "uint256"
        }
      ],
      "name": "SalePaused",
      "type": "event"
    },
    {
      "anonymous": false,
      "inputs": [
        {
          "indexed": false,
          "internalType": "uint256",
          "name": "blueprintID",
          "type": "uint256"
        }
      ],
      "name": "SaleStarted",
      "type": "event"
    },
    {
      "anonymous": false,
      "inputs": [
        {
          "indexed": false,
          "internalType": "uint256",
          "name": "blueprintID",
          "type": "uint256"
        }
      ],
      "name": "SaleUnpaused",
      "type": "event"
    },
    {
      "anonymous": false,
      "inputs": [
        {
          "indexed": false,
          "internalType": "uint256",
          "name": "tokenId",
          "type": "uint256"
        },
        {
          "indexed": false,
          "internalType": "address[]",
          "name": "recipients",
          "type": "address[]"
        },
        {
          "indexed": false,
          "internalType": "uint256[]",
          "name": "bps",
          "type": "uint256[]"
        }
      ],
      "name": "SecondarySaleFees",
      "type": "event"
    },
    {
      "anonymous": false,
      "inputs": [
        {
          "indexed": true,
          "internalType": "address",
          "name": "from",
          "type": "address"
        },
        {
          "indexed": true,
          "internalType": "address",
          "name": "to",
          "type": "address"
        },
        {
          "indexed": true,
          "internalType": "uint256",
          "name": "tokenId",
          "type": "uint256"
        }
      ],
      "name": "Transfer",
      "type": "event"
    },
    {
      "inputs": [],
      "name": "DEFAULT_ADMIN_ROLE",
      "outputs": [
        {
          "internalType": "bytes32",
          "name": "",
          "type": "bytes32"
        }
      ],
      "stateMutability": "view",
      "type": "function"
    },
    {
      "inputs": [],
      "name": "MINTER_ROLE",
      "outputs": [
        {
          "internalType": "bytes32",
          "name": "",
          "type": "bytes32"
        }
      ],
      "stateMutability": "view",
      "type": "function"
    },
    {
      "inputs": [],
      "name": "_initialize",
      "outputs": [],
      "stateMutability": "nonpayable",
      "type": "function"
    },
    {
      "inputs": [
        {
          "internalType": "address",
          "name": "to",
          "type": "address"
        },
        {
          "internalType": "uint256",
          "name": "tokenId",
          "type": "uint256"
        }
      ],
      "name": "approve",
      "outputs": [],
      "stateMutability": "nonpayable",
      "type": "function"
    },
    {
      "inputs": [],
      "name": "asyncSaleFeesRecipient",
      "outputs": [
        {
          "internalType": "address",
          "name": "",
          "type": "address"
        }
      ],
      "stateMutability": "view",
      "type": "function"
    },
    {
      "inputs": [
        {
          "internalType": "address",
          "name": "owner",
          "type": "address"
        }
      ],
      "name": "balanceOf",
      "outputs": [
        {
          "internalType": "uint256",
          "name": "",
          "type": "uint256"
        }
      ],
      "stateMutability": "view",
      "type": "function"
    },
    {
      "inputs": [
        {
          "internalType": "uint256",
          "name": "blueprintID",
          "type": "uint256"
        }
      ],
      "name": "beginSale",
      "outputs": [],
      "stateMutability": "nonpayable",
      "type": "function"
    },
    {
      "inputs": [],
      "name": "blueprintIndex",
      "outputs": [
        {
          "internalType": "uint256",
          "name": "",
          "type": "uint256"
        }
      ],
      "stateMutability": "view",
      "type": "function"
    },
    {
      "inputs": [
        {
          "internalType": "uint256",
          "name": "",
          "type": "uint256"
        }
      ],
      "name": "blueprints",
      "outputs": [
        {
          "internalType": "bool",
          "name": "tokenUriLocked",
          "type": "bool"
        },
        {
          "internalType": "uint32",
          "name": "mintAmountArtist",
          "type": "uint32"
        },
        {
          "internalType": "uint32",
          "name": "mintAmountPlatform",
          "type": "uint32"
        },
        {
          "internalType": "uint64",
          "name": "capacity",
          "type": "uint64"
        },
        {
          "internalType": "uint64",
          "name": "erc721TokenIndex",
          "type": "uint64"
        },
        {
          "internalType": "uint64",
          "name": "maxPurchaseAmount",
          "type": "uint64"
        },
        {
          "internalType": "uint128",
          "name": "price",
          "type": "uint128"
        },
        {
          "internalType": "address",
          "name": "artist",
          "type": "address"
        },
        {
          "internalType": "address",
          "name": "ERC20Token",
          "type": "address"
        },
        {
          "internalType": "string",
          "name": "baseTokenUri",
          "type": "string"
        },
        {
          "internalType": "bytes32",
          "name": "merkleroot",
          "type": "bytes32"
        },
        {
          "internalType": "enum BlueprintV11.SaleState",
          "name": "saleState",
          "type": "uint8"
        }
      ],
      "stateMutability": "view",
      "type": "function"
    },
    {
      "inputs": [
        {
          "internalType": "uint32",
          "name": "_basisPoints",
          "type": "uint32"
        }
      ],
      "name": "changeDefaultBlueprintSecondarySalePercentage",
      "outputs": [],
      "stateMutability": "nonpayable",
      "type": "function"
    },
    {
      "inputs": [
        {
          "internalType": "uint32",
          "name": "_basisPoints",
          "type": "uint32"
        }
      ],
      "name": "changeDefaultPlatformPrimaryFeePercentage",
      "outputs": [],
      "stateMutability": "nonpayable",
      "type": "function"
    },
    {
      "inputs": [
        {
          "internalType": "uint32",
          "name": "_basisPoints",
          "type": "uint32"
        }
      ],
      "name": "changeDefaultPlatformSecondarySalePercentage",
      "outputs": [],
      "stateMutability": "nonpayable",
      "type": "function"
    },
    {
      "inputs": [],
      "name": "defaultBlueprintSecondarySalePercentage",
      "outputs": [
        {
          "internalType": "uint32",
          "name": "",
          "type": "uint32"
        }
      ],
      "stateMutability": "view",
      "type": "function"
    },
    {
      "inputs": [],
      "name": "defaultPlatformPrimaryFeePercentage",
      "outputs": [
        {
          "internalType": "uint32",
          "name": "",
          "type": "uint32"
        }
      ],
      "stateMutability": "view",
      "type": "function"
    },
    {
      "inputs": [],
      "name": "defaultPlatformSecondarySalePercentage",
      "outputs": [
        {
          "internalType": "uint32",
          "name": "",
          "type": "uint32"
        }
      ],
      "stateMutability": "view",
      "type": "function"
    },
    {
      "inputs": [
        {
          "internalType": "uint256",
          "name": "tokenId",
          "type": "uint256"
        }
      ],
      "name": "getApproved",
      "outputs": [
        {
          "internalType": "address",
          "name": "",
          "type": "address"
        }
      ],
      "stateMutability": "view",
      "type": "function"
    },
    {
      "inputs": [
        {
          "internalType": "uint256",
          "name": "tokenId",
          "type": "uint256"
        }
      ],
      "name": "getFeeBps",
      "outputs": [
        {
          "internalType": "uint32[]",
          "name": "",
          "type": "uint32[]"
        }
      ],
      "stateMutability": "view",
      "type": "function"
    },
    {
      "inputs": [
        {
          "internalType": "uint256",
          "name": "tokenId",
          "type": "uint256"
        }
      ],
      "name": "getFeeRecipients",
      "outputs": [
        {
          "internalType": "address[]",
          "name": "",
          "type": "address[]"
        }
      ],
      "stateMutability": "view",
      "type": "function"
    },
    {
      "inputs": [
        {
          "internalType": "uint256",
          "name": "id",
          "type": "uint256"
        }
      ],
      "name": "getPrimaryFeeBps",
      "outputs": [
        {
          "internalType": "uint32[]",
          "name": "",
          "type": "uint32[]"
        }
      ],
      "stateMutability": "view",
      "type": "function"
    },
    {
      "inputs": [
        {
          "internalType": "uint256",
          "name": "id",
          "type": "uint256"
        }
      ],
      "name": "getPrimaryFeeRecipients",
      "outputs": [
        {
          "internalType": "address[]",
          "name": "",
          "type": "address[]"
        }
      ],
      "stateMutability": "view",
      "type": "function"
    },
    {
      "inputs": [
        {
          "internalType": "bytes32",
          "name": "role",
          "type": "bytes32"
        }
      ],
      "name": "getRoleAdmin",
      "outputs": [
        {
          "internalType": "bytes32",
          "name": "",
          "type": "bytes32"
        }
      ],
      "stateMutability": "view",
      "type": "function"
    },
    {
      "inputs": [
        {
          "internalType": "bytes32",
          "name": "role",
          "type": "bytes32"
        },
        {
          "internalType": "uint256",
          "name": "index",
          "type": "uint256"
        }
      ],
      "name": "getRoleMember",
      "outputs": [
        {
          "internalType": "address",
          "name": "",
          "type": "address"
        }
      ],
      "stateMutability": "view",
      "type": "function"
    },
    {
      "inputs": [
        {
          "internalType": "bytes32",
          "name": "role",
          "type": "bytes32"
        }
      ],
      "name": "getRoleMemberCount",
      "outputs": [
        {
          "internalType": "uint256",
          "name": "",
          "type": "uint256"
        }
      ],
      "stateMutability": "view",
      "type": "function"
    },
    {
      "inputs": [
        {
          "internalType": "bytes32",
          "name": "role",
          "type": "bytes32"
        },
        {
          "internalType": "address",
          "name": "account",
          "type": "address"
        }
      ],
      "name": "grantRole",
      "outputs": [],
      "stateMutability": "nonpayable",
      "type": "function"
    },
    {
      "inputs": [
        {
          "internalType": "bytes32",
          "name": "role",
          "type": "bytes32"
        },
        {
          "internalType": "address",
          "name": "account",
          "type": "address"
        }
      ],
      "name": "hasRole",
      "outputs": [
        {
          "internalType": "bool",
          "name": "",
          "type": "bool"
        }
      ],
      "stateMutability": "view",
      "type": "function"
    },
    {
      "inputs": [
        {
          "internalType": "string",
          "name": "name_",
          "type": "string"
        },
        {
          "internalType": "string",
          "name": "symbol_",
          "type": "string"
        },
        {
          "internalType": "address",
          "name": "minter",
          "type": "address"
        }
      ],
      "name": "initialize",
      "outputs": [],
      "stateMutability": "nonpayable",
      "type": "function"
    },
    {
      "inputs": [
        {
          "internalType": "address",
          "name": "account",
          "type": "address"
        },
        {
          "internalType": "address",
          "name": "operator",
          "type": "address"
        }
      ],
      "name": "isApprovedForAll",
      "outputs": [
        {
          "internalType": "bool",
          "name": "",
          "type": "bool"
        }
      ],
      "stateMutability": "view",
      "type": "function"
    },
    {
      "inputs": [],
      "name": "latestErc721TokenIndex",
      "outputs": [
        {
          "internalType": "uint64",
          "name": "",
          "type": "uint64"
        }
      ],
      "stateMutability": "view",
      "type": "function"
    },
    {
      "inputs": [
        {
          "internalType": "uint256",
          "name": "blueprintID",
          "type": "uint256"
        }
      ],
      "name": "lockBlueprintTokenUri",
      "outputs": [],
      "stateMutability": "nonpayable",
      "type": "function"
    },
    {
      "inputs": [],
      "name": "minterAddress",
      "outputs": [
        {
          "internalType": "address",
          "name": "",
          "type": "address"
        }
      ],
      "stateMutability": "view",
      "type": "function"
    },
    {
      "inputs": [],
      "name": "name",
      "outputs": [
        {
          "internalType": "string",
          "name": "",
          "type": "string"
        }
      ],
      "stateMutability": "view",
      "type": "function"
    },
    {
      "inputs": [
        {
          "internalType": "uint256",
          "name": "tokenId",
          "type": "uint256"
        }
      ],
      "name": "ownerOf",
      "outputs": [
        {
          "internalType": "address",
          "name": "",
          "type": "address"
        }
      ],
      "stateMutability": "view",
      "type": "function"
    },
    {
      "inputs": [
        {
          "internalType": "uint256",
          "name": "blueprintID",
          "type": "uint256"
        }
      ],
      "name": "pauseSale",
      "outputs": [],
      "stateMutability": "nonpayable",
      "type": "function"
    },
    {
      "inputs": [],
      "name": "platform",
      "outputs": [
        {
          "internalType": "address",
          "name": "",
          "type": "address"
        }
      ],
      "stateMutability": "view",
      "type": "function"
    },
    {
      "inputs": [
        {
          "internalType": "uint256",
          "name": "blueprintID",
          "type": "uint256"
        },
        {
          "internalType": "uint32",
          "name": "quantity",
          "type": "uint32"
        }
      ],
      "name": "preSaleMint",
      "outputs": [],
      "stateMutability": "nonpayable",
      "type": "function"
    },
    {
      "inputs": [
        {
          "internalType": "address",
          "name": "_artist",
          "type": "address"
        },
        {
          "internalType": "uint64",
          "name": "_capacity",
          "type": "uint64"
        },
        {
          "internalType": "uint128",
          "name": "_price",
          "type": "uint128"
        },
        {
          "internalType": "address",
          "name": "_erc20Token",
          "type": "address"
        },
        {
          "internalType": "string",
          "name": "_blueprintMetaData",
          "type": "string"
        },
        {
          "internalType": "string",
          "name": "_baseTokenUri",
          "type": "string"
        },
        {
          "internalType": "bytes32",
          "name": "_merkleroot",
          "type": "bytes32"
        },
        {
          "internalType": "uint32",
          "name": "_mintAmountArtist",
          "type": "uint32"
        },
        {
          "internalType": "uint32",
          "name": "_mintAmountPlatform",
          "type": "uint32"
        },
        {
          "internalType": "uint32",
          "name": "_maxPurchaseAmount",
          "type": "uint32"
        }
      ],
      "name": "prepareBlueprint",
      "outputs": [],
      "stateMutability": "nonpayable",
      "type": "function"
    },
    {
      "inputs": [
        {
          "internalType": "uint256",
          "name": "blueprintID",
          "type": "uint256"
        },
        {
          "internalType": "uint32",
          "name": "quantity",
          "type": "uint32"
        },
        {
          "internalType": "uint256",
          "name": "tokenAmount",
          "type": "uint256"
        },
        {
          "internalType": "bytes32[]",
          "name": "proof",
          "type": "bytes32[]"
        }
      ],
      "name": "purchaseBlueprints",
      "outputs": [],
      "stateMutability": "payable",
      "type": "function"
    },
    {
      "inputs": [
        {
          "internalType": "uint256",
          "name": "blueprintID",
          "type": "uint256"
        },
        {
          "internalType": "uint32",
          "name": "quantity",
          "type": "uint32"
        },
        {
          "internalType": "uint256",
          "name": "tokenAmount",
          "type": "uint256"
        },
        {
          "internalType": "bytes32[]",
          "name": "proof",
          "type": "bytes32[]"
        },
        {
          "internalType": "address",
          "name": "nftRecipient",
          "type": "address"
        }
      ],
      "name": "purchaseBlueprintsTo",
      "outputs": [],
      "stateMutability": "payable",
      "type": "function"
    },
    {
      "inputs": [
        {
          "internalType": "bytes32",
          "name": "role",
          "type": "bytes32"
        },
        {
          "internalType": "address",
          "name": "account",
          "type": "address"
        }
      ],
      "name": "renounceRole",
      "outputs": [],
      "stateMutability": "nonpayable",
      "type": "function"
    },
    {
      "inputs": [
        {
          "internalType": "uint256",
          "name": "_blueprintID",
          "type": "uint256"
        },
        {
          "internalType": "address",
          "name": "_minter",
          "type": "address"
        }
      ],
      "name": "resetClaimedStatus",
      "outputs": [],
      "stateMutability": "nonpayable",
      "type": "function"
    },
    {
      "inputs": [
        {
          "internalType": "uint256",
          "name": "blueprintID",
          "type": "uint256"
        },
        {
          "internalType": "string",
          "name": "randomSeed",
          "type": "string"
        }
      ],
      "name": "revealBlueprintSeed",
      "outputs": [],
      "stateMutability": "nonpayable",
      "type": "function"
    },
    {
      "inputs": [
        {
          "internalType": "bytes32",
          "name": "role",
          "type": "bytes32"
        },
        {
          "internalType": "address",
          "name": "account",
          "type": "address"
        }
      ],
      "name": "revokeRole",
      "outputs": [],
      "stateMutability": "nonpayable",
      "type": "function"
    },
    {
      "inputs": [
        {
          "internalType": "address",
          "name": "from",
          "type": "address"
        },
        {
          "internalType": "address",
          "name": "to",
          "type": "address"
        },
        {
          "internalType": "uint256",
          "name": "tokenId",
          "type": "uint256"
        }
      ],
      "name": "safeTransferFrom",
      "outputs": [],
      "stateMutability": "nonpayable",
      "type": "function"
    },
    {
      "inputs": [
        {
          "internalType": "address",
          "name": "from",
          "type": "address"
        },
        {
          "internalType": "address",
          "name": "to",
          "type": "address"
        },
        {
          "internalType": "uint256",
          "name": "tokenId",
          "type": "uint256"
        },
        {
          "internalType": "bytes",
          "name": "_data",
          "type": "bytes"
        }
      ],
      "name": "safeTransferFrom",
      "outputs": [],
      "stateMutability": "nonpayable",
      "type": "function"
    },
    {
      "inputs": [
        {
          "internalType": "address",
          "name": "operator",
          "type": "address"
        },
        {
          "internalType": "bool",
          "name": "approved",
          "type": "bool"
        }
      ],
      "name": "setApprovalForAll",
      "outputs": [],
      "stateMutability": "nonpayable",
      "type": "function"
    },
    {
      "inputs": [
        {
          "internalType": "address",
          "name": "_asyncSaleFeesRecipient",
          "type": "address"
        }
      ],
      "name": "setAsyncFeeRecipient",
      "outputs": [],
      "stateMutability": "nonpayable",
      "type": "function"
    },
    {
      "inputs": [
        {
          "internalType": "uint256",
          "name": "_blueprintID",
          "type": "uint256"
        },
        {
          "internalType": "address[]",
          "name": "_primaryFeeRecipients",
          "type": "address[]"
        },
        {
          "internalType": "uint32[]",
          "name": "_primaryFeeBPS",
          "type": "uint32[]"
        },
        {
          "internalType": "address[]",
          "name": "_secondaryFeeRecipients",
          "type": "address[]"
        },
        {
          "internalType": "uint32[]",
          "name": "_secondaryFeeBPS",
          "type": "uint32[]"
        }
      ],
      "name": "setFeeRecipients",
      "outputs": [],
      "stateMutability": "nonpayable",
      "type": "function"
    },
    {
      "inputs": [
        {
          "internalType": "bytes4",
          "name": "interfaceId",
          "type": "bytes4"
        }
      ],
      "name": "supportsInterface",
      "outputs": [
        {
          "internalType": "bool",
          "name": "",
          "type": "bool"
        }
      ],
      "stateMutability": "view",
      "type": "function"
    },
    {
      "inputs": [],
      "name": "symbol",
      "outputs": [
        {
          "internalType": "string",
          "name": "",
          "type": "string"
        }
      ],
      "stateMutability": "view",
      "type": "function"
    },
    {
      "inputs": [
        {
          "internalType": "uint256",
          "name": "tokenId",
          "type": "uint256"
        }
      ],
      "name": "tokenURI",
      "outputs": [
        {
          "internalType": "string",
          "name": "",
          "type": "string"
        }
      ],
      "stateMutability": "view",
      "type": "function"
    },
    {
      "inputs": [
        {
          "internalType": "address",
          "name": "from",
          "type": "address"
        },
        {
          "internalType": "address",
          "name": "to",
          "type": "address"
        },
        {
          "internalType": "uint256",
          "name": "tokenId",
          "type": "uint256"
        }
      ],
      "name": "transferFrom",
      "outputs": [],
      "stateMutability": "nonpayable",
      "type": "function"
    },
    {
      "inputs": [
        {
          "internalType": "uint256",
          "name": "blueprintID",
          "type": "uint256"
        }
      ],
      "name": "unpauseSale",
      "outputs": [],
      "stateMutability": "nonpayable",
      "type": "function"
    },
    {
      "inputs": [
        {
          "internalType": "uint256",
          "name": "_blueprintID",
          "type": "uint256"
        },
        {
          "internalType": "address",
          "name": "_newArtist",
          "type": "address"
        }
      ],
      "name": "updateBlueprintArtist",
      "outputs": [],
      "stateMutability": "nonpayable",
      "type": "function"
    },
    {
      "inputs": [
        {
          "internalType": "uint256",
          "name": "_blueprintID",
          "type": "uint256"
        },
        {
          "internalType": "uint64",
          "name": "_newCapacity",
          "type": "uint64"
        },
        {
          "internalType": "uint64",
          "name": "_newLatestErc721TokenIndex",
          "type": "uint64"
        }
      ],
      "name": "updateBlueprintCapacity",
      "outputs": [],
      "stateMutability": "nonpayable",
      "type": "function"
    },
    {
      "inputs": [
        {
          "internalType": "uint256",
          "name": "_blueprintID",
          "type": "uint256"
        },
        {
          "internalType": "uint128",
          "name": "_price",
          "type": "uint128"
        },
        {
          "internalType": "uint32",
          "name": "_mintAmountArtist",
          "type": "uint32"
        },
        {
          "internalType": "uint32",
          "name": "_mintAmountPlatform",
          "type": "uint32"
        },
        {
          "internalType": "uint32",
          "name": "_newSaleState",
          "type": "uint32"
        },
        {
          "internalType": "uint64",
          "name": "_newMaxPurchaseAmount",
          "type": "uint64"
        },
        {
          "internalType": "bytes32",
          "name": "_merkleroot",
          "type": "bytes32"
        }
      ],
      "name": "updateBlueprintSettings",
      "outputs": [],
      "stateMutability": "nonpayable",
      "type": "function"
    },
    {
      "inputs": [
        {
          "internalType": "uint256",
          "name": "blueprintID",
          "type": "uint256"
        },
        {
          "internalType": "string",
          "name": "newBaseTokenUri",
          "type": "string"
        }
      ],
      "name": "updateBlueprintTokenUri",
      "outputs": [],
      "stateMutability": "nonpayable",
      "type": "function"
    },
    {
      "inputs": [
        {
          "internalType": "address",
          "name": "newMinterAddress",
          "type": "address"
        }
      ],
      "name": "updateMinterAddress",
      "outputs": [],
      "stateMutability": "nonpayable",
      "type": "function"
    },
    {
      "inputs": [
        {
          "internalType": "address",
          "name": "_platform",
          "type": "address"
        }
      ],
      "name": "updatePlatformAddress",
      "outputs": [],
      "stateMutability": "nonpayable",
      "type": "function"
    },
    {
      "inputs": [
        {
          "internalType": "address payable",
          "name": "recipient",
          "type": "address"
        }
      ],
      "name": "withdrawAllFailedCredits",
      "outputs": [],
      "stateMutability": "nonpayable",
      "type": "function"
    }
  ],
  "transactionHash": "0x29c92dd8e1d913555c517ddd1de3ba0aab722b187e919603c665b9f9316b4612",
  "args": [],
  "solcInputHash": "adeef596506bae57a8758b11f31e066a",
  "bytecode": "0x608060405234801561001057600080fd5b50615bc580620000216000396000f3fe60806040526004361061038c5760003560e01c80637b4252c0116101dc578063c2bce59c11610102578063cba991bf116100a0578063deb941481161006f578063deb9414814610aea578063e985e9c514610b0b578063eaf2115d14610b2b578063fce212f314610b5157600080fd5b8063cba991bf14610a63578063ced3604314610a88578063d539139314610aa8578063d547741f14610aca57600080fd5b8063c90941b1116100dc578063c90941b1146109e3578063c9e6320314610a03578063c9f2bd9314610a23578063ca15c87314610a4357600080fd5b8063c2bce59c14610983578063c87b56dd146109a3578063c8950e60146109c357600080fd5b806394a9c9c31161017a578063a22cb46511610149578063a22cb46514610903578063aec970b014610923578063b88d4fde14610943578063b9c4d9fb1461096357600080fd5b806394a9c9c3146108a657806395d89b41146108b95780639aa4740e146108ce578063a217fddf146108ee57600080fd5b8063898a90bc116101b6578063898a90bc146108265780638f9f193f146108465780639010d07c1461086657806391d148541461088657600080fd5b80637b4252c0146107e757806380ae4ebc146107fe57806382c32b801461081357600080fd5b80632f2ff15d116102c15780634bde38c81161025f57806366c083d31161022e57806366c083d31461076757806368c31e261461078757806370a08231146107a75780637550f27d146107c757600080fd5b80634bde38c8146106ae5780634d073a5a146106cf5780636352211e1461070f57806366bf33be1461072f57600080fd5b806336568abe1161029b57806336568abe1461062e57806338e395cf1461064e5780633a66e4b61461066e57806342842e0e1461068e57600080fd5b80632f2ff15d146105cd5780632fcfb95a146105ed57806334d722c91461060d57600080fd5b80630a21a2111161032e57806322235d691161030857806322235d691461051c57806323b872dd1461054f578063248a9ca31461056f5780632b4ab0e3146105ad57600080fd5b80630a21a211146104a25780630ebd4c7f146104cf57806320ceaf8d146104fc57600080fd5b806306fdde031161036a57806306fdde0314610408578063077f224a1461042a578063081812fc1461044a578063095ea7b31461048257600080fd5b8063018a62a61461039157806301a94950146103b357806301ffc9a7146103d3575b600080fd5b34801561039d57600080fd5b506103b16103ac3660046150d1565b610b71565b005b3480156103bf57600080fd5b506103b16103ce3660046152ce565b610c26565b3480156103df57600080fd5b506103f36103ee366004614f74565b610c8b565b60405190151581526020015b60405180910390f35b34801561041457600080fd5b5061041d610cba565b6040516103ff9190615568565b34801561043657600080fd5b506103b1610445366004614fac565b610d4c565b34801561045657600080fd5b5061046a610465366004614f17565b610e49565b6040516001600160a01b0390911681526020016103ff565b34801561048e57600080fd5b506103b161049d366004614df0565b610ede565b3480156104ae57600080fd5b506104c26104bd366004614f17565b610ff4565b6040516103ff9190615436565b3480156104db57600080fd5b506104ef6104ea366004614f17565b6110f0565b6040516103ff9190615483565b34801561050857600080fd5b506103b1610517366004615293565b611269565b34801561052857600080fd5b5061012d5461053a9063ffffffff1681565b60405163ffffffff90911681526020016103ff565b34801561055b57600080fd5b506103b161056a366004614d07565b61134d565b34801561057b57600080fd5b5061059f61058a366004614f17565b600090815260c9602052604090206001015490565b6040519081526020016103ff565b3480156105b957600080fd5b506103b16105c8366004615115565b61137e565b3480156105d957600080fd5b506103b16105e8366004614f2f565b611513565b3480156105f957600080fd5b506103b1610608366004614cb3565b611538565b34801561061957600080fd5b506101315461046a906001600160a01b031681565b34801561063a57600080fd5b506103b1610649366004614f2f565b6115a5565b34801561065a57600080fd5b506103b161066936600461518c565b611623565b34801561067a57600080fd5b506103b1610689366004614f17565b6118a4565b34801561069a57600080fd5b506103b16106a9366004614d07565b61195c565b3480156106ba57600080fd5b506101305461046a906001600160a01b031681565b3480156106db57600080fd5b5061012d546106f790600160601b90046001600160401b031681565b6040516001600160401b0390911681526020016103ff565b34801561071b57600080fd5b5061046a61072a366004614f17565b611977565b34801561073b57600080fd5b5061074f61074a366004614f17565b6119ee565b6040516103ff9c9b9a999897969594939291906154c1565b34801561077357600080fd5b506103b16107823660046152ce565b611b15565b34801561079357600080fd5b506103b16107a2366004614f17565b611b7e565b3480156107b357600080fd5b5061059f6107c2366004614cb3565b611c62565b3480156107d357600080fd5b506103b16107e2366004614f2f565b611ce9565b3480156107f357600080fd5b5061059f61012e5481565b34801561080a57600080fd5b506103b1611d34565b6103b161082136600461521c565b611db1565b34801561083257600080fd5b506103b1610841366004614e1b565b611fd0565b34801561085257600080fd5b506103b1610861366004614cb3565b612087565b34801561087257600080fd5b5061046a610881366004614f53565b6120da565b34801561089257600080fd5b506103f36108a1366004614f2f565b6120f9565b6103b16108b43660046151b7565b612124565b3480156108c557600080fd5b5061041d612334565b3480156108da57600080fd5b506103b16108e9366004614f2f565b612343565b3480156108fa57600080fd5b5061059f600081565b34801561090f57600080fd5b506103b161091e366004614dc3565b61238e565b34801561092f57600080fd5b506103b161093e366004614cb3565b612399565b34801561094f57600080fd5b506103b161095e366004614d47565b6123c8565b34801561096f57600080fd5b506104c261097e366004614f17565b6123fa565b34801561098f57600080fd5b506103b161099e366004614f17565b612546565b3480156109af57600080fd5b5061041d6109be366004614f17565b61261b565b3480156109cf57600080fd5b506103b16109de3660046150d1565b6126f6565b3480156109ef57600080fd5b506103b16109fe366004614cb3565b612812565b348015610a0f57600080fd5b506103b1610a1e366004615020565b612910565b348015610a2f57600080fd5b506103b1610a3e366004614f17565b612a70565b348015610a4f57600080fd5b5061059f610a5e366004614f17565b612b5a565b348015610a6f57600080fd5b5061012d5461053a90600160401b900463ffffffff1681565b348015610a9457600080fd5b506104ef610aa3366004614f17565b612b71565b348015610ab457600080fd5b5061059f600080516020615b7083398151915281565b348015610ad657600080fd5b506103b1610ae5366004614f2f565b612c41565b348015610af657600080fd5b5061012f5461046a906001600160a01b031681565b348015610b1757600080fd5b506103f3610b26366004614ccf565b612c66565b348015610b3757600080fd5b5061012d5461053a90640100000000900463ffffffff1681565b348015610b5d57600080fd5b506103b1610b6c3660046152ce565b612ca2565b600080516020615b70833981519152610b8981612ce0565b82600080828152610134602052604090206006015460ff166003811115610bc057634e487b7160e01b600052602160045260246000fd5b1415610be75760405162461bcd60e51b8152600401610bde9061561b565b60405180910390fd5b7f703604f30bacc0494165473e817b003a6db41ed8c598a9ff96093768d701f0958484604051610c18929190615874565b60405180910390a150505050565b6000610c3181612ce0565b61012d5461271090610c5090600160401b900463ffffffff1684615923565b63ffffffff161115610c6157600080fd5b5061012d805463ffffffff9092166401000000000267ffffffff0000000019909216919091179055565b6000610c9682612cea565b80610ca55750610ca582612d3a565b80610cb45750610cb482612d6b565b92915050565b606060658054610cc990615a68565b80601f0160208091040260200160405190810160405280929190818152602001828054610cf590615a68565b8015610d425780601f10610d1757610100808354040283529160200191610d42565b820191906000526020600020905b815481529060010190602001808311610d2557829003601f168201915b5050505050905090565b6000610d586001612d90565b90508015610d70576000805461ff0019166101001790555b610d7a8484612e18565b610d82611d34565b610d8a612e49565b610d95600033612e72565b610dad600080516020615b7083398151915283612e72565b6101308054336001600160a01b03199182168117909255610131805482166001600160a01b03861617905561012d80546001600160601b03191668fa000002ee000007d017905561012f805490911690911790558015610e43576000805461ff0019169055604051600181527f7f26b83ff96e1f2b6a682f133852f6798a09c465da95921460cefb384740249890602001610c18565b50505050565b6000818152606760205260408120546001600160a01b0316610ec25760405162461bcd60e51b815260206004820152602c60248201527f4552433732313a20617070726f76656420717565727920666f72206e6f6e657860448201526b34b9ba32b73a103a37b5b2b760a11b6064820152608401610bde565b506000908152606960205260409020546001600160a01b031690565b6000610ee982611977565b9050806001600160a01b0316836001600160a01b03161415610f575760405162461bcd60e51b815260206004820152602160248201527f4552433732313a20617070726f76616c20746f2063757272656e74206f776e656044820152603960f91b6064820152608401610bde565b336001600160a01b0382161480610f735750610f738133612c66565b610fe55760405162461bcd60e51b815260206004820152603860248201527f4552433732313a20617070726f76652063616c6c6572206973206e6f74206f7760448201527f6e6572206e6f7220617070726f76656420666f7220616c6c00000000000000006064820152608401610bde565b610fef8383612e7c565b505050565b6000818152610134602052604090206009015460609061107d5760408051600180825281830190925260009160208083019080368337505061012f5482519293506001600160a01b03169183915060009061105f57634e487b7160e01b600052603260045260246000fd5b6001600160a01b039092166020928302919091019091015292915050565b60008281526101346020908152604091829020600901805483518184028101840190945280845290918301828280156110df57602002820191906000526020600020905b81546001600160a01b031681526001909101906020018083116110c1575b50505050509050919050565b919050565b6000818152610132602090815260408083205483526101349091529020600801546060906111d05760408051600280825260608201835260009260208301908036833701905050905061012d60089054906101000a900463ffffffff168160008151811061116e57634e487b7160e01b600052603260045260246000fd5b63ffffffff928316602091820292909201015261012d54825164010000000090910490911690829060019081106111b557634e487b7160e01b600052603260045260246000fd5b63ffffffff9092166020928302919091019091015292915050565b600082815261013260209081526040808320548352610134825291829020600801805483518184028101840190945280845290918301828280156110df57602002820191906000526020600020906000905b82829054906101000a900463ffffffff1663ffffffff1681526020019060040190602082600301049283019260010382029150808411611222575094979650505050505050565b600080516020615b7083398151915261128181612ce0565b600084815261013460205260409020546001600160401b03808516600160481b90920416116112f25760405162461bcd60e51b815260206004820152601d60248201527f4e6f7420656e6f75676820636170616369747920746f207265647563650000006044820152606401610bde565b506000928352610134602052604090922080546001600160401b03928316600160481b0267ffffffffffffffff60481b1990911617905561012d805491909216600160601b0267ffffffffffffffff60601b19909116179055565b6113573382612eea565b6113735760405162461bcd60e51b8152600401610bde906156a8565b610fef838383612fc1565b600080516020615b7083398151915261139681612ce0565b600088815261013460205260409020600181018054600160401b600160c01b031916600160401b6001600160801b038b1602179055805468ffffffffffffffff00191661010063ffffffff8981169190910268ffffffff0000000000191691909117600160281b88831602179091558416600381111561142657634e487b7160e01b600052602160045260246000fd5b600089815261013460205260409020600601805460ff1916600183600381111561146057634e487b7160e01b600052602160045260246000fd5b0217905550600088815261013460209081526040918290206005810185905560010180546001600160401b03871667ffffffffffffffff19909116811790915582518b81526001600160801b038b169281019290925263ffffffff8981168385015288811660608401528716608083015260a082015260c0810184905290517f8b95f2ac31b4018fe162a0e4305e150fcc6ec712116c66adbbdbf6aa21524bc39181900360e00190a15050505050505050565b600082815260c9602052604090206001015461152e81612ce0565b610fef838361315d565b600061154381612ce0565b61155b600080516020615b7083398151915283611513565b6101315461158190600080516020615b70833981519152906001600160a01b0316612c41565b5061013180546001600160a01b0319166001600160a01b0392909216919091179055565b6001600160a01b03811633146116155760405162461bcd60e51b815260206004820152602f60248201527f416363657373436f6e74726f6c3a2063616e206f6e6c792072656e6f756e636560448201526e103937b632b9903337b91039b2b63360891b6064820152608401610bde565b61161f828261317f565b5050565b61162c826131a1565b6116785760405162461bcd60e51b815260206004820181905260248201527f4d75737420626520707265706172656420616e64206e6f7420737461727465646044820152606401610bde565b610131546001600160a01b03163314806116ac5750600082815261013460205260409020600201546001600160a01b031633145b6116f85760405162461bcd60e51b815260206004820152601860248201527f757365722063616e6e6f74206d696e742070726573616c6500000000000000006044820152606401610bde565b610131546001600160a01b03163314156117c5576000828152610134602052604090205463ffffffff600160281b909104811690821611156117735760405162461bcd60e51b815260206004820152601460248201527363616e6e6f74206d696e74207175616e7469747960601b6044820152606401610bde565b60008281526101346020526040902080548291906005906117a2908490600160281b900463ffffffff166159dd565b92506101000a81548163ffffffff021916908363ffffffff160217905550611899565b600082815261013460205260409020600201546001600160a01b0316331415611899576000828152610134602052604090205463ffffffff6101009091048116908216111561184d5760405162461bcd60e51b815260206004820152601460248201527363616e6e6f74206d696e74207175616e7469747960601b6044820152606401610bde565b600082815261013460205260409020805482919060019061187a908490610100900463ffffffff166159dd565b92506101000a81548163ffffffff021916908363ffffffff1602179055505b61161f8282336131e2565b600080516020615b708339815191526118bc81612ce0565b816118c681613479565b6119055760405162461bcd60e51b815260206004820152601060248201526f14d85b19481b9bdd081cdd185c9d195960821b6044820152606401610bde565b60008381526101346020908152604091829020600601805460ff1916600317905590518481527f4616a0782e5635981b28be1cd36934a60655b462c370d8bd8092c969abc990d091015b60405180910390a1505050565b610fef838383604051806020016040528060008152506123c8565b6000818152606760205260408120546001600160a01b031680610cb45760405162461bcd60e51b815260206004820152602960248201527f4552433732313a206f776e657220717565727920666f72206e6f6e657869737460448201526832b73a103a37b5b2b760b91b6064820152608401610bde565b610134602052600090815260409020805460018201546002830154600384015460048501805460ff861696610100870463ffffffff90811697600160281b810490911696600160481b82046001600160401b0390811697600160881b90930481169690821695600160401b9092046001600160801b0316946001600160a01b039384169493909116929190611a8290615a68565b80601f0160208091040260200160405190810160405280929190818152602001828054611aae90615a68565b8015611afb5780601f10611ad057610100808354040283529160200191611afb565b820191906000526020600020905b815481529060010190602001808311611ade57829003601f168201915b50505050600583015460069093015491929160ff1690508c565b6000611b2081612ce0565b61012d5461271090611b4090640100000000900463ffffffff1684615923565b63ffffffff161115611b5157600080fd5b5061012d805463ffffffff909216600160401b026bffffffff000000000000000019909216919091179055565b600080516020615b70833981519152611b9681612ce0565b60036000838152610134602052604090206006015460ff166003811115611bcd57634e487b7160e01b600052602160045260246000fd5b14611c0c5760405162461bcd60e51b815260206004820152600f60248201526e14d85b19481b9bdd081c185d5cd959608a1b6044820152606401610bde565b60008281526101346020908152604091829020600601805460ff1916600217905590518381527fdcba7a000ef2740d4daa9c60f3235ec53ea38eb4164b31d5470f76e01e52d7bd91015b60405180910390a15050565b60006001600160a01b038216611ccd5760405162461bcd60e51b815260206004820152602a60248201527f4552433732313a2062616c616e636520717565727920666f7220746865207a65604482015269726f206164647265737360b01b6064820152608401610bde565b506001600160a01b031660009081526068602052604090205490565b600080516020615b70833981519152611d0181612ce0565b506000918252610134602090815260408084206001600160a01b039093168452600b90920190529020805460ff19169055565b6000611d406001612d90565b90508015611d58576000805461ff0019166101001790555b611d68632dde656160e21b613482565b8015611dae576000805461ff0019169055604051600181527f7f26b83ff96e1f2b6a682f133852f6798a09c465da95921460cefb38474024989060200160405180910390a15b50565b85858484611dbe84613479565b80611de65750611dcd846131a1565b8015611de65750611de6848463ffffffff168484613501565b611e2e5760405162461bcd60e51b81526020600482015260196024820152786e6f7420617661696c61626c6520746f20707572636861736560381b6044820152606401610bde565b60008a815261013460205260409020548a908a9063ffffffff8216600160481b9091046001600160401b03161015611ea45760405162461bcd60e51b81526020600482015260196024820152787175616e74697479206578636565647320636170616369747960381b6044820152606401610bde565b60008c815261013460205260409020600101546001600160401b03161580611eed575060008c815261013460205260409020600101546001600160401b031663ffffffff8c1611155b611f095760405162461bcd60e51b8152600401610bde9061564b565b323314611f285760405162461bcd60e51b8152600401610bde906156f9565b60008c815261013460205260409020600201546001600160a01b0316611f508d8d8d84613645565b600160008e8152610134602052604090206006015460ff166003811115611f8757634e487b7160e01b600052602160045260246000fd5b1415611fb65760008d815261013460209081526040808320338452600b019091529020805460ff191660011790555b611fc18d8d8a6131e2565b50505050505050505050505050565b600080516020615b70833981519152611fe881612ce0565b61012e546000818152610134602052604090206002810180546001600160a01b0319166001600160a01b038f16179055805467ffffffffffffffff60481b1916600160481b6001600160401b038e16021781556001018054600160401b600160c01b031916600160401b6001600160801b038d160217905561206f818a898989898961388e565b612079818961395d565b505050505050505050505050565b600061209281612ce0565b61209d600083611513565b610130546120b6906000906001600160a01b0316612c41565b5061013080546001600160a01b0319166001600160a01b0392909216919091179055565b600082815260fb602052604081206120f29083613a6d565b9392505050565b600091825260c9602090815260408084206001600160a01b0393909316845291905290205460ff1690565b8484838361213184613479565b806121595750612140846131a1565b80156121595750612159848463ffffffff168484613501565b6121a15760405162461bcd60e51b81526020600482015260196024820152786e6f7420617661696c61626c6520746f20707572636861736560381b6044820152606401610bde565b600089815261013460205260409020548990899063ffffffff8216600160481b9091046001600160401b031610156122175760405162461bcd60e51b81526020600482015260196024820152787175616e74697479206578636565647320636170616369747960381b6044820152606401610bde565b60008b815261013460205260409020600101546001600160401b03161580612260575060008b815261013460205260409020600101546001600160401b031663ffffffff8b1611155b61227c5760405162461bcd60e51b8152600401610bde9061564b565b32331461229b5760405162461bcd60e51b8152600401610bde906156f9565b60008b815261013460205260409020600201546001600160a01b03166122c38c8c8c84613645565b600160008d8152610134602052604090206006015460ff1660038111156122fa57634e487b7160e01b600052602160045260246000fd5b14156123295760008c815261013460209081526040808320338452600b019091529020805460ff191660011790555b6120798c8c336131e2565b606060668054610cc990615a68565b600080516020615b7083398151915261235b81612ce0565b506000918252610134602052604090912060020180546001600160a01b0319166001600160a01b03909216919091179055565b61161f338383613a79565b60006123a481612ce0565b5061012f80546001600160a01b0319166001600160a01b0392909216919091179055565b6123d23383612eea565b6123ee5760405162461bcd60e51b8152600401610bde906156a8565b610e4384848484613b48565b6000818152610132602090815260408083205483526101349091529020600a01546060906124cf57604080516002808252606082018352600092602083019080368337505061012f5482519293506001600160a01b03169183915060009061247257634e487b7160e01b600052603260045260246000fd5b6001600160a01b03928316602091820292909201810191909152600085815261013282526040808220548252610134909252206002015482519116908290600190811061105f57634e487b7160e01b600052603260045260246000fd5b600082815261013260209081526040808320548352610134825291829020600a01805483518184028101840190945280845290918301828280156110df576020028201919060005260206000209081546001600160a01b031681526001909101906020018083116110c15750505050509050919050565b600061255181612ce0565b81600080828152610134602052604090206006015460ff16600381111561258857634e487b7160e01b600052602160045260246000fd5b14156125a65760405162461bcd60e51b8152600401610bde9061561b565b6000838152610134602052604090205460ff16156125fd5760405162461bcd60e51b8152602060048201526014602482015273189b1d595c1c9a5b9d08155492481b1bd8dad95960621b6044820152606401610bde565b5050600090815261013460205260409020805460ff19166001179055565b6000818152606760205260409020546060906001600160a01b031661269a5760405162461bcd60e51b815260206004820152602f60248201527f4552433732314d657461646174613a2055524920717565727920666f72206e6f60448201526e3732bc34b9ba32b73a103a37b5b2b760891b6064820152608401610bde565b60006126a583613b7b565b905060008151116126c557604051806020016040528060008152506120f2565b806126cf84613c25565b6040516020016126e0929190615336565b6040516020818303038152906040529392505050565b600080516020615b7083398151915261270e81612ce0565b82600080828152610134602052604090206006015460ff16600381111561274557634e487b7160e01b600052602160045260246000fd5b14156127635760405162461bcd60e51b8152600401610bde9061561b565b6000848152610134602052604090205460ff16156127ba5760405162461bcd60e51b8152602060048201526014602482015273189b1d595c1c9a5b9d08155492481b1bd8dad95960621b6044820152606401610bde565b60008481526101346020908152604090912084516127e092600490920191860190614937565b507f36ab8e0ce3828485b4d98e97c3f5851331257ffe2b61a43e7e0e9875242f96378484604051610c18929190615874565b3360009081526101336020526040902054806128695760405162461bcd60e51b81526020600482015260166024820152756e6f206372656469747320746f20776974686472617760501b6044820152606401610bde565b3360009081526101336020526040808220829055516001600160a01b03841690614e2090849084818181858888f193505050503d80600081146128c8576040519150601f19603f3d011682016040523d82523d6000602084013e6128cd565b606091505b5050905080610fef5760405162461bcd60e51b815260206004820152600f60248201526e1dda5d1a191c985dc819985a5b1959608a1b6044820152606401610bde565b600080516020615b7083398151915261292881612ce0565b60016000878152610134602052604090206006015460ff16600381111561295f57634e487b7160e01b600052602160045260246000fd5b146129ac5760405162461bcd60e51b815260206004820152601c60248201527f73616c652073746172746564206f72206e6f74207072657061726564000000006044820152606401610bde565b6129b68585613d3e565b15612a0a5760008681526101346020908152604090912086516129e1926009909201918801906149bb565b506000868152610134602090815260409091208551612a0892600790920191870190614a10565b505b612a148383613d3e565b15612a68576000868152610134602090815260409091208451612a3f92600a909201918601906149bb565b506000868152610134602090815260409091208351612a6692600890920191850190614a10565b505b505050505050565b600080516020615b70833981519152612a8881612ce0565b60016000838152610134602052604090206006015460ff166003811115612abf57634e487b7160e01b600052602160045260246000fd5b14612b0c5760405162461bcd60e51b815260206004820152601c60248201527f73616c652073746172746564206f72206e6f74207072657061726564000000006044820152606401610bde565b60008281526101346020908152604091829020600601805460ff1916600217905590518381527fa78c547613f6306e7a70d1bd161c18a496cae1eeb8d4f9e58b60d69ad72ddf589101611c56565b600081815260fb60205260408120610cb490613e60565b60008181526101346020526040902060070154606090612bd95760408051600180825281830190925260009160208083019080368337505061012d54825192935063ffffffff16918391506000906111b557634e487b7160e01b600052603260045260246000fd5b60008281526101346020908152604091829020600701805483518184028101840190945280845290918301828280156110df576000918252602091829020805463ffffffff168452908202830192909160049101808411611222575094979650505050505050565b600082815260c96020526040902060010154612c5c81612ce0565b610fef838361317f565b6001600160a01b038083166000908152606a6020908152604080832093851683529290529081205460ff16806120f257506120f26000836120f9565b6000612cad81612ce0565b6127108263ffffffff161115612cc257600080fd5b5061012d805463ffffffff191663ffffffff92909216919091179055565b611dae8133613e6a565b60006001600160e01b031982166380ac58cd60e01b1480612d1b57506001600160e01b03198216635b5e139f60e01b145b80610cb457506301ffc9a760e01b6001600160e01b0319831614610cb4565b6000612d4582612cea565b80610cb45750506001600160e01b03191660009081526097602052604090205460ff1690565b60006001600160e01b03198216635a05180f60e01b1480610cb45750610cb482613ece565b60008054610100900460ff1615612dd7578160ff166001148015612db35750303b155b612dcf5760405162461bcd60e51b8152600401610bde906155cd565b506000919050565b60005460ff808416911610612dfe5760405162461bcd60e51b8152600401610bde906155cd565b506000805460ff191660ff92909216919091179055600190565b600054610100900460ff16612e3f5760405162461bcd60e51b8152600401610bde90615748565b61161f8282613ef3565b600054610100900460ff16612e705760405162461bcd60e51b8152600401610bde90615748565b565b61161f828261315d565b600081815260696020526040902080546001600160a01b0319166001600160a01b0384169081179091558190612eb182611977565b6001600160a01b03167f8c5be1e5ebec7d5bd14f71427d1e84f3dd0314c0f7b2291e5b200ac8c7c3b92560405160405180910390a45050565b6000818152606760205260408120546001600160a01b0316612f635760405162461bcd60e51b815260206004820152602c60248201527f4552433732313a206f70657261746f7220717565727920666f72206e6f6e657860448201526b34b9ba32b73a103a37b5b2b760a11b6064820152608401610bde565b6000612f6e83611977565b9050806001600160a01b0316846001600160a01b03161480612f955750612f958185612c66565b80612fb95750836001600160a01b0316612fae84610e49565b6001600160a01b0316145b949350505050565b826001600160a01b0316612fd482611977565b6001600160a01b0316146130385760405162461bcd60e51b815260206004820152602560248201527f4552433732313a207472616e736665722066726f6d20696e636f72726563742060448201526437bbb732b960d91b6064820152608401610bde565b6001600160a01b03821661309a5760405162461bcd60e51b8152602060048201526024808201527f4552433732313a207472616e7366657220746f20746865207a65726f206164646044820152637265737360e01b6064820152608401610bde565b6130a5600082612e7c565b6001600160a01b03831660009081526068602052604081208054600192906130ce9084906159c6565b90915550506001600160a01b03821660009081526068602052604081208054600192906130fc90849061590b565b909155505060008181526067602052604080822080546001600160a01b0319166001600160a01b0386811691821790925591518493918716917fddf252ad1be2c89b69c2b068fc378daa952ba7f163c4a11628f55a4df523b3ef91a4505050565b6131678282613f41565b600082815260fb60205260409020610fef9082613fc7565b6131898282613fdc565b600082815260fb60205260409020610fef9082614043565b600060015b6000838152610134602052604090206006015460ff1660038111156131db57634e487b7160e01b600052602160045260246000fd5b1492915050565b600083815261013460205260408120546001600160401b03600160881b8204811692600160481b90920416905b8463ffffffff168161ffff1610156133e7576000826001600160401b03161161327a5760405162461bcd60e51b815260206004820152601960248201527f626c75657072696e74206f7574206f66206361706163697479000000000000006044820152606401610bde565b61329a8461328c61ffff8416866158e0565b6001600160801b0316614058565b8561013260006132ae61ffff8516876158e0565b6001600160801b03168152602001908152602001600020819055506000434241856040516020016133129493929190938452602084019290925260601b6001600160601b031916604083015260c01b6001600160c01b0319166054820152605c0190565b60408051601f19818403018152918152815160209283012060008a81526101349093529120600201549091507fbe53bef0e08aa61aa51091a6fa77b4a68c6da179f64097fa01f92beda583eecc9088906001600160a01b03168761337a61ffff8716896158e0565b604080519485526001600160a01b03938416602086015291909216908301526001600160801b031660608201526001600160401b038516608082015260a0810183905260c00160405180910390a16133d183615a45565b92505080806133df90615aa3565b91505061320f565b50600085815261013460205260409020805463ffffffff86169190601190613420908490600160881b90046001600160401b0316615942565b82546101009290920a6001600160401b0381810219909316918316021790915560009687526101346020526040909620805467ffffffffffffffff60481b1916600160481b939097169290920295909517905550505050565b600060026131a6565b6001600160e01b031980821614156134dc5760405162461bcd60e51b815260206004820152601c60248201527f4552433136353a20696e76616c696420696e74657266616365206964000000006044820152606401610bde565b6001600160e01b0319166000908152609760205260409020805460ff19166001179055565b6000816135445760405162461bcd60e51b81526020600482015260116024820152701b9bc81c1c9bdbd9881c1c9bdd9a591959607a1b6044820152606401610bde565b600085815261013460209081526040808320338452600b0190915290205460ff16156135a45760405162461bcd60e51b815260206004820152600f60248201526e185b1c9958591e4818db185a5b5959608a1b6044820152606401610bde565b6000858152610134602052604090206005015461363b61360133876040516001600160601b0319606084901b1660208201526034810182905260009060540160405160208183030381529060405280519060200120905092915050565b8286868080602002602001604051908101604052809392919081815260200183836020028082843760009201919091525061419a92505050565b9695505050505050565b60008481526101346020526040902060038101546001909101546001600160a01b0390911690600160401b90046001600160801b0316816137465783156136ce5760405162461bcd60e51b815260206004820152601b60248201527f63616e6e6f74207370656369667920746f6b656e20616d6f756e7400000000006044820152606401610bde565b6136de8163ffffffff8716615978565b6001600160801b031634146137355760405162461bcd60e51b815260206004820181905260248201527f507572636861736520616d6f756e74206d757374206d617463682070726963656044820152606401610bde565b613741868334866141a7565b612a68565b34156137945760405162461bcd60e51b815260206004820152601960248201527f63616e6e6f7420737065636966792065746820616d6f756e74000000000000006044820152606401610bde565b6137a48163ffffffff8716615978565b6001600160801b031684146137fb5760405162461bcd60e51b815260206004820181905260248201527f507572636861736520616d6f756e74206d757374206d617463682070726963656044820152606401610bde565b6040516323b872dd60e01b8152336004820152306024820152604481018590526001600160a01b038316906323b872dd90606401602060405180830381600087803b15801561384957600080fd5b505af115801561385d573d6000803e3d6000fd5b505050506040513d601f19601f820116820180604052508101906138819190614efb565b50612a68868386866141a7565b6138988787614281565b60008781526101346020908152604090912086516138be92600490920191880190614937565b5083156138db576000878152610134602052604090206005018490555b600087815261013460205260409020805468ffffffffffffffff00191661010063ffffffff8681169190910268ffffffff0000000000191691909117600160281b8583160217909155811615612a6657600087815261013460205260409020600101805467ffffffffffffffff191663ffffffff831617905550505050505050565b600082815261013460205260409020600681018054600160ff1990911617905561012d8054825467ffffffffffffffff60881b1916600160601b918290046001600160401b03908116600160881b0291909117938490558254600160481b909404811693849392600c926139d5928692900416615942565b92506101000a8154816001600160401b0302191690836001600160401b0316021790555061012e6000815480929190613a0d90615ac5565b90915550506000838152610134602052604090819020600281015491517f97660d9bc329402e809d4aabb7261513a7d331d8762d407be7e3316d08d188fd9261194f9287926001600160a01b039092169186918891600490910190615793565b60006120f283836142c1565b816001600160a01b0316836001600160a01b03161415613adb5760405162461bcd60e51b815260206004820152601960248201527f4552433732313a20617070726f766520746f2063616c6c6572000000000000006044820152606401610bde565b6001600160a01b038381166000818152606a6020908152604080832094871680845294825291829020805460ff191686151590811790915591519182527f17307eab39ab6107e8899845ad3d59bd9653f200f220920489ca2b5937696c31910160405180910390a3505050565b613b53848484612fc1565b613b5f848484846142f9565b610e435760405162461bcd60e51b8152600401610bde9061557b565b6000818152610132602090815260408083205483526101349091529020600401805460609190613baa90615a68565b80601f0160208091040260200160405190810160405280929190818152602001828054613bd690615a68565b80156110df5780601f10613bf8576101008083540402835291602001916110df565b820191906000526020600020905b815481529060010190602001808311613c065750939695505050505050565b606081613c495750506040805180820190915260018152600360fc1b602082015290565b8160005b8115613c735780613c5d81615ac5565b9150613c6c9050600a83615964565b9150613c4d565b6000816001600160401b03811115613c9b57634e487b7160e01b600052604160045260246000fd5b6040519080825280601f01601f191660200182016040528015613cc5576020820181803683370190505b5090505b8415612fb957613cda6001836159c6565b9150613ce7600a86615ae0565b613cf290603061590b565b60f81b818381518110613d1557634e487b7160e01b600052603260045260246000fd5b60200101906001600160f81b031916908160001a905350613d37600a86615964565b9450613cc9565b600082516000141580613d515750815115155b15613e57578151835114613da75760405162461bcd60e51b815260206004820152601b60248201527f6d69736d61746368656420726563697069656e747320262042707300000000006044820152606401610bde565b6000805b8351811015613dfb57838181518110613dd457634e487b7160e01b600052603260045260246000fd5b602002602001015182613de79190615923565b915080613df381615ac5565b915050613dab565b506127108163ffffffff161115613e4d5760405162461bcd60e51b81526020600482015260166024820152754665652042707320657863656564206d6178696d756d60501b6044820152606401610bde565b6001915050610cb4565b50600092915050565b6000610cb4825490565b613e7482826120f9565b61161f57613e8c816001600160a01b03166014614403565b613e97836020614403565b604051602001613ea892919061538e565b60408051601f198184030181529082905262461bcd60e51b8252610bde91600401615568565b60006001600160e01b03198216637965db0b60e01b1480610cb45750610cb482612d3a565b600054610100900460ff16613f1a5760405162461bcd60e51b8152600401610bde90615748565b8151613f2d906065906020850190614937565b508051610fef906066906020840190614937565b613f4b82826120f9565b61161f57600082815260c9602090815260408083206001600160a01b03851684529091529020805460ff19166001179055613f833390565b6001600160a01b0316816001600160a01b0316837f2f8788117e7eff1d82e926ec794901d17c78024a50270940304540a733656f0d60405160405180910390a45050565b60006120f2836001600160a01b0384166145e4565b613fe682826120f9565b1561161f57600082815260c9602090815260408083206001600160a01b0385168085529252808320805460ff1916905551339285917ff6391f5c32d9c69d2a47ea670b442974b53935d1edc7fd64eb21e047a839171b9190a45050565b60006120f2836001600160a01b038416614633565b6001600160a01b0382166140ae5760405162461bcd60e51b815260206004820181905260248201527f4552433732313a206d696e7420746f20746865207a65726f20616464726573736044820152606401610bde565b6000818152606760205260409020546001600160a01b0316156141135760405162461bcd60e51b815260206004820152601c60248201527f4552433732313a20746f6b656e20616c7265616479206d696e746564000000006044820152606401610bde565b6001600160a01b038216600090815260686020526040812080546001929061413c90849061590b565b909155505060008181526067602052604080822080546001600160a01b0319166001600160a01b03861690811790915590518392907fddf252ad1be2c89b69c2b068fc378daa952ba7f163c4a11628f55a4df523b3ef908290a45050565b6000612fb9828486614750565b60006141b285610ff4565b905060006141bf86612b71565b90506000805b835181101561425a576000614207878584815181106141f457634e487b7160e01b600052603260045260246000fd5b602002602001015163ffffffff16614766565b9050614213818461590b565b925061424785838151811061423857634e487b7160e01b600052603260045260246000fd5b6020026020010151898361477f565b508061425281615ac5565b9150506141c5565b50600061426782876159c6565b1115612a6657612a66848761427c84896159c6565b61477f565b6001600160a01b0381161561161f5760008281526101346020526040902060030180546001600160a01b0383166001600160a01b03199091161790555050565b60008260000182815481106142e657634e487b7160e01b600052603260045260246000fd5b9060005260206000200154905092915050565b60006001600160a01b0384163b156143fb57604051630a85bd0160e11b81526001600160a01b0385169063150b7a029061433d903390899088908890600401615403565b602060405180830381600087803b15801561435757600080fd5b505af1925050508015614387575060408051601f3d908101601f1916820190925261438491810190614f90565b60015b6143e1573d8080156143b5576040519150601f19603f3d011682016040523d82523d6000602084013e6143ba565b606091505b5080516143d95760405162461bcd60e51b8152600401610bde9061557b565b805181602001fd5b6001600160e01b031916630a85bd0160e11b149050612fb9565b506001612fb9565b606060006144128360026159a7565b61441d90600261590b565b6001600160401b0381111561444257634e487b7160e01b600052604160045260246000fd5b6040519080825280601f01601f19166020018201604052801561446c576020820181803683370190505b509050600360fc1b8160008151811061449557634e487b7160e01b600052603260045260246000fd5b60200101906001600160f81b031916908160001a905350600f60fb1b816001815181106144d257634e487b7160e01b600052603260045260246000fd5b60200101906001600160f81b031916908160001a90535060006144f68460026159a7565b61450190600161590b565b90505b6001811115614595576f181899199a1a9b1b9c1cb0b131b232b360811b85600f166010811061454357634e487b7160e01b600052603260045260246000fd5b1a60f81b82828151811061456757634e487b7160e01b600052603260045260246000fd5b60200101906001600160f81b031916908160001a90535060049490941c9361458e81615a2e565b9050614504565b5083156120f25760405162461bcd60e51b815260206004820181905260248201527f537472696e67733a20686578206c656e67746820696e73756666696369656e746044820152606401610bde565b600081815260018301602052604081205461462b57508154600181810184556000848152602080822090930184905584548482528286019093526040902091909155610cb4565b506000610cb4565b600081815260018301602052604081205480156147465760006146576001836159c6565b855490915060009061466b906001906159c6565b90508181146146ec57600086600001828154811061469957634e487b7160e01b600052603260045260246000fd5b90600052602060002001549050808760000184815481106146ca57634e487b7160e01b600052603260045260246000fd5b6000918252602080832090910192909255918252600188019052604090208390555b855486908061470b57634e487b7160e01b600052603160045260246000fd5b600190038181906000526020600020016000905590558560010160008681526020019081526020016000206000905560019350505050610cb4565b6000915050610cb4565b60008261475d85846148b5565b14949350505050565b600061271061477583856159a7565b6120f29190615964565b6001600160a01b038216156148105760405163a9059cbb60e01b81526001600160a01b0384811660048301526024820183905283169063a9059cbb90604401602060405180830381600087803b1580156147d857600080fd5b505af11580156147ec573d6000803e3d6000fd5b505050506040513d601f19601f82011682018060405250810190610e439190614efb565b6000836001600160a01b031682614e2090604051600060405180830381858888f193505050503d8060008114614862576040519150601f19603f3d011682016040523d82523d6000602084013e614867565b606091505b5050905080610e43576001600160a01b0384166000908152610133602052604090205461489590839061590b565b6001600160a01b0385166000908152610133602052604090205550505050565b600081815b845181101561492f5760008582815181106148e557634e487b7160e01b600052603260045260246000fd5b6020026020010151905080831161490b576000838152602082905260409020925061491c565b600081815260208490526040902092505b508061492781615ac5565b9150506148ba565b509392505050565b82805461494390615a68565b90600052602060002090601f01602090048101928261496557600085556149ab565b82601f1061497e57805160ff19168380011785556149ab565b828001600101855582156149ab579182015b828111156149ab578251825591602001919060010190614990565b506149b7929150614ab6565b5090565b8280548282559060005260206000209081019282156149ab579160200282015b828111156149ab57825182546001600160a01b0319166001600160a01b039091161782556020909201916001909101906149db565b828054828255906000526020600020906007016008900481019282156149ab5791602002820160005b83821115614a7d57835183826101000a81548163ffffffff021916908363ffffffff1602179055509260200192600401602081600301049283019260010302614a39565b8015614aad5782816101000a81549063ffffffff0219169055600401602081600301049283019260010302614a7d565b50506149b79291505b5b808211156149b75760008155600101614ab7565b60006001600160401b03831115614ae457614ae4615b20565b614af7601f8401601f191660200161588d565b9050828152838383011115614b0b57600080fd5b828260208301376000602084830101529392505050565b80356110eb81615b36565b600082601f830112614b3d578081fd5b81356020614b52614b4d836158bd565b61588d565b80838252828201915082860187848660051b8901011115614b71578586fd5b855b85811015614b98578135614b8681615b36565b84529284019290840190600101614b73565b5090979650505050505050565b60008083601f840112614bb6578182fd5b5081356001600160401b03811115614bcc578182fd5b6020830191508360208260051b8501011115614be757600080fd5b9250929050565b600082601f830112614bfe578081fd5b81356020614c0e614b4d836158bd565b80838252828201915082860187848660051b8901011115614c2d578586fd5b855b85811015614b9857614c4082614c88565b84529284019290840190600101614c2f565b600082601f830112614c62578081fd5b6120f283833560208501614acb565b80356001600160801b03811681146110eb57600080fd5b803563ffffffff811681146110eb57600080fd5b80356001600160401b03811681146110eb57600080fd5b600060208284031215614cc4578081fd5b81356120f281615b36565b60008060408385031215614ce1578081fd5b8235614cec81615b36565b91506020830135614cfc81615b36565b809150509250929050565b600080600060608486031215614d1b578081fd5b8335614d2681615b36565b92506020840135614d3681615b36565b929592945050506040919091013590565b60008060008060808587031215614d5c578081fd5b8435614d6781615b36565b93506020850135614d7781615b36565b92506040850135915060608501356001600160401b03811115614d98578182fd5b8501601f81018713614da8578182fd5b614db787823560208401614acb565b91505092959194509250565b60008060408385031215614dd5578182fd5b8235614de081615b36565b91506020830135614cfc81615b4b565b60008060408385031215614e02578182fd5b8235614e0d81615b36565b946020939093013593505050565b6000806000806000806000806000806101408b8d031215614e3a578788fd5b614e438b614b22565b9950614e5160208c01614c9c565b9850614e5f60408c01614c71565b9750614e6d60608c01614b22565b965060808b01356001600160401b0380821115614e88578788fd5b614e948e838f01614c52565b975060a08d0135915080821115614ea9578687fd5b50614eb68d828e01614c52565b95505060c08b01359350614ecc60e08c01614c88565b9250614edb6101008c01614c88565b9150614eea6101208c01614c88565b90509295989b9194979a5092959850565b600060208284031215614f0c578081fd5b81516120f281615b4b565b600060208284031215614f28578081fd5b5035919050565b60008060408385031215614f41578182fd5b823591506020830135614cfc81615b36565b60008060408385031215614f65578182fd5b50508035926020909101359150565b600060208284031215614f85578081fd5b81356120f281615b59565b600060208284031215614fa1578081fd5b81516120f281615b59565b600080600060608486031215614fc0578081fd5b83356001600160401b0380821115614fd6578283fd5b614fe287838801614c52565b94506020860135915080821115614ff7578283fd5b5061500486828701614c52565b925050604084013561501581615b36565b809150509250925092565b600080600080600060a08688031215615037578283fd5b8535945060208601356001600160401b0380821115615054578485fd5b61506089838a01614b2d565b95506040880135915080821115615075578485fd5b61508189838a01614bee565b94506060880135915080821115615096578283fd5b6150a289838a01614b2d565b935060808801359150808211156150b7578283fd5b506150c488828901614bee565b9150509295509295909350565b600080604083850312156150e3578182fd5b8235915060208301356001600160401b038111156150ff578182fd5b61510b85828601614c52565b9150509250929050565b600080600080600080600060e0888a03121561512f578081fd5b8735965061513f60208901614c71565b955061514d60408901614c88565b945061515b60608901614c88565b935061516960808901614c88565b925061517760a08901614c9c565b915060c0880135905092959891949750929550565b6000806040838503121561519e578182fd5b823591506151ae60208401614c88565b90509250929050565b6000806000806000608086880312156151ce578283fd5b853594506151de60208701614c88565b93506040860135925060608601356001600160401b038111156151ff578182fd5b61520b88828901614ba5565b969995985093965092949392505050565b60008060008060008060a08789031215615234578384fd5b8635955061524460208801614c88565b94506040870135935060608701356001600160401b03811115615265578283fd5b61527189828a01614ba5565b909450925050608087013561528581615b36565b809150509295509295509295565b6000806000606084860312156152a7578081fd5b833592506152b760208501614c9c565b91506152c560408501614c9c565b90509250925092565b6000602082840312156152df578081fd5b6120f282614c88565b60008151808452615300816020860160208601615a02565b601f01601f19169290920160200192915050565b6004811061533257634e487b7160e01b600052602160045260246000fd5b9052565b60008351615348818460208801615a02565b8083019050602f60f81b8082528451615368816001850160208901615a02565b6001920191820152693a37b5b2b7173539b7b760b11b6002820152600c01949350505050565b7f416363657373436f6e74726f6c3a206163636f756e74200000000000000000008152600083516153c6816017850160208801615a02565b7001034b99036b4b9b9b4b733903937b6329607d1b60179184019182015283516153f7816028840160208801615a02565b01602801949350505050565b6001600160a01b038581168252841660208201526040810183905260806060820181905260009061363b908301846152e8565b6020808252825182820181905260009190848201906040850190845b818110156154775783516001600160a01b031683529284019291840191600101615452565b50909695505050505050565b6020808252825182820181905260009190848201906040850190845b8181101561547757835163ffffffff168352928401929184019160010161549f565b8c1515815263ffffffff8c811660208301528b1660408201526001600160401b038a811660608301528981166080830152881660a08201526001600160801b03871660c082015260006101806001600160a01b03881660e08401526001600160a01b0387166101008401528061012084015261553f818401876152e8565b91505083610140830152615557610160830184615314565b9d9c50505050505050505050505050565b6020815260006120f260208301846152e8565b60208082526032908201527f4552433732313a207472616e7366657220746f206e6f6e20455243373231526560408201527131b2b4bb32b91034b6b83632b6b2b73a32b960711b606082015260800190565b6020808252602e908201527f496e697469616c697a61626c653a20636f6e747261637420697320616c72656160408201526d191e481a5b9a5d1a585b1a5e995960921b606082015260800190565b602080825260169082015275189b1d595c1c9a5b9d081b9bdd081c1c995c185c995960521b604082015260600190565b60208082526038908201527f757365722063616e6e6f7420627579206d6f7265207468616e206d617850757260408201527f6368617365416d6f756e7420696e2073696e676c652074780000000000000000606082015260800190565b60208082526031908201527f4552433732313a207472616e736665722063616c6c6572206973206e6f74206f6040820152701ddb995c881b9bdc88185c1c1c9bdd9959607a1b606082015260800190565b6020808252602f908201527f70757263686173652063616e6e6f742062652063616c6c65642066726f6d206160408201526e1b9bdd1a195c8818dbdb9d1c9858dd608a1b606082015260800190565b6020808252602b908201527f496e697469616c697a61626c653a20636f6e7472616374206973206e6f74206960408201526a6e697469616c697a696e6760a81b606082015260800190565b8581526000602060018060a01b038716818401526001600160401b038616604084015260a060608401526157ca60a08401866152e8565b838103608085015284548390600181811c90808316806157eb57607f831692505b86831081141561580957634e487b7160e01b88526022600452602488fd5b828652602086019550808015615826576001811461583757615861565b60ff19851687528787019550615861565b60008b815260209020895b8581101561585b57815489820152908401908901615842565b88019650505b50939d9c50505050505050505050505050565b828152604060208201526000612fb960408301846152e8565b604051601f8201601f191681016001600160401b03811182821017156158b5576158b5615b20565b604052919050565b60006001600160401b038211156158d6576158d6615b20565b5060051b60200190565b60006001600160801b0380831681851680830382111561590257615902615af4565b01949350505050565b6000821982111561591e5761591e615af4565b500190565b600063ffffffff80831681851680830382111561590257615902615af4565b60006001600160401b0380831681851680830382111561590257615902615af4565b60008261597357615973615b0a565b500490565b60006001600160801b038083168185168183048111821515161561599e5761599e615af4565b02949350505050565b60008160001904831182151516156159c1576159c1615af4565b500290565b6000828210156159d8576159d8615af4565b500390565b600063ffffffff838116908316818110156159fa576159fa615af4565b039392505050565b60005b83811015615a1d578181015183820152602001615a05565b83811115610e435750506000910152565b600081615a3d57615a3d615af4565b506000190190565b60006001600160401b03821680615a5e57615a5e615af4565b6000190192915050565b600181811c90821680615a7c57607f821691505b60208210811415615a9d57634e487b7160e01b600052602260045260246000fd5b50919050565b600061ffff80831681811415615abb57615abb615af4565b6001019392505050565b6000600019821415615ad957615ad9615af4565b5060010190565b600082615aef57615aef615b0a565b500690565b634e487b7160e01b600052601160045260246000fd5b634e487b7160e01b600052601260045260246000fd5b634e487b7160e01b600052604160045260246000fd5b6001600160a01b0381168114611dae57600080fd5b8015158114611dae57600080fd5b6001600160e01b031981168114611dae57600080fdfe9f2df0fed2c77648de5860a4cc508cd0818c85b8b8a1ab4ceeef8d981c8956a6a264697066735822122004a76374c9a4230c4273e55dde6e54e1d0d54ca0368a2d2babf8ddd21e5f544c64736f6c63430008040033",
  "devdoc": {
    "kind": "dev",
    "methods": {
      "approve(address,uint256)": {
        "details": "See {IERC721-approve}."
      },
      "balanceOf(address)": {
        "details": "See {IERC721-balanceOf}."
      },
      "getApproved(uint256)": {
        "details": "See {IERC721-getApproved}."
      },
      "getRoleAdmin(bytes32)": {
        "details": "Returns the admin role that controls `role`. See {grantRole} and {revokeRole}. To change a role's admin, use {_setRoleAdmin}."
      },
      "getRoleMember(bytes32,uint256)": {
        "details": "Returns one of the accounts that have `role`. `index` must be a value between 0 and {getRoleMemberCount}, non-inclusive. Role bearers are not sorted in any particular way, and their ordering may change at any point. WARNING: When using {getRoleMember} and {getRoleMemberCount}, make sure you perform all queries on the same block. See the following https://forum.openzeppelin.com/t/iterating-over-elements-on-enumerableset-in-openzeppelin-contracts/2296[forum post] for more information."
      },
      "getRoleMemberCount(bytes32)": {
        "details": "Returns the number of accounts that have `role`. Can be used together with {getRoleMember} to enumerate all bearers of a role."
      },
      "grantRole(bytes32,address)": {
        "details": "Grants `role` to `account`. If `account` had not been already granted `role`, emits a {RoleGranted} event. Requirements: - the caller must have ``role``'s admin role."
      },
      "hasRole(bytes32,address)": {
        "details": "Returns `true` if `account` has been granted `role`."
      },
      "name()": {
        "details": "See {IERC721Metadata-name}."
      },
      "ownerOf(uint256)": {
        "details": "See {IERC721-ownerOf}."
      },
      "renounceRole(bytes32,address)": {
        "details": "Revokes `role` from the calling account. Roles are often managed via {grantRole} and {revokeRole}: this function's purpose is to provide a mechanism for accounts to lose their privileges if they are compromised (such as when a trusted device is misplaced). If the calling account had been revoked `role`, emits a {RoleRevoked} event. Requirements: - the caller must be `account`."
      },
      "revokeRole(bytes32,address)": {
        "details": "Revokes `role` from `account`. If `account` had been granted `role`, emits a {RoleRevoked} event. Requirements: - the caller must have ``role``'s admin role."
      },
      "safeTransferFrom(address,address,uint256)": {
        "details": "See {IERC721-safeTransferFrom}."
      },
      "safeTransferFrom(address,address,uint256,bytes)": {
        "details": "See {IERC721-safeTransferFrom}."
      },
      "setApprovalForAll(address,bool)": {
        "details": "See {IERC721-setApprovalForAll}."
      },
      "symbol()": {
        "details": "See {IERC721Metadata-symbol}."
      },
      "tokenURI(uint256)": {
        "details": "See {IERC721Metadata-tokenURI}."
      },
      "transferFrom(address,address,uint256)": {
        "details": "See {IERC721-transferFrom}."
      }
    },
    "version": 1
  },
  "userdoc": {
    "kind": "user",
    "methods": {
      "initialize(string,string,address)": {
        "notice": " Initialize the implementation"
      },
      "isApprovedForAll(address,address)": {
        "notice": "Required function overide //////"
      },
      "updateBlueprintTokenUri(uint256,string)": {
        "notice": "ONLY ADMIN functions ///"
      }
    },
    "version": 1
  },
  "storageLayout": {
    "storage": [
      {
        "astId": 589,
        "contract": "contracts/contracts/BlueprintV11.sol:BlueprintV11",
        "label": "_initialized",
        "offset": 0,
        "slot": "0",
        "type": "t_uint8"
      },
      {
        "astId": 592,
        "contract": "contracts/contracts/BlueprintV11.sol:BlueprintV11",
        "label": "_initializing",
        "offset": 1,
        "slot": "0",
        "type": "t_bool"
      },
      {
        "astId": 2060,
        "contract": "contracts/contracts/BlueprintV11.sol:BlueprintV11",
        "label": "__gap",
        "offset": 0,
        "slot": "1",
        "type": "t_array(t_uint256)50_storage"
      },
      {
        "astId": 2378,
        "contract": "contracts/contracts/BlueprintV11.sol:BlueprintV11",
        "label": "__gap",
        "offset": 0,
        "slot": "51",
        "type": "t_array(t_uint256)50_storage"
      },
      {
        "astId": 753,
        "contract": "contracts/contracts/BlueprintV11.sol:BlueprintV11",
        "label": "_name",
        "offset": 0,
        "slot": "101",
        "type": "t_string_storage"
      },
      {
        "astId": 755,
        "contract": "contracts/contracts/BlueprintV11.sol:BlueprintV11",
        "label": "_symbol",
        "offset": 0,
        "slot": "102",
        "type": "t_string_storage"
      },
      {
        "astId": 759,
        "contract": "contracts/contracts/BlueprintV11.sol:BlueprintV11",
        "label": "_owners",
        "offset": 0,
        "slot": "103",
        "type": "t_mapping(t_uint256,t_address)"
      },
      {
        "astId": 763,
        "contract": "contracts/contracts/BlueprintV11.sol:BlueprintV11",
        "label": "_balances",
        "offset": 0,
        "slot": "104",
        "type": "t_mapping(t_address,t_uint256)"
      },
      {
        "astId": 767,
        "contract": "contracts/contracts/BlueprintV11.sol:BlueprintV11",
        "label": "_tokenApprovals",
        "offset": 0,
        "slot": "105",
        "type": "t_mapping(t_uint256,t_address)"
      },
      {
        "astId": 773,
        "contract": "contracts/contracts/BlueprintV11.sol:BlueprintV11",
        "label": "_operatorApprovals",
        "offset": 0,
        "slot": "106",
        "type": "t_mapping(t_address,t_mapping(t_address,t_bool))"
      },
      {
        "astId": 1614,
        "contract": "contracts/contracts/BlueprintV11.sol:BlueprintV11",
        "label": "__gap",
        "offset": 0,
        "slot": "107",
        "type": "t_array(t_uint256)44_storage"
      },
      {
        "astId": 2290,
        "contract": "contracts/contracts/BlueprintV11.sol:BlueprintV11",
        "label": "_supportedInterfaces",
        "offset": 0,
        "slot": "151",
        "type": "t_mapping(t_bytes4,t_bool)"
      },
      {
        "astId": 2334,
        "contract": "contracts/contracts/BlueprintV11.sol:BlueprintV11",
        "label": "__gap",
        "offset": 0,
        "slot": "152",
        "type": "t_array(t_uint256)49_storage"
      },
      {
        "astId": 184,
        "contract": "contracts/contracts/BlueprintV11.sol:BlueprintV11",
        "label": "_roles",
        "offset": 0,
        "slot": "201",
        "type": "t_mapping(t_bytes32,t_struct(RoleData)179_storage)"
      },
      {
        "astId": 483,
        "contract": "contracts/contracts/BlueprintV11.sol:BlueprintV11",
        "label": "__gap",
        "offset": 0,
        "slot": "202",
        "type": "t_array(t_uint256)49_storage"
      },
      {
        "astId": 33,
        "contract": "contracts/contracts/BlueprintV11.sol:BlueprintV11",
        "label": "_roleMembers",
        "offset": 0,
        "slot": "251",
        "type": "t_mapping(t_bytes32,t_struct(AddressSet)2703_storage)"
      },
      {
        "astId": 143,
        "contract": "contracts/contracts/BlueprintV11.sol:BlueprintV11",
        "label": "__gap",
        "offset": 0,
        "slot": "252",
        "type": "t_array(t_uint256)49_storage"
      },
      {
        "astId": 6795,
        "contract": "contracts/contracts/BlueprintV11.sol:BlueprintV11",
        "label": "defaultPlatformPrimaryFeePercentage",
        "offset": 0,
        "slot": "301",
        "type": "t_uint32"
      },
      {
        "astId": 6797,
        "contract": "contracts/contracts/BlueprintV11.sol:BlueprintV11",
        "label": "defaultBlueprintSecondarySalePercentage",
        "offset": 4,
        "slot": "301",
        "type": "t_uint32"
      },
      {
        "astId": 6799,
        "contract": "contracts/contracts/BlueprintV11.sol:BlueprintV11",
        "label": "defaultPlatformSecondarySalePercentage",
        "offset": 8,
        "slot": "301",
        "type": "t_uint32"
      },
      {
        "astId": 6801,
        "contract": "contracts/contracts/BlueprintV11.sol:BlueprintV11",
        "label": "latestErc721TokenIndex",
        "offset": 12,
        "slot": "301",
        "type": "t_uint64"
      },
      {
        "astId": 6803,
        "contract": "contracts/contracts/BlueprintV11.sol:BlueprintV11",
        "label": "blueprintIndex",
        "offset": 0,
        "slot": "302",
        "type": "t_uint256"
      },
      {
        "astId": 6805,
        "contract": "contracts/contracts/BlueprintV11.sol:BlueprintV11",
        "label": "asyncSaleFeesRecipient",
        "offset": 0,
        "slot": "303",
        "type": "t_address"
      },
      {
        "astId": 6807,
        "contract": "contracts/contracts/BlueprintV11.sol:BlueprintV11",
        "label": "platform",
        "offset": 0,
        "slot": "304",
        "type": "t_address"
      },
      {
        "astId": 6809,
        "contract": "contracts/contracts/BlueprintV11.sol:BlueprintV11",
        "label": "minterAddress",
        "offset": 0,
        "slot": "305",
        "type": "t_address"
      },
      {
        "astId": 6813,
        "contract": "contracts/contracts/BlueprintV11.sol:BlueprintV11",
        "label": "tokenToBlueprintID",
        "offset": 0,
        "slot": "306",
        "type": "t_mapping(t_uint256,t_uint256)"
      },
      {
        "astId": 6817,
        "contract": "contracts/contracts/BlueprintV11.sol:BlueprintV11",
        "label": "failedTransferCredits",
        "offset": 0,
        "slot": "307",
        "type": "t_mapping(t_address,t_uint256)"
      },
      {
        "astId": 6822,
        "contract": "contracts/contracts/BlueprintV11.sol:BlueprintV11",
        "label": "blueprints",
        "offset": 0,
        "slot": "308",
        "type": "t_mapping(t_uint256,t_struct(Blueprints)6874_storage)"
      }
    ],
    "types": {
      "t_address": {
        "encoding": "inplace",
        "label": "address",
        "numberOfBytes": "20"
      },
      "t_array(t_address)dyn_storage": {
        "base": "t_address",
        "encoding": "dynamic_array",
        "label": "address[]",
        "numberOfBytes": "32"
      },
      "t_array(t_bytes32)dyn_storage": {
        "base": "t_bytes32",
        "encoding": "dynamic_array",
        "label": "bytes32[]",
        "numberOfBytes": "32"
      },
      "t_array(t_uint256)44_storage": {
        "base": "t_uint256",
        "encoding": "inplace",
        "label": "uint256[44]",
        "numberOfBytes": "1408"
      },
      "t_array(t_uint256)49_storage": {
        "base": "t_uint256",
        "encoding": "inplace",
        "label": "uint256[49]",
        "numberOfBytes": "1568"
      },
      "t_array(t_uint256)50_storage": {
        "base": "t_uint256",
        "encoding": "inplace",
        "label": "uint256[50]",
        "numberOfBytes": "1600"
      },
      "t_array(t_uint32)dyn_storage": {
        "base": "t_uint32",
        "encoding": "dynamic_array",
        "label": "uint32[]",
        "numberOfBytes": "32"
      },
      "t_bool": {
        "encoding": "inplace",
        "label": "bool",
        "numberOfBytes": "1"
      },
      "t_bytes32": {
        "encoding": "inplace",
        "label": "bytes32",
        "numberOfBytes": "32"
      },
      "t_bytes4": {
        "encoding": "inplace",
        "label": "bytes4",
        "numberOfBytes": "4"
      },
      "t_enum(SaleState)6832": {
        "encoding": "inplace",
        "label": "enum BlueprintV11.SaleState",
        "numberOfBytes": "1"
      },
      "t_mapping(t_address,t_bool)": {
        "encoding": "mapping",
        "key": "t_address",
        "label": "mapping(address => bool)",
        "numberOfBytes": "32",
        "value": "t_bool"
      },
      "t_mapping(t_address,t_mapping(t_address,t_bool))": {
        "encoding": "mapping",
        "key": "t_address",
        "label": "mapping(address => mapping(address => bool))",
        "numberOfBytes": "32",
        "value": "t_mapping(t_address,t_bool)"
      },
      "t_mapping(t_address,t_uint256)": {
        "encoding": "mapping",
        "key": "t_address",
        "label": "mapping(address => uint256)",
        "numberOfBytes": "32",
        "value": "t_uint256"
      },
      "t_mapping(t_bytes32,t_struct(AddressSet)2703_storage)": {
        "encoding": "mapping",
        "key": "t_bytes32",
        "label": "mapping(bytes32 => struct EnumerableSetUpgradeable.AddressSet)",
        "numberOfBytes": "32",
        "value": "t_struct(AddressSet)2703_storage"
      },
      "t_mapping(t_bytes32,t_struct(RoleData)179_storage)": {
        "encoding": "mapping",
        "key": "t_bytes32",
        "label": "mapping(bytes32 => struct AccessControlUpgradeable.RoleData)",
        "numberOfBytes": "32",
        "value": "t_struct(RoleData)179_storage"
      },
      "t_mapping(t_bytes32,t_uint256)": {
        "encoding": "mapping",
        "key": "t_bytes32",
        "label": "mapping(bytes32 => uint256)",
        "numberOfBytes": "32",
        "value": "t_uint256"
      },
      "t_mapping(t_bytes4,t_bool)": {
        "encoding": "mapping",
        "key": "t_bytes4",
        "label": "mapping(bytes4 => bool)",
        "numberOfBytes": "32",
        "value": "t_bool"
      },
      "t_mapping(t_uint256,t_address)": {
        "encoding": "mapping",
        "key": "t_uint256",
        "label": "mapping(uint256 => address)",
        "numberOfBytes": "32",
        "value": "t_address"
      },
      "t_mapping(t_uint256,t_struct(Blueprints)6874_storage)": {
        "encoding": "mapping",
        "key": "t_uint256",
        "label": "mapping(uint256 => struct BlueprintV11.Blueprints)",
        "numberOfBytes": "32",
        "value": "t_struct(Blueprints)6874_storage"
      },
      "t_mapping(t_uint256,t_uint256)": {
        "encoding": "mapping",
        "key": "t_uint256",
        "label": "mapping(uint256 => uint256)",
        "numberOfBytes": "32",
        "value": "t_uint256"
      },
      "t_string_storage": {
        "encoding": "bytes",
        "label": "string",
        "numberOfBytes": "32"
      },
      "t_struct(AddressSet)2703_storage": {
        "encoding": "inplace",
        "label": "struct EnumerableSetUpgradeable.AddressSet",
        "members": [
          {
            "astId": 2702,
            "contract": "contracts/contracts/BlueprintV11.sol:BlueprintV11",
            "label": "_inner",
            "offset": 0,
            "slot": "0",
            "type": "t_struct(Set)2402_storage"
          }
        ],
        "numberOfBytes": "64"
      },
      "t_struct(Blueprints)6874_storage": {
        "encoding": "inplace",
        "label": "struct BlueprintV11.Blueprints",
        "members": [
          {
            "astId": 6834,
            "contract": "contracts/contracts/BlueprintV11.sol:BlueprintV11",
            "label": "tokenUriLocked",
            "offset": 0,
            "slot": "0",
            "type": "t_bool"
          },
          {
            "astId": 6836,
            "contract": "contracts/contracts/BlueprintV11.sol:BlueprintV11",
            "label": "mintAmountArtist",
            "offset": 1,
            "slot": "0",
            "type": "t_uint32"
          },
          {
            "astId": 6838,
            "contract": "contracts/contracts/BlueprintV11.sol:BlueprintV11",
            "label": "mintAmountPlatform",
            "offset": 5,
            "slot": "0",
            "type": "t_uint32"
          },
          {
            "astId": 6840,
            "contract": "contracts/contracts/BlueprintV11.sol:BlueprintV11",
            "label": "capacity",
            "offset": 9,
            "slot": "0",
            "type": "t_uint64"
          },
          {
            "astId": 6842,
            "contract": "contracts/contracts/BlueprintV11.sol:BlueprintV11",
            "label": "erc721TokenIndex",
            "offset": 17,
            "slot": "0",
            "type": "t_uint64"
          },
          {
            "astId": 6844,
            "contract": "contracts/contracts/BlueprintV11.sol:BlueprintV11",
            "label": "maxPurchaseAmount",
            "offset": 0,
            "slot": "1",
            "type": "t_uint64"
          },
          {
            "astId": 6846,
            "contract": "contracts/contracts/BlueprintV11.sol:BlueprintV11",
            "label": "price",
            "offset": 8,
            "slot": "1",
            "type": "t_uint128"
          },
          {
            "astId": 6848,
            "contract": "contracts/contracts/BlueprintV11.sol:BlueprintV11",
            "label": "artist",
            "offset": 0,
            "slot": "2",
            "type": "t_address"
          },
          {
            "astId": 6850,
            "contract": "contracts/contracts/BlueprintV11.sol:BlueprintV11",
            "label": "ERC20Token",
            "offset": 0,
            "slot": "3",
            "type": "t_address"
          },
          {
            "astId": 6852,
            "contract": "contracts/contracts/BlueprintV11.sol:BlueprintV11",
            "label": "baseTokenUri",
            "offset": 0,
            "slot": "4",
            "type": "t_string_storage"
          },
          {
            "astId": 6854,
            "contract": "contracts/contracts/BlueprintV11.sol:BlueprintV11",
            "label": "merkleroot",
            "offset": 0,
            "slot": "5",
            "type": "t_bytes32"
          },
          {
            "astId": 6857,
            "contract": "contracts/contracts/BlueprintV11.sol:BlueprintV11",
            "label": "saleState",
            "offset": 0,
            "slot": "6",
            "type": "t_enum(SaleState)6832"
          },
          {
            "astId": 6860,
            "contract": "contracts/contracts/BlueprintV11.sol:BlueprintV11",
            "label": "primaryFeeBPS",
            "offset": 0,
            "slot": "7",
            "type": "t_array(t_uint32)dyn_storage"
          },
          {
            "astId": 6863,
            "contract": "contracts/contracts/BlueprintV11.sol:BlueprintV11",
            "label": "secondaryFeeBPS",
            "offset": 0,
            "slot": "8",
            "type": "t_array(t_uint32)dyn_storage"
          },
          {
            "astId": 6866,
            "contract": "contracts/contracts/BlueprintV11.sol:BlueprintV11",
            "label": "primaryFeeRecipients",
            "offset": 0,
            "slot": "9",
            "type": "t_array(t_address)dyn_storage"
          },
          {
            "astId": 6869,
            "contract": "contracts/contracts/BlueprintV11.sol:BlueprintV11",
            "label": "secondaryFeeRecipients",
            "offset": 0,
            "slot": "10",
            "type": "t_array(t_address)dyn_storage"
          },
          {
            "astId": 6873,
            "contract": "contracts/contracts/BlueprintV11.sol:BlueprintV11",
            "label": "claimedWhitelistedPieces",
            "offset": 0,
            "slot": "11",
            "type": "t_mapping(t_address,t_bool)"
          }
        ],
        "numberOfBytes": "384"
      },
      "t_struct(RoleData)179_storage": {
        "encoding": "inplace",
        "label": "struct AccessControlUpgradeable.RoleData",
        "members": [
          {
            "astId": 176,
            "contract": "contracts/contracts/BlueprintV11.sol:BlueprintV11",
            "label": "members",
            "offset": 0,
            "slot": "0",
            "type": "t_mapping(t_address,t_bool)"
          },
          {
            "astId": 178,
            "contract": "contracts/contracts/BlueprintV11.sol:BlueprintV11",
            "label": "adminRole",
            "offset": 0,
            "slot": "1",
            "type": "t_bytes32"
          }
        ],
        "numberOfBytes": "64"
      },
      "t_struct(Set)2402_storage": {
        "encoding": "inplace",
        "label": "struct EnumerableSetUpgradeable.Set",
        "members": [
          {
            "astId": 2397,
            "contract": "contracts/contracts/BlueprintV11.sol:BlueprintV11",
            "label": "_values",
            "offset": 0,
            "slot": "0",
            "type": "t_array(t_bytes32)dyn_storage"
          },
          {
            "astId": 2401,
            "contract": "contracts/contracts/BlueprintV11.sol:BlueprintV11",
            "label": "_indexes",
            "offset": 0,
            "slot": "1",
            "type": "t_mapping(t_bytes32,t_uint256)"
          }
        ],
        "numberOfBytes": "64"
      },
      "t_uint128": {
        "encoding": "inplace",
        "label": "uint128",
        "numberOfBytes": "16"
      },
      "t_uint256": {
        "encoding": "inplace",
        "label": "uint256",
        "numberOfBytes": "32"
      },
      "t_uint32": {
        "encoding": "inplace",
        "label": "uint32",
        "numberOfBytes": "4"
      },
      "t_uint64": {
        "encoding": "inplace",
        "label": "uint64",
        "numberOfBytes": "8"
      },
      "t_uint8": {
        "encoding": "inplace",
        "label": "uint8",
        "numberOfBytes": "1"
      }
    }
  }
}