{
  "address": "0x0B22cfA34BC6E839184389351813c8EB5A076bfb",
  "abi": [
    {
      "anonymous": false,
      "inputs": [
        {
          "indexed": true,
          "internalType": "address",
          "name": "owner",
          "type": "address"
        },
        {
          "indexed": true,
          "internalType": "address",
          "name": "approved",
          "type": "address"
        },
        {
          "indexed": true,
          "internalType": "uint256",
          "name": "tokenId",
          "type": "uint256"
        }
      ],
      "name": "Approval",
      "type": "event"
    },
    {
      "anonymous": false,
      "inputs": [
        {
          "indexed": true,
          "internalType": "address",
          "name": "owner",
          "type": "address"
        },
        {
          "indexed": true,
          "internalType": "address",
          "name": "operator",
          "type": "address"
        },
        {
          "indexed": false,
          "internalType": "bool",
          "name": "approved",
          "type": "bool"
        }
      ],
      "name": "ApprovalForAll",
      "type": "event"
    },
    {
      "anonymous": false,
      "inputs": [
        {
          "indexed": false,
          "internalType": "uint256",
          "name": "blueprintID",
          "type": "uint256"
        },
        {
          "indexed": false,
          "internalType": "address",
          "name": "artist",
          "type": "address"
        },
        {
          "indexed": false,
          "internalType": "address",
          "name": "purchaser",
          "type": "address"
        },
        {
          "indexed": false,
          "internalType": "uint128",
          "name": "tokenId",
          "type": "uint128"
        },
        {
          "indexed": false,
          "internalType": "uint64",
          "name": "newCapacity",
          "type": "uint64"
        },
        {
          "indexed": false,
          "internalType": "bytes32",
          "name": "seedPrefix",
          "type": "bytes32"
        }
      ],
      "name": "BlueprintMinted",
      "type": "event"
    },
    {
      "anonymous": false,
      "inputs": [
        {
          "indexed": false,
          "internalType": "uint256",
          "name": "blueprintID",
          "type": "uint256"
        },
        {
          "indexed": false,
          "internalType": "address",
          "name": "artist",
          "type": "address"
        },
        {
          "indexed": false,
          "internalType": "uint64",
          "name": "capacity",
          "type": "uint64"
        },
        {
          "indexed": false,
          "internalType": "string",
          "name": "blueprintMetaData",
          "type": "string"
        },
        {
          "indexed": false,
          "internalType": "string",
          "name": "baseTokenUri",
          "type": "string"
        }
      ],
      "name": "BlueprintPrepared",
      "type": "event"
    },
    {
      "anonymous": false,
      "inputs": [
        {
          "indexed": false,
          "internalType": "uint256",
          "name": "blueprintID",
          "type": "uint256"
        },
        {
          "indexed": false,
          "internalType": "string",
          "name": "randomSeed",
          "type": "string"
        }
      ],
      "name": "BlueprintSeed",
      "type": "event"
    },
    {
      "anonymous": false,
      "inputs": [
        {
          "indexed": false,
          "internalType": "uint256",
          "name": "blueprintID",
          "type": "uint256"
        },
        {
          "indexed": false,
          "internalType": "uint128",
          "name": "price",
          "type": "uint128"
        },
        {
          "indexed": false,
          "internalType": "uint32",
          "name": "newMintAmountArtist",
          "type": "uint32"
        },
        {
          "indexed": false,
          "internalType": "uint32",
          "name": "newMintAmountPlatform",
          "type": "uint32"
        },
        {
          "indexed": false,
          "internalType": "uint32",
          "name": "newSaleState",
          "type": "uint32"
        },
        {
          "indexed": false,
          "internalType": "bytes32",
          "name": "newMerkleRoot",
          "type": "bytes32"
        }
      ],
      "name": "BlueprintSettingsUpdated",
      "type": "event"
    },
    {
      "anonymous": false,
      "inputs": [
        {
          "indexed": false,
          "internalType": "uint256",
          "name": "blueprintID",
          "type": "uint256"
        },
        {
          "indexed": false,
          "internalType": "string",
          "name": "newBaseTokenUri",
          "type": "string"
        }
      ],
      "name": "BlueprintTokenUriUpdated",
      "type": "event"
    },
    {
      "anonymous": false,
      "inputs": [
        {
          "indexed": true,
          "internalType": "bytes32",
          "name": "role",
          "type": "bytes32"
        },
        {
          "indexed": true,
          "internalType": "bytes32",
          "name": "previousAdminRole",
          "type": "bytes32"
        },
        {
          "indexed": true,
          "internalType": "bytes32",
          "name": "newAdminRole",
          "type": "bytes32"
        }
      ],
      "name": "RoleAdminChanged",
      "type": "event"
    },
    {
      "anonymous": false,
      "inputs": [
        {
          "indexed": true,
          "internalType": "bytes32",
          "name": "role",
          "type": "bytes32"
        },
        {
          "indexed": true,
          "internalType": "address",
          "name": "account",
          "type": "address"
        },
        {
          "indexed": true,
          "internalType": "address",
          "name": "sender",
          "type": "address"
        }
      ],
      "name": "RoleGranted",
      "type": "event"
    },
    {
      "anonymous": false,
      "inputs": [
        {
          "indexed": true,
          "internalType": "bytes32",
          "name": "role",
          "type": "bytes32"
        },
        {
          "indexed": true,
          "internalType": "address",
          "name": "account",
          "type": "address"
        },
        {
          "indexed": true,
          "internalType": "address",
          "name": "sender",
          "type": "address"
        }
      ],
      "name": "RoleRevoked",
      "type": "event"
    },
    {
      "anonymous": false,
      "inputs": [
        {
          "indexed": false,
          "internalType": "uint256",
          "name": "blueprintID",
          "type": "uint256"
        }
      ],
      "name": "SalePaused",
      "type": "event"
    },
    {
      "anonymous": false,
      "inputs": [
        {
          "indexed": false,
          "internalType": "uint256",
          "name": "blueprintID",
          "type": "uint256"
        }
      ],
      "name": "SaleStarted",
      "type": "event"
    },
    {
      "anonymous": false,
      "inputs": [
        {
          "indexed": false,
          "internalType": "uint256",
          "name": "blueprintID",
          "type": "uint256"
        }
      ],
      "name": "SaleUnpaused",
      "type": "event"
    },
    {
      "anonymous": false,
      "inputs": [
        {
          "indexed": false,
          "internalType": "uint256",
          "name": "tokenId",
          "type": "uint256"
        },
        {
          "indexed": false,
          "internalType": "address[]",
          "name": "recipients",
          "type": "address[]"
        },
        {
          "indexed": false,
          "internalType": "uint256[]",
          "name": "bps",
          "type": "uint256[]"
        }
      ],
      "name": "SecondarySaleFees",
      "type": "event"
    },
    {
      "anonymous": false,
      "inputs": [
        {
          "indexed": true,
          "internalType": "address",
          "name": "from",
          "type": "address"
        },
        {
          "indexed": true,
          "internalType": "address",
          "name": "to",
          "type": "address"
        },
        {
          "indexed": true,
          "internalType": "uint256",
          "name": "tokenId",
          "type": "uint256"
        }
      ],
      "name": "Transfer",
      "type": "event"
    },
    {
      "inputs": [],
      "name": "DEFAULT_ADMIN_ROLE",
      "outputs": [
        {
          "internalType": "bytes32",
          "name": "",
          "type": "bytes32"
        }
      ],
      "stateMutability": "view",
      "type": "function"
    },
    {
      "inputs": [],
      "name": "MINTER_ROLE",
      "outputs": [
        {
          "internalType": "bytes32",
          "name": "",
          "type": "bytes32"
        }
      ],
      "stateMutability": "view",
      "type": "function"
    },
    {
      "inputs": [],
      "name": "_initialize",
      "outputs": [],
      "stateMutability": "nonpayable",
      "type": "function"
    },
    {
      "inputs": [
        {
          "internalType": "address",
          "name": "to",
          "type": "address"
        },
        {
          "internalType": "uint256",
          "name": "tokenId",
          "type": "uint256"
        }
      ],
      "name": "approve",
      "outputs": [],
      "stateMutability": "nonpayable",
      "type": "function"
    },
    {
      "inputs": [],
      "name": "asyncSaleFeesRecipient",
      "outputs": [
        {
          "internalType": "address",
          "name": "",
          "type": "address"
        }
      ],
      "stateMutability": "view",
      "type": "function"
    },
    {
      "inputs": [
        {
          "internalType": "address",
          "name": "owner",
          "type": "address"
        }
      ],
      "name": "balanceOf",
      "outputs": [
        {
          "internalType": "uint256",
          "name": "",
          "type": "uint256"
        }
      ],
      "stateMutability": "view",
      "type": "function"
    },
    {
      "inputs": [
        {
          "internalType": "uint256",
          "name": "blueprintID",
          "type": "uint256"
        }
      ],
      "name": "beginSale",
      "outputs": [],
      "stateMutability": "nonpayable",
      "type": "function"
    },
    {
      "inputs": [],
      "name": "blueprintIndex",
      "outputs": [
        {
          "internalType": "uint256",
          "name": "",
          "type": "uint256"
        }
      ],
      "stateMutability": "view",
      "type": "function"
    },
    {
      "inputs": [
        {
          "internalType": "uint256",
          "name": "",
          "type": "uint256"
        }
      ],
      "name": "blueprints",
      "outputs": [
        {
          "internalType": "bool",
          "name": "tokenUriLocked",
          "type": "bool"
        },
        {
          "internalType": "uint32",
          "name": "mintAmountArtist",
          "type": "uint32"
        },
        {
          "internalType": "uint32",
          "name": "mintAmountPlatform",
          "type": "uint32"
        },
        {
          "internalType": "uint64",
          "name": "capacity",
          "type": "uint64"
        },
        {
          "internalType": "uint64",
          "name": "erc721TokenIndex",
          "type": "uint64"
        },
        {
          "internalType": "uint64",
          "name": "maxPurchaseAmount",
          "type": "uint64"
        },
        {
          "internalType": "uint128",
          "name": "price",
          "type": "uint128"
        },
        {
          "internalType": "address",
          "name": "artist",
          "type": "address"
        },
        {
          "internalType": "address",
          "name": "ERC20Token",
          "type": "address"
        },
        {
          "internalType": "string",
          "name": "baseTokenUri",
          "type": "string"
        },
        {
          "internalType": "bytes32",
          "name": "merkleroot",
          "type": "bytes32"
        },
        {
          "internalType": "enum BlueprintV6.SaleState",
          "name": "saleState",
          "type": "uint8"
        }
      ],
      "stateMutability": "view",
      "type": "function"
    },
    {
      "inputs": [
        {
          "internalType": "uint32",
          "name": "_basisPoints",
          "type": "uint32"
        }
      ],
      "name": "changeDefaultBlueprintSecondarySalePercentage",
      "outputs": [],
      "stateMutability": "nonpayable",
      "type": "function"
    },
    {
      "inputs": [
        {
          "internalType": "uint32",
          "name": "_basisPoints",
          "type": "uint32"
        }
      ],
      "name": "changeDefaultPlatformPrimaryFeePercentage",
      "outputs": [],
      "stateMutability": "nonpayable",
      "type": "function"
    },
    {
      "inputs": [
        {
          "internalType": "uint32",
          "name": "_basisPoints",
          "type": "uint32"
        }
      ],
      "name": "changeDefaultPlatformSecondarySalePercentage",
      "outputs": [],
      "stateMutability": "nonpayable",
      "type": "function"
    },
    {
      "inputs": [],
      "name": "defaultBlueprintSecondarySalePercentage",
      "outputs": [
        {
          "internalType": "uint32",
          "name": "",
          "type": "uint32"
        }
      ],
      "stateMutability": "view",
      "type": "function"
    },
    {
      "inputs": [],
      "name": "defaultPlatformPrimaryFeePercentage",
      "outputs": [
        {
          "internalType": "uint32",
          "name": "",
          "type": "uint32"
        }
      ],
      "stateMutability": "view",
      "type": "function"
    },
    {
      "inputs": [],
      "name": "defaultPlatformSecondarySalePercentage",
      "outputs": [
        {
          "internalType": "uint32",
          "name": "",
          "type": "uint32"
        }
      ],
      "stateMutability": "view",
      "type": "function"
    },
    {
      "inputs": [
        {
          "internalType": "uint256",
          "name": "tokenId",
          "type": "uint256"
        }
      ],
      "name": "getApproved",
      "outputs": [
        {
          "internalType": "address",
          "name": "",
          "type": "address"
        }
      ],
      "stateMutability": "view",
      "type": "function"
    },
    {
      "inputs": [
        {
          "internalType": "uint256",
          "name": "id",
          "type": "uint256"
        }
      ],
      "name": "getFeeBps",
      "outputs": [
        {
          "internalType": "uint32[]",
          "name": "",
          "type": "uint32[]"
        }
      ],
      "stateMutability": "view",
      "type": "function"
    },
    {
      "inputs": [
        {
          "internalType": "uint256",
          "name": "id",
          "type": "uint256"
        }
      ],
      "name": "getFeeRecipients",
      "outputs": [
        {
          "internalType": "address[]",
          "name": "",
          "type": "address[]"
        }
      ],
      "stateMutability": "view",
      "type": "function"
    },
    {
      "inputs": [
        {
          "internalType": "uint256",
          "name": "id",
          "type": "uint256"
        }
      ],
      "name": "getPrimaryFeeBps",
      "outputs": [
        {
          "internalType": "uint32[]",
          "name": "",
          "type": "uint32[]"
        }
      ],
      "stateMutability": "view",
      "type": "function"
    },
    {
      "inputs": [
        {
          "internalType": "uint256",
          "name": "id",
          "type": "uint256"
        }
      ],
      "name": "getPrimaryFeeRecipients",
      "outputs": [
        {
          "internalType": "address[]",
          "name": "",
          "type": "address[]"
        }
      ],
      "stateMutability": "view",
      "type": "function"
    },
    {
      "inputs": [
        {
          "internalType": "bytes32",
          "name": "role",
          "type": "bytes32"
        }
      ],
      "name": "getRoleAdmin",
      "outputs": [
        {
          "internalType": "bytes32",
          "name": "",
          "type": "bytes32"
        }
      ],
      "stateMutability": "view",
      "type": "function"
    },
    {
      "inputs": [
        {
          "internalType": "bytes32",
          "name": "role",
          "type": "bytes32"
        },
        {
          "internalType": "uint256",
          "name": "index",
          "type": "uint256"
        }
      ],
      "name": "getRoleMember",
      "outputs": [
        {
          "internalType": "address",
          "name": "",
          "type": "address"
        }
      ],
      "stateMutability": "view",
      "type": "function"
    },
    {
      "inputs": [
        {
          "internalType": "bytes32",
          "name": "role",
          "type": "bytes32"
        }
      ],
      "name": "getRoleMemberCount",
      "outputs": [
        {
          "internalType": "uint256",
          "name": "",
          "type": "uint256"
        }
      ],
      "stateMutability": "view",
      "type": "function"
    },
    {
      "inputs": [
        {
          "internalType": "bytes32",
          "name": "role",
          "type": "bytes32"
        },
        {
          "internalType": "address",
          "name": "account",
          "type": "address"
        }
      ],
      "name": "grantRole",
      "outputs": [],
      "stateMutability": "nonpayable",
      "type": "function"
    },
    {
      "inputs": [
        {
          "internalType": "bytes32",
          "name": "role",
          "type": "bytes32"
        },
        {
          "internalType": "address",
          "name": "account",
          "type": "address"
        }
      ],
      "name": "hasRole",
      "outputs": [
        {
          "internalType": "bool",
          "name": "",
          "type": "bool"
        }
      ],
      "stateMutability": "view",
      "type": "function"
    },
    {
      "inputs": [
        {
          "internalType": "string",
          "name": "name_",
          "type": "string"
        },
        {
          "internalType": "string",
          "name": "symbol_",
          "type": "string"
        },
        {
          "internalType": "address",
          "name": "minter",
          "type": "address"
        }
      ],
      "name": "initialize",
      "outputs": [],
      "stateMutability": "nonpayable",
      "type": "function"
    },
    {
      "inputs": [
        {
          "internalType": "address",
          "name": "account",
          "type": "address"
        },
        {
          "internalType": "address",
          "name": "operator",
          "type": "address"
        }
      ],
      "name": "isApprovedForAll",
      "outputs": [
        {
          "internalType": "bool",
          "name": "",
          "type": "bool"
        }
      ],
      "stateMutability": "view",
      "type": "function"
    },
    {
      "inputs": [],
      "name": "latestErc721TokenIndex",
      "outputs": [
        {
          "internalType": "uint64",
          "name": "",
          "type": "uint64"
        }
      ],
      "stateMutability": "view",
      "type": "function"
    },
    {
      "inputs": [
        {
          "internalType": "uint256",
          "name": "blueprintID",
          "type": "uint256"
        }
      ],
      "name": "lockBlueprintTokenUri",
      "outputs": [],
      "stateMutability": "nonpayable",
      "type": "function"
    },
    {
      "inputs": [],
      "name": "minterAddress",
      "outputs": [
        {
          "internalType": "address",
          "name": "",
          "type": "address"
        }
      ],
      "stateMutability": "view",
      "type": "function"
    },
    {
      "inputs": [],
      "name": "name",
      "outputs": [
        {
          "internalType": "string",
          "name": "",
          "type": "string"
        }
      ],
      "stateMutability": "view",
      "type": "function"
    },
    {
      "inputs": [
        {
          "internalType": "uint256",
          "name": "tokenId",
          "type": "uint256"
        }
      ],
      "name": "ownerOf",
      "outputs": [
        {
          "internalType": "address",
          "name": "",
          "type": "address"
        }
      ],
      "stateMutability": "view",
      "type": "function"
    },
    {
      "inputs": [
        {
          "internalType": "uint256",
          "name": "blueprintID",
          "type": "uint256"
        }
      ],
      "name": "pauseSale",
      "outputs": [],
      "stateMutability": "nonpayable",
      "type": "function"
    },
    {
      "inputs": [],
      "name": "platform",
      "outputs": [
        {
          "internalType": "address",
          "name": "",
          "type": "address"
        }
      ],
      "stateMutability": "view",
      "type": "function"
    },
    {
      "inputs": [
        {
          "internalType": "uint256",
          "name": "blueprintID",
          "type": "uint256"
        },
        {
          "internalType": "uint32",
          "name": "quantity",
          "type": "uint32"
        }
      ],
      "name": "preSaleMint",
      "outputs": [],
      "stateMutability": "nonpayable",
      "type": "function"
    },
    {
      "inputs": [
        {
          "internalType": "address",
          "name": "_artist",
          "type": "address"
        },
        {
          "internalType": "uint64",
          "name": "_capacity",
          "type": "uint64"
        },
        {
          "internalType": "uint128",
          "name": "_price",
          "type": "uint128"
        },
        {
          "internalType": "address",
          "name": "_erc20Token",
          "type": "address"
        },
        {
          "internalType": "string",
          "name": "_blueprintMetaData",
          "type": "string"
        },
        {
          "internalType": "string",
          "name": "_baseTokenUri",
          "type": "string"
        },
        {
          "internalType": "bytes32",
          "name": "_merkleroot",
          "type": "bytes32"
        },
        {
          "internalType": "uint32",
          "name": "_mintAmountArtist",
          "type": "uint32"
        },
        {
          "internalType": "uint32",
          "name": "_mintAmountPlatform",
          "type": "uint32"
        },
        {
          "internalType": "uint32",
          "name": "_maxPurchaseAmount",
          "type": "uint32"
        }
      ],
      "name": "prepareBlueprint",
      "outputs": [],
      "stateMutability": "nonpayable",
      "type": "function"
    },
    {
      "inputs": [
        {
          "internalType": "uint256",
          "name": "blueprintID",
          "type": "uint256"
        },
        {
          "internalType": "uint32",
          "name": "quantity",
          "type": "uint32"
        },
        {
          "internalType": "uint256",
          "name": "tokenAmount",
          "type": "uint256"
        },
        {
          "internalType": "bytes32[]",
          "name": "proof",
          "type": "bytes32[]"
        }
      ],
      "name": "purchaseBlueprints",
      "outputs": [],
      "stateMutability": "payable",
      "type": "function"
    },
    {
      "inputs": [
        {
          "internalType": "uint256",
          "name": "blueprintID",
          "type": "uint256"
        },
        {
          "internalType": "uint32",
          "name": "quantity",
          "type": "uint32"
        },
        {
          "internalType": "uint256",
          "name": "tokenAmount",
          "type": "uint256"
        },
        {
          "internalType": "bytes32[]",
          "name": "proof",
          "type": "bytes32[]"
        },
        {
          "internalType": "address",
          "name": "nftRecipient",
          "type": "address"
        }
      ],
      "name": "purchaseBlueprintsTo",
      "outputs": [],
      "stateMutability": "payable",
      "type": "function"
    },
    {
      "inputs": [
        {
          "internalType": "bytes32",
          "name": "role",
          "type": "bytes32"
        },
        {
          "internalType": "address",
          "name": "account",
          "type": "address"
        }
      ],
      "name": "renounceRole",
      "outputs": [],
      "stateMutability": "nonpayable",
      "type": "function"
    },
    {
      "inputs": [
        {
          "internalType": "uint256",
          "name": "blueprintID",
          "type": "uint256"
        },
        {
          "internalType": "string",
          "name": "randomSeed",
          "type": "string"
        }
      ],
      "name": "revealBlueprintSeed",
      "outputs": [],
      "stateMutability": "nonpayable",
      "type": "function"
    },
    {
      "inputs": [
        {
          "internalType": "bytes32",
          "name": "role",
          "type": "bytes32"
        },
        {
          "internalType": "address",
          "name": "account",
          "type": "address"
        }
      ],
      "name": "revokeRole",
      "outputs": [],
      "stateMutability": "nonpayable",
      "type": "function"
    },
    {
      "inputs": [
        {
          "internalType": "address",
          "name": "from",
          "type": "address"
        },
        {
          "internalType": "address",
          "name": "to",
          "type": "address"
        },
        {
          "internalType": "uint256",
          "name": "tokenId",
          "type": "uint256"
        }
      ],
      "name": "safeTransferFrom",
      "outputs": [],
      "stateMutability": "nonpayable",
      "type": "function"
    },
    {
      "inputs": [
        {
          "internalType": "address",
          "name": "from",
          "type": "address"
        },
        {
          "internalType": "address",
          "name": "to",
          "type": "address"
        },
        {
          "internalType": "uint256",
          "name": "tokenId",
          "type": "uint256"
        },
        {
          "internalType": "bytes",
          "name": "_data",
          "type": "bytes"
        }
      ],
      "name": "safeTransferFrom",
      "outputs": [],
      "stateMutability": "nonpayable",
      "type": "function"
    },
    {
      "inputs": [
        {
          "internalType": "address",
          "name": "operator",
          "type": "address"
        },
        {
          "internalType": "bool",
          "name": "approved",
          "type": "bool"
        }
      ],
      "name": "setApprovalForAll",
      "outputs": [],
      "stateMutability": "nonpayable",
      "type": "function"
    },
    {
      "inputs": [
        {
          "internalType": "address",
          "name": "_asyncSaleFeesRecipient",
          "type": "address"
        }
      ],
      "name": "setAsyncFeeRecipient",
      "outputs": [],
      "stateMutability": "nonpayable",
      "type": "function"
    },
    {
      "inputs": [
        {
          "internalType": "uint256",
          "name": "_blueprintID",
          "type": "uint256"
        },
        {
          "internalType": "address[]",
          "name": "_primaryFeeRecipients",
          "type": "address[]"
        },
        {
          "internalType": "uint32[]",
          "name": "_primaryFeeBPS",
          "type": "uint32[]"
        },
        {
          "internalType": "address[]",
          "name": "_secondaryFeeRecipients",
          "type": "address[]"
        },
        {
          "internalType": "uint32[]",
          "name": "_secondaryFeeBPS",
          "type": "uint32[]"
        }
      ],
      "name": "setFeeRecipients",
      "outputs": [],
      "stateMutability": "nonpayable",
      "type": "function"
    },
    {
      "inputs": [
        {
          "internalType": "bytes4",
          "name": "interfaceId",
          "type": "bytes4"
        }
      ],
      "name": "supportsInterface",
      "outputs": [
        {
          "internalType": "bool",
          "name": "",
          "type": "bool"
        }
      ],
      "stateMutability": "view",
      "type": "function"
    },
    {
      "inputs": [],
      "name": "symbol",
      "outputs": [
        {
          "internalType": "string",
          "name": "",
          "type": "string"
        }
      ],
      "stateMutability": "view",
      "type": "function"
    },
    {
      "inputs": [
        {
          "internalType": "uint256",
          "name": "tokenId",
          "type": "uint256"
        }
      ],
      "name": "tokenURI",
      "outputs": [
        {
          "internalType": "string",
          "name": "",
          "type": "string"
        }
      ],
      "stateMutability": "view",
      "type": "function"
    },
    {
      "inputs": [
        {
          "internalType": "address",
          "name": "from",
          "type": "address"
        },
        {
          "internalType": "address",
          "name": "to",
          "type": "address"
        },
        {
          "internalType": "uint256",
          "name": "tokenId",
          "type": "uint256"
        }
      ],
      "name": "transferFrom",
      "outputs": [],
      "stateMutability": "nonpayable",
      "type": "function"
    },
    {
      "inputs": [
        {
          "internalType": "uint256",
          "name": "blueprintID",
          "type": "uint256"
        }
      ],
      "name": "unpauseSale",
      "outputs": [],
      "stateMutability": "nonpayable",
      "type": "function"
    },
    {
      "inputs": [
        {
          "internalType": "uint256",
          "name": "_blueprintID",
          "type": "uint256"
        },
        {
          "internalType": "uint128",
          "name": "_price",
          "type": "uint128"
        },
        {
          "internalType": "uint32",
          "name": "_mintAmountArtist",
          "type": "uint32"
        },
        {
          "internalType": "uint32",
          "name": "_mintAmountPlatform",
          "type": "uint32"
        },
        {
          "internalType": "uint32",
          "name": "_newSaleState",
          "type": "uint32"
        },
        {
          "internalType": "bytes32",
          "name": "_merkleroot",
          "type": "bytes32"
        }
      ],
      "name": "updateBlueprintSettings",
      "outputs": [],
      "stateMutability": "nonpayable",
      "type": "function"
    },
    {
      "inputs": [
        {
          "internalType": "uint256",
          "name": "blueprintID",
          "type": "uint256"
        },
        {
          "internalType": "string",
          "name": "newBaseTokenUri",
          "type": "string"
        }
      ],
      "name": "updateBlueprintTokenUri",
      "outputs": [],
      "stateMutability": "nonpayable",
      "type": "function"
    },
    {
      "inputs": [
        {
          "internalType": "address",
          "name": "newMinterAddress",
          "type": "address"
        }
      ],
      "name": "updateMinterAddress",
      "outputs": [],
      "stateMutability": "nonpayable",
      "type": "function"
    },
    {
      "inputs": [
        {
          "internalType": "address",
          "name": "_platform",
          "type": "address"
        }
      ],
      "name": "updatePlatformAddress",
      "outputs": [],
      "stateMutability": "nonpayable",
      "type": "function"
    },
    {
      "inputs": [
        {
          "internalType": "address payable",
          "name": "recipient",
          "type": "address"
        }
      ],
      "name": "withdrawAllFailedCredits",
      "outputs": [],
      "stateMutability": "nonpayable",
      "type": "function"
    }
  ],
  "transactionHash": "0xf5425711e951159c6dc66b9a3f6e69e70849f0a62594d46412c914a91ddb6c77",
  "args": [],
  "solcInputHash": "016f4b8340aad80c854346bdaf5373d1",
  "bytecode": "0x608060405234801561001057600080fd5b506159d880620000216000396000f3fe60806040526004361061036b5760003560e01c806380ae4ebc116101c6578063c87b56dd116100f7578063ced3604311610095578063deb941481161006f578063deb9414814610a69578063e985e9c514610a8a578063eaf2115d14610aaa578063fce212f314610ad057600080fd5b8063ced3604314610a07578063d539139314610a27578063d547741f14610a4957600080fd5b8063c9e63203116100d1578063c9e6320314610982578063c9f2bd93146109a2578063ca15c873146109c2578063cba991bf146109e257600080fd5b8063c87b56dd14610922578063c8950e6014610942578063c90941b11461096257600080fd5b806395d89b4111610164578063aec970b01161013e578063aec970b0146108a2578063b88d4fde146108c2578063b9c4d9fb146108e2578063c2bce59c1461090257600080fd5b806395d89b4114610858578063a217fddf1461086d578063a22cb4651461088257600080fd5b80638f9f193f116101a05780638f9f193f146107e55780639010d07c1461080557806391d148541461082557806394a9c9c31461084557600080fd5b806380ae4ebc1461079d57806382c32b80146107b2578063898a90bc146107c557600080fd5b80632fcfb95a116102a05780634d073a5a1161023e57806366c083d31161021857806366c083d31461072657806368c31e261461074657806370a08231146107665780637b4252c01461078657600080fd5b80634d073a5a1461068e5780636352211e146106ce57806366bf33be146106ee57600080fd5b806338e395cf1161027a57806338e395cf1461060d5780633a66e4b61461062d57806342842e0e1461064d5780634bde38c81461066d57600080fd5b80632fcfb95a146105ac57806334d722c9146105cc57806336568abe146105ed57600080fd5b80630a21a2111161030d57806323b872dd116102e757806323b872dd1461050e578063248a9ca31461052e5780632e2d6bb81461056c5780632f2ff15d1461058c57600080fd5b80630a21a211146104815780630ebd4c7f146104ae57806322235d69146104db57600080fd5b806306fdde031161034957806306fdde03146103e7578063077f224a14610409578063081812fc14610429578063095ea7b31461046157600080fd5b8063018a62a61461037057806301a949501461039257806301ffc9a7146103b2575b600080fd5b34801561037c57600080fd5b5061039061038b366004614f7c565b610af0565b005b34801561039e57600080fd5b506103906103ad36600461512c565b610ba6565b3480156103be57600080fd5b506103d26103cd366004614e1f565b610c0c565b60405190151581526020015b60405180910390f35b3480156103f357600080fd5b506103fc610c3b565b6040516103de91906153c6565b34801561041557600080fd5b50610390610424366004614e57565b610ccd565b34801561043557600080fd5b50610449610444366004614dc2565b610dcd565b6040516001600160a01b0390911681526020016103de565b34801561046d57600080fd5b5061039061047c366004614c9b565b610e62565b34801561048d57600080fd5b506104a161049c366004614dc2565b610f78565b6040516103de9190615294565b3480156104ba57600080fd5b506104ce6104c9366004614dc2565b611074565b6040516103de91906152e1565b3480156104e757600080fd5b5061012d546104f99063ffffffff1681565b60405163ffffffff90911681526020016103de565b34801561051a57600080fd5b50610390610529366004614bb2565b6111d4565b34801561053a57600080fd5b5061055e610549366004614dc2565b600090815260c9602052604090206001015490565b6040519081526020016103de565b34801561057857600080fd5b50610390610587366004614fc0565b611205565b34801561059857600080fd5b506103906105a7366004614dda565b611373565b3480156105b857600080fd5b506103906105c7366004614b5e565b611399565b3480156105d857600080fd5b5061013154610449906001600160a01b031681565b3480156105f957600080fd5b50610390610608366004614dda565b611407565b34801561061957600080fd5b50610390610628366004615025565b611485565b34801561063957600080fd5b50610390610648366004614dc2565b611706565b34801561065957600080fd5b50610390610668366004614bb2565b6117bf565b34801561067957600080fd5b5061013054610449906001600160a01b031681565b34801561069a57600080fd5b5061012d546106b690600160601b90046001600160401b031681565b6040516001600160401b0390911681526020016103de565b3480156106da57600080fd5b506104496106e9366004614dc2565b6117da565b3480156106fa57600080fd5b5061070e610709366004614dc2565b611851565b6040516103de9c9b9a9998979695949392919061531f565b34801561073257600080fd5b5061039061074136600461512c565b611978565b34801561075257600080fd5b50610390610761366004614dc2565b6119e2565b34801561077257600080fd5b5061055e610781366004614b5e565b611ac7565b34801561079257600080fd5b5061055e61012e5481565b3480156107a957600080fd5b50610390611b4e565b6103906107c03660046150b5565b611bca565b3480156107d157600080fd5b506103906107e0366004614cc6565b611de9565b3480156107f157600080fd5b50610390610800366004614b5e565b611ea1565b34801561081157600080fd5b50610449610820366004614dfe565b611ef5565b34801561083157600080fd5b506103d2610840366004614dda565b611f14565b610390610853366004615050565b611f3f565b34801561086457600080fd5b506103fc61214f565b34801561087957600080fd5b5061055e600081565b34801561088e57600080fd5b5061039061089d366004614c6e565b61215e565b3480156108ae57600080fd5b506103906108bd366004614b5e565b612169565b3480156108ce57600080fd5b506103906108dd366004614bf2565b612199565b3480156108ee57600080fd5b506104a16108fd366004614dc2565b6121cb565b34801561090e57600080fd5b5061039061091d366004614dc2565b6122f4565b34801561092e57600080fd5b506103fc61093d366004614dc2565b6123ca565b34801561094e57600080fd5b5061039061095d366004614f7c565b6124a5565b34801561096e57600080fd5b5061039061097d366004614b5e565b6125c2565b34801561098e57600080fd5b5061039061099d366004614ecb565b6126c0565b3480156109ae57600080fd5b506103906109bd366004614dc2565b612821565b3480156109ce57600080fd5b5061055e6109dd366004614dc2565b61290c565b3480156109ee57600080fd5b5061012d546104f990600160401b900463ffffffff1681565b348015610a1357600080fd5b506104ce610a22366004614dc2565b612923565b348015610a3357600080fd5b5061055e60008051602061598383398151915281565b348015610a5557600080fd5b50610390610a64366004614dda565b6129f3565b348015610a7557600080fd5b5061012f54610449906001600160a01b031681565b348015610a9657600080fd5b506103d2610aa5366004614b7a565b612a19565b348015610ab657600080fd5b5061012d546104f990640100000000900463ffffffff1681565b348015610adc57600080fd5b50610390610aeb36600461512c565b612a55565b600080516020615983833981519152610b098133612a94565b82600080828152610134602052604090206006015460ff166003811115610b4057634e487b7160e01b600052602160045260246000fd5b1415610b675760405162461bcd60e51b8152600401610b5e90615479565b60405180910390fd5b7f703604f30bacc0494165473e817b003a6db41ed8c598a9ff96093768d701f0958484604051610b98929190615687565b60405180910390a150505050565b6000610bb28133612a94565b61012d5461271090610bd190600160401b900463ffffffff1684615736565b63ffffffff161115610be257600080fd5b5061012d805463ffffffff9092166401000000000267ffffffff0000000019909216919091179055565b6000610c1782612af8565b80610c265750610c2682612b48565b80610c355750610c3582612b79565b92915050565b606060658054610c4a9061587b565b80601f0160208091040260200160405190810160405280929190818152602001828054610c769061587b565b8015610cc35780601f10610c9857610100808354040283529160200191610cc3565b820191906000526020600020905b815481529060010190602001808311610ca657829003601f168201915b5050505050905090565b600054610100900460ff1680610ce6575060005460ff16155b610d025760405162461bcd60e51b8152600401610b5e9061542b565b600054610100900460ff16158015610d24576000805461ffff19166101011790555b610d2e8484612b9e565b610d36611b4e565b610d3e612c25565b610d49600033612c94565b610d6160008051602061598383398151915283612c94565b6101308054336001600160a01b03199182168117909255610131805482166001600160a01b03861617905561012d80546001600160601b03191668fa000002ee000007d017905561012f805490911690911790558015610dc7576000805461ff00191690555b50505050565b6000818152606760205260408120546001600160a01b0316610e465760405162461bcd60e51b815260206004820152602c60248201527f4552433732313a20617070726f76656420717565727920666f72206e6f6e657860448201526b34b9ba32b73a103a37b5b2b760a11b6064820152608401610b5e565b506000908152606960205260409020546001600160a01b031690565b6000610e6d826117da565b9050806001600160a01b0316836001600160a01b03161415610edb5760405162461bcd60e51b815260206004820152602160248201527f4552433732313a20617070726f76616c20746f2063757272656e74206f776e656044820152603960f91b6064820152608401610b5e565b336001600160a01b0382161480610ef75750610ef78133612a19565b610f695760405162461bcd60e51b815260206004820152603860248201527f4552433732313a20617070726f76652063616c6c6572206973206e6f74206f7760448201527f6e6572206e6f7220617070726f76656420666f7220616c6c00000000000000006064820152608401610b5e565b610f738383612c9e565b505050565b600081815261013460205260409020600901546060906110015760408051600180825281830190925260009160208083019080368337505061012f5482519293506001600160a01b031691839150600090610fe357634e487b7160e01b600052603260045260246000fd5b6001600160a01b039092166020928302919091019091015292915050565b600082815261013460209081526040918290206009018054835181840281018401909452808452909183018282801561106357602002820191906000526020600020905b81546001600160a01b03168152600190910190602001808311611045575b50505050509050919050565b919050565b600081815261013460205260409020600801546060906111465760408051600280825260608201835260009260208301908036833701905050905061012d60089054906101000a900463ffffffff16816000815181106110e457634e487b7160e01b600052603260045260246000fd5b63ffffffff928316602091820292909201015261012d548251640100000000909104909116908290600190811061112b57634e487b7160e01b600052603260045260246000fd5b63ffffffff9092166020928302919091019091015292915050565b600082815261013460209081526040918290206008018054835181840281018401909452808452909183018282801561106357602002820191906000526020600020906000905b82829054906101000a900463ffffffff1663ffffffff168152602001906004019060208260030104928301926001038202915080841161118d575094979650505050505050565b6111de3382612d0c565b6111fa5760405162461bcd60e51b8152600401610b5e90615506565b610f73838383612de3565b60008051602061598383398151915261121e8133612a94565b600087815261013460205260409020600181018054600160401b600160c01b031916600160401b6001600160801b038a1602179055805468ffffffffffffffff00191661010063ffffffff8881169190910268ffffffff0000000000191691909117600160281b8783160217909155831660038111156112ae57634e487b7160e01b600052602160045260246000fd5b600088815261013460205260409020600601805460ff191660018360038111156112e857634e487b7160e01b600052602160045260246000fd5b02179055506000878152610134602090815260409182902060050184905581518981526001600160801b0389169181019190915263ffffffff8781168284015286811660608301528516608082015260a0810184905290517fa94140e420fc9bf52910e3e1f62d9d1e07994b684e3d329044dfd35a93dfe6fb9181900360c00190a150505050505050565b600082815260c9602052604090206001015461138f8133612a94565b610f738383612f83565b60006113a58133612a94565b6113bd60008051602061598383398151915283611373565b610131546113e390600080516020615983833981519152906001600160a01b03166129f3565b5061013180546001600160a01b0319166001600160a01b0392909216919091179055565b6001600160a01b03811633146114775760405162461bcd60e51b815260206004820152602f60248201527f416363657373436f6e74726f6c3a2063616e206f6e6c792072656e6f756e636560448201526e103937b632b9903337b91039b2b63360891b6064820152608401610b5e565b6114818282612fa5565b5050565b61148e82612fc7565b6114da5760405162461bcd60e51b815260206004820181905260248201527f4d75737420626520707265706172656420616e64206e6f7420737461727465646044820152606401610b5e565b610131546001600160a01b031633148061150e5750600082815261013460205260409020600201546001600160a01b031633145b61155a5760405162461bcd60e51b815260206004820152601860248201527f757365722063616e6e6f74206d696e742070726573616c6500000000000000006044820152606401610b5e565b610131546001600160a01b0316331415611627576000828152610134602052604090205463ffffffff600160281b909104811690821611156115d55760405162461bcd60e51b815260206004820152601460248201527363616e6e6f74206d696e74207175616e7469747960601b6044820152606401610b5e565b6000828152610134602052604090208054829190600590611604908490600160281b900463ffffffff166157f0565b92506101000a81548163ffffffff021916908363ffffffff1602179055506116fb565b600082815261013460205260409020600201546001600160a01b03163314156116fb576000828152610134602052604090205463ffffffff610100909104811690821611156116af5760405162461bcd60e51b815260206004820152601460248201527363616e6e6f74206d696e74207175616e7469747960601b6044820152606401610b5e565b60008281526101346020526040902080548291906001906116dc908490610100900463ffffffff166157f0565b92506101000a81548163ffffffff021916908363ffffffff1602179055505b611481828233613008565b60008051602061598383398151915261171f8133612a94565b816117298161329f565b6117685760405162461bcd60e51b815260206004820152601060248201526f14d85b19481b9bdd081cdd185c9d195960821b6044820152606401610b5e565b60008381526101346020908152604091829020600601805460ff1916600317905590518481527f4616a0782e5635981b28be1cd36934a60655b462c370d8bd8092c969abc990d091015b60405180910390a1505050565b610f7383838360405180602001604052806000815250612199565b6000818152606760205260408120546001600160a01b031680610c355760405162461bcd60e51b815260206004820152602960248201527f4552433732313a206f776e657220717565727920666f72206e6f6e657869737460448201526832b73a103a37b5b2b760b91b6064820152608401610b5e565b610134602052600090815260409020805460018201546002830154600384015460048501805460ff861696610100870463ffffffff90811697600160281b810490911696600160481b82046001600160401b0390811697600160881b90930481169690821695600160401b9092046001600160801b0316946001600160a01b0393841694939091169291906118e59061587b565b80601f01602080910402602001604051908101604052809291908181526020018280546119119061587b565b801561195e5780601f106119335761010080835404028352916020019161195e565b820191906000526020600020905b81548152906001019060200180831161194157829003601f168201915b50505050600583015460069093015491929160ff1690508c565b60006119848133612a94565b61012d54612710906119a490640100000000900463ffffffff1684615736565b63ffffffff1611156119b557600080fd5b5061012d805463ffffffff909216600160401b026bffffffff000000000000000019909216919091179055565b6000805160206159838339815191526119fb8133612a94565b60036000838152610134602052604090206006015460ff166003811115611a3257634e487b7160e01b600052602160045260246000fd5b14611a715760405162461bcd60e51b815260206004820152600f60248201526e14d85b19481b9bdd081c185d5cd959608a1b6044820152606401610b5e565b60008281526101346020908152604091829020600601805460ff1916600217905590518381527fdcba7a000ef2740d4daa9c60f3235ec53ea38eb4164b31d5470f76e01e52d7bd91015b60405180910390a15050565b60006001600160a01b038216611b325760405162461bcd60e51b815260206004820152602a60248201527f4552433732313a2062616c616e636520717565727920666f7220746865207a65604482015269726f206164647265737360b01b6064820152608401610b5e565b506001600160a01b031660009081526068602052604090205490565b600054610100900460ff1680611b67575060005460ff16155b611b835760405162461bcd60e51b8152600401610b5e9061542b565b600054610100900460ff16158015611ba5576000805461ffff19166101011790555b611bb5632dde656160e21b6132a8565b8015611bc7576000805461ff00191690555b50565b85858484611bd78461329f565b80611bff5750611be684612fc7565b8015611bff5750611bff848463ffffffff168484613327565b611c475760405162461bcd60e51b81526020600482015260196024820152786e6f7420617661696c61626c6520746f20707572636861736560381b6044820152606401610b5e565b60008a815261013460205260409020548a908a9063ffffffff8216600160481b9091046001600160401b03161015611cbd5760405162461bcd60e51b81526020600482015260196024820152787175616e74697479206578636565647320636170616369747960381b6044820152606401610b5e565b60008c815261013460205260409020600101546001600160401b03161580611d06575060008c815261013460205260409020600101546001600160401b031663ffffffff8c1611155b611d225760405162461bcd60e51b8152600401610b5e906154a9565b323314611d415760405162461bcd60e51b8152600401610b5e90615557565b60008c815261013460205260409020600201546001600160a01b0316611d698d8d8d8461346b565b600160008e8152610134602052604090206006015460ff166003811115611da057634e487b7160e01b600052602160045260246000fd5b1415611dcf5760008d815261013460209081526040808320338452600b019091529020805460ff191660011790555b611dda8d8d8a613008565b50505050505050505050505050565b600080516020615983833981519152611e028133612a94565b61012e546000818152610134602052604090206002810180546001600160a01b0319166001600160a01b038f16179055805467ffffffffffffffff60481b1916600160481b6001600160401b038e16021781556001018054600160401b600160c01b031916600160401b6001600160801b038d1602179055611e89818a89898989896136b4565b611e938189613783565b505050505050505050505050565b6000611ead8133612a94565b611eb8600083611373565b61013054611ed1906000906001600160a01b03166129f3565b5061013080546001600160a01b0319166001600160a01b0392909216919091179055565b600082815260fb60205260408120611f0d9083613893565b9392505050565b600091825260c9602090815260408084206001600160a01b0393909316845291905290205460ff1690565b84848383611f4c8461329f565b80611f745750611f5b84612fc7565b8015611f745750611f74848463ffffffff168484613327565b611fbc5760405162461bcd60e51b81526020600482015260196024820152786e6f7420617661696c61626c6520746f20707572636861736560381b6044820152606401610b5e565b600089815261013460205260409020548990899063ffffffff8216600160481b9091046001600160401b031610156120325760405162461bcd60e51b81526020600482015260196024820152787175616e74697479206578636565647320636170616369747960381b6044820152606401610b5e565b60008b815261013460205260409020600101546001600160401b0316158061207b575060008b815261013460205260409020600101546001600160401b031663ffffffff8b1611155b6120975760405162461bcd60e51b8152600401610b5e906154a9565b3233146120b65760405162461bcd60e51b8152600401610b5e90615557565b60008b815261013460205260409020600201546001600160a01b03166120de8c8c8c8461346b565b600160008d8152610134602052604090206006015460ff16600381111561211557634e487b7160e01b600052602160045260246000fd5b14156121445760008c815261013460209081526040808320338452600b019091529020805460ff191660011790555b611e938c8c33613008565b606060668054610c4a9061587b565b61148133838361389f565b60006121758133612a94565b5061012f80546001600160a01b0319166001600160a01b0392909216919091179055565b6121a33383612d0c565b6121bf5760405162461bcd60e51b8152600401610b5e90615506565b610dc78484848461396e565b600081815261013460205260409020600a015460609061228857604080516002808252606082018352600092602083019080368337505061012f5482519293506001600160a01b03169183915060009061223557634e487b7160e01b600052603260045260246000fd5b6001600160a01b0392831660209182029290920181019190915260008581526101349091526040902060020154825191169082906001908110610fe357634e487b7160e01b600052603260045260246000fd5b60008281526101346020908152604091829020600a0180548351818402810184019094528084529091830182828015611063576020028201919060005260206000209081546001600160a01b031681526001909101906020018083116110455750505050509050919050565b60006123008133612a94565b81600080828152610134602052604090206006015460ff16600381111561233757634e487b7160e01b600052602160045260246000fd5b14156123555760405162461bcd60e51b8152600401610b5e90615479565b6000838152610134602052604090205460ff16156123ac5760405162461bcd60e51b8152602060048201526014602482015273189b1d595c1c9a5b9d08155492481b1bd8dad95960621b6044820152606401610b5e565b5050600090815261013460205260409020805460ff19166001179055565b6000818152606760205260409020546060906001600160a01b03166124495760405162461bcd60e51b815260206004820152602f60248201527f4552433732314d657461646174613a2055524920717565727920666f72206e6f60448201526e3732bc34b9ba32b73a103a37b5b2b760891b6064820152608401610b5e565b6000612454836139a1565b905060008151116124745760405180602001604052806000815250611f0d565b8061247e84613a4b565b60405160200161248f929190615194565b6040516020818303038152906040529392505050565b6000805160206159838339815191526124be8133612a94565b82600080828152610134602052604090206006015460ff1660038111156124f557634e487b7160e01b600052602160045260246000fd5b14156125135760405162461bcd60e51b8152600401610b5e90615479565b6000848152610134602052604090205460ff161561256a5760405162461bcd60e51b8152602060048201526014602482015273189b1d595c1c9a5b9d08155492481b1bd8dad95960621b6044820152606401610b5e565b6000848152610134602090815260409091208451612590926004909201918601906147e2565b507f36ab8e0ce3828485b4d98e97c3f5851331257ffe2b61a43e7e0e9875242f96378484604051610b98929190615687565b3360009081526101336020526040902054806126195760405162461bcd60e51b81526020600482015260166024820152756e6f206372656469747320746f20776974686472617760501b6044820152606401610b5e565b3360009081526101336020526040808220829055516001600160a01b03841690614e2090849084818181858888f193505050503d8060008114612678576040519150601f19603f3d011682016040523d82523d6000602084013e61267d565b606091505b5050905080610f735760405162461bcd60e51b815260206004820152600f60248201526e1dda5d1a191c985dc819985a5b1959608a1b6044820152606401610b5e565b6000805160206159838339815191526126d98133612a94565b60016000878152610134602052604090206006015460ff16600381111561271057634e487b7160e01b600052602160045260246000fd5b1461275d5760405162461bcd60e51b815260206004820152601c60248201527f73616c652073746172746564206f72206e6f74207072657061726564000000006044820152606401610b5e565b6127678585613b64565b156127bb57600086815261013460209081526040909120865161279292600990920191880190614866565b5060008681526101346020908152604090912085516127b9926007909201918701906148bb565b505b6127c58383613b64565b156128195760008681526101346020908152604090912084516127f092600a90920191860190614866565b506000868152610134602090815260409091208351612817926008909201918501906148bb565b505b505050505050565b60008051602061598383398151915261283a8133612a94565b60016000838152610134602052604090206006015460ff16600381111561287157634e487b7160e01b600052602160045260246000fd5b146128be5760405162461bcd60e51b815260206004820152601c60248201527f73616c652073746172746564206f72206e6f74207072657061726564000000006044820152606401610b5e565b60008281526101346020908152604091829020600601805460ff1916600217905590518381527fa78c547613f6306e7a70d1bd161c18a496cae1eeb8d4f9e58b60d69ad72ddf589101611abb565b600081815260fb60205260408120610c3590613c86565b6000818152610134602052604090206007015460609061298b5760408051600180825281830190925260009160208083019080368337505061012d54825192935063ffffffff169183915060009061112b57634e487b7160e01b600052603260045260246000fd5b6000828152610134602090815260409182902060070180548351818402810184019094528084529091830182828015611063576000918252602091829020805463ffffffff16845290820283019290916004910180841161118d575094979650505050505050565b600082815260c96020526040902060010154612a0f8133612a94565b610f738383612fa5565b6001600160a01b038083166000908152606a6020908152604080832093851683529290529081205460ff1680611f0d5750611f0d600083611f14565b6000612a618133612a94565b6127108263ffffffff161115612a7657600080fd5b5061012d805463ffffffff191663ffffffff92909216919091179055565b612a9e8282611f14565b61148157612ab6816001600160a01b03166014613c90565b612ac1836020613c90565b604051602001612ad29291906151ec565b60408051601f198184030181529082905262461bcd60e51b8252610b5e916004016153c6565b60006001600160e01b031982166380ac58cd60e01b1480612b2957506001600160e01b03198216635b5e139f60e01b145b80610c3557506301ffc9a760e01b6001600160e01b0319831614610c35565b6000612b5382612af8565b80610c355750506001600160e01b03191660009081526097602052604090205460ff1690565b60006001600160e01b03198216635a05180f60e01b1480610c355750610c3582613e71565b600054610100900460ff1680612bb7575060005460ff16155b612bd35760405162461bcd60e51b8152600401610b5e9061542b565b600054610100900460ff16158015612bf5576000805461ffff19166101011790555b612bfd613e96565b612c05613e96565b612c0f8383613f00565b8015610f73576000805461ff0019169055505050565b600054610100900460ff1680612c3e575060005460ff16155b612c5a5760405162461bcd60e51b8152600401610b5e9061542b565b600054610100900460ff16158015612c7c576000805461ffff19166101011790555b612c84613e96565b612c8c613e96565b611bb5613e96565b6114818282612f83565b600081815260696020526040902080546001600160a01b0319166001600160a01b0384169081179091558190612cd3826117da565b6001600160a01b03167f8c5be1e5ebec7d5bd14f71427d1e84f3dd0314c0f7b2291e5b200ac8c7c3b92560405160405180910390a45050565b6000818152606760205260408120546001600160a01b0316612d855760405162461bcd60e51b815260206004820152602c60248201527f4552433732313a206f70657261746f7220717565727920666f72206e6f6e657860448201526b34b9ba32b73a103a37b5b2b760a11b6064820152608401610b5e565b6000612d90836117da565b9050806001600160a01b0316846001600160a01b03161480612dcb5750836001600160a01b0316612dc084610dcd565b6001600160a01b0316145b80612ddb5750612ddb8185612a19565b949350505050565b826001600160a01b0316612df6826117da565b6001600160a01b031614612e5e5760405162461bcd60e51b815260206004820152602960248201527f4552433732313a207472616e73666572206f6620746f6b656e2074686174206960448201526839903737ba1037bbb760b91b6064820152608401610b5e565b6001600160a01b038216612ec05760405162461bcd60e51b8152602060048201526024808201527f4552433732313a207472616e7366657220746f20746865207a65726f206164646044820152637265737360e01b6064820152608401610b5e565b612ecb600082612c9e565b6001600160a01b0383166000908152606860205260408120805460019290612ef49084906157d9565b90915550506001600160a01b0382166000908152606860205260408120805460019290612f2290849061571e565b909155505060008181526067602052604080822080546001600160a01b0319166001600160a01b0386811691821790925591518493918716917fddf252ad1be2c89b69c2b068fc378daa952ba7f163c4a11628f55a4df523b3ef91a4505050565b612f8d8282613f95565b600082815260fb60205260409020610f73908261401b565b612faf8282614030565b600082815260fb60205260409020610f739082614097565b600060015b6000838152610134602052604090206006015460ff16600381111561300157634e487b7160e01b600052602160045260246000fd5b1492915050565b600083815261013460205260408120546001600160401b03600160881b8204811692600160481b90920416905b8463ffffffff168161ffff16101561320d576000826001600160401b0316116130a05760405162461bcd60e51b815260206004820152601960248201527f626c75657072696e74206f7574206f66206361706163697479000000000000006044820152606401610b5e565b6130c0846130b261ffff8416866156f3565b6001600160801b03166140ac565b8561013260006130d461ffff8516876156f3565b6001600160801b03168152602001908152602001600020819055506000434241856040516020016131389493929190938452602084019290925260601b6001600160601b031916604083015260c01b6001600160c01b0319166054820152605c0190565b60408051601f19818403018152918152815160209283012060008a81526101349093529120600201549091507fbe53bef0e08aa61aa51091a6fa77b4a68c6da179f64097fa01f92beda583eecc9088906001600160a01b0316876131a061ffff8716896156f3565b604080519485526001600160a01b03938416602086015291909216908301526001600160801b031660608201526001600160401b038516608082015260a0810183905260c00160405180910390a16131f783615858565b9250508080613205906158b6565b915050613035565b50600085815261013460205260409020805463ffffffff86169190601190613246908490600160881b90046001600160401b0316615755565b82546101009290920a6001600160401b0381810219909316918316021790915560009687526101346020526040909620805467ffffffffffffffff60481b1916600160481b939097169290920295909517905550505050565b60006002612fcc565b6001600160e01b031980821614156133025760405162461bcd60e51b815260206004820152601c60248201527f4552433136353a20696e76616c696420696e74657266616365206964000000006044820152606401610b5e565b6001600160e01b0319166000908152609760205260409020805460ff19166001179055565b60008161336a5760405162461bcd60e51b81526020600482015260116024820152701b9bc81c1c9bdbd9881c1c9bdd9a591959607a1b6044820152606401610b5e565b600085815261013460209081526040808320338452600b0190915290205460ff16156133ca5760405162461bcd60e51b815260206004820152600f60248201526e185b1c9958591e4818db185a5b5959608a1b6044820152606401610b5e565b6000858152610134602052604090206005015461346161342733876040516001600160601b0319606084901b1660208201526034810182905260009060540160405160208183030381529060405280519060200120905092915050565b828686808060200260200160405190810160405280939291908181526020018383602002808284376000920191909152506141ee92505050565b9695505050505050565b60008481526101346020526040902060038101546001909101546001600160a01b0390911690600160401b90046001600160801b03168161356c5783156134f45760405162461bcd60e51b815260206004820152601b60248201527f63616e6e6f74207370656369667920746f6b656e20616d6f756e7400000000006044820152606401610b5e565b6135048163ffffffff871661578b565b6001600160801b0316341461355b5760405162461bcd60e51b815260206004820181905260248201527f507572636861736520616d6f756e74206d757374206d617463682070726963656044820152606401610b5e565b613567868334866141fb565b612819565b34156135ba5760405162461bcd60e51b815260206004820152601960248201527f63616e6e6f7420737065636966792065746820616d6f756e74000000000000006044820152606401610b5e565b6135ca8163ffffffff871661578b565b6001600160801b031684146136215760405162461bcd60e51b815260206004820181905260248201527f507572636861736520616d6f756e74206d757374206d617463682070726963656044820152606401610b5e565b6040516323b872dd60e01b8152336004820152306024820152604481018590526001600160a01b038316906323b872dd90606401602060405180830381600087803b15801561366f57600080fd5b505af1158015613683573d6000803e3d6000fd5b505050506040513d601f19601f820116820180604052508101906136a79190614da6565b50612819868386866141fb565b6136be87876142d5565b60008781526101346020908152604090912086516136e4926004909201918801906147e2565b508315613701576000878152610134602052604090206005018490555b600087815261013460205260409020805468ffffffffffffffff00191661010063ffffffff8681169190910268ffffffff0000000000191691909117600160281b858316021790915581161561281757600087815261013460205260409020600101805467ffffffffffffffff191663ffffffff831617905550505050505050565b600082815261013460205260409020600681018054600160ff1990911617905561012d8054825467ffffffffffffffff60881b1916600160601b918290046001600160401b03908116600160881b0291909117938490558254600160481b909404811693849392600c926137fb928692900416615755565b92506101000a8154816001600160401b0302191690836001600160401b0316021790555061012e6000815480929190613833906158d8565b90915550506000838152610134602052604090819020600281015491517f97660d9bc329402e809d4aabb7261513a7d331d8762d407be7e3316d08d188fd926117b29287926001600160a01b0390921691869188916004909101906155a6565b6000611f0d8383614315565b816001600160a01b0316836001600160a01b031614156139015760405162461bcd60e51b815260206004820152601960248201527f4552433732313a20617070726f766520746f2063616c6c6572000000000000006044820152606401610b5e565b6001600160a01b038381166000818152606a6020908152604080832094871680845294825291829020805460ff191686151590811790915591519182527f17307eab39ab6107e8899845ad3d59bd9653f200f220920489ca2b5937696c31910160405180910390a3505050565b613979848484612de3565b6139858484848461434d565b610dc75760405162461bcd60e51b8152600401610b5e906153d9565b60008181526101326020908152604080832054835261013490915290206004018054606091906139d09061587b565b80601f01602080910402602001604051908101604052809291908181526020018280546139fc9061587b565b80156110635780601f10613a1e57610100808354040283529160200191611063565b820191906000526020600020905b815481529060010190602001808311613a2c5750939695505050505050565b606081613a6f5750506040805180820190915260018152600360fc1b602082015290565b8160005b8115613a995780613a83816158d8565b9150613a929050600a83615777565b9150613a73565b6000816001600160401b03811115613ac157634e487b7160e01b600052604160045260246000fd5b6040519080825280601f01601f191660200182016040528015613aeb576020820181803683370190505b5090505b8415612ddb57613b006001836157d9565b9150613b0d600a866158f3565b613b1890603061571e565b60f81b818381518110613b3b57634e487b7160e01b600052603260045260246000fd5b60200101906001600160f81b031916908160001a905350613b5d600a86615777565b9450613aef565b600082516000141580613b775750815115155b15613c7d578151835114613bcd5760405162461bcd60e51b815260206004820152601b60248201527f6d69736d61746368656420726563697069656e747320262042707300000000006044820152606401610b5e565b6000805b8351811015613c2157838181518110613bfa57634e487b7160e01b600052603260045260246000fd5b602002602001015182613c0d9190615736565b915080613c19816158d8565b915050613bd1565b506127108163ffffffff161115613c735760405162461bcd60e51b81526020600482015260166024820152754665652042707320657863656564206d6178696d756d60501b6044820152606401610b5e565b6001915050610c35565b50600092915050565b6000610c35825490565b60606000613c9f8360026157ba565b613caa90600261571e565b6001600160401b03811115613ccf57634e487b7160e01b600052604160045260246000fd5b6040519080825280601f01601f191660200182016040528015613cf9576020820181803683370190505b509050600360fc1b81600081518110613d2257634e487b7160e01b600052603260045260246000fd5b60200101906001600160f81b031916908160001a905350600f60fb1b81600181518110613d5f57634e487b7160e01b600052603260045260246000fd5b60200101906001600160f81b031916908160001a9053506000613d838460026157ba565b613d8e90600161571e565b90505b6001811115613e22576f181899199a1a9b1b9c1cb0b131b232b360811b85600f1660108110613dd057634e487b7160e01b600052603260045260246000fd5b1a60f81b828281518110613df457634e487b7160e01b600052603260045260246000fd5b60200101906001600160f81b031916908160001a90535060049490941c93613e1b81615841565b9050613d91565b508315611f0d5760405162461bcd60e51b815260206004820181905260248201527f537472696e67733a20686578206c656e67746820696e73756666696369656e746044820152606401610b5e565b60006001600160e01b03198216637965db0b60e01b1480610c355750610c3582612b48565b600054610100900460ff1680613eaf575060005460ff16155b613ecb5760405162461bcd60e51b8152600401610b5e9061542b565b600054610100900460ff16158015611bb5576000805461ffff19166101011790558015611bc7576000805461ff001916905550565b600054610100900460ff1680613f19575060005460ff16155b613f355760405162461bcd60e51b8152600401610b5e9061542b565b600054610100900460ff16158015613f57576000805461ffff19166101011790555b8251613f6a9060659060208601906147e2565b508151613f7e9060669060208501906147e2565b508015610f73576000805461ff0019169055505050565b613f9f8282611f14565b61148157600082815260c9602090815260408083206001600160a01b03851684529091529020805460ff19166001179055613fd73390565b6001600160a01b0316816001600160a01b0316837f2f8788117e7eff1d82e926ec794901d17c78024a50270940304540a733656f0d60405160405180910390a45050565b6000611f0d836001600160a01b038416614457565b61403a8282611f14565b1561148157600082815260c9602090815260408083206001600160a01b0385168085529252808320805460ff1916905551339285917ff6391f5c32d9c69d2a47ea670b442974b53935d1edc7fd64eb21e047a839171b9190a45050565b6000611f0d836001600160a01b0384166144a6565b6001600160a01b0382166141025760405162461bcd60e51b815260206004820181905260248201527f4552433732313a206d696e7420746f20746865207a65726f20616464726573736044820152606401610b5e565b6000818152606760205260409020546001600160a01b0316156141675760405162461bcd60e51b815260206004820152601c60248201527f4552433732313a20746f6b656e20616c7265616479206d696e746564000000006044820152606401610b5e565b6001600160a01b038216600090815260686020526040812080546001929061419090849061571e565b909155505060008181526067602052604080822080546001600160a01b0319166001600160a01b03861690811790915590518392907fddf252ad1be2c89b69c2b068fc378daa952ba7f163c4a11628f55a4df523b3ef908290a45050565b6000612ddb8284866145c3565b600061420685610f78565b9050600061421386612923565b90506000805b83518110156142ae57600061425b8785848151811061424857634e487b7160e01b600052603260045260246000fd5b602002602001015163ffffffff166145d9565b9050614267818461571e565b925061429b85838151811061428c57634e487b7160e01b600052603260045260246000fd5b602002602001015189836145f2565b50806142a6816158d8565b915050614219565b5060006142bb82876157d9565b11156128175761281784876142d084896157d9565b6145f2565b6001600160a01b038116156114815760008281526101346020526040902060030180546001600160a01b0383166001600160a01b03199091161790555050565b600082600001828154811061433a57634e487b7160e01b600052603260045260246000fd5b9060005260206000200154905092915050565b60006001600160a01b0384163b1561444f57604051630a85bd0160e11b81526001600160a01b0385169063150b7a0290614391903390899088908890600401615261565b602060405180830381600087803b1580156143ab57600080fd5b505af19250505080156143db575060408051601f3d908101601f191682019092526143d891810190614e3b565b60015b614435573d808015614409576040519150601f19603f3d011682016040523d82523d6000602084013e61440e565b606091505b50805161442d5760405162461bcd60e51b8152600401610b5e906153d9565b805181602001fd5b6001600160e01b031916630a85bd0160e11b149050612ddb565b506001612ddb565b600081815260018301602052604081205461449e57508154600181810184556000848152602080822090930184905584548482528286019093526040902091909155610c35565b506000610c35565b600081815260018301602052604081205480156145b95760006144ca6001836157d9565b85549091506000906144de906001906157d9565b905081811461455f57600086600001828154811061450c57634e487b7160e01b600052603260045260246000fd5b906000526020600020015490508087600001848154811061453d57634e487b7160e01b600052603260045260246000fd5b6000918252602080832090910192909255918252600188019052604090208390555b855486908061457e57634e487b7160e01b600052603160045260246000fd5b600190038181906000526020600020016000905590558560010160008681526020019081526020016000206000905560019350505050610c35565b6000915050610c35565b6000826145d08584614728565b14949350505050565b60006127106145e883856157ba565b611f0d9190615777565b6001600160a01b038216156146835760405163a9059cbb60e01b81526001600160a01b0384811660048301526024820183905283169063a9059cbb90604401602060405180830381600087803b15801561464b57600080fd5b505af115801561465f573d6000803e3d6000fd5b505050506040513d601f19601f82011682018060405250810190610dc79190614da6565b6000836001600160a01b031682614e2090604051600060405180830381858888f193505050503d80600081146146d5576040519150601f19603f3d011682016040523d82523d6000602084013e6146da565b606091505b5050905080610dc7576001600160a01b0384166000908152610133602052604090205461470890839061571e565b6001600160a01b0385166000908152610133602052604090205550505050565b600081815b84518110156147da57600085828151811061475857634e487b7160e01b600052603260045260246000fd5b6020026020010151905080831161479a5760408051602081018590529081018290526060016040516020818303038152906040528051906020012092506147c7565b60408051602081018390529081018490526060016040516020818303038152906040528051906020012092505b50806147d2816158d8565b91505061472d565b509392505050565b8280546147ee9061587b565b90600052602060002090601f0160209004810192826148105760008555614856565b82601f1061482957805160ff1916838001178555614856565b82800160010185558215614856579182015b8281111561485657825182559160200191906001019061483b565b50614862929150614961565b5090565b828054828255906000526020600020908101928215614856579160200282015b8281111561485657825182546001600160a01b0319166001600160a01b03909116178255602090920191600190910190614886565b828054828255906000526020600020906007016008900481019282156148565791602002820160005b8382111561492857835183826101000a81548163ffffffff021916908363ffffffff16021790555092602001926004016020816003010492830192600103026148e4565b80156149585782816101000a81549063ffffffff0219169055600401602081600301049283019260010302614928565b50506148629291505b5b808211156148625760008155600101614962565b60006001600160401b0383111561498f5761498f615933565b6149a2601f8401601f19166020016156a0565b90508281528383830111156149b657600080fd5b828260208301376000602084830101529392505050565b803561106f81615949565b600082601f8301126149e8578081fd5b813560206149fd6149f8836156d0565b6156a0565b80838252828201915082860187848660051b8901011115614a1c578586fd5b855b85811015614a43578135614a3181615949565b84529284019290840190600101614a1e565b5090979650505050505050565b60008083601f840112614a61578182fd5b5081356001600160401b03811115614a77578182fd5b6020830191508360208260051b8501011115614a9257600080fd5b9250929050565b600082601f830112614aa9578081fd5b81356020614ab96149f8836156d0565b80838252828201915082860187848660051b8901011115614ad8578586fd5b855b85811015614a4357614aeb82614b33565b84529284019290840190600101614ada565b600082601f830112614b0d578081fd5b611f0d83833560208501614976565b80356001600160801b038116811461106f57600080fd5b803563ffffffff8116811461106f57600080fd5b80356001600160401b038116811461106f57600080fd5b600060208284031215614b6f578081fd5b8135611f0d81615949565b60008060408385031215614b8c578081fd5b8235614b9781615949565b91506020830135614ba781615949565b809150509250929050565b600080600060608486031215614bc6578081fd5b8335614bd181615949565b92506020840135614be181615949565b929592945050506040919091013590565b60008060008060808587031215614c07578081fd5b8435614c1281615949565b93506020850135614c2281615949565b92506040850135915060608501356001600160401b03811115614c43578182fd5b8501601f81018713614c53578182fd5b614c6287823560208401614976565b91505092959194509250565b60008060408385031215614c80578182fd5b8235614c8b81615949565b91506020830135614ba78161595e565b60008060408385031215614cad578182fd5b8235614cb881615949565b946020939093013593505050565b6000806000806000806000806000806101408b8d031215614ce5578788fd5b614cee8b6149cd565b9950614cfc60208c01614b47565b9850614d0a60408c01614b1c565b9750614d1860608c016149cd565b965060808b01356001600160401b0380821115614d33578788fd5b614d3f8e838f01614afd565b975060a08d0135915080821115614d54578687fd5b50614d618d828e01614afd565b95505060c08b01359350614d7760e08c01614b33565b9250614d866101008c01614b33565b9150614d956101208c01614b33565b90509295989b9194979a5092959850565b600060208284031215614db7578081fd5b8151611f0d8161595e565b600060208284031215614dd3578081fd5b5035919050565b60008060408385031215614dec578182fd5b823591506020830135614ba781615949565b60008060408385031215614e10578182fd5b50508035926020909101359150565b600060208284031215614e30578081fd5b8135611f0d8161596c565b600060208284031215614e4c578081fd5b8151611f0d8161596c565b600080600060608486031215614e6b578081fd5b83356001600160401b0380821115614e81578283fd5b614e8d87838801614afd565b94506020860135915080821115614ea2578283fd5b50614eaf86828701614afd565b9250506040840135614ec081615949565b809150509250925092565b600080600080600060a08688031215614ee2578283fd5b8535945060208601356001600160401b0380821115614eff578485fd5b614f0b89838a016149d8565b95506040880135915080821115614f20578485fd5b614f2c89838a01614a99565b94506060880135915080821115614f41578283fd5b614f4d89838a016149d8565b93506080880135915080821115614f62578283fd5b50614f6f88828901614a99565b9150509295509295909350565b60008060408385031215614f8e578182fd5b8235915060208301356001600160401b03811115614faa578182fd5b614fb685828601614afd565b9150509250929050565b60008060008060008060c08789031215614fd8578384fd5b86359550614fe860208801614b1c565b9450614ff660408801614b33565b935061500460608801614b33565b925061501260808801614b33565b915060a087013590509295509295509295565b60008060408385031215615037578182fd5b8235915061504760208401614b33565b90509250929050565b600080600080600060808688031215615067578283fd5b8535945061507760208701614b33565b93506040860135925060608601356001600160401b03811115615098578182fd5b6150a488828901614a50565b969995985093965092949392505050565b60008060008060008060a087890312156150cd578384fd5b863595506150dd60208801614b33565b94506040870135935060608701356001600160401b038111156150fe578283fd5b61510a89828a01614a50565b909450925050608087013561511e81615949565b809150509295509295509295565b60006020828403121561513d578081fd5b611f0d82614b33565b6000815180845261515e816020860160208601615815565b601f01601f19169290920160200192915050565b6004811061519057634e487b7160e01b600052602160045260246000fd5b9052565b600083516151a6818460208801615815565b8083019050602f60f81b80825284516151c6816001850160208901615815565b6001920191820152693a37b5b2b7173539b7b760b11b6002820152600c01949350505050565b7f416363657373436f6e74726f6c3a206163636f756e7420000000000000000000815260008351615224816017850160208801615815565b7001034b99036b4b9b9b4b733903937b6329607d1b6017918401918201528351615255816028840160208801615815565b01602801949350505050565b6001600160a01b038581168252841660208201526040810183905260806060820181905260009061346190830184615146565b6020808252825182820181905260009190848201906040850190845b818110156152d55783516001600160a01b0316835292840192918401916001016152b0565b50909695505050505050565b6020808252825182820181905260009190848201906040850190845b818110156152d557835163ffffffff16835292840192918401916001016152fd565b8c1515815263ffffffff8c811660208301528b1660408201526001600160401b038a811660608301528981166080830152881660a08201526001600160801b03871660c082015260006101806001600160a01b03881660e08401526001600160a01b0387166101008401528061012084015261539d81840187615146565b915050836101408301526153b5610160830184615172565b9d9c50505050505050505050505050565b602081526000611f0d6020830184615146565b60208082526032908201527f4552433732313a207472616e7366657220746f206e6f6e20455243373231526560408201527131b2b4bb32b91034b6b83632b6b2b73a32b960711b606082015260800190565b6020808252602e908201527f496e697469616c697a61626c653a20636f6e747261637420697320616c72656160408201526d191e481a5b9a5d1a585b1a5e995960921b606082015260800190565b602080825260169082015275189b1d595c1c9a5b9d081b9bdd081c1c995c185c995960521b604082015260600190565b60208082526038908201527f757365722063616e6e6f7420627579206d6f7265207468616e206d617850757260408201527f6368617365416d6f756e7420696e2073696e676c652074780000000000000000606082015260800190565b60208082526031908201527f4552433732313a207472616e736665722063616c6c6572206973206e6f74206f6040820152701ddb995c881b9bdc88185c1c1c9bdd9959607a1b606082015260800190565b6020808252602f908201527f70757263686173652063616e6e6f742062652063616c6c65642066726f6d206160408201526e1b9bdd1a195c8818dbdb9d1c9858dd608a1b606082015260800190565b8581526000602060018060a01b038716818401526001600160401b038616604084015260a060608401526155dd60a0840186615146565b838103608085015284548390600181811c90808316806155fe57607f831692505b86831081141561561c57634e487b7160e01b88526022600452602488fd5b828652602086019550808015615639576001811461564a57615674565b60ff19851687528787019550615674565b60008b815260209020895b8581101561566e57815489820152908401908901615655565b88019650505b50939d9c50505050505050505050505050565b828152604060208201526000612ddb6040830184615146565b604051601f8201601f191681016001600160401b03811182821017156156c8576156c8615933565b604052919050565b60006001600160401b038211156156e9576156e9615933565b5060051b60200190565b60006001600160801b0380831681851680830382111561571557615715615907565b01949350505050565b6000821982111561573157615731615907565b500190565b600063ffffffff80831681851680830382111561571557615715615907565b60006001600160401b0380831681851680830382111561571557615715615907565b6000826157865761578661591d565b500490565b60006001600160801b03808316818516818304811182151516156157b1576157b1615907565b02949350505050565b60008160001904831182151516156157d4576157d4615907565b500290565b6000828210156157eb576157eb615907565b500390565b600063ffffffff8381169083168181101561580d5761580d615907565b039392505050565b60005b83811015615830578181015183820152602001615818565b83811115610dc75750506000910152565b60008161585057615850615907565b506000190190565b60006001600160401b0382168061587157615871615907565b6000190192915050565b600181811c9082168061588f57607f821691505b602082108114156158b057634e487b7160e01b600052602260045260246000fd5b50919050565b600061ffff808316818114156158ce576158ce615907565b6001019392505050565b60006000198214156158ec576158ec615907565b5060010190565b6000826159025761590261591d565b500690565b634e487b7160e01b600052601160045260246000fd5b634e487b7160e01b600052601260045260246000fd5b634e487b7160e01b600052604160045260246000fd5b6001600160a01b0381168114611bc757600080fd5b8015158114611bc757600080fd5b6001600160e01b031981168114611bc757600080fdfe9f2df0fed2c77648de5860a4cc508cd0818c85b8b8a1ab4ceeef8d981c8956a6a26469706673582212204b4749ad212a1d9cf3ec50aa0a5d7d008297c84c5dd29add8dd9f186d0d770de64736f6c63430008040033",
  "devdoc": {
    "kind": "dev",
    "methods": {
      "approve(address,uint256)": {
        "details": "See {IERC721-approve}."
      },
      "balanceOf(address)": {
        "details": "See {IERC721-balanceOf}."
      },
      "getApproved(uint256)": {
        "details": "See {IERC721-getApproved}."
      },
      "getRoleAdmin(bytes32)": {
        "details": "Returns the admin role that controls `role`. See {grantRole} and {revokeRole}. To change a role's admin, use {_setRoleAdmin}."
      },
      "getRoleMember(bytes32,uint256)": {
        "details": "Returns one of the accounts that have `role`. `index` must be a value between 0 and {getRoleMemberCount}, non-inclusive. Role bearers are not sorted in any particular way, and their ordering may change at any point. WARNING: When using {getRoleMember} and {getRoleMemberCount}, make sure you perform all queries on the same block. See the following https://forum.openzeppelin.com/t/iterating-over-elements-on-enumerableset-in-openzeppelin-contracts/2296[forum post] for more information."
      },
      "getRoleMemberCount(bytes32)": {
        "details": "Returns the number of accounts that have `role`. Can be used together with {getRoleMember} to enumerate all bearers of a role."
      },
      "grantRole(bytes32,address)": {
        "details": "Grants `role` to `account`. If `account` had not been already granted `role`, emits a {RoleGranted} event. Requirements: - the caller must have ``role``'s admin role."
      },
      "hasRole(bytes32,address)": {
        "details": "Returns `true` if `account` has been granted `role`."
      },
      "name()": {
        "details": "See {IERC721Metadata-name}."
      },
      "ownerOf(uint256)": {
        "details": "See {IERC721-ownerOf}."
      },
      "renounceRole(bytes32,address)": {
        "details": "Revokes `role` from the calling account. Roles are often managed via {grantRole} and {revokeRole}: this function's purpose is to provide a mechanism for accounts to lose their privileges if they are compromised (such as when a trusted device is misplaced). If the calling account had been revoked `role`, emits a {RoleRevoked} event. Requirements: - the caller must be `account`."
      },
      "revokeRole(bytes32,address)": {
        "details": "Revokes `role` from `account`. If `account` had been granted `role`, emits a {RoleRevoked} event. Requirements: - the caller must have ``role``'s admin role."
      },
      "safeTransferFrom(address,address,uint256)": {
        "details": "See {IERC721-safeTransferFrom}."
      },
      "safeTransferFrom(address,address,uint256,bytes)": {
        "details": "See {IERC721-safeTransferFrom}."
      },
      "setApprovalForAll(address,bool)": {
        "details": "See {IERC721-setApprovalForAll}."
      },
      "symbol()": {
        "details": "See {IERC721Metadata-symbol}."
      },
      "tokenURI(uint256)": {
        "details": "See {IERC721Metadata-tokenURI}."
      },
      "transferFrom(address,address,uint256)": {
        "details": "See {IERC721-transferFrom}."
      }
    },
    "version": 1
  },
  "userdoc": {
    "kind": "user",
    "methods": {
      "initialize(string,string,address)": {
        "notice": " Initialize the implementation"
      },
      "isApprovedForAll(address,address)": {
        "notice": "Required function overide //////"
      },
      "updateBlueprintTokenUri(uint256,string)": {
        "notice": "ONLY ADMIN functions ///"
      }
    },
    "version": 1
  },
  "storageLayout": {
    "storage": [
      {
        "astId": 596,
        "contract": "contracts/contracts/BlueprintV6.sol:BlueprintV6",
        "label": "_initialized",
        "offset": 0,
        "slot": "0",
        "type": "t_bool"
      },
      {
        "astId": 599,
        "contract": "contracts/contracts/BlueprintV6.sol:BlueprintV6",
        "label": "_initializing",
        "offset": 1,
        "slot": "0",
        "type": "t_bool"
      },
      {
        "astId": 1946,
        "contract": "contracts/contracts/BlueprintV6.sol:BlueprintV6",
        "label": "__gap",
        "offset": 0,
        "slot": "1",
        "type": "t_array(t_uint256)50_storage"
      },
      {
        "astId": 2271,
        "contract": "contracts/contracts/BlueprintV6.sol:BlueprintV6",
        "label": "__gap",
        "offset": 0,
        "slot": "51",
        "type": "t_array(t_uint256)50_storage"
      },
      {
        "astId": 665,
        "contract": "contracts/contracts/BlueprintV6.sol:BlueprintV6",
        "label": "_name",
        "offset": 0,
        "slot": "101",
        "type": "t_string_storage"
      },
      {
        "astId": 667,
        "contract": "contracts/contracts/BlueprintV6.sol:BlueprintV6",
        "label": "_symbol",
        "offset": 0,
        "slot": "102",
        "type": "t_string_storage"
      },
      {
        "astId": 671,
        "contract": "contracts/contracts/BlueprintV6.sol:BlueprintV6",
        "label": "_owners",
        "offset": 0,
        "slot": "103",
        "type": "t_mapping(t_uint256,t_address)"
      },
      {
        "astId": 675,
        "contract": "contracts/contracts/BlueprintV6.sol:BlueprintV6",
        "label": "_balances",
        "offset": 0,
        "slot": "104",
        "type": "t_mapping(t_address,t_uint256)"
      },
      {
        "astId": 679,
        "contract": "contracts/contracts/BlueprintV6.sol:BlueprintV6",
        "label": "_tokenApprovals",
        "offset": 0,
        "slot": "105",
        "type": "t_mapping(t_uint256,t_address)"
      },
      {
        "astId": 685,
        "contract": "contracts/contracts/BlueprintV6.sol:BlueprintV6",
        "label": "_operatorApprovals",
        "offset": 0,
        "slot": "106",
        "type": "t_mapping(t_address,t_mapping(t_address,t_bool))"
      },
      {
        "astId": 1496,
        "contract": "contracts/contracts/BlueprintV6.sol:BlueprintV6",
        "label": "__gap",
        "offset": 0,
        "slot": "107",
        "type": "t_array(t_uint256)44_storage"
      },
      {
        "astId": 2182,
        "contract": "contracts/contracts/BlueprintV6.sol:BlueprintV6",
        "label": "_supportedInterfaces",
        "offset": 0,
        "slot": "151",
        "type": "t_mapping(t_bytes4,t_bool)"
      },
      {
        "astId": 2225,
        "contract": "contracts/contracts/BlueprintV6.sol:BlueprintV6",
        "label": "__gap",
        "offset": 0,
        "slot": "152",
        "type": "t_array(t_uint256)49_storage"
      },
      {
        "astId": 204,
        "contract": "contracts/contracts/BlueprintV6.sol:BlueprintV6",
        "label": "_roles",
        "offset": 0,
        "slot": "201",
        "type": "t_mapping(t_bytes32,t_struct(RoleData)199_storage)"
      },
      {
        "astId": 491,
        "contract": "contracts/contracts/BlueprintV6.sol:BlueprintV6",
        "label": "__gap",
        "offset": 0,
        "slot": "202",
        "type": "t_array(t_uint256)49_storage"
      },
      {
        "astId": 45,
        "contract": "contracts/contracts/BlueprintV6.sol:BlueprintV6",
        "label": "_roleMembers",
        "offset": 0,
        "slot": "251",
        "type": "t_mapping(t_bytes32,t_struct(AddressSet)2596_storage)"
      },
      {
        "astId": 154,
        "contract": "contracts/contracts/BlueprintV6.sol:BlueprintV6",
        "label": "__gap",
        "offset": 0,
        "slot": "252",
        "type": "t_array(t_uint256)49_storage"
      },
      {
        "astId": 9769,
        "contract": "contracts/contracts/BlueprintV6.sol:BlueprintV6",
        "label": "defaultPlatformPrimaryFeePercentage",
        "offset": 0,
        "slot": "301",
        "type": "t_uint32"
      },
      {
        "astId": 9771,
        "contract": "contracts/contracts/BlueprintV6.sol:BlueprintV6",
        "label": "defaultBlueprintSecondarySalePercentage",
        "offset": 4,
        "slot": "301",
        "type": "t_uint32"
      },
      {
        "astId": 9773,
        "contract": "contracts/contracts/BlueprintV6.sol:BlueprintV6",
        "label": "defaultPlatformSecondarySalePercentage",
        "offset": 8,
        "slot": "301",
        "type": "t_uint32"
      },
      {
        "astId": 9775,
        "contract": "contracts/contracts/BlueprintV6.sol:BlueprintV6",
        "label": "latestErc721TokenIndex",
        "offset": 12,
        "slot": "301",
        "type": "t_uint64"
      },
      {
        "astId": 9777,
        "contract": "contracts/contracts/BlueprintV6.sol:BlueprintV6",
        "label": "blueprintIndex",
        "offset": 0,
        "slot": "302",
        "type": "t_uint256"
      },
      {
        "astId": 9779,
        "contract": "contracts/contracts/BlueprintV6.sol:BlueprintV6",
        "label": "asyncSaleFeesRecipient",
        "offset": 0,
        "slot": "303",
        "type": "t_address"
      },
      {
        "astId": 9781,
        "contract": "contracts/contracts/BlueprintV6.sol:BlueprintV6",
        "label": "platform",
        "offset": 0,
        "slot": "304",
        "type": "t_address"
      },
      {
        "astId": 9783,
        "contract": "contracts/contracts/BlueprintV6.sol:BlueprintV6",
        "label": "minterAddress",
        "offset": 0,
        "slot": "305",
        "type": "t_address"
      },
      {
        "astId": 9787,
        "contract": "contracts/contracts/BlueprintV6.sol:BlueprintV6",
        "label": "tokenToBlueprintID",
        "offset": 0,
        "slot": "306",
        "type": "t_mapping(t_uint256,t_uint256)"
      },
      {
        "astId": 9791,
        "contract": "contracts/contracts/BlueprintV6.sol:BlueprintV6",
        "label": "failedTransferCredits",
        "offset": 0,
        "slot": "307",
        "type": "t_mapping(t_address,t_uint256)"
      },
      {
        "astId": 9796,
        "contract": "contracts/contracts/BlueprintV6.sol:BlueprintV6",
        "label": "blueprints",
        "offset": 0,
        "slot": "308",
        "type": "t_mapping(t_uint256,t_struct(Blueprints)9848_storage)"
      }
    ],
    "types": {
      "t_address": {
        "encoding": "inplace",
        "label": "address",
        "numberOfBytes": "20"
      },
      "t_array(t_address)dyn_storage": {
        "base": "t_address",
        "encoding": "dynamic_array",
        "label": "address[]",
        "numberOfBytes": "32"
      },
      "t_array(t_bytes32)dyn_storage": {
        "base": "t_bytes32",
        "encoding": "dynamic_array",
        "label": "bytes32[]",
        "numberOfBytes": "32"
      },
      "t_array(t_uint256)44_storage": {
        "base": "t_uint256",
        "encoding": "inplace",
        "label": "uint256[44]",
        "numberOfBytes": "1408"
      },
      "t_array(t_uint256)49_storage": {
        "base": "t_uint256",
        "encoding": "inplace",
        "label": "uint256[49]",
        "numberOfBytes": "1568"
      },
      "t_array(t_uint256)50_storage": {
        "base": "t_uint256",
        "encoding": "inplace",
        "label": "uint256[50]",
        "numberOfBytes": "1600"
      },
      "t_array(t_uint32)dyn_storage": {
        "base": "t_uint32",
        "encoding": "dynamic_array",
        "label": "uint32[]",
        "numberOfBytes": "32"
      },
      "t_bool": {
        "encoding": "inplace",
        "label": "bool",
        "numberOfBytes": "1"
      },
      "t_bytes32": {
        "encoding": "inplace",
        "label": "bytes32",
        "numberOfBytes": "32"
      },
      "t_bytes4": {
        "encoding": "inplace",
        "label": "bytes4",
        "numberOfBytes": "4"
      },
      "t_enum(SaleState)9806": {
        "encoding": "inplace",
        "label": "enum BlueprintV6.SaleState",
        "numberOfBytes": "1"
      },
      "t_mapping(t_address,t_bool)": {
        "encoding": "mapping",
        "key": "t_address",
        "label": "mapping(address => bool)",
        "numberOfBytes": "32",
        "value": "t_bool"
      },
      "t_mapping(t_address,t_mapping(t_address,t_bool))": {
        "encoding": "mapping",
        "key": "t_address",
        "label": "mapping(address => mapping(address => bool))",
        "numberOfBytes": "32",
        "value": "t_mapping(t_address,t_bool)"
      },
      "t_mapping(t_address,t_uint256)": {
        "encoding": "mapping",
        "key": "t_address",
        "label": "mapping(address => uint256)",
        "numberOfBytes": "32",
        "value": "t_uint256"
      },
      "t_mapping(t_bytes32,t_struct(AddressSet)2596_storage)": {
        "encoding": "mapping",
        "key": "t_bytes32",
        "label": "mapping(bytes32 => struct EnumerableSetUpgradeable.AddressSet)",
        "numberOfBytes": "32",
        "value": "t_struct(AddressSet)2596_storage"
      },
      "t_mapping(t_bytes32,t_struct(RoleData)199_storage)": {
        "encoding": "mapping",
        "key": "t_bytes32",
        "label": "mapping(bytes32 => struct AccessControlUpgradeable.RoleData)",
        "numberOfBytes": "32",
        "value": "t_struct(RoleData)199_storage"
      },
      "t_mapping(t_bytes32,t_uint256)": {
        "encoding": "mapping",
        "key": "t_bytes32",
        "label": "mapping(bytes32 => uint256)",
        "numberOfBytes": "32",
        "value": "t_uint256"
      },
      "t_mapping(t_bytes4,t_bool)": {
        "encoding": "mapping",
        "key": "t_bytes4",
        "label": "mapping(bytes4 => bool)",
        "numberOfBytes": "32",
        "value": "t_bool"
      },
      "t_mapping(t_uint256,t_address)": {
        "encoding": "mapping",
        "key": "t_uint256",
        "label": "mapping(uint256 => address)",
        "numberOfBytes": "32",
        "value": "t_address"
      },
      "t_mapping(t_uint256,t_struct(Blueprints)9848_storage)": {
        "encoding": "mapping",
        "key": "t_uint256",
        "label": "mapping(uint256 => struct BlueprintV6.Blueprints)",
        "numberOfBytes": "32",
        "value": "t_struct(Blueprints)9848_storage"
      },
      "t_mapping(t_uint256,t_uint256)": {
        "encoding": "mapping",
        "key": "t_uint256",
        "label": "mapping(uint256 => uint256)",
        "numberOfBytes": "32",
        "value": "t_uint256"
      },
      "t_string_storage": {
        "encoding": "bytes",
        "label": "string",
        "numberOfBytes": "32"
      },
      "t_struct(AddressSet)2596_storage": {
        "encoding": "inplace",
        "label": "struct EnumerableSetUpgradeable.AddressSet",
        "members": [
          {
            "astId": 2595,
            "contract": "contracts/contracts/BlueprintV6.sol:BlueprintV6",
            "label": "_inner",
            "offset": 0,
            "slot": "0",
            "type": "t_struct(Set)2295_storage"
          }
        ],
        "numberOfBytes": "64"
      },
      "t_struct(Blueprints)9848_storage": {
        "encoding": "inplace",
        "label": "struct BlueprintV6.Blueprints",
        "members": [
          {
            "astId": 9808,
            "contract": "contracts/contracts/BlueprintV6.sol:BlueprintV6",
            "label": "tokenUriLocked",
            "offset": 0,
            "slot": "0",
            "type": "t_bool"
          },
          {
            "astId": 9810,
            "contract": "contracts/contracts/BlueprintV6.sol:BlueprintV6",
            "label": "mintAmountArtist",
            "offset": 1,
            "slot": "0",
            "type": "t_uint32"
          },
          {
            "astId": 9812,
            "contract": "contracts/contracts/BlueprintV6.sol:BlueprintV6",
            "label": "mintAmountPlatform",
            "offset": 5,
            "slot": "0",
            "type": "t_uint32"
          },
          {
            "astId": 9814,
            "contract": "contracts/contracts/BlueprintV6.sol:BlueprintV6",
            "label": "capacity",
            "offset": 9,
            "slot": "0",
            "type": "t_uint64"
          },
          {
            "astId": 9816,
            "contract": "contracts/contracts/BlueprintV6.sol:BlueprintV6",
            "label": "erc721TokenIndex",
            "offset": 17,
            "slot": "0",
            "type": "t_uint64"
          },
          {
            "astId": 9818,
            "contract": "contracts/contracts/BlueprintV6.sol:BlueprintV6",
            "label": "maxPurchaseAmount",
            "offset": 0,
            "slot": "1",
            "type": "t_uint64"
          },
          {
            "astId": 9820,
            "contract": "contracts/contracts/BlueprintV6.sol:BlueprintV6",
            "label": "price",
            "offset": 8,
            "slot": "1",
            "type": "t_uint128"
          },
          {
            "astId": 9822,
            "contract": "contracts/contracts/BlueprintV6.sol:BlueprintV6",
            "label": "artist",
            "offset": 0,
            "slot": "2",
            "type": "t_address"
          },
          {
            "astId": 9824,
            "contract": "contracts/contracts/BlueprintV6.sol:BlueprintV6",
            "label": "ERC20Token",
            "offset": 0,
            "slot": "3",
            "type": "t_address"
          },
          {
            "astId": 9826,
            "contract": "contracts/contracts/BlueprintV6.sol:BlueprintV6",
            "label": "baseTokenUri",
            "offset": 0,
            "slot": "4",
            "type": "t_string_storage"
          },
          {
            "astId": 9828,
            "contract": "contracts/contracts/BlueprintV6.sol:BlueprintV6",
            "label": "merkleroot",
            "offset": 0,
            "slot": "5",
            "type": "t_bytes32"
          },
          {
            "astId": 9831,
            "contract": "contracts/contracts/BlueprintV6.sol:BlueprintV6",
            "label": "saleState",
            "offset": 0,
            "slot": "6",
            "type": "t_enum(SaleState)9806"
          },
          {
            "astId": 9834,
            "contract": "contracts/contracts/BlueprintV6.sol:BlueprintV6",
            "label": "primaryFeeBPS",
            "offset": 0,
            "slot": "7",
            "type": "t_array(t_uint32)dyn_storage"
          },
          {
            "astId": 9837,
            "contract": "contracts/contracts/BlueprintV6.sol:BlueprintV6",
            "label": "secondaryFeeBPS",
            "offset": 0,
            "slot": "8",
            "type": "t_array(t_uint32)dyn_storage"
          },
          {
            "astId": 9840,
            "contract": "contracts/contracts/BlueprintV6.sol:BlueprintV6",
            "label": "primaryFeeRecipients",
            "offset": 0,
            "slot": "9",
            "type": "t_array(t_address)dyn_storage"
          },
          {
            "astId": 9843,
            "contract": "contracts/contracts/BlueprintV6.sol:BlueprintV6",
            "label": "secondaryFeeRecipients",
            "offset": 0,
            "slot": "10",
            "type": "t_array(t_address)dyn_storage"
          },
          {
            "astId": 9847,
            "contract": "contracts/contracts/BlueprintV6.sol:BlueprintV6",
            "label": "claimedWhitelistedPieces",
            "offset": 0,
            "slot": "11",
            "type": "t_mapping(t_address,t_bool)"
          }
        ],
        "numberOfBytes": "384"
      },
      "t_struct(RoleData)199_storage": {
        "encoding": "inplace",
        "label": "struct AccessControlUpgradeable.RoleData",
        "members": [
          {
            "astId": 196,
            "contract": "contracts/contracts/BlueprintV6.sol:BlueprintV6",
            "label": "members",
            "offset": 0,
            "slot": "0",
            "type": "t_mapping(t_address,t_bool)"
          },
          {
            "astId": 198,
            "contract": "contracts/contracts/BlueprintV6.sol:BlueprintV6",
            "label": "adminRole",
            "offset": 0,
            "slot": "1",
            "type": "t_bytes32"
          }
        ],
        "numberOfBytes": "64"
      },
      "t_struct(Set)2295_storage": {
        "encoding": "inplace",
        "label": "struct EnumerableSetUpgradeable.Set",
        "members": [
          {
            "astId": 2290,
            "contract": "contracts/contracts/BlueprintV6.sol:BlueprintV6",
            "label": "_values",
            "offset": 0,
            "slot": "0",
            "type": "t_array(t_bytes32)dyn_storage"
          },
          {
            "astId": 2294,
            "contract": "contracts/contracts/BlueprintV6.sol:BlueprintV6",
            "label": "_indexes",
            "offset": 0,
            "slot": "1",
            "type": "t_mapping(t_bytes32,t_uint256)"
          }
        ],
        "numberOfBytes": "64"
      },
      "t_uint128": {
        "encoding": "inplace",
        "label": "uint128",
        "numberOfBytes": "16"
      },
      "t_uint256": {
        "encoding": "inplace",
        "label": "uint256",
        "numberOfBytes": "32"
      },
      "t_uint32": {
        "encoding": "inplace",
        "label": "uint32",
        "numberOfBytes": "4"
      },
      "t_uint64": {
        "encoding": "inplace",
        "label": "uint64",
        "numberOfBytes": "8"
      }
    }
  }
}