{
  "address": "0xbd3008b9383a5d5639f7e1c34e2eb6e6a13bd0f9",
  "abi": [
    {
      "anonymous": false,
      "inputs": [
        {
          "indexed": true,
          "internalType": "address",
          "name": "owner",
          "type": "address"
        },
        {
          "indexed": true,
          "internalType": "address",
          "name": "approved",
          "type": "address"
        },
        {
          "indexed": true,
          "internalType": "uint256",
          "name": "tokenId",
          "type": "uint256"
        }
      ],
      "name": "Approval",
      "type": "event"
    },
    {
      "anonymous": false,
      "inputs": [
        {
          "indexed": true,
          "internalType": "address",
          "name": "owner",
          "type": "address"
        },
        {
          "indexed": true,
          "internalType": "address",
          "name": "operator",
          "type": "address"
        },
        {
          "indexed": false,
          "internalType": "bool",
          "name": "approved",
          "type": "bool"
        }
      ],
      "name": "ApprovalForAll",
      "type": "event"
    },
    {
      "anonymous": false,
      "inputs": [
        {
          "indexed": false,
          "internalType": "uint256",
          "name": "blueprintID",
          "type": "uint256"
        },
        {
          "indexed": false,
          "internalType": "address",
          "name": "artist",
          "type": "address"
        },
        {
          "indexed": false,
          "internalType": "address",
          "name": "purchaser",
          "type": "address"
        },
        {
          "indexed": false,
          "internalType": "uint128",
          "name": "tokenId",
          "type": "uint128"
        },
        {
          "indexed": false,
          "internalType": "uint64",
          "name": "newCapacity",
          "type": "uint64"
        },
        {
          "indexed": false,
          "internalType": "bytes32",
          "name": "seedPrefix",
          "type": "bytes32"
        }
      ],
      "name": "BlueprintMinted",
      "type": "event"
    },
    {
      "anonymous": false,
      "inputs": [
        {
          "indexed": false,
          "internalType": "uint256",
          "name": "blueprintID",
          "type": "uint256"
        },
        {
          "indexed": false,
          "internalType": "address",
          "name": "artist",
          "type": "address"
        },
        {
          "indexed": false,
          "internalType": "uint64",
          "name": "capacity",
          "type": "uint64"
        },
        {
          "indexed": false,
          "internalType": "string",
          "name": "blueprintMetaData",
          "type": "string"
        },
        {
          "indexed": false,
          "internalType": "string",
          "name": "baseTokenUri",
          "type": "string"
        }
      ],
      "name": "BlueprintPrepared",
      "type": "event"
    },
    {
      "anonymous": false,
      "inputs": [
        {
          "indexed": false,
          "internalType": "uint256",
          "name": "blueprintID",
          "type": "uint256"
        },
        {
          "indexed": false,
          "internalType": "string",
          "name": "randomSeed",
          "type": "string"
        }
      ],
      "name": "BlueprintSeed",
      "type": "event"
    },
    {
      "anonymous": false,
      "inputs": [
        {
          "indexed": false,
          "internalType": "uint256",
          "name": "blueprintID",
          "type": "uint256"
        },
        {
          "indexed": false,
          "internalType": "string",
          "name": "newBaseTokenUri",
          "type": "string"
        }
      ],
      "name": "BlueprintTokenUriUpdated",
      "type": "event"
    },
    {
      "anonymous": false,
      "inputs": [
        {
          "indexed": true,
          "internalType": "bytes32",
          "name": "role",
          "type": "bytes32"
        },
        {
          "indexed": true,
          "internalType": "bytes32",
          "name": "previousAdminRole",
          "type": "bytes32"
        },
        {
          "indexed": true,
          "internalType": "bytes32",
          "name": "newAdminRole",
          "type": "bytes32"
        }
      ],
      "name": "RoleAdminChanged",
      "type": "event"
    },
    {
      "anonymous": false,
      "inputs": [
        {
          "indexed": true,
          "internalType": "bytes32",
          "name": "role",
          "type": "bytes32"
        },
        {
          "indexed": true,
          "internalType": "address",
          "name": "account",
          "type": "address"
        },
        {
          "indexed": true,
          "internalType": "address",
          "name": "sender",
          "type": "address"
        }
      ],
      "name": "RoleGranted",
      "type": "event"
    },
    {
      "anonymous": false,
      "inputs": [
        {
          "indexed": true,
          "internalType": "bytes32",
          "name": "role",
          "type": "bytes32"
        },
        {
          "indexed": true,
          "internalType": "address",
          "name": "account",
          "type": "address"
        },
        {
          "indexed": true,
          "internalType": "address",
          "name": "sender",
          "type": "address"
        }
      ],
      "name": "RoleRevoked",
      "type": "event"
    },
    {
      "anonymous": false,
      "inputs": [
        {
          "indexed": false,
          "internalType": "uint256",
          "name": "blueprintID",
          "type": "uint256"
        }
      ],
      "name": "SalePaused",
      "type": "event"
    },
    {
      "anonymous": false,
      "inputs": [
        {
          "indexed": false,
          "internalType": "uint256",
          "name": "blueprintID",
          "type": "uint256"
        }
      ],
      "name": "SaleStarted",
      "type": "event"
    },
    {
      "anonymous": false,
      "inputs": [
        {
          "indexed": false,
          "internalType": "uint256",
          "name": "blueprintID",
          "type": "uint256"
        }
      ],
      "name": "SaleUnpaused",
      "type": "event"
    },
    {
      "anonymous": false,
      "inputs": [
        {
          "indexed": false,
          "internalType": "uint256",
          "name": "tokenId",
          "type": "uint256"
        },
        {
          "indexed": false,
          "internalType": "address[]",
          "name": "recipients",
          "type": "address[]"
        },
        {
          "indexed": false,
          "internalType": "uint256[]",
          "name": "bps",
          "type": "uint256[]"
        }
      ],
      "name": "SecondarySaleFees",
      "type": "event"
    },
    {
      "anonymous": false,
      "inputs": [
        {
          "indexed": true,
          "internalType": "address",
          "name": "from",
          "type": "address"
        },
        {
          "indexed": true,
          "internalType": "address",
          "name": "to",
          "type": "address"
        },
        {
          "indexed": true,
          "internalType": "uint256",
          "name": "tokenId",
          "type": "uint256"
        }
      ],
      "name": "Transfer",
      "type": "event"
    },
    {
      "inputs": [],
      "name": "DEFAULT_ADMIN_ROLE",
      "outputs": [
        {
          "internalType": "bytes32",
          "name": "",
          "type": "bytes32"
        }
      ],
      "stateMutability": "view",
      "type": "function"
    },
    {
      "inputs": [],
      "name": "MINTER_ROLE",
      "outputs": [
        {
          "internalType": "bytes32",
          "name": "",
          "type": "bytes32"
        }
      ],
      "stateMutability": "view",
      "type": "function"
    },
    {
      "inputs": [],
      "name": "OPERATOR_ROLE",
      "outputs": [
        {
          "internalType": "bytes32",
          "name": "",
          "type": "bytes32"
        }
      ],
      "stateMutability": "view",
      "type": "function"
    },
    {
      "inputs": [],
      "name": "_initialize",
      "outputs": [],
      "stateMutability": "nonpayable",
      "type": "function"
    },
    {
      "inputs": [
        {
          "internalType": "address",
          "name": "to",
          "type": "address"
        },
        {
          "internalType": "uint256",
          "name": "tokenId",
          "type": "uint256"
        }
      ],
      "name": "approve",
      "outputs": [],
      "stateMutability": "nonpayable",
      "type": "function"
    },
    {
      "inputs": [],
      "name": "asyncSaleFeesRecipient",
      "outputs": [
        {
          "internalType": "address",
          "name": "",
          "type": "address"
        }
      ],
      "stateMutability": "view",
      "type": "function"
    },
    {
      "inputs": [
        {
          "internalType": "address",
          "name": "owner",
          "type": "address"
        }
      ],
      "name": "balanceOf",
      "outputs": [
        {
          "internalType": "uint256",
          "name": "",
          "type": "uint256"
        }
      ],
      "stateMutability": "view",
      "type": "function"
    },
    {
      "inputs": [],
      "name": "baseTokenUri",
      "outputs": [
        {
          "internalType": "string",
          "name": "",
          "type": "string"
        }
      ],
      "stateMutability": "view",
      "type": "function"
    },
    {
      "inputs": [
        {
          "internalType": "uint256",
          "name": "blueprintID",
          "type": "uint256"
        }
      ],
      "name": "beginSale",
      "outputs": [],
      "stateMutability": "nonpayable",
      "type": "function"
    },
    {
      "inputs": [],
      "name": "blueprintIndex",
      "outputs": [
        {
          "internalType": "uint256",
          "name": "",
          "type": "uint256"
        }
      ],
      "stateMutability": "view",
      "type": "function"
    },
    {
      "inputs": [
        {
          "internalType": "uint256",
          "name": "",
          "type": "uint256"
        }
      ],
      "name": "blueprints",
      "outputs": [
        {
          "internalType": "uint32",
          "name": "mintAmountArtist",
          "type": "uint32"
        },
        {
          "internalType": "uint32",
          "name": "mintAmountPlatform",
          "type": "uint32"
        },
        {
          "internalType": "uint64",
          "name": "capacity",
          "type": "uint64"
        },
        {
          "internalType": "uint128",
          "name": "price",
          "type": "uint128"
        },
        {
          "internalType": "uint64",
          "name": "erc721TokenIndex",
          "type": "uint64"
        },
        {
          "internalType": "address",
          "name": "artist",
          "type": "address"
        },
        {
          "internalType": "enum Blueprint.SaleState",
          "name": "saleState",
          "type": "uint8"
        },
        {
          "internalType": "bool",
          "name": "tokenUriLocked",
          "type": "bool"
        },
        {
          "internalType": "address",
          "name": "ERC20Token",
          "type": "address"
        },
        {
          "internalType": "string",
          "name": "baseTokenUri",
          "type": "string"
        },
        {
          "internalType": "bytes32",
          "name": "merkleroot",
          "type": "bytes32"
        }
      ],
      "stateMutability": "view",
      "type": "function"
    },
    {
      "inputs": [
        {
          "internalType": "uint32",
          "name": "_basisPoints",
          "type": "uint32"
        }
      ],
      "name": "changeDefaultBlueprintSecondarySalePercentage",
      "outputs": [],
      "stateMutability": "nonpayable",
      "type": "function"
    },
    {
      "inputs": [
        {
          "internalType": "uint32",
          "name": "_basisPoints",
          "type": "uint32"
        }
      ],
      "name": "changeDefaultPlatformPrimaryFeePercentage",
      "outputs": [],
      "stateMutability": "nonpayable",
      "type": "function"
    },
    {
      "inputs": [
        {
          "internalType": "uint32",
          "name": "_basisPoints",
          "type": "uint32"
        }
      ],
      "name": "changeDefaultPlatformSecondarySalePercentage",
      "outputs": [],
      "stateMutability": "nonpayable",
      "type": "function"
    },
    {
      "inputs": [],
      "name": "defaultBlueprintSecondarySalePercentage",
      "outputs": [
        {
          "internalType": "uint32",
          "name": "",
          "type": "uint32"
        }
      ],
      "stateMutability": "view",
      "type": "function"
    },
    {
      "inputs": [],
      "name": "defaultPlatformPrimaryFeePercentage",
      "outputs": [
        {
          "internalType": "uint32",
          "name": "",
          "type": "uint32"
        }
      ],
      "stateMutability": "view",
      "type": "function"
    },
    {
      "inputs": [],
      "name": "defaultPlatformSecondarySalePercentage",
      "outputs": [
        {
          "internalType": "uint32",
          "name": "",
          "type": "uint32"
        }
      ],
      "stateMutability": "view",
      "type": "function"
    },
    {
      "inputs": [
        {
          "internalType": "uint256",
          "name": "tokenId",
          "type": "uint256"
        }
      ],
      "name": "getApproved",
      "outputs": [
        {
          "internalType": "address",
          "name": "",
          "type": "address"
        }
      ],
      "stateMutability": "view",
      "type": "function"
    },
    {
      "inputs": [
        {
          "internalType": "uint256",
          "name": "id",
          "type": "uint256"
        }
      ],
      "name": "getFeeBps",
      "outputs": [
        {
          "internalType": "uint32[]",
          "name": "",
          "type": "uint32[]"
        }
      ],
      "stateMutability": "view",
      "type": "function"
    },
    {
      "inputs": [
        {
          "internalType": "uint256",
          "name": "id",
          "type": "uint256"
        }
      ],
      "name": "getFeeRecipients",
      "outputs": [
        {
          "internalType": "address[]",
          "name": "",
          "type": "address[]"
        }
      ],
      "stateMutability": "view",
      "type": "function"
    },
    {
      "inputs": [
        {
          "internalType": "uint256",
          "name": "id",
          "type": "uint256"
        }
      ],
      "name": "getPrimaryFeeBps",
      "outputs": [
        {
          "internalType": "uint32[]",
          "name": "",
          "type": "uint32[]"
        }
      ],
      "stateMutability": "view",
      "type": "function"
    },
    {
      "inputs": [
        {
          "internalType": "uint256",
          "name": "id",
          "type": "uint256"
        }
      ],
      "name": "getPrimaryFeeRecipients",
      "outputs": [
        {
          "internalType": "address[]",
          "name": "",
          "type": "address[]"
        }
      ],
      "stateMutability": "view",
      "type": "function"
    },
    {
      "inputs": [
        {
          "internalType": "bytes32",
          "name": "role",
          "type": "bytes32"
        }
      ],
      "name": "getRoleAdmin",
      "outputs": [
        {
          "internalType": "bytes32",
          "name": "",
          "type": "bytes32"
        }
      ],
      "stateMutability": "view",
      "type": "function"
    },
    {
      "inputs": [
        {
          "internalType": "bytes32",
          "name": "role",
          "type": "bytes32"
        },
        {
          "internalType": "uint256",
          "name": "index",
          "type": "uint256"
        }
      ],
      "name": "getRoleMember",
      "outputs": [
        {
          "internalType": "address",
          "name": "",
          "type": "address"
        }
      ],
      "stateMutability": "view",
      "type": "function"
    },
    {
      "inputs": [
        {
          "internalType": "bytes32",
          "name": "role",
          "type": "bytes32"
        }
      ],
      "name": "getRoleMemberCount",
      "outputs": [
        {
          "internalType": "uint256",
          "name": "",
          "type": "uint256"
        }
      ],
      "stateMutability": "view",
      "type": "function"
    },
    {
      "inputs": [
        {
          "internalType": "bytes32",
          "name": "role",
          "type": "bytes32"
        },
        {
          "internalType": "address",
          "name": "account",
          "type": "address"
        }
      ],
      "name": "grantRole",
      "outputs": [],
      "stateMutability": "nonpayable",
      "type": "function"
    },
    {
      "inputs": [
        {
          "internalType": "bytes32",
          "name": "role",
          "type": "bytes32"
        },
        {
          "internalType": "address",
          "name": "account",
          "type": "address"
        }
      ],
      "name": "hasRole",
      "outputs": [
        {
          "internalType": "bool",
          "name": "",
          "type": "bool"
        }
      ],
      "stateMutability": "view",
      "type": "function"
    },
    {
      "inputs": [
        {
          "internalType": "string",
          "name": "name_",
          "type": "string"
        },
        {
          "internalType": "string",
          "name": "symbol_",
          "type": "string"
        },
        {
          "internalType": "address",
          "name": "minter",
          "type": "address"
        }
      ],
      "name": "initialize",
      "outputs": [],
      "stateMutability": "nonpayable",
      "type": "function"
    },
    {
      "inputs": [
        {
          "internalType": "address",
          "name": "account",
          "type": "address"
        },
        {
          "internalType": "address",
          "name": "operator",
          "type": "address"
        }
      ],
      "name": "isApprovedForAll",
      "outputs": [
        {
          "internalType": "bool",
          "name": "",
          "type": "bool"
        }
      ],
      "stateMutability": "view",
      "type": "function"
    },
    {
      "inputs": [],
      "name": "latestErc721TokenIndex",
      "outputs": [
        {
          "internalType": "uint64",
          "name": "",
          "type": "uint64"
        }
      ],
      "stateMutability": "view",
      "type": "function"
    },
    {
      "inputs": [
        {
          "internalType": "uint256",
          "name": "blueprintID",
          "type": "uint256"
        }
      ],
      "name": "lockBlueprintTokenUri",
      "outputs": [],
      "stateMutability": "nonpayable",
      "type": "function"
    },
    {
      "inputs": [],
      "name": "minterAddress",
      "outputs": [
        {
          "internalType": "address",
          "name": "",
          "type": "address"
        }
      ],
      "stateMutability": "view",
      "type": "function"
    },
    {
      "inputs": [],
      "name": "name",
      "outputs": [
        {
          "internalType": "string",
          "name": "",
          "type": "string"
        }
      ],
      "stateMutability": "view",
      "type": "function"
    },
    {
      "inputs": [
        {
          "internalType": "uint256",
          "name": "tokenId",
          "type": "uint256"
        }
      ],
      "name": "ownerOf",
      "outputs": [
        {
          "internalType": "address",
          "name": "",
          "type": "address"
        }
      ],
      "stateMutability": "view",
      "type": "function"
    },
    {
      "inputs": [
        {
          "internalType": "uint256",
          "name": "blueprintID",
          "type": "uint256"
        }
      ],
      "name": "pauseSale",
      "outputs": [],
      "stateMutability": "nonpayable",
      "type": "function"
    },
    {
      "inputs": [],
      "name": "platform",
      "outputs": [
        {
          "internalType": "address",
          "name": "",
          "type": "address"
        }
      ],
      "stateMutability": "view",
      "type": "function"
    },
    {
      "inputs": [
        {
          "internalType": "uint256",
          "name": "blueprintID",
          "type": "uint256"
        },
        {
          "internalType": "uint32",
          "name": "quantity",
          "type": "uint32"
        }
      ],
      "name": "preSaleMint",
      "outputs": [],
      "stateMutability": "nonpayable",
      "type": "function"
    },
    {
      "inputs": [
        {
          "internalType": "address",
          "name": "_artist",
          "type": "address"
        },
        {
          "internalType": "uint64",
          "name": "_capacity",
          "type": "uint64"
        },
        {
          "internalType": "uint128",
          "name": "_price",
          "type": "uint128"
        },
        {
          "internalType": "address",
          "name": "_erc20Token",
          "type": "address"
        },
        {
          "internalType": "string",
          "name": "_blueprintMetaData",
          "type": "string"
        },
        {
          "internalType": "string",
          "name": "_baseTokenUri",
          "type": "string"
        },
        {
          "internalType": "bytes32",
          "name": "_merkleroot",
          "type": "bytes32"
        },
        {
          "internalType": "uint32",
          "name": "_mintAmountArtist",
          "type": "uint32"
        },
        {
          "internalType": "uint32",
          "name": "_mintAmountPlatform",
          "type": "uint32"
        }
      ],
      "name": "prepareBlueprint",
      "outputs": [],
      "stateMutability": "nonpayable",
      "type": "function"
    },
    {
      "inputs": [
        {
          "internalType": "uint256",
          "name": "blueprintID",
          "type": "uint256"
        },
        {
          "internalType": "uint32",
          "name": "quantity",
          "type": "uint32"
        },
        {
          "internalType": "uint256",
          "name": "tokenAmount",
          "type": "uint256"
        },
        {
          "internalType": "bytes32[]",
          "name": "proof",
          "type": "bytes32[]"
        }
      ],
      "name": "purchaseBlueprints",
      "outputs": [],
      "stateMutability": "payable",
      "type": "function"
    },
    {
      "inputs": [
        {
          "internalType": "bytes32",
          "name": "role",
          "type": "bytes32"
        },
        {
          "internalType": "address",
          "name": "account",
          "type": "address"
        }
      ],
      "name": "renounceRole",
      "outputs": [],
      "stateMutability": "nonpayable",
      "type": "function"
    },
    {
      "inputs": [
        {
          "internalType": "uint256",
          "name": "blueprintID",
          "type": "uint256"
        },
        {
          "internalType": "string",
          "name": "randomSeed",
          "type": "string"
        }
      ],
      "name": "revealBlueprintSeed",
      "outputs": [],
      "stateMutability": "nonpayable",
      "type": "function"
    },
    {
      "inputs": [
        {
          "internalType": "bytes32",
          "name": "role",
          "type": "bytes32"
        },
        {
          "internalType": "address",
          "name": "account",
          "type": "address"
        }
      ],
      "name": "revokeRole",
      "outputs": [],
      "stateMutability": "nonpayable",
      "type": "function"
    },
    {
      "inputs": [
        {
          "internalType": "address",
          "name": "from",
          "type": "address"
        },
        {
          "internalType": "address",
          "name": "to",
          "type": "address"
        },
        {
          "internalType": "uint256",
          "name": "tokenId",
          "type": "uint256"
        }
      ],
      "name": "safeTransferFrom",
      "outputs": [],
      "stateMutability": "nonpayable",
      "type": "function"
    },
    {
      "inputs": [
        {
          "internalType": "address",
          "name": "from",
          "type": "address"
        },
        {
          "internalType": "address",
          "name": "to",
          "type": "address"
        },
        {
          "internalType": "uint256",
          "name": "tokenId",
          "type": "uint256"
        },
        {
          "internalType": "bytes",
          "name": "_data",
          "type": "bytes"
        }
      ],
      "name": "safeTransferFrom",
      "outputs": [],
      "stateMutability": "nonpayable",
      "type": "function"
    },
    {
      "inputs": [
        {
          "internalType": "address",
          "name": "operator",
          "type": "address"
        },
        {
          "internalType": "bool",
          "name": "approved",
          "type": "bool"
        }
      ],
      "name": "setApprovalForAll",
      "outputs": [],
      "stateMutability": "nonpayable",
      "type": "function"
    },
    {
      "inputs": [
        {
          "internalType": "address",
          "name": "_asyncSaleFeesRecipient",
          "type": "address"
        }
      ],
      "name": "setAsyncFeeRecipient",
      "outputs": [],
      "stateMutability": "nonpayable",
      "type": "function"
    },
    {
      "inputs": [
        {
          "internalType": "string",
          "name": "_baseTokenUri",
          "type": "string"
        }
      ],
      "name": "setBaseTokenUri",
      "outputs": [],
      "stateMutability": "nonpayable",
      "type": "function"
    },
    {
      "inputs": [
        {
          "internalType": "uint256",
          "name": "_blueprintID",
          "type": "uint256"
        },
        {
          "internalType": "address[]",
          "name": "_primaryFeeRecipients",
          "type": "address[]"
        },
        {
          "internalType": "uint32[]",
          "name": "_primaryFeeBPS",
          "type": "uint32[]"
        },
        {
          "internalType": "address[]",
          "name": "_secondaryFeeRecipients",
          "type": "address[]"
        },
        {
          "internalType": "uint32[]",
          "name": "_secondaryFeeBPS",
          "type": "uint32[]"
        }
      ],
      "name": "setFeeRecipients",
      "outputs": [],
      "stateMutability": "nonpayable",
      "type": "function"
    },
    {
      "inputs": [
        {
          "internalType": "bytes4",
          "name": "interfaceId",
          "type": "bytes4"
        }
      ],
      "name": "supportsInterface",
      "outputs": [
        {
          "internalType": "bool",
          "name": "",
          "type": "bool"
        }
      ],
      "stateMutability": "view",
      "type": "function"
    },
    {
      "inputs": [],
      "name": "symbol",
      "outputs": [
        {
          "internalType": "string",
          "name": "",
          "type": "string"
        }
      ],
      "stateMutability": "view",
      "type": "function"
    },
    {
      "inputs": [
        {
          "internalType": "uint256",
          "name": "tokenId",
          "type": "uint256"
        }
      ],
      "name": "tokenURI",
      "outputs": [
        {
          "internalType": "string",
          "name": "",
          "type": "string"
        }
      ],
      "stateMutability": "view",
      "type": "function"
    },
    {
      "inputs": [
        {
          "internalType": "address",
          "name": "from",
          "type": "address"
        },
        {
          "internalType": "address",
          "name": "to",
          "type": "address"
        },
        {
          "internalType": "uint256",
          "name": "tokenId",
          "type": "uint256"
        }
      ],
      "name": "transferFrom",
      "outputs": [],
      "stateMutability": "nonpayable",
      "type": "function"
    },
    {
      "inputs": [
        {
          "internalType": "uint256",
          "name": "blueprintID",
          "type": "uint256"
        }
      ],
      "name": "unpauseSale",
      "outputs": [],
      "stateMutability": "nonpayable",
      "type": "function"
    },
    {
      "inputs": [
        {
          "internalType": "uint256",
          "name": "blueprintID",
          "type": "uint256"
        },
        {
          "internalType": "string",
          "name": "newBaseTokenUri",
          "type": "string"
        }
      ],
      "name": "updateBlueprintTokenUri",
      "outputs": [],
      "stateMutability": "nonpayable",
      "type": "function"
    },
    {
      "inputs": [
        {
          "internalType": "address",
          "name": "newMinterAddress",
          "type": "address"
        }
      ],
      "name": "updateMinterAddress",
      "outputs": [],
      "stateMutability": "nonpayable",
      "type": "function"
    },
    {
      "inputs": [
        {
          "internalType": "address",
          "name": "_platform",
          "type": "address"
        }
      ],
      "name": "updatePlatformAddress",
      "outputs": [],
      "stateMutability": "nonpayable",
      "type": "function"
    },
    {
      "inputs": [
        {
          "internalType": "address payable",
          "name": "recipient",
          "type": "address"
        }
      ],
      "name": "withdrawAllFailedCredits",
      "outputs": [],
      "stateMutability": "nonpayable",
      "type": "function"
    }
  ],
  "transactionHash": "0x05c64acd7a209167dfa4697032bdfd876c8384bf5d657fadbe215322b0fbda4f",
  "args": [],
  "solcInputHash": "ef07332a6756d46e4b0271d2e8007a6a",
  "bytecode": "0x608060405234801561001057600080fd5b50615486806100206000396000f3fe6080604052600436106103765760003560e01c80637b4252c0116101d1578063c87b56dd11610102578063ced36043116100a0578063e985e9c51161006f578063e985e9c514610a97578063eaf2115d14610ab7578063f5b541a614610adc578063fce212f314610b1057600080fd5b8063ced3604314610a14578063d539139314610a34578063d547741f14610a56578063deb9414814610a7657600080fd5b8063c9e63203116100dc578063c9e632031461098f578063c9f2bd93146109af578063ca15c873146109cf578063cba991bf146109ef57600080fd5b8063c87b56dd1461092f578063c8950e601461094f578063c90941b11461096f57600080fd5b806395d89b411161016f578063aec970b011610149578063aec970b0146108af578063b88d4fde146108cf578063b9c4d9fb146108ef578063c2bce59c1461090f57600080fd5b806395d89b4114610865578063a217fddf1461087a578063a22cb4651461088f57600080fd5b80639010d07c116101ab5780639010d07c146107f257806391d148541461081257806394a9c9c31461083257806395652cfa1461084557600080fd5b80637b4252c0146107a657806380ae4ebc146107bd5780638f9f193f146107d257600080fd5b806334d722c9116102ab5780634d073a5a1161024957806366c083d31161022357806366c083d31461073157806368c31e261461075157806370a08231146107715780637a0101a21461079157600080fd5b80634d073a5a146106995780636352211e146106da57806366bf33be146106fa57600080fd5b80633a66e4b6116102855780633a66e4b6146106185780633b2522281461063857806342842e0e146106585780634bde38c81461067857600080fd5b806334d722c9146105b757806336568abe146105d857806338e395cf146105f857600080fd5b80630a21a2111161031857806323b872dd116102f257806323b872dd14610519578063248a9ca3146105395780632f2ff15d146105775780632fcfb95a1461059757600080fd5b80630a21a2111461048c5780630ebd4c7f146104b957806322235d69146104e657600080fd5b806306fdde031161035457806306fdde03146103f2578063077f224a14610414578063081812fc14610434578063095ea7b31461046c57600080fd5b8063018a62a61461037b57806301a949501461039d57806301ffc9a7146103bd575b600080fd5b34801561038757600080fd5b5061039b610396366004614b97565b610b30565b005b3480156103a957600080fd5b5061039b6103b8366004614c97565b610bed565b3480156103c957600080fd5b506103dd6103d8366004614a08565b610c51565b60405190151581526020015b60405180910390f35b3480156103fe57600080fd5b50610407610c80565b6040516103e99190614e68565b34801561042057600080fd5b5061039b61042f366004614a72565b610d12565b34801561044057600080fd5b5061045461044f3660046149ab565b610e34565b6040516001600160a01b0390911681526020016103e9565b34801561047857600080fd5b5061039b61048736600461488b565b610ec9565b34801561049857600080fd5b506104ac6104a73660046149ab565b610fdf565b6040516103e99190614ddd565b3480156104c557600080fd5b506104d96104d43660046149ab565b6110db565b6040516103e99190614e2a565b3480156104f257600080fd5b5061012d546105049063ffffffff1681565b60405163ffffffff90911681526020016103e9565b34801561052557600080fd5b5061039b6105343660046147a2565b61123a565b34801561054557600080fd5b506105696105543660046149ab565b600090815260c9602052604090206001015490565b6040519081526020016103e9565b34801561058357600080fd5b5061039b6105923660046149c3565b61126b565b3480156105a357600080fd5b5061039b6105b236600461474e565b61128d565b3480156105c357600080fd5b5061013454610454906001600160a01b031681565b3480156105e457600080fd5b5061039b6105f33660046149c3565b6112ee565b34801561060457600080fd5b5061039b610613366004614bdb565b611310565b34801561062457600080fd5b5061039b6106333660046149ab565b611597565b34801561064457600080fd5b5061039b6106533660046148b6565b611656565b34801561066457600080fd5b5061039b6106733660046147a2565b611750565b34801561068457600080fd5b5061013354610454906001600160a01b031681565b3480156106a557600080fd5b5061012d546106c29064010000000090046001600160401b031681565b6040516001600160401b0390911681526020016103e9565b3480156106e657600080fd5b506104546106f53660046149ab565b61176b565b34801561070657600080fd5b5061071a6107153660046149ab565b6117e2565b6040516103e99b9a99989796959493929190615096565b34801561073d57600080fd5b5061039b61074c366004614c97565b611900565b34801561075d57600080fd5b5061039b61076c3660046149ab565b611964565b34801561077d57600080fd5b5061056961078c36600461474e565b611a56565b34801561079d57600080fd5b50610407611add565b3480156107b257600080fd5b506105696101325481565b3480156107c957600080fd5b5061039b611b6c565b3480156107de57600080fd5b5061039b6107ed36600461474e565b611be8565b3480156107fe57600080fd5b5061045461080d3660046149e7565b611c3c565b34801561081e57600080fd5b506103dd61082d3660046149c3565b611c5b565b61039b610840366004614c06565b611c86565b34801561085157600080fd5b5061039b610860366004614a40565b611e35565b34801561087157600080fd5b50610407611e55565b34801561088657600080fd5b50610569600081565b34801561089b57600080fd5b5061039b6108aa36600461485e565b611e64565b3480156108bb57600080fd5b5061039b6108ca36600461474e565b611f29565b3480156108db57600080fd5b5061039b6108ea3660046147e2565b611f59565b3480156108fb57600080fd5b506104ac61090a3660046149ab565b611f8b565b34801561091b57600080fd5b5061039b61092a3660046149ab565b6120cd565b34801561093b57600080fd5b5061040761094a3660046149ab565b6121bd565b34801561095b57600080fd5b5061039b61096a366004614b97565b612297565b34801561097b57600080fd5b5061039b61098a36600461474e565b6123b8565b34801561099b57600080fd5b5061039b6109aa366004614ae6565b6124b6565b3480156109bb57600080fd5b5061039b6109ca3660046149ab565b61261e565b3480156109db57600080fd5b506105696109ea3660046149ab565b612716565b3480156109fb57600080fd5b5061012d5461050490600160801b900463ffffffff1681565b348015610a2057600080fd5b506104d9610a2f3660046149ab565b61272d565b348015610a4057600080fd5b5061056960008051602061543183398151915281565b348015610a6257600080fd5b5061039b610a713660046149c3565b6127fd565b348015610a8257600080fd5b5061012f54610454906001600160a01b031681565b348015610aa357600080fd5b506103dd610ab236600461476a565b612807565b348015610ac357600080fd5b5061012d5461050490600160601b900463ffffffff1681565b348015610ae857600080fd5b506105697f97667070c54ef182b0f5858b034beac1b6f3089aa2d3188bb1e8929f4fa9b92981565b348015610b1c57600080fd5b5061039b610b2b366004614c97565b612843565b600080516020615431833981519152610b498133612882565b826000808281526101306020526040902060010154600160e01b900460ff166003811115610b8757634e487b7160e01b600052602160045260246000fd5b1415610bae5760405162461bcd60e51b8152600401610ba590614f1b565b60405180910390fd5b7f703604f30bacc0494165473e817b003a6db41ed8c598a9ff96093768d701f0958484604051610bdf92919061507d565b60405180910390a150505050565b6000610bf98133612882565b61012d5461271090610c1890600160801b900463ffffffff16846151e4565b63ffffffff161115610c2957600080fd5b5061012d805463ffffffff909216600160601b0263ffffffff60601b19909216919091179055565b6000610c5c826128e6565b80610c6b5750610c6b82612936565b80610c7a5750610c7a82612967565b92915050565b606060658054610c8f90615329565b80601f0160208091040260200160405190810160405280929190818152602001828054610cbb90615329565b8015610d085780601f10610cdd57610100808354040283529160200191610d08565b820191906000526020600020905b815481529060010190602001808311610ceb57829003601f168201915b5050505050905090565b600054610100900460ff1680610d2b575060005460ff16155b610d475760405162461bcd60e51b8152600401610ba590614ecd565b600054610100900460ff16158015610d69576000805461ffff19166101011790555b610d73848461298c565b610d7b611b6c565b610d83612a13565b610d8e600033612a82565b610db87f97667070c54ef182b0f5858b034beac1b6f3089aa2d3188bb1e8929f4fa9b92933612a82565b610dd060008051602061543183398151915233612a82565b61013380546001600160a01b03199081163390811790925561013480546001600160a01b03861690831617905561012d805463ffffffff19166101f417905561012f805490911690911790558015610e2e576000805461ff00191690555b50505050565b6000818152606760205260408120546001600160a01b0316610ead5760405162461bcd60e51b815260206004820152602c60248201527f4552433732313a20617070726f76656420717565727920666f72206e6f6e657860448201526b34b9ba32b73a103a37b5b2b760a11b6064820152608401610ba5565b506000908152606960205260409020546001600160a01b031690565b6000610ed48261176b565b9050806001600160a01b0316836001600160a01b03161415610f425760405162461bcd60e51b815260206004820152602160248201527f4552433732313a20617070726f76616c20746f2063757272656e74206f776e656044820152603960f91b6064820152608401610ba5565b336001600160a01b0382161480610f5e5750610f5e8133612807565b610fd05760405162461bcd60e51b815260206004820152603860248201527f4552433732313a20617070726f76652063616c6c6572206973206e6f74206f7760448201527f6e6572206e6f7220617070726f76656420666f7220616c6c00000000000000006064820152608401610ba5565b610fda8383612a8c565b505050565b600081815261013060205260409020600601546060906110685760408051600180825281830190925260009160208083019080368337505061012f5482519293506001600160a01b03169183915060009061104a57634e487b7160e01b600052603260045260246000fd5b6001600160a01b039092166020928302919091019091015292915050565b60008281526101306020908152604091829020600601805483518184028101840190945280845290918301828280156110ca57602002820191906000526020600020905b81546001600160a01b031681526001909101906020018083116110ac575b50505050509050919050565b919050565b600081815261013060205260409020600901546060906111ac5760408051600280825260608201835260009260208301908036833701905050905061012d60109054906101000a900463ffffffff168160008151811061114b57634e487b7160e01b600052603260045260246000fd5b63ffffffff928316602091820292909201015261012d548251600160601b909104909116908290600190811061119157634e487b7160e01b600052603260045260246000fd5b63ffffffff9092166020928302919091019091015292915050565b60008281526101306020908152604091829020600901805483518184028101840190945280845290918301828280156110ca57602002820191906000526020600020906000905b82829054906101000a900463ffffffff1663ffffffff16815260200190600401906020826003010492830192600103820291508084116111f3575094979650505050505050565b6112443382612afa565b6112605760405162461bcd60e51b8152600401610ba590614f4b565b610fda838383612bd1565b6112758282612d71565b600082815260fb60205260409020610fda9082612d97565b60006112998133612882565b6112b16000805160206154318339815191528361126b565b610134546112ca906000906001600160a01b03166127fd565b5061013480546001600160a01b0319166001600160a01b0392909216919091179055565b6112f88282612dac565b600082815260fb60205260409020610fda9082612e26565b61131982612e3b565b6113655760405162461bcd60e51b815260206004820181905260248201527f4d75737420626520707265706172656420616e64206e6f7420737461727465646044820152606401610ba5565b610134546001600160a01b03163314806113a0575060008281526101306020526040902060010154600160401b90046001600160a01b031633145b6113ec5760405162461bcd60e51b815260206004820152601860248201527f757365722063616e6e6f74206d696e742070726573616c6500000000000000006044820152606401610ba5565b610134546001600160a01b03163314156114bb576000828152610130602052604090205463ffffffff640100000000909104811690821611156114685760405162461bcd60e51b815260206004820152601460248201527363616e6e6f74206d696e74207175616e7469747960601b6044820152606401610ba5565b6000828152610130602052604090208054829190600490611498908490640100000000900463ffffffff1661529e565b92506101000a81548163ffffffff021916908363ffffffff160217905550611589565b60008281526101306020526040902060010154600160401b90046001600160a01b0316331415611589576000828152610130602052604090205463ffffffff90811690821611156115455760405162461bcd60e51b815260206004820152601460248201527363616e6e6f74206d696e74207175616e7469747960601b6044820152606401610ba5565b600082815261013060205260408120805483929061156a90849063ffffffff1661529e565b92506101000a81548163ffffffff021916908363ffffffff1602179055505b6115938282612e83565b5050565b6000805160206154318339815191526115b08133612882565b816115ba8161309d565b6115f95760405162461bcd60e51b815260206004820152601060248201526f14d85b19481b9bdd081cdd185c9d195960821b6044820152606401610ba5565b60008381526101306020908152604091829020600101805460ff60e01b1916600360e01b17905590518481527f4616a0782e5635981b28be1cd36934a60655b462c370d8bd8092c969abc990d091015b60405180910390a1505050565b60008051602061543183398151915261166f8133612882565b60006101325490508a610130600083815260200190815260200160002060010160086101000a8154816001600160a01b0302191690836001600160a01b0316021790555089610130600083815260200190815260200160002060000160086101000a8154816001600160401b0302191690836001600160401b0316021790555088610130600083815260200190815260200160002060000160106101000a8154816001600160801b0302191690836001600160801b031602179055506117398189888888886130a6565b6117438188613132565b5050505050505050505050565b610fda83838360405180602001604052806000815250611f59565b6000818152606760205260408120546001600160a01b031680610c7a5760405162461bcd60e51b815260206004820152602960248201527f4552433732313a206f776e657220717565727920666f72206e6f6e657869737460448201526832b73a103a37b5b2b760b91b6064820152608401610ba5565b61013060205260009081526040902080546001820154600283015460038401805463ffffffff808616966401000000008704909116956001600160401b03600160401b8083048216976001600160801b03600160801b9094049390931696918316956001600160a01b0391840482169560ff600160e01b8604811696600160e81b909604169493909216929161187790615329565b80601f01602080910402602001604051908101604052809291908181526020018280546118a390615329565b80156118f05780601f106118c5576101008083540402835291602001916118f0565b820191906000526020600020905b8154815290600101906020018083116118d357829003601f168201915b505050505090806004015490508b565b600061190c8133612882565b61012d546127109061192b90600160601b900463ffffffff16846151e4565b63ffffffff16111561193c57600080fd5b5061012d805463ffffffff909216600160801b0263ffffffff60801b19909216919091179055565b60008051602061543183398151915261197d8133612882565b600360008381526101306020526040902060010154600160e01b900460ff1660038111156119bb57634e487b7160e01b600052602160045260246000fd5b146119fa5760405162461bcd60e51b815260206004820152600f60248201526e14d85b19481b9bdd081c185d5cd959608a1b6044820152606401610ba5565b60008281526101306020908152604091829020600101805460ff60e01b1916600160e11b17905590518381527fdcba7a000ef2740d4daa9c60f3235ec53ea38eb4164b31d5470f76e01e52d7bd91015b60405180910390a15050565b60006001600160a01b038216611ac15760405162461bcd60e51b815260206004820152602a60248201527f4552433732313a2062616c616e636520717565727920666f7220746865207a65604482015269726f206164647265737360b01b6064820152608401610ba5565b506001600160a01b031660009081526068602052604090205490565b61012e8054611aeb90615329565b80601f0160208091040260200160405190810160405280929190818152602001828054611b1790615329565b8015611b645780601f10611b3957610100808354040283529160200191611b64565b820191906000526020600020905b815481529060010190602001808311611b4757829003601f168201915b505050505081565b600054610100900460ff1680611b85575060005460ff16155b611ba15760405162461bcd60e51b8152600401610ba590614ecd565b600054610100900460ff16158015611bc3576000805461ffff19166101011790555b611bd3632dde656160e21b613250565b8015611be5576000805461ff00191690555b50565b6000611bf48133612882565b611bff60008361126b565b61013354611c18906000906001600160a01b03166127fd565b5061013380546001600160a01b0319166001600160a01b0392909216919091179055565b600082815260fb60205260408120611c5490836132cf565b9392505050565b600091825260c9602090815260408084206001600160a01b0393909316845291905290205460ff1690565b84848383611c938461309d565b80611cbb5750611ca284612e3b565b8015611cbb5750611cbb848463ffffffff1684846132db565b611d075760405162461bcd60e51b815260206004820152601960248201527f6e6f7420617661696c61626c6520746f207075726368617365000000000000006044820152606401610ba5565b600089815261013060205260409020548990899063ffffffff8216600160401b9091046001600160401b03161015611d815760405162461bcd60e51b815260206004820152601960248201527f7175616e746974792065786365656473206361706163697479000000000000006044820152606401610ba5565b60008b81526101306020526040902060010154600160401b90046001600160a01b0316611db08c8c8c84613424565b611dba8c8c612e83565b600160008d81526101306020526040902060010154600160e01b900460ff166003811115611df857634e487b7160e01b600052602160045260246000fd5b1415611e275760008c8152610130602090815260408083203384526005019091529020805460ff191660011790555b505050505050505050505050565b6000611e418133612882565b8151610fda9061012e906020850190614432565b606060668054610c8f90615329565b6001600160a01b038216331415611ebd5760405162461bcd60e51b815260206004820152601960248201527f4552433732313a20617070726f766520746f2063616c6c6572000000000000006044820152606401610ba5565b336000818152606a602090815260408083206001600160a01b03871680855290835292819020805460ff191686151590811790915590519081529192917f17307eab39ab6107e8899845ad3d59bd9653f200f220920489ca2b5937696c31910160405180910390a35050565b6000611f358133612882565b5061012f80546001600160a01b0319166001600160a01b0392909216919091179055565b611f633383612afa565b611f7f5760405162461bcd60e51b8152600401610ba590614f4b565b610e2e84848484613669565b6000818152610130602052604090206008015460609061206157604080516002808252606082018352600092602083019080368337505061012f5482519293506001600160a01b031691839150600090611ff557634e487b7160e01b600052603260045260246000fd5b60200260200101906001600160a01b031690816001600160a01b031681525050610130600084815260200190815260200160002060010160089054906101000a90046001600160a01b03168160018151811061104a57634e487b7160e01b600052603260045260246000fd5b60008281526101306020908152604091829020600801805483518184028101840190945280845290918301828280156110ca576020028201919060005260206000209081546001600160a01b031681526001909101906020018083116110ac5750505050509050919050565b60006120d98133612882565b816000808281526101306020526040902060010154600160e01b900460ff16600381111561211757634e487b7160e01b600052602160045260246000fd5b14156121355760405162461bcd60e51b8152600401610ba590614f1b565b60008381526101306020526040902060010154600160e81b900460ff16156121965760405162461bcd60e51b8152602060048201526014602482015273189b1d595c1c9a5b9d08155492481b1bd8dad95960621b6044820152606401610ba5565b5050600090815261013060205260409020600101805460ff60e81b1916600160e81b179055565b6000818152606760205260409020546060906001600160a01b031661223c5760405162461bcd60e51b815260206004820152602f60248201527f4552433732314d657461646174613a2055524920717565727920666f72206e6f60448201526e3732bc34b9ba32b73a103a37b5b2b760891b6064820152608401610ba5565b600061224661369c565b905060008151116122665760405180602001604052806000815250611c54565b80612270846136ac565b604051602001612281929190614cdd565b6040516020818303038152906040529392505050565b60006122a38133612882565b826000808281526101306020526040902060010154600160e01b900460ff1660038111156122e157634e487b7160e01b600052602160045260246000fd5b14156122ff5760405162461bcd60e51b8152600401610ba590614f1b565b60008481526101306020526040902060010154600160e81b900460ff16156123605760405162461bcd60e51b8152602060048201526014602482015273189b1d595c1c9a5b9d08155492481b1bd8dad95960621b6044820152606401610ba5565b600084815261013060209081526040909120845161238692600390920191860190614432565b507f36ab8e0ce3828485b4d98e97c3f5851331257ffe2b61a43e7e0e9875242f96378484604051610bdf92919061507d565b33600090815261013160205260409020548061240f5760405162461bcd60e51b81526020600482015260166024820152756e6f206372656469747320746f20776974686472617760501b6044820152606401610ba5565b3360009081526101316020526040808220829055516001600160a01b03841690614e2090849084818181858888f193505050503d806000811461246e576040519150601f19603f3d011682016040523d82523d6000602084013e612473565b606091505b5050905080610fda5760405162461bcd60e51b815260206004820152600f60248201526e1dda5d1a191c985dc819985a5b1959608a1b6044820152606401610ba5565b6000805160206154318339815191526124cf8133612882565b600160008781526101306020526040902060010154600160e01b900460ff16600381111561250d57634e487b7160e01b600052602160045260246000fd5b1461255a5760405162461bcd60e51b815260206004820152601c60248201527f73616c652073746172746564206f72206e6f74207072657061726564000000006044820152606401610ba5565b61256485856137c5565b156125b857600086815261013060209081526040909120865161258f926006909201918801906144b6565b5060008681526101306020908152604090912085516125b69260079092019187019061450b565b505b6125c283836137c5565b156126165760008681526101306020908152604090912084516125ed926008909201918601906144b6565b5060008681526101306020908152604090912083516126149260099092019185019061450b565b505b505050505050565b6000805160206154318339815191526126378133612882565b600160008381526101306020526040902060010154600160e01b900460ff16600381111561267557634e487b7160e01b600052602160045260246000fd5b146126c25760405162461bcd60e51b815260206004820152601c60248201527f73616c652073746172746564206f72206e6f74207072657061726564000000006044820152606401610ba5565b60008281526101306020908152604091829020600101805460ff60e01b1916600160e11b17905590518381527fa78c547613f6306e7a70d1bd161c18a496cae1eeb8d4f9e58b60d69ad72ddf589101611a4a565b600081815260fb60205260408120610c7a906138e7565b600081815261013060205260409020600701546060906127955760408051600180825281830190925260009160208083019080368337505061012d54825192935063ffffffff169183915060009061119157634e487b7160e01b600052603260045260246000fd5b60008281526101306020908152604091829020600701805483518184028101840190945280845290918301828280156110ca576000918252602091829020805463ffffffff1684529082028301929091600491018084116111f3575094979650505050505050565b6112f882826138f1565b6001600160a01b038083166000908152606a6020908152604080832093851683529290529081205460ff1680611c545750611c54600083611c5b565b600061284f8133612882565b6127108263ffffffff16111561286457600080fd5b5061012d805463ffffffff191663ffffffff92909216919091179055565b61288c8282611c5b565b611593576128a4816001600160a01b03166014613917565b6128af836020613917565b6040516020016128c0929190614d35565b60408051601f198184030181529082905262461bcd60e51b8252610ba591600401614e68565b60006001600160e01b031982166380ac58cd60e01b148061291757506001600160e01b03198216635b5e139f60e01b145b80610c7a57506301ffc9a760e01b6001600160e01b0319831614610c7a565b6000612941826128e6565b80610c7a5750506001600160e01b03191660009081526097602052604090205460ff1690565b60006001600160e01b03198216635a05180f60e01b1480610c7a5750610c7a82613af8565b600054610100900460ff16806129a5575060005460ff16155b6129c15760405162461bcd60e51b8152600401610ba590614ecd565b600054610100900460ff161580156129e3576000805461ffff19166101011790555b6129eb613b1d565b6129f3613b1d565b6129fd8383613b87565b8015610fda576000805461ff0019169055505050565b600054610100900460ff1680612a2c575060005460ff16155b612a485760405162461bcd60e51b8152600401610ba590614ecd565b600054610100900460ff16158015612a6a576000805461ffff19166101011790555b612a72613b1d565b612a7a613b1d565b611bd3613b1d565b6112758282613c1c565b600081815260696020526040902080546001600160a01b0319166001600160a01b0384169081179091558190612ac18261176b565b6001600160a01b03167f8c5be1e5ebec7d5bd14f71427d1e84f3dd0314c0f7b2291e5b200ac8c7c3b92560405160405180910390a45050565b6000818152606760205260408120546001600160a01b0316612b735760405162461bcd60e51b815260206004820152602c60248201527f4552433732313a206f70657261746f7220717565727920666f72206e6f6e657860448201526b34b9ba32b73a103a37b5b2b760a11b6064820152608401610ba5565b6000612b7e8361176b565b9050806001600160a01b0316846001600160a01b03161480612bb95750836001600160a01b0316612bae84610e34565b6001600160a01b0316145b80612bc95750612bc98185612807565b949350505050565b826001600160a01b0316612be48261176b565b6001600160a01b031614612c4c5760405162461bcd60e51b815260206004820152602960248201527f4552433732313a207472616e73666572206f6620746f6b656e2074686174206960448201526839903737ba1037bbb760b91b6064820152608401610ba5565b6001600160a01b038216612cae5760405162461bcd60e51b8152602060048201526024808201527f4552433732313a207472616e7366657220746f20746865207a65726f206164646044820152637265737360e01b6064820152608401610ba5565b612cb9600082612a8c565b6001600160a01b0383166000908152606860205260408120805460019290612ce2908490615287565b90915550506001600160a01b0382166000908152606860205260408120805460019290612d109084906151cc565b909155505060008181526067602052604080822080546001600160a01b0319166001600160a01b0386811691821790925591518493918716917fddf252ad1be2c89b69c2b068fc378daa952ba7f163c4a11628f55a4df523b3ef91a4505050565b600082815260c96020526040902060010154612d8d8133612882565b610fda8383613c22565b6000611c54836001600160a01b038416613ca8565b6001600160a01b0381163314612e1c5760405162461bcd60e51b815260206004820152602f60248201527f416363657373436f6e74726f6c3a2063616e206f6e6c792072656e6f756e636560448201526e103937b632b9903337b91039b2b63360891b6064820152608401610ba5565b6115938282613cf7565b6000611c54836001600160a01b038416613d5e565b600060015b60008381526101306020526040902060010154600160e01b900460ff166003811115612e7c57634e487b7160e01b600052602160045260246000fd5b1492915050565b600082815261013060205260408120600181015490546001600160401b0391821692600160401b909104909116905b8363ffffffff168161ffff16101561300e57612ee433612ed661ffff8416866151a1565b6001600160801b0316613e7b565b600043424185604051602001612f329493929190938452602084019290925260601b6bffffffffffffffffffffffff1916604083015260c01b6001600160c01b0319166054820152605c0190565b60408051808303601f19018152918152815160209283012060008981526101309093529120600101549091507fbe53bef0e08aa61aa51091a6fa77b4a68c6da179f64097fa01f92beda583eecc908790600160401b90046001600160a01b031633612fa161ffff8716896151a1565b604080519485526001600160a01b03938416602086015291909216908301526001600160801b031660608201526001600160401b038516608082015260a0810183905260c00160405180910390a1612ff883615306565b925050808061300690615364565b915050612eb2565b50600084815261013060205260408120600101805463ffffffff861692906130409084906001600160401b0316615203565b82546101009290920a6001600160401b038181021990931691831602179091556000958652610130602052604090952080546fffffffffffffffff00000000000000001916600160401b9390961692909202949094179055505050565b60006002612e40565b6130b08686613fbd565b60008681526101306020908152604090912085516130d692600390920191870190614432565b5082156130f3576000868152610130602052604090206004018390555b60009586526101306020526040909520805463ffffffff9687166401000000000267ffffffffffffffff19909116969092169590951717909355505050565b600082815261013060205260409020600181018054600160e01b60ff60e01b1982168117835561012d8054640100000000908190046001600160401b0390811667ffffffffffffffff60ff60e01b01199095169490941790921790935592548254600160401b9091048216938493926004926131b2928692910416615203565b92506101000a8154816001600160401b0302191690836001600160401b0316021790555061013260008154809291906131ea90615386565b90915550506000838152610130602052604090819020600181015491517f97660d9bc329402e809d4aabb7261513a7d331d8762d407be7e3316d08d188fd92611649928792600160401b9092046001600160a01b03169186918891600390910190614f9c565b6001600160e01b031980821614156132aa5760405162461bcd60e51b815260206004820152601c60248201527f4552433136353a20696e76616c696420696e74657266616365206964000000006044820152606401610ba5565b6001600160e01b0319166000908152609760205260409020805460ff19166001179055565b6000611c548383613ffd565b60008161331e5760405162461bcd60e51b81526020600482015260116024820152701b9bc81c1c9bdbd9881c1c9bdd9a591959607a1b6044820152606401610ba5565b60008581526101306020908152604080832033845260050190915290205460ff161561337e5760405162461bcd60e51b815260206004820152600f60248201526e185b1c9958591e4818db185a5b5959608a1b6044820152606401610ba5565b6000858152610130602052604090206004015461341a6133e033876040516bffffffffffffffffffffffff19606084901b1660208201526034810182905260009060540160405160208183030381529060405280519060200120905092915050565b8286868080602002602001604051908101604052809392919081815260200183836020028082843760009201919091525061403592505050565b9695505050505050565b600084815261013060205260409020600281015490546001600160a01b0390911690600160801b90046001600160801b0316816135215783156134a95760405162461bcd60e51b815260206004820152601b60248201527f63616e6e6f74207370656369667920746f6b656e20616d6f756e7400000000006044820152606401610ba5565b6134b98163ffffffff8716615239565b6001600160801b031634146135105760405162461bcd60e51b815260206004820181905260248201527f507572636861736520616d6f756e74206d757374206d617463682070726963656044820152606401610ba5565b61351c86833486614042565b612616565b341561356f5760405162461bcd60e51b815260206004820152601960248201527f63616e6e6f7420737065636966792065746820616d6f756e74000000000000006044820152606401610ba5565b61357f8163ffffffff8716615239565b6001600160801b031684146135d65760405162461bcd60e51b815260206004820181905260248201527f507572636861736520616d6f756e74206d757374206d617463682070726963656044820152606401610ba5565b6040516323b872dd60e01b8152336004820152306024820152604481018590526001600160a01b038316906323b872dd90606401602060405180830381600087803b15801561362457600080fd5b505af1158015613638573d6000803e3d6000fd5b505050506040513d601f19601f8201168201806040525081019061365c919061498f565b5061261686838686614042565b613674848484612bd1565b6136808484848461411c565b610e2e5760405162461bcd60e51b8152600401610ba590614e7b565b606061012e8054610c8f90615329565b6060816136d05750506040805180820190915260018152600360fc1b602082015290565b8160005b81156136fa57806136e481615386565b91506136f39050600a83615225565b91506136d4565b6000816001600160401b0381111561372257634e487b7160e01b600052604160045260246000fd5b6040519080825280601f01601f19166020018201604052801561374c576020820181803683370190505b5090505b8415612bc957613761600183615287565b915061376e600a866153a1565b6137799060306151cc565b60f81b81838151811061379c57634e487b7160e01b600052603260045260246000fd5b60200101906001600160f81b031916908160001a9053506137be600a86615225565b9450613750565b6000825160001415806137d85750815115155b156138de57815183511461382e5760405162461bcd60e51b815260206004820152601b60248201527f6d69736d61746368656420726563697069656e747320262042707300000000006044820152606401610ba5565b6000805b83518110156138825783818151811061385b57634e487b7160e01b600052603260045260246000fd5b60200260200101518261386e91906151e4565b91508061387a81615386565b915050613832565b506127108163ffffffff1611156138d45760405162461bcd60e51b81526020600482015260166024820152754665652042707320657863656564206d6178696d756d60501b6044820152606401610ba5565b6001915050610c7a565b50600092915050565b6000610c7a825490565b600082815260c9602052604090206001015461390d8133612882565b610fda8383613cf7565b60606000613926836002615268565b6139319060026151cc565b6001600160401b0381111561395657634e487b7160e01b600052604160045260246000fd5b6040519080825280601f01601f191660200182016040528015613980576020820181803683370190505b509050600360fc1b816000815181106139a957634e487b7160e01b600052603260045260246000fd5b60200101906001600160f81b031916908160001a905350600f60fb1b816001815181106139e657634e487b7160e01b600052603260045260246000fd5b60200101906001600160f81b031916908160001a9053506000613a0a846002615268565b613a159060016151cc565b90505b6001811115613aa9576f181899199a1a9b1b9c1cb0b131b232b360811b85600f1660108110613a5757634e487b7160e01b600052603260045260246000fd5b1a60f81b828281518110613a7b57634e487b7160e01b600052603260045260246000fd5b60200101906001600160f81b031916908160001a90535060049490941c93613aa2816152ef565b9050613a18565b508315611c545760405162461bcd60e51b815260206004820181905260248201527f537472696e67733a20686578206c656e67746820696e73756666696369656e746044820152606401610ba5565b60006001600160e01b03198216637965db0b60e01b1480610c7a5750610c7a82612936565b600054610100900460ff1680613b36575060005460ff16155b613b525760405162461bcd60e51b8152600401610ba590614ecd565b600054610100900460ff16158015611bd3576000805461ffff19166101011790558015611be5576000805461ff001916905550565b600054610100900460ff1680613ba0575060005460ff16155b613bbc5760405162461bcd60e51b8152600401610ba590614ecd565b600054610100900460ff16158015613bde576000805461ffff19166101011790555b8251613bf1906065906020860190614432565b508151613c05906066906020850190614432565b508015610fda576000805461ff0019169055505050565b61159382825b613c2c8282611c5b565b61159357600082815260c9602090815260408083206001600160a01b03851684529091529020805460ff19166001179055613c643390565b6001600160a01b0316816001600160a01b0316837f2f8788117e7eff1d82e926ec794901d17c78024a50270940304540a733656f0d60405160405180910390a45050565b6000818152600183016020526040812054613cef57508154600181810184556000848152602080822090930184905584548482528286019093526040902091909155610c7a565b506000610c7a565b613d018282611c5b565b1561159357600082815260c9602090815260408083206001600160a01b0385168085529252808320805460ff1916905551339285917ff6391f5c32d9c69d2a47ea670b442974b53935d1edc7fd64eb21e047a839171b9190a45050565b60008181526001830160205260408120548015613e71576000613d82600183615287565b8554909150600090613d9690600190615287565b9050818114613e17576000866000018281548110613dc457634e487b7160e01b600052603260045260246000fd5b9060005260206000200154905080876000018481548110613df557634e487b7160e01b600052603260045260246000fd5b6000918252602080832090910192909255918252600188019052604090208390555b8554869080613e3657634e487b7160e01b600052603160045260246000fd5b600190038181906000526020600020016000905590558560010160008681526020019081526020016000206000905560019350505050610c7a565b6000915050610c7a565b6001600160a01b038216613ed15760405162461bcd60e51b815260206004820181905260248201527f4552433732313a206d696e7420746f20746865207a65726f20616464726573736044820152606401610ba5565b6000818152606760205260409020546001600160a01b031615613f365760405162461bcd60e51b815260206004820152601c60248201527f4552433732313a20746f6b656e20616c7265616479206d696e746564000000006044820152606401610ba5565b6001600160a01b0382166000908152606860205260408120805460019290613f5f9084906151cc565b909155505060008181526067602052604080822080546001600160a01b0319166001600160a01b03861690811790915590518392907fddf252ad1be2c89b69c2b068fc378daa952ba7f163c4a11628f55a4df523b3ef908290a45050565b6001600160a01b038116156115935760008281526101306020526040902060020180546001600160a01b0383166001600160a01b03199091161790555050565b600082600001828154811061402257634e487b7160e01b600052603260045260246000fd5b9060005260206000200154905092915050565b6000612bc9828486614226565b600061404d85610fdf565b9050600061405a8661272d565b90506000805b83518110156140f55760006140a28785848151811061408f57634e487b7160e01b600052603260045260246000fd5b602002602001015163ffffffff166142e3565b90506140ae81846151cc565b92506140e28583815181106140d357634e487b7160e01b600052603260045260246000fd5b602002602001015189836142fc565b50806140ed81615386565b915050614060565b5060006141028287615287565b11156126145761261484876141178489615287565b6142fc565b60006001600160a01b0384163b1561421e57604051630a85bd0160e11b81526001600160a01b0385169063150b7a0290614160903390899088908890600401614daa565b602060405180830381600087803b15801561417a57600080fd5b505af19250505080156141aa575060408051601f3d908101601f191682019092526141a791810190614a24565b60015b614204573d8080156141d8576040519150601f19603f3d011682016040523d82523d6000602084013e6141dd565b606091505b5080516141fc5760405162461bcd60e51b8152600401610ba590614e7b565b805181602001fd5b6001600160e01b031916630a85bd0160e11b149050612bc9565b506001612bc9565b600081815b85518110156142d857600086828151811061425657634e487b7160e01b600052603260045260246000fd5b602002602001015190508083116142985760408051602081018590529081018290526060016040516020818303038152906040528051906020012092506142c5565b60408051602081018390529081018490526060016040516020818303038152906040528051906020012092505b50806142d081615386565b91505061422b565b509092149392505050565b60006127106142f28385615268565b611c549190615225565b6001600160a01b0382161561438d5760405163a9059cbb60e01b81526001600160a01b0384811660048301526024820183905283169063a9059cbb90604401602060405180830381600087803b15801561435557600080fd5b505af1158015614369573d6000803e3d6000fd5b505050506040513d601f19601f82011682018060405250810190610e2e919061498f565b6000836001600160a01b031682614e2090604051600060405180830381858888f193505050503d80600081146143df576040519150601f19603f3d011682016040523d82523d6000602084013e6143e4565b606091505b5050905080610e2e576001600160a01b038416600090815261013160205260409020546144129083906151cc565b6001600160a01b0385166000908152610131602052604090205550505050565b82805461443e90615329565b90600052602060002090601f01602090048101928261446057600085556144a6565b82601f1061447957805160ff19168380011785556144a6565b828001600101855582156144a6579182015b828111156144a657825182559160200191906001019061448b565b506144b29291506145b1565b5090565b8280548282559060005260206000209081019282156144a6579160200282015b828111156144a657825182546001600160a01b0319166001600160a01b039091161782556020909201916001909101906144d6565b828054828255906000526020600020906007016008900481019282156144a65791602002820160005b8382111561457857835183826101000a81548163ffffffff021916908363ffffffff1602179055509260200192600401602081600301049283019260010302614534565b80156145a85782816101000a81549063ffffffff0219169055600401602081600301049283019260010302614578565b50506144b29291505b5b808211156144b257600081556001016145b2565b60006001600160401b038311156145df576145df6153e1565b6145f2601f8401601f191660200161514e565b905082815283838301111561460657600080fd5b828260208301376000602084830101529392505050565b80356110d6816153f7565b600082601f830112614638578081fd5b8135602061464d6146488361517e565b61514e565b80838252828201915082860187848660051b890101111561466c578586fd5b855b85811015614693578135614681816153f7565b8452928401929084019060010161466e565b5090979650505050505050565b600082601f8301126146b0578081fd5b813560206146c06146488361517e565b80838252828201915082860187848660051b89010111156146df578586fd5b855b85811015614693576146f28261473a565b845292840192908401906001016146e1565b600082601f830112614714578081fd5b611c54838335602085016145c6565b80356001600160801b03811681146110d657600080fd5b803563ffffffff811681146110d657600080fd5b60006020828403121561475f578081fd5b8135611c54816153f7565b6000806040838503121561477c578081fd5b8235614787816153f7565b91506020830135614797816153f7565b809150509250929050565b6000806000606084860312156147b6578081fd5b83356147c1816153f7565b925060208401356147d1816153f7565b929592945050506040919091013590565b600080600080608085870312156147f7578081fd5b8435614802816153f7565b93506020850135614812816153f7565b92506040850135915060608501356001600160401b03811115614833578182fd5b8501601f81018713614843578182fd5b614852878235602084016145c6565b91505092959194509250565b60008060408385031215614870578182fd5b823561487b816153f7565b915060208301356147978161540c565b6000806040838503121561489d578182fd5b82356148a8816153f7565b946020939093013593505050565b60008060008060008060008060006101208a8c0312156148d4578687fd5b89356148df816153f7565b985060208a01356001600160401b0380821682146148fb578889fd5b81995061490a60408d01614723565b985061491860608d0161461d565b975060808c013591508082111561492d578687fd5b6149398d838e01614704565b965060a08c013591508082111561494e578586fd5b5061495b8c828d01614704565b94505060c08a0135925061497160e08b0161473a565b91506149806101008b0161473a565b90509295985092959850929598565b6000602082840312156149a0578081fd5b8151611c548161540c565b6000602082840312156149bc578081fd5b5035919050565b600080604083850312156149d5578182fd5b823591506020830135614797816153f7565b600080604083850312156149f9578182fd5b50508035926020909101359150565b600060208284031215614a19578081fd5b8135611c548161541a565b600060208284031215614a35578081fd5b8151611c548161541a565b600060208284031215614a51578081fd5b81356001600160401b03811115614a66578182fd5b612bc984828501614704565b600080600060608486031215614a86578081fd5b83356001600160401b0380821115614a9c578283fd5b614aa887838801614704565b94506020860135915080821115614abd578283fd5b50614aca86828701614704565b9250506040840135614adb816153f7565b809150509250925092565b600080600080600060a08688031215614afd578283fd5b8535945060208601356001600160401b0380821115614b1a578485fd5b614b2689838a01614628565b95506040880135915080821115614b3b578485fd5b614b4789838a016146a0565b94506060880135915080821115614b5c578283fd5b614b6889838a01614628565b93506080880135915080821115614b7d578283fd5b50614b8a888289016146a0565b9150509295509295909350565b60008060408385031215614ba9578182fd5b8235915060208301356001600160401b03811115614bc5578182fd5b614bd185828601614704565b9150509250929050565b60008060408385031215614bed578182fd5b82359150614bfd6020840161473a565b90509250929050565b600080600080600060808688031215614c1d578283fd5b85359450614c2d6020870161473a565b93506040860135925060608601356001600160401b0380821115614c4f578283fd5b818801915088601f830112614c62578283fd5b813581811115614c70578384fd5b8960208260051b8501011115614c84578384fd5b9699959850939650602001949392505050565b600060208284031215614ca8578081fd5b611c548261473a565b60008151808452614cc98160208601602086016152c3565b601f01601f19169290920160200192915050565b60008351614cef8184602088016152c3565b8083019050602f60f81b8082528451614d0f8160018501602089016152c3565b6001920191820152693a37b5b2b7173539b7b760b11b6002820152600c01949350505050565b7f416363657373436f6e74726f6c3a206163636f756e7420000000000000000000815260008351614d6d8160178501602088016152c3565b7001034b99036b4b9b9b4b733903937b6329607d1b6017918401918201528351614d9e8160288401602088016152c3565b01602801949350505050565b6001600160a01b038581168252841660208201526040810183905260806060820181905260009061341a90830184614cb1565b6020808252825182820181905260009190848201906040850190845b81811015614e1e5783516001600160a01b031683529284019291840191600101614df9565b50909695505050505050565b6020808252825182820181905260009190848201906040850190845b81811015614e1e57835163ffffffff1683529284019291840191600101614e46565b602081526000611c546020830184614cb1565b60208082526032908201527f4552433732313a207472616e7366657220746f206e6f6e20455243373231526560408201527131b2b4bb32b91034b6b83632b6b2b73a32b960711b606082015260800190565b6020808252602e908201527f496e697469616c697a61626c653a20636f6e747261637420697320616c72656160408201526d191e481a5b9a5d1a585b1a5e995960921b606082015260800190565b602080825260169082015275189b1d595c1c9a5b9d081b9bdd081c1c995c185c995960521b604082015260600190565b60208082526031908201527f4552433732313a207472616e736665722063616c6c6572206973206e6f74206f6040820152701ddb995c881b9bdc88185c1c1c9bdd9959607a1b606082015260800190565b8581526000602060018060a01b038716818401526001600160401b038616604084015260a06060840152614fd360a0840186614cb1565b838103608085015284548390600181811c9080831680614ff457607f831692505b86831081141561501257634e487b7160e01b88526022600452602488fd5b82865260208601955080801561502f57600181146150405761506a565b60ff1985168752878701955061506a565b60008b815260209020895b858110156150645781548982015290840190890161504b565b88019650505b50939d9c50505050505050505050505050565b828152604060208201526000612bc96040830184614cb1565b63ffffffff8c811682528b1660208201526001600160401b038a811660408301526001600160801b038a166060830152881660808201526001600160a01b03871660a08201526000610160600488106150fd57634e487b7160e01b82526021600452602482fd5b8760c084015261511160e084018815159052565b6001600160a01b0386166101008401528061012084015261513481840186614cb1565b915050826101408301529c9b505050505050505050505050565b604051601f8201601f191681016001600160401b0381118282101715615176576151766153e1565b604052919050565b60006001600160401b03821115615197576151976153e1565b5060051b60200190565b60006001600160801b038083168185168083038211156151c3576151c36153b5565b01949350505050565b600082198211156151df576151df6153b5565b500190565b600063ffffffff8083168185168083038211156151c3576151c36153b5565b60006001600160401b038083168185168083038211156151c3576151c36153b5565b600082615234576152346153cb565b500490565b60006001600160801b038083168185168183048111821515161561525f5761525f6153b5565b02949350505050565b6000816000190483118215151615615282576152826153b5565b500290565b600082821015615299576152996153b5565b500390565b600063ffffffff838116908316818110156152bb576152bb6153b5565b039392505050565b60005b838110156152de5781810151838201526020016152c6565b83811115610e2e5750506000910152565b6000816152fe576152fe6153b5565b506000190190565b60006001600160401b0382168061531f5761531f6153b5565b6000190192915050565b600181811c9082168061533d57607f821691505b6020821081141561535e57634e487b7160e01b600052602260045260246000fd5b50919050565b600061ffff8083168181141561537c5761537c6153b5565b6001019392505050565b600060001982141561539a5761539a6153b5565b5060010190565b6000826153b0576153b06153cb565b500690565b634e487b7160e01b600052601160045260246000fd5b634e487b7160e01b600052601260045260246000fd5b634e487b7160e01b600052604160045260246000fd5b6001600160a01b0381168114611be557600080fd5b8015158114611be557600080fd5b6001600160e01b031981168114611be557600080fdfe9f2df0fed2c77648de5860a4cc508cd0818c85b8b8a1ab4ceeef8d981c8956a6a2646970667358221220fb127482ba6adc6449d042fb8677b802edafe68556fa1b04dc4a2b6dbe1c4f3d64736f6c63430008040033",
  "devdoc": {
    "kind": "dev",
    "methods": {
      "approve(address,uint256)": {
        "details": "See {IERC721-approve}."
      },
      "balanceOf(address)": {
        "details": "See {IERC721-balanceOf}."
      },
      "getApproved(uint256)": {
        "details": "See {IERC721-getApproved}."
      },
      "getRoleAdmin(bytes32)": {
        "details": "Returns the admin role that controls `role`. See {grantRole} and {revokeRole}. To change a role's admin, use {_setRoleAdmin}."
      },
      "getRoleMember(bytes32,uint256)": {
        "details": "Returns one of the accounts that have `role`. `index` must be a value between 0 and {getRoleMemberCount}, non-inclusive. Role bearers are not sorted in any particular way, and their ordering may change at any point. WARNING: When using {getRoleMember} and {getRoleMemberCount}, make sure you perform all queries on the same block. See the following https://forum.openzeppelin.com/t/iterating-over-elements-on-enumerableset-in-openzeppelin-contracts/2296[forum post] for more information."
      },
      "getRoleMemberCount(bytes32)": {
        "details": "Returns the number of accounts that have `role`. Can be used together with {getRoleMember} to enumerate all bearers of a role."
      },
      "grantRole(bytes32,address)": {
        "details": "Overload {grantRole} to track enumerable memberships"
      },
      "hasRole(bytes32,address)": {
        "details": "Returns `true` if `account` has been granted `role`."
      },
      "name()": {
        "details": "See {IERC721Metadata-name}."
      },
      "ownerOf(uint256)": {
        "details": "See {IERC721-ownerOf}."
      },
      "renounceRole(bytes32,address)": {
        "details": "Overload {renounceRole} to track enumerable memberships"
      },
      "revokeRole(bytes32,address)": {
        "details": "Overload {revokeRole} to track enumerable memberships"
      },
      "safeTransferFrom(address,address,uint256)": {
        "details": "See {IERC721-safeTransferFrom}."
      },
      "safeTransferFrom(address,address,uint256,bytes)": {
        "details": "See {IERC721-safeTransferFrom}."
      },
      "setApprovalForAll(address,bool)": {
        "details": "See {IERC721-setApprovalForAll}."
      },
      "symbol()": {
        "details": "See {IERC721Metadata-symbol}."
      },
      "tokenURI(uint256)": {
        "details": "See {IERC721Metadata-tokenURI}."
      },
      "transferFrom(address,address,uint256)": {
        "details": "See {IERC721-transferFrom}."
      }
    },
    "version": 1
  },
  "userdoc": {
    "kind": "user",
    "methods": {
      "initialize(string,string,address)": {
        "notice": " Initialize the implementation"
      },
      "isApprovedForAll(address,address)": {
        "notice": "Required function overide //////"
      },
      "updateBlueprintTokenUri(uint256,string)": {
        "notice": "ONLY ADMIN functions ///"
      }
    },
    "version": 1
  },
  "storageLayout": {
    "storage": [
      {
        "astId": 648,
        "contract": "contracts/contracts/Blueprint.sol:Blueprint",
        "label": "_initialized",
        "offset": 0,
        "slot": "0",
        "type": "t_bool"
      },
      {
        "astId": 651,
        "contract": "contracts/contracts/Blueprint.sol:Blueprint",
        "label": "_initializing",
        "offset": 1,
        "slot": "0",
        "type": "t_bool"
      },
      {
        "astId": 1983,
        "contract": "contracts/contracts/Blueprint.sol:Blueprint",
        "label": "__gap",
        "offset": 0,
        "slot": "1",
        "type": "t_array(t_uint256)50_storage"
      },
      {
        "astId": 2308,
        "contract": "contracts/contracts/Blueprint.sol:Blueprint",
        "label": "__gap",
        "offset": 0,
        "slot": "51",
        "type": "t_array(t_uint256)50_storage"
      },
      {
        "astId": 717,
        "contract": "contracts/contracts/Blueprint.sol:Blueprint",
        "label": "_name",
        "offset": 0,
        "slot": "101",
        "type": "t_string_storage"
      },
      {
        "astId": 719,
        "contract": "contracts/contracts/Blueprint.sol:Blueprint",
        "label": "_symbol",
        "offset": 0,
        "slot": "102",
        "type": "t_string_storage"
      },
      {
        "astId": 723,
        "contract": "contracts/contracts/Blueprint.sol:Blueprint",
        "label": "_owners",
        "offset": 0,
        "slot": "103",
        "type": "t_mapping(t_uint256,t_address)"
      },
      {
        "astId": 727,
        "contract": "contracts/contracts/Blueprint.sol:Blueprint",
        "label": "_balances",
        "offset": 0,
        "slot": "104",
        "type": "t_mapping(t_address,t_uint256)"
      },
      {
        "astId": 731,
        "contract": "contracts/contracts/Blueprint.sol:Blueprint",
        "label": "_tokenApprovals",
        "offset": 0,
        "slot": "105",
        "type": "t_mapping(t_uint256,t_address)"
      },
      {
        "astId": 737,
        "contract": "contracts/contracts/Blueprint.sol:Blueprint",
        "label": "_operatorApprovals",
        "offset": 0,
        "slot": "106",
        "type": "t_mapping(t_address,t_mapping(t_address,t_bool))"
      },
      {
        "astId": 1533,
        "contract": "contracts/contracts/Blueprint.sol:Blueprint",
        "label": "__gap",
        "offset": 0,
        "slot": "107",
        "type": "t_array(t_uint256)44_storage"
      },
      {
        "astId": 2219,
        "contract": "contracts/contracts/Blueprint.sol:Blueprint",
        "label": "_supportedInterfaces",
        "offset": 0,
        "slot": "151",
        "type": "t_mapping(t_bytes4,t_bool)"
      },
      {
        "astId": 2262,
        "contract": "contracts/contracts/Blueprint.sol:Blueprint",
        "label": "__gap",
        "offset": 0,
        "slot": "152",
        "type": "t_array(t_uint256)49_storage"
      },
      {
        "astId": 258,
        "contract": "contracts/contracts/Blueprint.sol:Blueprint",
        "label": "_roles",
        "offset": 0,
        "slot": "201",
        "type": "t_mapping(t_bytes32,t_struct(RoleData)253_storage)"
      },
      {
        "astId": 543,
        "contract": "contracts/contracts/Blueprint.sol:Blueprint",
        "label": "__gap",
        "offset": 0,
        "slot": "202",
        "type": "t_array(t_uint256)49_storage"
      },
      {
        "astId": 45,
        "contract": "contracts/contracts/Blueprint.sol:Blueprint",
        "label": "_roleMembers",
        "offset": 0,
        "slot": "251",
        "type": "t_mapping(t_bytes32,t_struct(AddressSet)2633_storage)"
      },
      {
        "astId": 208,
        "contract": "contracts/contracts/Blueprint.sol:Blueprint",
        "label": "__gap",
        "offset": 0,
        "slot": "252",
        "type": "t_array(t_uint256)49_storage"
      },
      {
        "astId": 3680,
        "contract": "contracts/contracts/Blueprint.sol:Blueprint",
        "label": "defaultPlatformPrimaryFeePercentage",
        "offset": 0,
        "slot": "301",
        "type": "t_uint32"
      },
      {
        "astId": 3682,
        "contract": "contracts/contracts/Blueprint.sol:Blueprint",
        "label": "latestErc721TokenIndex",
        "offset": 4,
        "slot": "301",
        "type": "t_uint64"
      },
      {
        "astId": 3684,
        "contract": "contracts/contracts/Blueprint.sol:Blueprint",
        "label": "defaultBlueprintSecondarySalePercentage",
        "offset": 12,
        "slot": "301",
        "type": "t_uint32"
      },
      {
        "astId": 3686,
        "contract": "contracts/contracts/Blueprint.sol:Blueprint",
        "label": "defaultPlatformSecondarySalePercentage",
        "offset": 16,
        "slot": "301",
        "type": "t_uint32"
      },
      {
        "astId": 3688,
        "contract": "contracts/contracts/Blueprint.sol:Blueprint",
        "label": "baseTokenUri",
        "offset": 0,
        "slot": "302",
        "type": "t_string_storage"
      },
      {
        "astId": 3690,
        "contract": "contracts/contracts/Blueprint.sol:Blueprint",
        "label": "asyncSaleFeesRecipient",
        "offset": 0,
        "slot": "303",
        "type": "t_address"
      },
      {
        "astId": 3695,
        "contract": "contracts/contracts/Blueprint.sol:Blueprint",
        "label": "blueprints",
        "offset": 0,
        "slot": "304",
        "type": "t_mapping(t_uint256,t_struct(Blueprints)3760_storage)"
      },
      {
        "astId": 3699,
        "contract": "contracts/contracts/Blueprint.sol:Blueprint",
        "label": "failedTransferCredits",
        "offset": 0,
        "slot": "305",
        "type": "t_mapping(t_address,t_uint256)"
      },
      {
        "astId": 3701,
        "contract": "contracts/contracts/Blueprint.sol:Blueprint",
        "label": "blueprintIndex",
        "offset": 0,
        "slot": "306",
        "type": "t_uint256"
      },
      {
        "astId": 3703,
        "contract": "contracts/contracts/Blueprint.sol:Blueprint",
        "label": "platform",
        "offset": 0,
        "slot": "307",
        "type": "t_address"
      },
      {
        "astId": 3705,
        "contract": "contracts/contracts/Blueprint.sol:Blueprint",
        "label": "minterAddress",
        "offset": 0,
        "slot": "308",
        "type": "t_address"
      }
    ],
    "types": {
      "t_address": {
        "encoding": "inplace",
        "label": "address",
        "numberOfBytes": "20"
      },
      "t_array(t_address)dyn_storage": {
        "base": "t_address",
        "encoding": "dynamic_array",
        "label": "address[]",
        "numberOfBytes": "32"
      },
      "t_array(t_bytes32)dyn_storage": {
        "base": "t_bytes32",
        "encoding": "dynamic_array",
        "label": "bytes32[]",
        "numberOfBytes": "32"
      },
      "t_array(t_uint256)44_storage": {
        "base": "t_uint256",
        "encoding": "inplace",
        "label": "uint256[44]",
        "numberOfBytes": "1408"
      },
      "t_array(t_uint256)49_storage": {
        "base": "t_uint256",
        "encoding": "inplace",
        "label": "uint256[49]",
        "numberOfBytes": "1568"
      },
      "t_array(t_uint256)50_storage": {
        "base": "t_uint256",
        "encoding": "inplace",
        "label": "uint256[50]",
        "numberOfBytes": "1600"
      },
      "t_array(t_uint32)dyn_storage": {
        "base": "t_uint32",
        "encoding": "dynamic_array",
        "label": "uint32[]",
        "numberOfBytes": "32"
      },
      "t_bool": {
        "encoding": "inplace",
        "label": "bool",
        "numberOfBytes": "1"
      },
      "t_bytes32": {
        "encoding": "inplace",
        "label": "bytes32",
        "numberOfBytes": "32"
      },
      "t_bytes4": {
        "encoding": "inplace",
        "label": "bytes4",
        "numberOfBytes": "4"
      },
      "t_enum(SaleState)3720": {
        "encoding": "inplace",
        "label": "enum Blueprint.SaleState",
        "numberOfBytes": "1"
      },
      "t_mapping(t_address,t_bool)": {
        "encoding": "mapping",
        "key": "t_address",
        "label": "mapping(address => bool)",
        "numberOfBytes": "32",
        "value": "t_bool"
      },
      "t_mapping(t_address,t_mapping(t_address,t_bool))": {
        "encoding": "mapping",
        "key": "t_address",
        "label": "mapping(address => mapping(address => bool))",
        "numberOfBytes": "32",
        "value": "t_mapping(t_address,t_bool)"
      },
      "t_mapping(t_address,t_uint256)": {
        "encoding": "mapping",
        "key": "t_address",
        "label": "mapping(address => uint256)",
        "numberOfBytes": "32",
        "value": "t_uint256"
      },
      "t_mapping(t_bytes32,t_struct(AddressSet)2633_storage)": {
        "encoding": "mapping",
        "key": "t_bytes32",
        "label": "mapping(bytes32 => struct EnumerableSetUpgradeable.AddressSet)",
        "numberOfBytes": "32",
        "value": "t_struct(AddressSet)2633_storage"
      },
      "t_mapping(t_bytes32,t_struct(RoleData)253_storage)": {
        "encoding": "mapping",
        "key": "t_bytes32",
        "label": "mapping(bytes32 => struct AccessControlUpgradeable.RoleData)",
        "numberOfBytes": "32",
        "value": "t_struct(RoleData)253_storage"
      },
      "t_mapping(t_bytes32,t_uint256)": {
        "encoding": "mapping",
        "key": "t_bytes32",
        "label": "mapping(bytes32 => uint256)",
        "numberOfBytes": "32",
        "value": "t_uint256"
      },
      "t_mapping(t_bytes4,t_bool)": {
        "encoding": "mapping",
        "key": "t_bytes4",
        "label": "mapping(bytes4 => bool)",
        "numberOfBytes": "32",
        "value": "t_bool"
      },
      "t_mapping(t_uint256,t_address)": {
        "encoding": "mapping",
        "key": "t_uint256",
        "label": "mapping(uint256 => address)",
        "numberOfBytes": "32",
        "value": "t_address"
      },
      "t_mapping(t_uint256,t_struct(Blueprints)3760_storage)": {
        "encoding": "mapping",
        "key": "t_uint256",
        "label": "mapping(uint256 => struct Blueprint.Blueprints)",
        "numberOfBytes": "32",
        "value": "t_struct(Blueprints)3760_storage"
      },
      "t_string_storage": {
        "encoding": "bytes",
        "label": "string",
        "numberOfBytes": "32"
      },
      "t_struct(AddressSet)2633_storage": {
        "encoding": "inplace",
        "label": "struct EnumerableSetUpgradeable.AddressSet",
        "members": [
          {
            "astId": 2632,
            "contract": "contracts/contracts/Blueprint.sol:Blueprint",
            "label": "_inner",
            "offset": 0,
            "slot": "0",
            "type": "t_struct(Set)2332_storage"
          }
        ],
        "numberOfBytes": "64"
      },
      "t_struct(Blueprints)3760_storage": {
        "encoding": "inplace",
        "label": "struct Blueprint.Blueprints",
        "members": [
          {
            "astId": 3722,
            "contract": "contracts/contracts/Blueprint.sol:Blueprint",
            "label": "mintAmountArtist",
            "offset": 0,
            "slot": "0",
            "type": "t_uint32"
          },
          {
            "astId": 3724,
            "contract": "contracts/contracts/Blueprint.sol:Blueprint",
            "label": "mintAmountPlatform",
            "offset": 4,
            "slot": "0",
            "type": "t_uint32"
          },
          {
            "astId": 3726,
            "contract": "contracts/contracts/Blueprint.sol:Blueprint",
            "label": "capacity",
            "offset": 8,
            "slot": "0",
            "type": "t_uint64"
          },
          {
            "astId": 3728,
            "contract": "contracts/contracts/Blueprint.sol:Blueprint",
            "label": "price",
            "offset": 16,
            "slot": "0",
            "type": "t_uint128"
          },
          {
            "astId": 3730,
            "contract": "contracts/contracts/Blueprint.sol:Blueprint",
            "label": "erc721TokenIndex",
            "offset": 0,
            "slot": "1",
            "type": "t_uint64"
          },
          {
            "astId": 3732,
            "contract": "contracts/contracts/Blueprint.sol:Blueprint",
            "label": "artist",
            "offset": 8,
            "slot": "1",
            "type": "t_address"
          },
          {
            "astId": 3735,
            "contract": "contracts/contracts/Blueprint.sol:Blueprint",
            "label": "saleState",
            "offset": 28,
            "slot": "1",
            "type": "t_enum(SaleState)3720"
          },
          {
            "astId": 3737,
            "contract": "contracts/contracts/Blueprint.sol:Blueprint",
            "label": "tokenUriLocked",
            "offset": 29,
            "slot": "1",
            "type": "t_bool"
          },
          {
            "astId": 3739,
            "contract": "contracts/contracts/Blueprint.sol:Blueprint",
            "label": "ERC20Token",
            "offset": 0,
            "slot": "2",
            "type": "t_address"
          },
          {
            "astId": 3741,
            "contract": "contracts/contracts/Blueprint.sol:Blueprint",
            "label": "baseTokenUri",
            "offset": 0,
            "slot": "3",
            "type": "t_string_storage"
          },
          {
            "astId": 3743,
            "contract": "contracts/contracts/Blueprint.sol:Blueprint",
            "label": "merkleroot",
            "offset": 0,
            "slot": "4",
            "type": "t_bytes32"
          },
          {
            "astId": 3747,
            "contract": "contracts/contracts/Blueprint.sol:Blueprint",
            "label": "claimedWhitelistedPieces",
            "offset": 0,
            "slot": "5",
            "type": "t_mapping(t_address,t_bool)"
          },
          {
            "astId": 3750,
            "contract": "contracts/contracts/Blueprint.sol:Blueprint",
            "label": "primaryFeeRecipients",
            "offset": 0,
            "slot": "6",
            "type": "t_array(t_address)dyn_storage"
          },
          {
            "astId": 3753,
            "contract": "contracts/contracts/Blueprint.sol:Blueprint",
            "label": "primaryFeeBPS",
            "offset": 0,
            "slot": "7",
            "type": "t_array(t_uint32)dyn_storage"
          },
          {
            "astId": 3756,
            "contract": "contracts/contracts/Blueprint.sol:Blueprint",
            "label": "secondaryFeeRecipients",
            "offset": 0,
            "slot": "8",
            "type": "t_array(t_address)dyn_storage"
          },
          {
            "astId": 3759,
            "contract": "contracts/contracts/Blueprint.sol:Blueprint",
            "label": "secondaryFeeBPS",
            "offset": 0,
            "slot": "9",
            "type": "t_array(t_uint32)dyn_storage"
          }
        ],
        "numberOfBytes": "320"
      },
      "t_struct(RoleData)253_storage": {
        "encoding": "inplace",
        "label": "struct AccessControlUpgradeable.RoleData",
        "members": [
          {
            "astId": 250,
            "contract": "contracts/contracts/Blueprint.sol:Blueprint",
            "label": "members",
            "offset": 0,
            "slot": "0",
            "type": "t_mapping(t_address,t_bool)"
          },
          {
            "astId": 252,
            "contract": "contracts/contracts/Blueprint.sol:Blueprint",
            "label": "adminRole",
            "offset": 0,
            "slot": "1",
            "type": "t_bytes32"
          }
        ],
        "numberOfBytes": "64"
      },
      "t_struct(Set)2332_storage": {
        "encoding": "inplace",
        "label": "struct EnumerableSetUpgradeable.Set",
        "members": [
          {
            "astId": 2327,
            "contract": "contracts/contracts/Blueprint.sol:Blueprint",
            "label": "_values",
            "offset": 0,
            "slot": "0",
            "type": "t_array(t_bytes32)dyn_storage"
          },
          {
            "astId": 2331,
            "contract": "contracts/contracts/Blueprint.sol:Blueprint",
            "label": "_indexes",
            "offset": 0,
            "slot": "1",
            "type": "t_mapping(t_bytes32,t_uint256)"
          }
        ],
        "numberOfBytes": "64"
      },
      "t_uint128": {
        "encoding": "inplace",
        "label": "uint128",
        "numberOfBytes": "16"
      },
      "t_uint256": {
        "encoding": "inplace",
        "label": "uint256",
        "numberOfBytes": "32"
      },
      "t_uint32": {
        "encoding": "inplace",
        "label": "uint32",
        "numberOfBytes": "4"
      },
      "t_uint64": {
        "encoding": "inplace",
        "label": "uint64",
        "numberOfBytes": "8"
      }
    }
  }
}