{
  "address": "0x7772A75821008926E968501Fb570F30dF40d7f55",
  "abi": [
    {
      "anonymous": false,
      "inputs": [
        {
          "indexed": true,
          "internalType": "address",
          "name": "owner",
          "type": "address"
        },
        {
          "indexed": true,
          "internalType": "address",
          "name": "approved",
          "type": "address"
        },
        {
          "indexed": true,
          "internalType": "uint256",
          "name": "tokenId",
          "type": "uint256"
        }
      ],
      "name": "Approval",
      "type": "event"
    },
    {
      "anonymous": false,
      "inputs": [
        {
          "indexed": true,
          "internalType": "address",
          "name": "owner",
          "type": "address"
        },
        {
          "indexed": true,
          "internalType": "address",
          "name": "operator",
          "type": "address"
        },
        {
          "indexed": false,
          "internalType": "bool",
          "name": "approved",
          "type": "bool"
        }
      ],
      "name": "ApprovalForAll",
      "type": "event"
    },
    {
      "anonymous": false,
      "inputs": [
        {
          "indexed": false,
          "internalType": "uint256",
          "name": "blueprintID",
          "type": "uint256"
        },
        {
          "indexed": false,
          "internalType": "address",
          "name": "artist",
          "type": "address"
        },
        {
          "indexed": false,
          "internalType": "address",
          "name": "purchaser",
          "type": "address"
        },
        {
          "indexed": false,
          "internalType": "uint256",
          "name": "quantity",
          "type": "uint256"
        },
        {
          "indexed": false,
          "internalType": "uint256",
          "name": "newCapacity",
          "type": "uint256"
        },
        {
          "indexed": false,
          "internalType": "bytes32",
          "name": "seedPrefix",
          "type": "bytes32"
        }
      ],
      "name": "BlueprintPurchased",
      "type": "event"
    },
    {
      "anonymous": false,
      "inputs": [
        {
          "indexed": false,
          "internalType": "uint256",
          "name": "blueprintID",
          "type": "uint256"
        },
        {
          "indexed": false,
          "internalType": "string",
          "name": "randomSeed",
          "type": "string"
        }
      ],
      "name": "BlueprintSeed",
      "type": "event"
    },
    {
      "anonymous": false,
      "inputs": [
        {
          "indexed": true,
          "internalType": "bytes32",
          "name": "role",
          "type": "bytes32"
        },
        {
          "indexed": true,
          "internalType": "bytes32",
          "name": "previousAdminRole",
          "type": "bytes32"
        },
        {
          "indexed": true,
          "internalType": "bytes32",
          "name": "newAdminRole",
          "type": "bytes32"
        }
      ],
      "name": "RoleAdminChanged",
      "type": "event"
    },
    {
      "anonymous": false,
      "inputs": [
        {
          "indexed": true,
          "internalType": "bytes32",
          "name": "role",
          "type": "bytes32"
        },
        {
          "indexed": true,
          "internalType": "address",
          "name": "account",
          "type": "address"
        },
        {
          "indexed": true,
          "internalType": "address",
          "name": "sender",
          "type": "address"
        }
      ],
      "name": "RoleGranted",
      "type": "event"
    },
    {
      "anonymous": false,
      "inputs": [
        {
          "indexed": true,
          "internalType": "bytes32",
          "name": "role",
          "type": "bytes32"
        },
        {
          "indexed": true,
          "internalType": "address",
          "name": "account",
          "type": "address"
        },
        {
          "indexed": true,
          "internalType": "address",
          "name": "sender",
          "type": "address"
        }
      ],
      "name": "RoleRevoked",
      "type": "event"
    },
    {
      "anonymous": false,
      "inputs": [
        {
          "indexed": false,
          "internalType": "uint256",
          "name": "tokenId",
          "type": "uint256"
        },
        {
          "indexed": false,
          "internalType": "address[]",
          "name": "recipients",
          "type": "address[]"
        },
        {
          "indexed": false,
          "internalType": "uint256[]",
          "name": "bps",
          "type": "uint256[]"
        }
      ],
      "name": "SecondarySaleFees",
      "type": "event"
    },
    {
      "anonymous": false,
      "inputs": [
        {
          "indexed": true,
          "internalType": "address",
          "name": "from",
          "type": "address"
        },
        {
          "indexed": true,
          "internalType": "address",
          "name": "to",
          "type": "address"
        },
        {
          "indexed": true,
          "internalType": "uint256",
          "name": "tokenId",
          "type": "uint256"
        }
      ],
      "name": "Transfer",
      "type": "event"
    },
    {
      "inputs": [],
      "name": "DEFAULT_ADMIN_ROLE",
      "outputs": [
        {
          "internalType": "bytes32",
          "name": "",
          "type": "bytes32"
        }
      ],
      "stateMutability": "view",
      "type": "function"
    },
    {
      "inputs": [],
      "name": "OPERATOR_ROLE",
      "outputs": [
        {
          "internalType": "bytes32",
          "name": "",
          "type": "bytes32"
        }
      ],
      "stateMutability": "view",
      "type": "function"
    },
    {
      "inputs": [],
      "name": "_initialize",
      "outputs": [],
      "stateMutability": "nonpayable",
      "type": "function"
    },
    {
      "inputs": [
        {
          "internalType": "address",
          "name": "to",
          "type": "address"
        },
        {
          "internalType": "uint256",
          "name": "tokenId",
          "type": "uint256"
        }
      ],
      "name": "approve",
      "outputs": [],
      "stateMutability": "nonpayable",
      "type": "function"
    },
    {
      "inputs": [],
      "name": "asyncSaleFeesRecipient",
      "outputs": [
        {
          "internalType": "address",
          "name": "",
          "type": "address"
        }
      ],
      "stateMutability": "view",
      "type": "function"
    },
    {
      "inputs": [
        {
          "internalType": "address",
          "name": "owner",
          "type": "address"
        }
      ],
      "name": "balanceOf",
      "outputs": [
        {
          "internalType": "uint256",
          "name": "",
          "type": "uint256"
        }
      ],
      "stateMutability": "view",
      "type": "function"
    },
    {
      "inputs": [
        {
          "internalType": "uint256",
          "name": "blueprintID",
          "type": "uint256"
        }
      ],
      "name": "beginSale",
      "outputs": [],
      "stateMutability": "nonpayable",
      "type": "function"
    },
    {
      "inputs": [],
      "name": "blueprintIndex",
      "outputs": [
        {
          "internalType": "uint256",
          "name": "",
          "type": "uint256"
        }
      ],
      "stateMutability": "view",
      "type": "function"
    },
    {
      "inputs": [
        {
          "internalType": "uint256",
          "name": "",
          "type": "uint256"
        }
      ],
      "name": "blueprints",
      "outputs": [
        {
          "internalType": "enum Blueprint.SaleState",
          "name": "saleState",
          "type": "uint8"
        },
        {
          "internalType": "uint256",
          "name": "capacity",
          "type": "uint256"
        },
        {
          "internalType": "uint256",
          "name": "price",
          "type": "uint256"
        },
        {
          "internalType": "uint256",
          "name": "erc721TokenIndex",
          "type": "uint256"
        },
        {
          "internalType": "address",
          "name": "ERC20Token",
          "type": "address"
        },
        {
          "internalType": "address",
          "name": "artist",
          "type": "address"
        },
        {
          "internalType": "string",
          "name": "randomSeedSigHash",
          "type": "string"
        },
        {
          "internalType": "string",
          "name": "baseTokenUri",
          "type": "string"
        },
        {
          "internalType": "bytes32",
          "name": "merkleroot",
          "type": "bytes32"
        }
      ],
      "stateMutability": "view",
      "type": "function"
    },
    {
      "inputs": [
        {
          "internalType": "uint32",
          "name": "_basisPoints",
          "type": "uint32"
        }
      ],
      "name": "changedefaultPlatformFeePercentage",
      "outputs": [],
      "stateMutability": "nonpayable",
      "type": "function"
    },
    {
      "inputs": [],
      "name": "defaultPlatformFeePercentage",
      "outputs": [
        {
          "internalType": "uint32",
          "name": "",
          "type": "uint32"
        }
      ],
      "stateMutability": "view",
      "type": "function"
    },
    {
      "inputs": [
        {
          "internalType": "uint256",
          "name": "tokenId",
          "type": "uint256"
        }
      ],
      "name": "getApproved",
      "outputs": [
        {
          "internalType": "address",
          "name": "",
          "type": "address"
        }
      ],
      "stateMutability": "view",
      "type": "function"
    },
    {
      "inputs": [
        {
          "internalType": "uint256",
          "name": "id",
          "type": "uint256"
        }
      ],
      "name": "getFeeBps",
      "outputs": [
        {
          "internalType": "uint32[]",
          "name": "",
          "type": "uint32[]"
        }
      ],
      "stateMutability": "view",
      "type": "function"
    },
    {
      "inputs": [
        {
          "internalType": "uint256",
          "name": "id",
          "type": "uint256"
        }
      ],
      "name": "getFeeRecipients",
      "outputs": [
        {
          "internalType": "address[]",
          "name": "",
          "type": "address[]"
        }
      ],
      "stateMutability": "view",
      "type": "function"
    },
    {
      "inputs": [
        {
          "internalType": "bytes32",
          "name": "role",
          "type": "bytes32"
        }
      ],
      "name": "getRoleAdmin",
      "outputs": [
        {
          "internalType": "bytes32",
          "name": "",
          "type": "bytes32"
        }
      ],
      "stateMutability": "view",
      "type": "function"
    },
    {
      "inputs": [
        {
          "internalType": "bytes32",
          "name": "role",
          "type": "bytes32"
        },
        {
          "internalType": "uint256",
          "name": "index",
          "type": "uint256"
        }
      ],
      "name": "getRoleMember",
      "outputs": [
        {
          "internalType": "address",
          "name": "",
          "type": "address"
        }
      ],
      "stateMutability": "view",
      "type": "function"
    },
    {
      "inputs": [
        {
          "internalType": "bytes32",
          "name": "role",
          "type": "bytes32"
        }
      ],
      "name": "getRoleMemberCount",
      "outputs": [
        {
          "internalType": "uint256",
          "name": "",
          "type": "uint256"
        }
      ],
      "stateMutability": "view",
      "type": "function"
    },
    {
      "inputs": [
        {
          "internalType": "bytes32",
          "name": "role",
          "type": "bytes32"
        },
        {
          "internalType": "address",
          "name": "account",
          "type": "address"
        }
      ],
      "name": "grantRole",
      "outputs": [],
      "stateMutability": "nonpayable",
      "type": "function"
    },
    {
      "inputs": [
        {
          "internalType": "bytes32",
          "name": "role",
          "type": "bytes32"
        },
        {
          "internalType": "address",
          "name": "account",
          "type": "address"
        }
      ],
      "name": "hasRole",
      "outputs": [
        {
          "internalType": "bool",
          "name": "",
          "type": "bool"
        }
      ],
      "stateMutability": "view",
      "type": "function"
    },
    {
      "inputs": [
        {
          "internalType": "string",
          "name": "name_",
          "type": "string"
        },
        {
          "internalType": "string",
          "name": "symbol_",
          "type": "string"
        }
      ],
      "name": "initialize",
      "outputs": [],
      "stateMutability": "nonpayable",
      "type": "function"
    },
    {
      "inputs": [
        {
          "internalType": "address",
          "name": "account",
          "type": "address"
        },
        {
          "internalType": "address",
          "name": "operator",
          "type": "address"
        }
      ],
      "name": "isApprovedForAll",
      "outputs": [
        {
          "internalType": "bool",
          "name": "",
          "type": "bool"
        }
      ],
      "stateMutability": "view",
      "type": "function"
    },
    {
      "inputs": [],
      "name": "latestErc721TokenIndex",
      "outputs": [
        {
          "internalType": "uint256",
          "name": "",
          "type": "uint256"
        }
      ],
      "stateMutability": "view",
      "type": "function"
    },
    {
      "inputs": [],
      "name": "name",
      "outputs": [
        {
          "internalType": "string",
          "name": "",
          "type": "string"
        }
      ],
      "stateMutability": "view",
      "type": "function"
    },
    {
      "inputs": [
        {
          "internalType": "uint256",
          "name": "tokenId",
          "type": "uint256"
        }
      ],
      "name": "ownerOf",
      "outputs": [
        {
          "internalType": "address",
          "name": "",
          "type": "address"
        }
      ],
      "stateMutability": "view",
      "type": "function"
    },
    {
      "inputs": [
        {
          "internalType": "uint256",
          "name": "blueprintID",
          "type": "uint256"
        }
      ],
      "name": "pauseSale",
      "outputs": [],
      "stateMutability": "nonpayable",
      "type": "function"
    },
    {
      "inputs": [
        {
          "internalType": "address",
          "name": "_artist",
          "type": "address"
        },
        {
          "internalType": "uint256",
          "name": "_capacity",
          "type": "uint256"
        },
        {
          "internalType": "uint256",
          "name": "_price",
          "type": "uint256"
        },
        {
          "internalType": "address",
          "name": "_erc20Token",
          "type": "address"
        },
        {
          "internalType": "string",
          "name": "_randomSeedSigHash",
          "type": "string"
        },
        {
          "internalType": "string",
          "name": "_baseTokenUri",
          "type": "string"
        },
        {
          "internalType": "address[]",
          "name": "_feeRecipients",
          "type": "address[]"
        },
        {
          "internalType": "uint32[]",
          "name": "_feeBps",
          "type": "uint32[]"
        },
        {
          "internalType": "bytes32",
          "name": "_merkleroot",
          "type": "bytes32"
        }
      ],
      "name": "prepareBlueprint",
      "outputs": [],
      "stateMutability": "nonpayable",
      "type": "function"
    },
    {
      "inputs": [
        {
          "internalType": "uint256",
          "name": "blueprintID",
          "type": "uint256"
        },
        {
          "internalType": "uint256",
          "name": "quantity",
          "type": "uint256"
        },
        {
          "internalType": "uint256",
          "name": "tokenAmount",
          "type": "uint256"
        },
        {
          "internalType": "bytes32[]",
          "name": "proof",
          "type": "bytes32[]"
        }
      ],
      "name": "purchaseBlueprints",
      "outputs": [],
      "stateMutability": "payable",
      "type": "function"
    },
    {
      "inputs": [
        {
          "internalType": "bytes32",
          "name": "role",
          "type": "bytes32"
        },
        {
          "internalType": "address",
          "name": "account",
          "type": "address"
        }
      ],
      "name": "renounceRole",
      "outputs": [],
      "stateMutability": "nonpayable",
      "type": "function"
    },
    {
      "inputs": [
        {
          "internalType": "uint256",
          "name": "blueprintID",
          "type": "uint256"
        },
        {
          "internalType": "string",
          "name": "randomSeed",
          "type": "string"
        }
      ],
      "name": "revealBlueprintSeed",
      "outputs": [],
      "stateMutability": "nonpayable",
      "type": "function"
    },
    {
      "inputs": [
        {
          "internalType": "bytes32",
          "name": "role",
          "type": "bytes32"
        },
        {
          "internalType": "address",
          "name": "account",
          "type": "address"
        }
      ],
      "name": "revokeRole",
      "outputs": [],
      "stateMutability": "nonpayable",
      "type": "function"
    },
    {
      "inputs": [
        {
          "internalType": "address",
          "name": "from",
          "type": "address"
        },
        {
          "internalType": "address",
          "name": "to",
          "type": "address"
        },
        {
          "internalType": "uint256",
          "name": "tokenId",
          "type": "uint256"
        }
      ],
      "name": "safeTransferFrom",
      "outputs": [],
      "stateMutability": "nonpayable",
      "type": "function"
    },
    {
      "inputs": [
        {
          "internalType": "address",
          "name": "from",
          "type": "address"
        },
        {
          "internalType": "address",
          "name": "to",
          "type": "address"
        },
        {
          "internalType": "uint256",
          "name": "tokenId",
          "type": "uint256"
        },
        {
          "internalType": "bytes",
          "name": "_data",
          "type": "bytes"
        }
      ],
      "name": "safeTransferFrom",
      "outputs": [],
      "stateMutability": "nonpayable",
      "type": "function"
    },
    {
      "inputs": [
        {
          "internalType": "address",
          "name": "operator",
          "type": "address"
        },
        {
          "internalType": "bool",
          "name": "approved",
          "type": "bool"
        }
      ],
      "name": "setApprovalForAll",
      "outputs": [],
      "stateMutability": "nonpayable",
      "type": "function"
    },
    {
      "inputs": [
        {
          "internalType": "address",
          "name": "_asyncSaleFeesRecipient",
          "type": "address"
        }
      ],
      "name": "setAsyncFeeRecipient",
      "outputs": [],
      "stateMutability": "nonpayable",
      "type": "function"
    },
    {
      "inputs": [
        {
          "internalType": "bytes4",
          "name": "interfaceId",
          "type": "bytes4"
        }
      ],
      "name": "supportsInterface",
      "outputs": [
        {
          "internalType": "bool",
          "name": "",
          "type": "bool"
        }
      ],
      "stateMutability": "view",
      "type": "function"
    },
    {
      "inputs": [],
      "name": "symbol",
      "outputs": [
        {
          "internalType": "string",
          "name": "",
          "type": "string"
        }
      ],
      "stateMutability": "view",
      "type": "function"
    },
    {
      "inputs": [
        {
          "internalType": "uint256",
          "name": "tokenId",
          "type": "uint256"
        }
      ],
      "name": "tokenURI",
      "outputs": [
        {
          "internalType": "string",
          "name": "",
          "type": "string"
        }
      ],
      "stateMutability": "view",
      "type": "function"
    },
    {
      "inputs": [
        {
          "internalType": "address",
          "name": "from",
          "type": "address"
        },
        {
          "internalType": "address",
          "name": "to",
          "type": "address"
        },
        {
          "internalType": "uint256",
          "name": "tokenId",
          "type": "uint256"
        }
      ],
      "name": "transferFrom",
      "outputs": [],
      "stateMutability": "nonpayable",
      "type": "function"
    },
    {
      "inputs": [
        {
          "internalType": "uint256",
          "name": "blueprintID",
          "type": "uint256"
        }
      ],
      "name": "unpauseSale",
      "outputs": [],
      "stateMutability": "nonpayable",
      "type": "function"
    },
    {
      "inputs": [
        {
          "internalType": "uint256",
          "name": "blueprintID",
          "type": "uint256"
        },
        {
          "internalType": "string",
          "name": "newBaseTokenUri",
          "type": "string"
        }
      ],
      "name": "updateBaseTokenUri",
      "outputs": [],
      "stateMutability": "nonpayable",
      "type": "function"
    },
    {
      "inputs": [
        {
          "internalType": "address",
          "name": "platform",
          "type": "address"
        }
      ],
      "name": "updatePlatformAddress",
      "outputs": [],
      "stateMutability": "nonpayable",
      "type": "function"
    },
    {
      "inputs": [],
      "name": "withdrawAllFailedCredits",
      "outputs": [],
      "stateMutability": "nonpayable",
      "type": "function"
    }
  ],
  "transactionHash": "0xf25d5e07b91d8efb440706082edf9bd8603b4bb8cb8bc62f31ae044409e7947d",
  "args": [],
  "solcInputHash": "b702417975a785e1dad85e77efe725bf",
  "bytecode": "0x608060405234801561001057600080fd5b50614036806100206000396000f3fe6080604052600436106102515760003560e01c80637b4252c011610139578063b88d4fde116100b6578063ca15c8731161007a578063ca15c87314610729578063d547741f14610749578063deb9414814610769578063e1deccb61461078a578063e985e9c51461079d578063f5b541a6146107bd57600080fd5b8063b88d4fde1461067c578063b9c4d9fb1461069c578063baa97f7e146106c9578063c87b56dd146106e9578063c9f2bd931461070957600080fd5b806395d89b41116100fd57806395d89b41146105fd578063a217fddf14610612578063a22cb46514610627578063aec970b014610647578063b6ad69141461066757600080fd5b80637b4252c01461057157806380ae4ebc146105885780638f9f193f1461059d5780639010d07c146105bd57806391d14854146105dd57600080fd5b806339f4815f116101d25780634d073a5a116101965780634d073a5a146104a55780636352211e146104bc57806365fe49be146104dc57806366bf33be146104fc57806368c31e261461053157806370a082311461055157600080fd5b806339f4815f146103f25780633a66e4b61461041257806342842e0e1461043257806343674131146104525780634cd88b761461048557600080fd5b80630ebd4c7f116102195780630ebd4c7f1461032757806323b872dd14610354578063248a9ca3146103745780632f2ff15d146103b257806336568abe146103d257600080fd5b8063018a62a61461025657806301ffc9a71461027857806306fdde03146102ad578063081812fc146102cf578063095ea7b314610307575b600080fd5b34801561026257600080fd5b506102766102713660046139fd565b6107f1565b005b34801561028457600080fd5b50610298610293366004613964565b61082e565b60405190151581526020015b60405180910390f35b3480156102b957600080fd5b506102c261085d565b6040516102a49190613cfa565b3480156102db57600080fd5b506102ef6102ea366004613909565b6108ef565b6040516001600160a01b0390911681526020016102a4565b34801561031357600080fd5b506102766103223660046137dd565b610989565b34801561033357600080fd5b50610347610342366004613909565b610a9f565b6040516102a49190613c2d565b34801561036057600080fd5b5061027661036f3660046136f3565b610bb6565b34801561038057600080fd5b506103a461038f366004613909565b600090815260c9602052604090206001015490565b6040519081526020016102a4565b3480156103be57600080fd5b506102766103cd366004613921565b610be7565b3480156103de57600080fd5b506102766103ed366004613921565b610c09565b3480156103fe57600080fd5b5061027661040d3660046139fd565b610c2b565b34801561041e57600080fd5b5061027661042d366004613909565b610cdf565b34801561043e57600080fd5b5061027661044d3660046136f3565b610d52565b34801561045e57600080fd5b5061012d546104709063ffffffff1681565b60405163ffffffff90911681526020016102a4565b34801561049157600080fd5b506102766104a036600461399c565b610d6d565b3480156104b157600080fd5b506103a461012e5481565b3480156104c857600080fd5b506102ef6104d7366004613909565b610e4e565b3480156104e857600080fd5b506102766104f7366004613806565b610ec5565b34801561050857600080fd5b5061051c610517366004613909565b611148565b6040516102a499989796959493929190613c6b565b34801561053d57600080fd5b5061027661054c366004613909565b6112b5565b34801561055d57600080fd5b506103a461056c3660046136a7565b611351565b34801561057d57600080fd5b506103a46101325481565b34801561059457600080fd5b506102766113d8565b3480156105a957600080fd5b506102766105b83660046136a7565b611454565b3480156105c957600080fd5b506102ef6105d8366004613943565b61147a565b3480156105e957600080fd5b506102986105f8366004613921565b611499565b34801561060957600080fd5b506102c26114c4565b34801561061e57600080fd5b506103a4600081565b34801561063357600080fd5b506102766106423660046137a7565b6114d3565b34801561065357600080fd5b506102766106623660046136a7565b611598565b34801561067357600080fd5b506102766115c8565b34801561068857600080fd5b5061027661069736600461372e565b6116be565b3480156106a857600080fd5b506106bc6106b7366004613909565b6116f6565b6040516102a49190613be0565b3480156106d557600080fd5b506102766106e4366004613ac3565b6117eb565b3480156106f557600080fd5b506102c2610704366004613909565b61182a565b34801561071557600080fd5b50610276610724366004613909565b611911565b34801561073557600080fd5b506103a4610744366004613909565b6119e1565b34801561075557600080fd5b50610276610764366004613921565b6119f8565b34801561077557600080fd5b5061012f546102ef906001600160a01b031681565b610276610798366004613a38565b611a02565b3480156107a957600080fd5b506102986107b83660046136c1565b611b84565b3480156107c957600080fd5b506103a47f97667070c54ef182b0f5858b034beac1b6f3089aa2d3188bb1e8929f4fa9b92981565b7f703604f30bacc0494165473e817b003a6db41ed8c598a9ff96093768d701f0958282604051610822929190613dfe565b60405180910390a15050565b600061083982611bdf565b80610848575061084882611c2f565b80610857575061085782611c60565b92915050565b60606065805461086c90613f30565b80601f016020809104026020016040519081016040528092919081815260200182805461089890613f30565b80156108e55780601f106108ba576101008083540402835291602001916108e5565b820191906000526020600020905b8154815290600101906020018083116108c857829003601f168201915b5050505050905090565b6000818152606760205260408120546001600160a01b031661096d5760405162461bcd60e51b815260206004820152602c60248201527f4552433732313a20617070726f76656420717565727920666f72206e6f6e657860448201526b34b9ba32b73a103a37b5b2b760a11b60648201526084015b60405180910390fd5b506000908152606960205260409020546001600160a01b031690565b600061099482610e4e565b9050806001600160a01b0316836001600160a01b03161415610a025760405162461bcd60e51b815260206004820152602160248201527f4552433732313a20617070726f76616c20746f2063757272656e74206f776e656044820152603960f91b6064820152608401610964565b336001600160a01b0382161480610a1e5750610a1e8133611b84565b610a905760405162461bcd60e51b815260206004820152603860248201527f4552433732313a20617070726f76652063616c6c6572206973206e6f74206f7760448201527f6e6572206e6f7220617070726f76656420666f7220616c6c00000000000000006064820152608401610964565b610a9a8383611c85565b505050565b60008181526101306020526040902060090154606090610b2157604080516002808252606082018352600092602083019080368337505061012d54825192935063ffffffff1691839150600090610b0657634e487b7160e01b600052603260045260246000fd5b63ffffffff9092166020928302919091019091015292915050565b6000828152610130602090815260409182902060090180548351818402810184019094528084529091830182828015610ba557602002820191906000526020600020906000905b82829054906101000a900463ffffffff1663ffffffff1681526020019060040190602082600301049283019260010382029150808411610b685790505b50505050509050919050565b919050565b610bc03382611cf3565b610bdc5760405162461bcd60e51b815260040161096490613dad565b610a9a838383611dca565b610bf18282611f6a565b600082815260fb60205260409020610a9a9082611f90565b610c138282611fa5565b600082815260fb60205260409020610a9a908261201f565b6000610c378133612034565b82600080828152610130602052604090205460ff166003811115610c6b57634e487b7160e01b600052602160045260246000fd5b1415610cb25760405162461bcd60e51b8152602060048201526016602482015275189b1d595c1c9a5b9d081b9bdd081c1c995c185c995960521b6044820152606401610964565b6000848152610130602090815260409091208451610cd892600790920191860190613397565b5050505050565b6000610ceb8133612034565b81610cf581612098565b610d345760405162461bcd60e51b815260206004820152601060248201526f14d85b19481b9bdd081cdd185c9d195960821b6044820152606401610964565b5050600090815261013060205260409020805460ff19166003179055565b610a9a838383604051806020016040528060008152506116be565b600054610100900460ff1680610d86575060005460ff16155b610da25760405162461bcd60e51b815260040161096490613d5f565b600054610100900460ff16158015610dc4576000805461ffff19166101011790555b610dce83836120d6565b610dd66113d8565b610dde61215d565b610de96000336121cc565b610e137f97667070c54ef182b0f5858b034beac1b6f3089aa2d3188bb1e8929f4fa9b929336121cc565b61012d805463ffffffff19166101f417905561012f80546001600160a01b031916331790558015610a9a576000805461ff0019169055505050565b6000818152606760205260408120546001600160a01b0316806108575760405162461bcd60e51b815260206004820152602960248201527f4552433732313a206f776e657220717565727920666f72206e6f6e657869737460448201526832b73a103a37b5b2b760b91b6064820152608401610964565b6000610ed18133612034565b610132546000818152610130602052604090206005810180546001600160a01b0319166001600160a01b038e811691909117909155600182018c905560029091018a9055881615610f485760008181526101306020526040902060040180546001600160a01b0319166001600160a01b038a161790555b6000818152610130602090815260409091208851610f6e926006909201918a0190613397565b506000818152610130602090815260409091208751610f9592600790920191890190613397565b508451151580610fa55750835115155b156110f1578351855114610ffb5760405162461bcd60e51b815260206004820152601b60248201527f6d69736d61746368656420726563697069656e747320262042707300000000006044820152606401610964565b6000805b855181101561104f5785818151811061102857634e487b7160e01b600052603260045260246000fd5b60200260200101518261103b9190613e84565b91508061104781613f6b565b915050610fff565b506127108163ffffffff1611156110a15760405162461bcd60e51b81526020600482015260166024820152754665652042707320657863656564206d6178696d756d60501b6044820152606401610964565b60008281526101306020908152604090912087516110c79260089092019189019061341b565b5060008281526101306020908152604090912086516110ee92600990920191880190613470565b50505b821561110d57600081815261013060205260409020600a018390555b600081815261013060205260408120805460ff1916600117905561013280549161113683613f6b565b91905055505050505050505050505050565b61013060205260009081526040902080546001820154600283015460038401546004850154600586015460068701805460ff909716979596949593946001600160a01b0393841694929093169261119e90613f30565b80601f01602080910402602001604051908101604052809291908181526020018280546111ca90613f30565b80156112175780601f106111ec57610100808354040283529160200191611217565b820191906000526020600020905b8154815290600101906020018083116111fa57829003601f168201915b50505050509080600701805461122c90613f30565b80601f016020809104026020016040519081016040528092919081815260200182805461125890613f30565b80156112a55780601f1061127a576101008083540402835291602001916112a5565b820191906000526020600020905b81548152906001019060200180831161128857829003601f168201915b50505050509080600a0154905089565b60006112c18133612034565b60036000838152610130602052604090205460ff1660038111156112f557634e487b7160e01b600052602160045260246000fd5b146113345760405162461bcd60e51b815260206004820152600f60248201526e14d85b19481b9bdd081c185d5cd959608a1b6044820152606401610964565b50600090815261013060205260409020805460ff19166002179055565b60006001600160a01b0382166113bc5760405162461bcd60e51b815260206004820152602a60248201527f4552433732313a2062616c616e636520717565727920666f7220746865207a65604482015269726f206164647265737360b01b6064820152608401610964565b506001600160a01b031660009081526068602052604090205490565b600054610100900460ff16806113f1575060005460ff16155b61140d5760405162461bcd60e51b815260040161096490613d5f565b600054610100900460ff1615801561142f576000805461ffff19166101011790555b61143f632dde656160e21b6121d6565b8015611451576000805461ff00191690555b50565b60006114608133612034565b61146b600083610be7565b6114766000336119f8565b5050565b600082815260fb602052604081206114929083612255565b9392505050565b600091825260c9602090815260408084206001600160a01b0393909316845291905290205460ff1690565b60606066805461086c90613f30565b6001600160a01b03821633141561152c5760405162461bcd60e51b815260206004820152601960248201527f4552433732313a20617070726f766520746f2063616c6c6572000000000000006044820152606401610964565b336000818152606a602090815260408083206001600160a01b03871680855290835292819020805460ff191686151590811790915590519081529192917f17307eab39ab6107e8899845ad3d59bd9653f200f220920489ca2b5937696c31910160405180910390a35050565b60006115a48133612034565b5061012f80546001600160a01b0319166001600160a01b0392909216919091179055565b33600090815261013160205260409020548061161f5760405162461bcd60e51b81526020600482015260166024820152756e6f206372656469747320746f20776974686472617760501b6044820152606401610964565b336000818152610131602052604080822082905551909190614e2090849084818181858888f193505050503d8060008114611676576040519150601f19603f3d011682016040523d82523d6000602084013e61167b565b606091505b50509050806114765760405162461bcd60e51b815260206004820152600f60248201526e1dda5d1a191c985dc819985a5b1959608a1b6044820152606401610964565b6116c83383611cf3565b6116e45760405162461bcd60e51b815260040161096490613dad565b6116f084848484612261565b50505050565b6000818152610130602052604090206008015460609061177e57604080516002808252606082018352600092602083019080368337505061012f5482519293506001600160a01b03169183915060009061176057634e487b7160e01b600052603260045260246000fd5b6001600160a01b039092166020928302919091019091015292915050565b6000828152610130602090815260409182902060080180548351818402810184019094528084529091830182828015610ba557602002820191906000526020600020905b81546001600160a01b031681526001909101906020018083116117c25750505050509050919050565b60006117f78133612034565b6127108263ffffffff16111561180c57600080fd5b5061012d805463ffffffff191663ffffffff92909216919091179055565b6000818152606760205260409020546060906001600160a01b03166118a95760405162461bcd60e51b815260206004820152602f60248201527f4552433732314d657461646174613a2055524920717565727920666f72206e6f60448201526e3732bc34b9ba32b73a103a37b5b2b760891b6064820152608401610964565b60006118c060408051602081019091526000815290565b905060008151116118e05760405180602001604052806000815250611492565b806118ea84612294565b6040516020016118fb929190613b09565b6040516020818303038152906040529392505050565b600061191d8133612034565b60016000838152610130602052604090205460ff16600381111561195157634e487b7160e01b600052602160045260246000fd5b1461199e5760405162461bcd60e51b815260206004820152601c60248201527f73616c652073746172746564206f72206e6f74207072657061726564000000006044820152606401610964565b600082815261013060205260408120805460ff1916600217815561012e8054600383018190556001909201549290916119d8908490613e6c565b90915550505050565b600081815260fb60205260408120610857906123ae565b610c1382826123b8565b84848383611a0f84612098565b80611a315750611a1e846123de565b8015611a315750611a31848484846123e7565b611a7d5760405162461bcd60e51b815260206004820152601960248201527f6e6f7420617661696c61626c6520746f207075726368617365000000000000006044820152606401610964565b6000898152610130602052604090206001015489908990811115611ae35760405162461bcd60e51b815260206004820152601960248201527f7175616e746974792065786365656473206361706163697479000000000000006044820152606401610964565b60008b815261013060205260409020600501546001600160a01b0316611b0b8c8c8c84612530565b611b158c8c612753565b60008c8152610130602052604081205460ff166003811115611b4757634e487b7160e01b600052602160045260246000fd5b1415611b765760008c815261013060209081526040808320338452600b019091529020805460ff191660011790555b505050505050505050505050565b6001600160a01b038083166000908152606a6020908152604080832093851683529290529081205460ff168061149257506114927f97667070c54ef182b0f5858b034beac1b6f3089aa2d3188bb1e8929f4fa9b92983611499565b60006001600160e01b031982166380ac58cd60e01b1480611c1057506001600160e01b03198216635b5e139f60e01b145b8061085757506301ffc9a760e01b6001600160e01b0319831614610857565b6000611c3a82611bdf565b806108575750506001600160e01b03191660009081526097602052604090205460ff1690565b60006001600160e01b03198216635a05180f60e01b14806108575750610857826128c0565b600081815260696020526040902080546001600160a01b0319166001600160a01b0384169081179091558190611cba82610e4e565b6001600160a01b03167f8c5be1e5ebec7d5bd14f71427d1e84f3dd0314c0f7b2291e5b200ac8c7c3b92560405160405180910390a45050565b6000818152606760205260408120546001600160a01b0316611d6c5760405162461bcd60e51b815260206004820152602c60248201527f4552433732313a206f70657261746f7220717565727920666f72206e6f6e657860448201526b34b9ba32b73a103a37b5b2b760a11b6064820152608401610964565b6000611d7783610e4e565b9050806001600160a01b0316846001600160a01b03161480611db25750836001600160a01b0316611da7846108ef565b6001600160a01b0316145b80611dc25750611dc28185611b84565b949350505050565b826001600160a01b0316611ddd82610e4e565b6001600160a01b031614611e455760405162461bcd60e51b815260206004820152602960248201527f4552433732313a207472616e73666572206f6620746f6b656e2074686174206960448201526839903737ba1037bbb760b91b6064820152608401610964565b6001600160a01b038216611ea75760405162461bcd60e51b8152602060048201526024808201527f4552433732313a207472616e7366657220746f20746865207a65726f206164646044820152637265737360e01b6064820152608401610964565b611eb2600082611c85565b6001600160a01b0383166000908152606860205260408120805460019290611edb908490613ed6565b90915550506001600160a01b0382166000908152606860205260408120805460019290611f09908490613e6c565b909155505060008181526067602052604080822080546001600160a01b0319166001600160a01b0386811691821790925591518493918716917fddf252ad1be2c89b69c2b068fc378daa952ba7f163c4a11628f55a4df523b3ef91a4505050565b600082815260c96020526040902060010154611f868133612034565b610a9a83836128e5565b6000611492836001600160a01b03841661296b565b6001600160a01b03811633146120155760405162461bcd60e51b815260206004820152602f60248201527f416363657373436f6e74726f6c3a2063616e206f6e6c792072656e6f756e636560448201526e103937b632b9903337b91039b2b63360891b6064820152608401610964565b61147682826129ba565b6000611492836001600160a01b038416612a21565b61203e8282611499565b61147657612056816001600160a01b03166014612b3e565b612061836020612b3e565b604051602001612072929190613b38565b60408051601f198184030181529082905262461bcd60e51b825261096491600401613cfa565b600060025b6000838152610130602052604090205460ff1660038111156120cf57634e487b7160e01b600052602160045260246000fd5b1492915050565b600054610100900460ff16806120ef575060005460ff16155b61210b5760405162461bcd60e51b815260040161096490613d5f565b600054610100900460ff1615801561212d576000805461ffff19166101011790555b612135612d20565b61213d612d20565b6121478383612d8a565b8015610a9a576000805461ff0019169055505050565b600054610100900460ff1680612176575060005460ff16155b6121925760405162461bcd60e51b815260040161096490613d5f565b600054610100900460ff161580156121b4576000805461ffff19166101011790555b6121bc612d20565b6121c4612d20565b61143f612d20565b610bf18282612e1f565b6001600160e01b031980821614156122305760405162461bcd60e51b815260206004820152601c60248201527f4552433136353a20696e76616c696420696e74657266616365206964000000006044820152606401610964565b6001600160e01b0319166000908152609760205260409020805460ff19166001179055565b60006114928383612e29565b61226c848484611dca565b61227884848484612e61565b6116f05760405162461bcd60e51b815260040161096490613d0d565b6060816122b85750506040805180820190915260018152600360fc1b602082015290565b8160005b81156122e257806122cc81613f6b565b91506122db9050600a83613ea3565b91506122bc565b60008167ffffffffffffffff81111561230b57634e487b7160e01b600052604160045260246000fd5b6040519080825280601f01601f191660200182016040528015612335576020820181803683370190505b5090505b8415611dc25761234a600183613ed6565b9150612357600a86613f86565b612362906030613e6c565b60f81b81838151811061238557634e487b7160e01b600052603260045260246000fd5b60200101906001600160f81b031916908160001a9053506123a7600a86613ea3565b9450612339565b6000610857825490565b600082815260c960205260409020600101546123d48133612034565b610a9a83836129ba565b6000600161209d565b60008161242a5760405162461bcd60e51b81526020600482015260116024820152701b9bc81c1c9bdbd9881c1c9bdd9a591959607a1b6044820152606401610964565b600085815261013060209081526040808320338452600b0190915290205460ff161561248a5760405162461bcd60e51b815260206004820152600f60248201526e185b1c9958591e4818db185a5b5959608a1b6044820152606401610964565b600085815261013060205260409020600a01546125266124ec33876040516bffffffffffffffffffffffff19606084901b1660208201526034810182905260009060540160405160208183030381529060405280519060200120905092915050565b82868680806020026020016040519081016040528093929190818152602001838360200280828437600092019190915250612f6b92505050565b9695505050505050565b60008481526101306020526040902060048101546002909101546001600160a01b0390911690816126125783156125a95760405162461bcd60e51b815260206004820152601b60248201527f63616e6e6f74207370656369667920746f6b656e20616d6f756e7400000000006044820152606401610964565b6125b38186613eb7565b34146126015760405162461bcd60e51b815260206004820181905260248201527f507572636861736520616d6f756e74206d757374206d617463682070726963656044820152606401610964565b61260d86833486612f78565b61274b565b34156126605760405162461bcd60e51b815260206004820152601960248201527f63616e6e6f7420737065636966792065746820616d6f756e74000000000000006044820152606401610964565b61266a8186613eb7565b84146126b85760405162461bcd60e51b815260206004820181905260248201527f507572636861736520616d6f756e74206d757374206d617463682070726963656044820152606401610964565b6040516323b872dd60e01b8152336004820152306024820152604481018590526001600160a01b038316906323b872dd90606401602060405180830381600087803b15801561270657600080fd5b505af115801561271a573d6000803e3d6000fd5b505050506040513d601f19601f8201168201806040525081019061273e91906138ed565b5061274b86838686612f78565b505050505050565b60005b818110156127b8576000838152610130602052604090206003015461277b3382613049565b60008481526101306020526040812060030180546001929061279e908490613e6c565b909155508291506127b0905081613f6b565b915050612756565b5060008281526101306020526040812060010180548392906127db908490613ed6565b909155505060008281526101306020908152604080832060010154905190929161283591439142914191879101938452602084019290925260601b6bffffffffffffffffffffffff19166040830152605482015260740190565b60408051601f19818403018152828252805160209182012060008881526101308352839020600501548885526001600160a01b0316918401919091523383830152606083018690526080830185905260a0830181905290519092507f6b28068a1c6ccbdc095700a617f90e15e0263d38d4a44218348c71c20efe07749181900360c00190a150505050565b60006001600160e01b03198216637965db0b60e01b1480610857575061085782611c2f565b6128ef8282611499565b61147657600082815260c9602090815260408083206001600160a01b03851684529091529020805460ff191660011790556129273390565b6001600160a01b0316816001600160a01b0316837f2f8788117e7eff1d82e926ec794901d17c78024a50270940304540a733656f0d60405160405180910390a45050565b60008181526001830160205260408120546129b257508154600181810184556000848152602080822090930184905584548482528286019093526040902091909155610857565b506000610857565b6129c48282611499565b1561147657600082815260c9602090815260408083206001600160a01b0385168085529252808320805460ff1916905551339285917ff6391f5c32d9c69d2a47ea670b442974b53935d1edc7fd64eb21e047a839171b9190a45050565b60008181526001830160205260408120548015612b34576000612a45600183613ed6565b8554909150600090612a5990600190613ed6565b9050818114612ada576000866000018281548110612a8757634e487b7160e01b600052603260045260246000fd5b9060005260206000200154905080876000018481548110612ab857634e487b7160e01b600052603260045260246000fd5b6000918252602080832090910192909255918252600188019052604090208390555b8554869080612af957634e487b7160e01b600052603160045260246000fd5b600190038181906000526020600020016000905590558560010160008681526020019081526020016000206000905560019350505050610857565b6000915050610857565b60606000612b4d836002613eb7565b612b58906002613e6c565b67ffffffffffffffff811115612b7e57634e487b7160e01b600052604160045260246000fd5b6040519080825280601f01601f191660200182016040528015612ba8576020820181803683370190505b509050600360fc1b81600081518110612bd157634e487b7160e01b600052603260045260246000fd5b60200101906001600160f81b031916908160001a905350600f60fb1b81600181518110612c0e57634e487b7160e01b600052603260045260246000fd5b60200101906001600160f81b031916908160001a9053506000612c32846002613eb7565b612c3d906001613e6c565b90505b6001811115612cd1576f181899199a1a9b1b9c1cb0b131b232b360811b85600f1660108110612c7f57634e487b7160e01b600052603260045260246000fd5b1a60f81b828281518110612ca357634e487b7160e01b600052603260045260246000fd5b60200101906001600160f81b031916908160001a90535060049490941c93612cca81613f19565b9050612c40565b5083156114925760405162461bcd60e51b815260206004820181905260248201527f537472696e67733a20686578206c656e67746820696e73756666696369656e746044820152606401610964565b600054610100900460ff1680612d39575060005460ff16155b612d555760405162461bcd60e51b815260040161096490613d5f565b600054610100900460ff1615801561143f576000805461ffff19166101011790558015611451576000805461ff001916905550565b600054610100900460ff1680612da3575060005460ff16155b612dbf5760405162461bcd60e51b815260040161096490613d5f565b600054610100900460ff16158015612de1576000805461ffff19166101011790555b8251612df4906065906020860190613397565b508151612e08906066906020850190613397565b508015610a9a576000805461ff0019169055505050565b61147682826128e5565b6000826000018281548110612e4e57634e487b7160e01b600052603260045260246000fd5b9060005260206000200154905092915050565b60006001600160a01b0384163b15612f6357604051630a85bd0160e11b81526001600160a01b0385169063150b7a0290612ea5903390899088908890600401613bad565b602060405180830381600087803b158015612ebf57600080fd5b505af1925050508015612eef575060408051601f3d908101601f19168201909252612eec91810190613980565b60015b612f49573d808015612f1d576040519150601f19603f3d011682016040523d82523d6000602084013e612f22565b606091505b508051612f415760405162461bcd60e51b815260040161096490613d0d565b805181602001fd5b6001600160e01b031916630a85bd0160e11b149050611dc2565b506001611dc2565b6000611dc282848661318b565b6000612f83856116f6565b90506000612f9086610a9f565b90506000805b835181101561302b576000612fd887858481518110612fc557634e487b7160e01b600052603260045260246000fd5b602002602001015163ffffffff16613248565b9050612fe48184613e6c565b925061301885838151811061300957634e487b7160e01b600052603260045260246000fd5b60200260200101518983613261565b508061302381613f6b565b915050612f96565b50613040848761303b8489613ed6565b613261565b50505050505050565b6001600160a01b03821661309f5760405162461bcd60e51b815260206004820181905260248201527f4552433732313a206d696e7420746f20746865207a65726f20616464726573736044820152606401610964565b6000818152606760205260409020546001600160a01b0316156131045760405162461bcd60e51b815260206004820152601c60248201527f4552433732313a20746f6b656e20616c7265616479206d696e746564000000006044820152606401610964565b6001600160a01b038216600090815260686020526040812080546001929061312d908490613e6c565b909155505060008181526067602052604080822080546001600160a01b0319166001600160a01b03861690811790915590518392907fddf252ad1be2c89b69c2b068fc378daa952ba7f163c4a11628f55a4df523b3ef908290a45050565b600081815b855181101561323d5760008682815181106131bb57634e487b7160e01b600052603260045260246000fd5b602002602001015190508083116131fd57604080516020810185905290810182905260600160405160208183030381529060405280519060200120925061322a565b60408051602081018390529081018490526060016040516020818303038152906040528051906020012092505b508061323581613f6b565b915050613190565b509092149392505050565b60006127106132578385613eb7565b6114929190613ea3565b6001600160a01b038216156132f25760405163a9059cbb60e01b81526001600160a01b0384811660048301526024820183905283169063a9059cbb90604401602060405180830381600087803b1580156132ba57600080fd5b505af11580156132ce573d6000803e3d6000fd5b505050506040513d601f19601f820116820180604052508101906116f091906138ed565b6000836001600160a01b031682614e2090604051600060405180830381858888f193505050503d8060008114613344576040519150601f19603f3d011682016040523d82523d6000602084013e613349565b606091505b50509050806116f0576001600160a01b03841660009081526101316020526040902054613377908390613e6c565b6001600160a01b0385166000908152610131602052604090205550505050565b8280546133a390613f30565b90600052602060002090601f0160209004810192826133c5576000855561340b565b82601f106133de57805160ff191683800117855561340b565b8280016001018555821561340b579182015b8281111561340b5782518255916020019190600101906133f0565b50613417929150613516565b5090565b82805482825590600052602060002090810192821561340b579160200282015b8281111561340b57825182546001600160a01b0319166001600160a01b0390911617825560209092019160019091019061343b565b8280548282559060005260206000209060070160089004810192821561340b5791602002820160005b838211156134dd57835183826101000a81548163ffffffff021916908363ffffffff1602179055509260200192600401602081600301049283019260010302613499565b801561350d5782816101000a81549063ffffffff02191690556004016020816003010492830192600103026134dd565b50506134179291505b5b808211156134175760008155600101613517565b600067ffffffffffffffff83111561354557613545613fc6565b613558601f8401601f1916602001613e17565b905082815283838301111561356c57600080fd5b828260208301376000602084830101529392505050565b80356001600160a01b0381168114610bb157600080fd5b600082601f8301126135aa578081fd5b813560206135bf6135ba83613e48565b613e17565b80838252828201915082860187848660051b89010111156135de578586fd5b855b85811015613603576135f182613583565b845292840192908401906001016135e0565b5090979650505050505050565b600082601f830112613620578081fd5b813560206136306135ba83613e48565b80838252828201915082860187848660051b890101111561364f578586fd5b855b858110156136035761366282613693565b84529284019290840190600101613651565b600082601f830112613684578081fd5b6114928383356020850161352b565b803563ffffffff81168114610bb157600080fd5b6000602082840312156136b8578081fd5b61149282613583565b600080604083850312156136d3578081fd5b6136dc83613583565b91506136ea60208401613583565b90509250929050565b600080600060608486031215613707578081fd5b61371084613583565b925061371e60208501613583565b9150604084013590509250925092565b60008060008060808587031215613743578081fd5b61374c85613583565b935061375a60208601613583565b925060408501359150606085013567ffffffffffffffff81111561377c578182fd5b8501601f8101871361378c578182fd5b61379b8782356020840161352b565b91505092959194509250565b600080604083850312156137b9578182fd5b6137c283613583565b915060208301356137d281613fdc565b809150509250929050565b600080604083850312156137ef578182fd5b6137f883613583565b946020939093013593505050565b60008060008060008060008060006101208a8c031215613824578485fd5b61382d8a613583565b985060208a0135975060408a0135965061384960608b01613583565b955060808a013567ffffffffffffffff80821115613865578687fd5b6138718d838e01613674565b965060a08c0135915080821115613886578586fd5b6138928d838e01613674565b955060c08c01359150808211156138a7578485fd5b6138b38d838e0161359a565b945060e08c01359150808211156138c8578384fd5b506138d58c828d01613610565b9250506101008a013590509295985092959850929598565b6000602082840312156138fe578081fd5b815161149281613fdc565b60006020828403121561391a578081fd5b5035919050565b60008060408385031215613933578182fd5b823591506136ea60208401613583565b60008060408385031215613955578182fd5b50508035926020909101359150565b600060208284031215613975578081fd5b813561149281613fea565b600060208284031215613991578081fd5b815161149281613fea565b600080604083850312156139ae578182fd5b823567ffffffffffffffff808211156139c5578384fd5b6139d186838701613674565b935060208501359150808211156139e6578283fd5b506139f385828601613674565b9150509250929050565b60008060408385031215613a0f578182fd5b82359150602083013567ffffffffffffffff811115613a2c578182fd5b6139f385828601613674565b600080600080600060808688031215613a4f578283fd5b853594506020860135935060408601359250606086013567ffffffffffffffff80821115613a7b578283fd5b818801915088601f830112613a8e578283fd5b813581811115613a9c578384fd5b8960208260051b8501011115613ab0578384fd5b9699959850939650602001949392505050565b600060208284031215613ad4578081fd5b61149282613693565b60008151808452613af5816020860160208601613eed565b601f01601f19169290920160200192915050565b60008351613b1b818460208801613eed565b835190830190613b2f818360208801613eed565b01949350505050565b7f416363657373436f6e74726f6c3a206163636f756e7420000000000000000000815260008351613b70816017850160208801613eed565b7001034b99036b4b9b9b4b733903937b6329607d1b6017918401918201528351613ba1816028840160208801613eed565b01602801949350505050565b6001600160a01b038581168252841660208201526040810183905260806060820181905260009061252690830184613add565b6020808252825182820181905260009190848201906040850190845b81811015613c215783516001600160a01b031683529284019291840191600101613bfc565b50909695505050505050565b6020808252825182820181905260009190848201906040850190845b81811015613c2157835163ffffffff1683529284019291840191600101613c49565b600061012060048c10613c8c57634e487b7160e01b82526021600452602482fd5b8b8352602083018b9052604083018a9052606083018990526001600160a01b038881166080850152871660a084015260c08301819052613cce81840187613add565b905082810360e0840152613ce28186613add565b915050826101008301529a9950505050505050505050565b6020815260006114926020830184613add565b60208082526032908201527f4552433732313a207472616e7366657220746f206e6f6e20455243373231526560408201527131b2b4bb32b91034b6b83632b6b2b73a32b960711b606082015260800190565b6020808252602e908201527f496e697469616c697a61626c653a20636f6e747261637420697320616c72656160408201526d191e481a5b9a5d1a585b1a5e995960921b606082015260800190565b60208082526031908201527f4552433732313a207472616e736665722063616c6c6572206973206e6f74206f6040820152701ddb995c881b9bdc88185c1c1c9bdd9959607a1b606082015260800190565b828152604060208201526000611dc26040830184613add565b604051601f8201601f1916810167ffffffffffffffff81118282101715613e4057613e40613fc6565b604052919050565b600067ffffffffffffffff821115613e6257613e62613fc6565b5060051b60200190565b60008219821115613e7f57613e7f613f9a565b500190565b600063ffffffff808316818516808303821115613b2f57613b2f613f9a565b600082613eb257613eb2613fb0565b500490565b6000816000190483118215151615613ed157613ed1613f9a565b500290565b600082821015613ee857613ee8613f9a565b500390565b60005b83811015613f08578181015183820152602001613ef0565b838111156116f05750506000910152565b600081613f2857613f28613f9a565b506000190190565b600181811c90821680613f4457607f821691505b60208210811415613f6557634e487b7160e01b600052602260045260246000fd5b50919050565b6000600019821415613f7f57613f7f613f9a565b5060010190565b600082613f9557613f95613fb0565b500690565b634e487b7160e01b600052601160045260246000fd5b634e487b7160e01b600052601260045260246000fd5b634e487b7160e01b600052604160045260246000fd5b801515811461145157600080fd5b6001600160e01b03198116811461145157600080fdfea26469706673582212204ed131a73ef1ff0ca8533e1e9561393aab2bb4986d9f1a1d5ec627985b1df0b664736f6c63430008040033",
  "devdoc": {
    "kind": "dev",
    "methods": {
      "approve(address,uint256)": {
        "details": "See {IERC721-approve}."
      },
      "balanceOf(address)": {
        "details": "See {IERC721-balanceOf}."
      },
      "getApproved(uint256)": {
        "details": "See {IERC721-getApproved}."
      },
      "getRoleAdmin(bytes32)": {
        "details": "Returns the admin role that controls `role`. See {grantRole} and {revokeRole}. To change a role's admin, use {_setRoleAdmin}."
      },
      "getRoleMember(bytes32,uint256)": {
        "details": "Returns one of the accounts that have `role`. `index` must be a value between 0 and {getRoleMemberCount}, non-inclusive. Role bearers are not sorted in any particular way, and their ordering may change at any point. WARNING: When using {getRoleMember} and {getRoleMemberCount}, make sure you perform all queries on the same block. See the following https://forum.openzeppelin.com/t/iterating-over-elements-on-enumerableset-in-openzeppelin-contracts/2296[forum post] for more information."
      },
      "getRoleMemberCount(bytes32)": {
        "details": "Returns the number of accounts that have `role`. Can be used together with {getRoleMember} to enumerate all bearers of a role."
      },
      "grantRole(bytes32,address)": {
        "details": "Overload {grantRole} to track enumerable memberships"
      },
      "hasRole(bytes32,address)": {
        "details": "Returns `true` if `account` has been granted `role`."
      },
      "name()": {
        "details": "See {IERC721Metadata-name}."
      },
      "ownerOf(uint256)": {
        "details": "See {IERC721-ownerOf}."
      },
      "renounceRole(bytes32,address)": {
        "details": "Overload {renounceRole} to track enumerable memberships"
      },
      "revokeRole(bytes32,address)": {
        "details": "Overload {revokeRole} to track enumerable memberships"
      },
      "safeTransferFrom(address,address,uint256)": {
        "details": "See {IERC721-safeTransferFrom}."
      },
      "safeTransferFrom(address,address,uint256,bytes)": {
        "details": "See {IERC721-safeTransferFrom}."
      },
      "setApprovalForAll(address,bool)": {
        "details": "See {IERC721-setApprovalForAll}."
      },
      "symbol()": {
        "details": "See {IERC721Metadata-symbol}."
      },
      "tokenURI(uint256)": {
        "details": "See {IERC721Metadata-tokenURI}."
      },
      "transferFrom(address,address,uint256)": {
        "details": "See {IERC721-transferFrom}."
      }
    },
    "version": 1
  },
  "userdoc": {
    "kind": "user",
    "methods": {
      "isApprovedForAll(address,address)": {
        "notice": "Required function overide //////"
      },
      "updateBaseTokenUri(uint256,string)": {
        "notice": "ONLY ADMIN functions ///"
      }
    },
    "version": 1
  },
  "storageLayout": {
    "storage": [
      {
        "astId": 648,
        "contract": "contracts/Blueprint.sol:Blueprint",
        "label": "_initialized",
        "offset": 0,
        "slot": "0",
        "type": "t_bool"
      },
      {
        "astId": 651,
        "contract": "contracts/Blueprint.sol:Blueprint",
        "label": "_initializing",
        "offset": 1,
        "slot": "0",
        "type": "t_bool"
      },
      {
        "astId": 1983,
        "contract": "contracts/Blueprint.sol:Blueprint",
        "label": "__gap",
        "offset": 0,
        "slot": "1",
        "type": "t_array(t_uint256)50_storage"
      },
      {
        "astId": 2308,
        "contract": "contracts/Blueprint.sol:Blueprint",
        "label": "__gap",
        "offset": 0,
        "slot": "51",
        "type": "t_array(t_uint256)50_storage"
      },
      {
        "astId": 717,
        "contract": "contracts/Blueprint.sol:Blueprint",
        "label": "_name",
        "offset": 0,
        "slot": "101",
        "type": "t_string_storage"
      },
      {
        "astId": 719,
        "contract": "contracts/Blueprint.sol:Blueprint",
        "label": "_symbol",
        "offset": 0,
        "slot": "102",
        "type": "t_string_storage"
      },
      {
        "astId": 723,
        "contract": "contracts/Blueprint.sol:Blueprint",
        "label": "_owners",
        "offset": 0,
        "slot": "103",
        "type": "t_mapping(t_uint256,t_address)"
      },
      {
        "astId": 727,
        "contract": "contracts/Blueprint.sol:Blueprint",
        "label": "_balances",
        "offset": 0,
        "slot": "104",
        "type": "t_mapping(t_address,t_uint256)"
      },
      {
        "astId": 731,
        "contract": "contracts/Blueprint.sol:Blueprint",
        "label": "_tokenApprovals",
        "offset": 0,
        "slot": "105",
        "type": "t_mapping(t_uint256,t_address)"
      },
      {
        "astId": 737,
        "contract": "contracts/Blueprint.sol:Blueprint",
        "label": "_operatorApprovals",
        "offset": 0,
        "slot": "106",
        "type": "t_mapping(t_address,t_mapping(t_address,t_bool))"
      },
      {
        "astId": 1533,
        "contract": "contracts/Blueprint.sol:Blueprint",
        "label": "__gap",
        "offset": 0,
        "slot": "107",
        "type": "t_array(t_uint256)44_storage"
      },
      {
        "astId": 2219,
        "contract": "contracts/Blueprint.sol:Blueprint",
        "label": "_supportedInterfaces",
        "offset": 0,
        "slot": "151",
        "type": "t_mapping(t_bytes4,t_bool)"
      },
      {
        "astId": 2262,
        "contract": "contracts/Blueprint.sol:Blueprint",
        "label": "__gap",
        "offset": 0,
        "slot": "152",
        "type": "t_array(t_uint256)49_storage"
      },
      {
        "astId": 258,
        "contract": "contracts/Blueprint.sol:Blueprint",
        "label": "_roles",
        "offset": 0,
        "slot": "201",
        "type": "t_mapping(t_bytes32,t_struct(RoleData)253_storage)"
      },
      {
        "astId": 543,
        "contract": "contracts/Blueprint.sol:Blueprint",
        "label": "__gap",
        "offset": 0,
        "slot": "202",
        "type": "t_array(t_uint256)49_storage"
      },
      {
        "astId": 45,
        "contract": "contracts/Blueprint.sol:Blueprint",
        "label": "_roleMembers",
        "offset": 0,
        "slot": "251",
        "type": "t_mapping(t_bytes32,t_struct(AddressSet)2633_storage)"
      },
      {
        "astId": 208,
        "contract": "contracts/Blueprint.sol:Blueprint",
        "label": "__gap",
        "offset": 0,
        "slot": "252",
        "type": "t_array(t_uint256)49_storage"
      },
      {
        "astId": 3678,
        "contract": "contracts/Blueprint.sol:Blueprint",
        "label": "defaultPlatformFeePercentage",
        "offset": 0,
        "slot": "301",
        "type": "t_uint32"
      },
      {
        "astId": 3680,
        "contract": "contracts/Blueprint.sol:Blueprint",
        "label": "latestErc721TokenIndex",
        "offset": 0,
        "slot": "302",
        "type": "t_uint256"
      },
      {
        "astId": 3682,
        "contract": "contracts/Blueprint.sol:Blueprint",
        "label": "asyncSaleFeesRecipient",
        "offset": 0,
        "slot": "303",
        "type": "t_address"
      },
      {
        "astId": 3687,
        "contract": "contracts/Blueprint.sol:Blueprint",
        "label": "blueprints",
        "offset": 0,
        "slot": "304",
        "type": "t_mapping(t_uint256,t_struct(Blueprints)3733_storage)"
      },
      {
        "astId": 3691,
        "contract": "contracts/Blueprint.sol:Blueprint",
        "label": "failedTransferCredits",
        "offset": 0,
        "slot": "305",
        "type": "t_mapping(t_address,t_uint256)"
      },
      {
        "astId": 3693,
        "contract": "contracts/Blueprint.sol:Blueprint",
        "label": "blueprintIndex",
        "offset": 0,
        "slot": "306",
        "type": "t_uint256"
      }
    ],
    "types": {
      "t_address": {
        "encoding": "inplace",
        "label": "address",
        "numberOfBytes": "20"
      },
      "t_array(t_address)dyn_storage": {
        "base": "t_address",
        "encoding": "dynamic_array",
        "label": "address[]",
        "numberOfBytes": "32"
      },
      "t_array(t_bytes32)dyn_storage": {
        "base": "t_bytes32",
        "encoding": "dynamic_array",
        "label": "bytes32[]",
        "numberOfBytes": "32"
      },
      "t_array(t_uint256)44_storage": {
        "base": "t_uint256",
        "encoding": "inplace",
        "label": "uint256[44]",
        "numberOfBytes": "1408"
      },
      "t_array(t_uint256)49_storage": {
        "base": "t_uint256",
        "encoding": "inplace",
        "label": "uint256[49]",
        "numberOfBytes": "1568"
      },
      "t_array(t_uint256)50_storage": {
        "base": "t_uint256",
        "encoding": "inplace",
        "label": "uint256[50]",
        "numberOfBytes": "1600"
      },
      "t_array(t_uint32)dyn_storage": {
        "base": "t_uint32",
        "encoding": "dynamic_array",
        "label": "uint32[]",
        "numberOfBytes": "32"
      },
      "t_bool": {
        "encoding": "inplace",
        "label": "bool",
        "numberOfBytes": "1"
      },
      "t_bytes32": {
        "encoding": "inplace",
        "label": "bytes32",
        "numberOfBytes": "32"
      },
      "t_bytes4": {
        "encoding": "inplace",
        "label": "bytes4",
        "numberOfBytes": "4"
      },
      "t_enum(SaleState)3703": {
        "encoding": "inplace",
        "label": "enum Blueprint.SaleState",
        "numberOfBytes": "1"
      },
      "t_mapping(t_address,t_bool)": {
        "encoding": "mapping",
        "key": "t_address",
        "label": "mapping(address => bool)",
        "numberOfBytes": "32",
        "value": "t_bool"
      },
      "t_mapping(t_address,t_mapping(t_address,t_bool))": {
        "encoding": "mapping",
        "key": "t_address",
        "label": "mapping(address => mapping(address => bool))",
        "numberOfBytes": "32",
        "value": "t_mapping(t_address,t_bool)"
      },
      "t_mapping(t_address,t_uint256)": {
        "encoding": "mapping",
        "key": "t_address",
        "label": "mapping(address => uint256)",
        "numberOfBytes": "32",
        "value": "t_uint256"
      },
      "t_mapping(t_bytes32,t_struct(AddressSet)2633_storage)": {
        "encoding": "mapping",
        "key": "t_bytes32",
        "label": "mapping(bytes32 => struct EnumerableSetUpgradeable.AddressSet)",
        "numberOfBytes": "32",
        "value": "t_struct(AddressSet)2633_storage"
      },
      "t_mapping(t_bytes32,t_struct(RoleData)253_storage)": {
        "encoding": "mapping",
        "key": "t_bytes32",
        "label": "mapping(bytes32 => struct AccessControlUpgradeable.RoleData)",
        "numberOfBytes": "32",
        "value": "t_struct(RoleData)253_storage"
      },
      "t_mapping(t_bytes32,t_uint256)": {
        "encoding": "mapping",
        "key": "t_bytes32",
        "label": "mapping(bytes32 => uint256)",
        "numberOfBytes": "32",
        "value": "t_uint256"
      },
      "t_mapping(t_bytes4,t_bool)": {
        "encoding": "mapping",
        "key": "t_bytes4",
        "label": "mapping(bytes4 => bool)",
        "numberOfBytes": "32",
        "value": "t_bool"
      },
      "t_mapping(t_uint256,t_address)": {
        "encoding": "mapping",
        "key": "t_uint256",
        "label": "mapping(uint256 => address)",
        "numberOfBytes": "32",
        "value": "t_address"
      },
      "t_mapping(t_uint256,t_struct(Blueprints)3733_storage)": {
        "encoding": "mapping",
        "key": "t_uint256",
        "label": "mapping(uint256 => struct Blueprint.Blueprints)",
        "numberOfBytes": "32",
        "value": "t_struct(Blueprints)3733_storage"
      },
      "t_string_storage": {
        "encoding": "bytes",
        "label": "string",
        "numberOfBytes": "32"
      },
      "t_struct(AddressSet)2633_storage": {
        "encoding": "inplace",
        "label": "struct EnumerableSetUpgradeable.AddressSet",
        "members": [
          {
            "astId": 2632,
            "contract": "contracts/Blueprint.sol:Blueprint",
            "label": "_inner",
            "offset": 0,
            "slot": "0",
            "type": "t_struct(Set)2332_storage"
          }
        ],
        "numberOfBytes": "64"
      },
      "t_struct(Blueprints)3733_storage": {
        "encoding": "inplace",
        "label": "struct Blueprint.Blueprints",
        "members": [
          {
            "astId": 3706,
            "contract": "contracts/Blueprint.sol:Blueprint",
            "label": "saleState",
            "offset": 0,
            "slot": "0",
            "type": "t_enum(SaleState)3703"
          },
          {
            "astId": 3708,
            "contract": "contracts/Blueprint.sol:Blueprint",
            "label": "capacity",
            "offset": 0,
            "slot": "1",
            "type": "t_uint256"
          },
          {
            "astId": 3710,
            "contract": "contracts/Blueprint.sol:Blueprint",
            "label": "price",
            "offset": 0,
            "slot": "2",
            "type": "t_uint256"
          },
          {
            "astId": 3712,
            "contract": "contracts/Blueprint.sol:Blueprint",
            "label": "erc721TokenIndex",
            "offset": 0,
            "slot": "3",
            "type": "t_uint256"
          },
          {
            "astId": 3714,
            "contract": "contracts/Blueprint.sol:Blueprint",
            "label": "ERC20Token",
            "offset": 0,
            "slot": "4",
            "type": "t_address"
          },
          {
            "astId": 3716,
            "contract": "contracts/Blueprint.sol:Blueprint",
            "label": "artist",
            "offset": 0,
            "slot": "5",
            "type": "t_address"
          },
          {
            "astId": 3718,
            "contract": "contracts/Blueprint.sol:Blueprint",
            "label": "randomSeedSigHash",
            "offset": 0,
            "slot": "6",
            "type": "t_string_storage"
          },
          {
            "astId": 3720,
            "contract": "contracts/Blueprint.sol:Blueprint",
            "label": "baseTokenUri",
            "offset": 0,
            "slot": "7",
            "type": "t_string_storage"
          },
          {
            "astId": 3723,
            "contract": "contracts/Blueprint.sol:Blueprint",
            "label": "feeRecipients",
            "offset": 0,
            "slot": "8",
            "type": "t_array(t_address)dyn_storage"
          },
          {
            "astId": 3726,
            "contract": "contracts/Blueprint.sol:Blueprint",
            "label": "feeBPS",
            "offset": 0,
            "slot": "9",
            "type": "t_array(t_uint32)dyn_storage"
          },
          {
            "astId": 3728,
            "contract": "contracts/Blueprint.sol:Blueprint",
            "label": "merkleroot",
            "offset": 0,
            "slot": "10",
            "type": "t_bytes32"
          },
          {
            "astId": 3732,
            "contract": "contracts/Blueprint.sol:Blueprint",
            "label": "claimedWhitelistedPieces",
            "offset": 0,
            "slot": "11",
            "type": "t_mapping(t_address,t_bool)"
          }
        ],
        "numberOfBytes": "384"
      },
      "t_struct(RoleData)253_storage": {
        "encoding": "inplace",
        "label": "struct AccessControlUpgradeable.RoleData",
        "members": [
          {
            "astId": 250,
            "contract": "contracts/Blueprint.sol:Blueprint",
            "label": "members",
            "offset": 0,
            "slot": "0",
            "type": "t_mapping(t_address,t_bool)"
          },
          {
            "astId": 252,
            "contract": "contracts/Blueprint.sol:Blueprint",
            "label": "adminRole",
            "offset": 0,
            "slot": "1",
            "type": "t_bytes32"
          }
        ],
        "numberOfBytes": "64"
      },
      "t_struct(Set)2332_storage": {
        "encoding": "inplace",
        "label": "struct EnumerableSetUpgradeable.Set",
        "members": [
          {
            "astId": 2327,
            "contract": "contracts/Blueprint.sol:Blueprint",
            "label": "_values",
            "offset": 0,
            "slot": "0",
            "type": "t_array(t_bytes32)dyn_storage"
          },
          {
            "astId": 2331,
            "contract": "contracts/Blueprint.sol:Blueprint",
            "label": "_indexes",
            "offset": 0,
            "slot": "1",
            "type": "t_mapping(t_bytes32,t_uint256)"
          }
        ],
        "numberOfBytes": "64"
      },
      "t_uint256": {
        "encoding": "inplace",
        "label": "uint256",
        "numberOfBytes": "32"
      },
      "t_uint32": {
        "encoding": "inplace",
        "label": "uint32",
        "numberOfBytes": "4"
      }
    }
  }
}