{
  "address": "0x5A22c8f3B906e98327a7F16dd122f4DE13888Ea5",
  "abi": [
    {
      "anonymous": false,
      "inputs": [
        {
          "indexed": true,
          "internalType": "address",
          "name": "owner",
          "type": "address"
        },
        {
          "indexed": true,
          "internalType": "address",
          "name": "approved",
          "type": "address"
        },
        {
          "indexed": true,
          "internalType": "uint256",
          "name": "tokenId",
          "type": "uint256"
        }
      ],
      "name": "Approval",
      "type": "event"
    },
    {
      "anonymous": false,
      "inputs": [
        {
          "indexed": true,
          "internalType": "address",
          "name": "owner",
          "type": "address"
        },
        {
          "indexed": true,
          "internalType": "address",
          "name": "operator",
          "type": "address"
        },
        {
          "indexed": false,
          "internalType": "bool",
          "name": "approved",
          "type": "bool"
        }
      ],
      "name": "ApprovalForAll",
      "type": "event"
    },
    {
      "anonymous": false,
      "inputs": [
        {
          "indexed": false,
          "internalType": "uint256",
          "name": "blueprintID",
          "type": "uint256"
        },
        {
          "indexed": false,
          "internalType": "address",
          "name": "artist",
          "type": "address"
        },
        {
          "indexed": false,
          "internalType": "address",
          "name": "purchaser",
          "type": "address"
        },
        {
          "indexed": false,
          "internalType": "uint128",
          "name": "tokenId",
          "type": "uint128"
        },
        {
          "indexed": false,
          "internalType": "uint64",
          "name": "newCapacity",
          "type": "uint64"
        },
        {
          "indexed": false,
          "internalType": "bytes32",
          "name": "seedPrefix",
          "type": "bytes32"
        }
      ],
      "name": "BlueprintMinted",
      "type": "event"
    },
    {
      "anonymous": false,
      "inputs": [
        {
          "indexed": false,
          "internalType": "uint256",
          "name": "blueprintID",
          "type": "uint256"
        },
        {
          "indexed": false,
          "internalType": "address",
          "name": "artist",
          "type": "address"
        },
        {
          "indexed": false,
          "internalType": "uint64",
          "name": "capacity",
          "type": "uint64"
        },
        {
          "indexed": false,
          "internalType": "string",
          "name": "blueprintMetaData",
          "type": "string"
        },
        {
          "indexed": false,
          "internalType": "string",
          "name": "baseTokenUri",
          "type": "string"
        }
      ],
      "name": "BlueprintPrepared",
      "type": "event"
    },
    {
      "anonymous": false,
      "inputs": [
        {
          "indexed": false,
          "internalType": "uint256",
          "name": "blueprintID",
          "type": "uint256"
        },
        {
          "indexed": false,
          "internalType": "string",
          "name": "randomSeed",
          "type": "string"
        }
      ],
      "name": "BlueprintSeed",
      "type": "event"
    },
    {
      "anonymous": false,
      "inputs": [
        {
          "indexed": true,
          "internalType": "bytes32",
          "name": "role",
          "type": "bytes32"
        },
        {
          "indexed": true,
          "internalType": "bytes32",
          "name": "previousAdminRole",
          "type": "bytes32"
        },
        {
          "indexed": true,
          "internalType": "bytes32",
          "name": "newAdminRole",
          "type": "bytes32"
        }
      ],
      "name": "RoleAdminChanged",
      "type": "event"
    },
    {
      "anonymous": false,
      "inputs": [
        {
          "indexed": true,
          "internalType": "bytes32",
          "name": "role",
          "type": "bytes32"
        },
        {
          "indexed": true,
          "internalType": "address",
          "name": "account",
          "type": "address"
        },
        {
          "indexed": true,
          "internalType": "address",
          "name": "sender",
          "type": "address"
        }
      ],
      "name": "RoleGranted",
      "type": "event"
    },
    {
      "anonymous": false,
      "inputs": [
        {
          "indexed": true,
          "internalType": "bytes32",
          "name": "role",
          "type": "bytes32"
        },
        {
          "indexed": true,
          "internalType": "address",
          "name": "account",
          "type": "address"
        },
        {
          "indexed": true,
          "internalType": "address",
          "name": "sender",
          "type": "address"
        }
      ],
      "name": "RoleRevoked",
      "type": "event"
    },
    {
      "anonymous": false,
      "inputs": [
        {
          "indexed": false,
          "internalType": "uint256",
          "name": "blueprintID",
          "type": "uint256"
        }
      ],
      "name": "SalePaused",
      "type": "event"
    },
    {
      "anonymous": false,
      "inputs": [
        {
          "indexed": false,
          "internalType": "uint256",
          "name": "blueprintID",
          "type": "uint256"
        }
      ],
      "name": "SaleStarted",
      "type": "event"
    },
    {
      "anonymous": false,
      "inputs": [
        {
          "indexed": false,
          "internalType": "uint256",
          "name": "blueprintID",
          "type": "uint256"
        }
      ],
      "name": "SaleUnpaused",
      "type": "event"
    },
    {
      "anonymous": false,
      "inputs": [
        {
          "indexed": false,
          "internalType": "uint256",
          "name": "tokenId",
          "type": "uint256"
        },
        {
          "indexed": false,
          "internalType": "address[]",
          "name": "recipients",
          "type": "address[]"
        },
        {
          "indexed": false,
          "internalType": "uint256[]",
          "name": "bps",
          "type": "uint256[]"
        }
      ],
      "name": "SecondarySaleFees",
      "type": "event"
    },
    {
      "anonymous": false,
      "inputs": [
        {
          "indexed": true,
          "internalType": "address",
          "name": "from",
          "type": "address"
        },
        {
          "indexed": true,
          "internalType": "address",
          "name": "to",
          "type": "address"
        },
        {
          "indexed": true,
          "internalType": "uint256",
          "name": "tokenId",
          "type": "uint256"
        }
      ],
      "name": "Transfer",
      "type": "event"
    },
    {
      "inputs": [],
      "name": "DEFAULT_ADMIN_ROLE",
      "outputs": [
        {
          "internalType": "bytes32",
          "name": "",
          "type": "bytes32"
        }
      ],
      "stateMutability": "view",
      "type": "function"
    },
    {
      "inputs": [],
      "name": "OPERATOR_ROLE",
      "outputs": [
        {
          "internalType": "bytes32",
          "name": "",
          "type": "bytes32"
        }
      ],
      "stateMutability": "view",
      "type": "function"
    },
    {
      "inputs": [],
      "name": "_initialize",
      "outputs": [],
      "stateMutability": "nonpayable",
      "type": "function"
    },
    {
      "inputs": [
        {
          "internalType": "address",
          "name": "to",
          "type": "address"
        },
        {
          "internalType": "uint256",
          "name": "tokenId",
          "type": "uint256"
        }
      ],
      "name": "approve",
      "outputs": [],
      "stateMutability": "nonpayable",
      "type": "function"
    },
    {
      "inputs": [],
      "name": "asyncSaleFeesRecipient",
      "outputs": [
        {
          "internalType": "address",
          "name": "",
          "type": "address"
        }
      ],
      "stateMutability": "view",
      "type": "function"
    },
    {
      "inputs": [
        {
          "internalType": "address",
          "name": "owner",
          "type": "address"
        }
      ],
      "name": "balanceOf",
      "outputs": [
        {
          "internalType": "uint256",
          "name": "",
          "type": "uint256"
        }
      ],
      "stateMutability": "view",
      "type": "function"
    },
    {
      "inputs": [
        {
          "internalType": "uint256",
          "name": "blueprintID",
          "type": "uint256"
        }
      ],
      "name": "beginSale",
      "outputs": [],
      "stateMutability": "nonpayable",
      "type": "function"
    },
    {
      "inputs": [],
      "name": "blueprintIndex",
      "outputs": [
        {
          "internalType": "uint256",
          "name": "",
          "type": "uint256"
        }
      ],
      "stateMutability": "view",
      "type": "function"
    },
    {
      "inputs": [
        {
          "internalType": "uint256",
          "name": "",
          "type": "uint256"
        }
      ],
      "name": "blueprints",
      "outputs": [
        {
          "internalType": "uint32",
          "name": "mintAmountArtist",
          "type": "uint32"
        },
        {
          "internalType": "uint32",
          "name": "mintAmountPlatform",
          "type": "uint32"
        },
        {
          "internalType": "uint64",
          "name": "capacity",
          "type": "uint64"
        },
        {
          "internalType": "uint128",
          "name": "price",
          "type": "uint128"
        },
        {
          "internalType": "uint64",
          "name": "erc721TokenIndex",
          "type": "uint64"
        },
        {
          "internalType": "address",
          "name": "artist",
          "type": "address"
        },
        {
          "internalType": "enum Blueprint.SaleState",
          "name": "saleState",
          "type": "uint8"
        },
        {
          "internalType": "address",
          "name": "ERC20Token",
          "type": "address"
        },
        {
          "internalType": "string",
          "name": "baseTokenUri",
          "type": "string"
        },
        {
          "internalType": "bytes32",
          "name": "merkleroot",
          "type": "bytes32"
        }
      ],
      "stateMutability": "view",
      "type": "function"
    },
    {
      "inputs": [
        {
          "internalType": "uint32",
          "name": "_basisPoints",
          "type": "uint32"
        }
      ],
      "name": "changeDefaultPlatformSecondarySalePercentage",
      "outputs": [],
      "stateMutability": "nonpayable",
      "type": "function"
    },
    {
      "inputs": [
        {
          "internalType": "uint32",
          "name": "_basisPoints",
          "type": "uint32"
        }
      ],
      "name": "changedefaultBlueprintSecondarySalePercentage",
      "outputs": [],
      "stateMutability": "nonpayable",
      "type": "function"
    },
    {
      "inputs": [
        {
          "internalType": "uint32",
          "name": "_basisPoints",
          "type": "uint32"
        }
      ],
      "name": "changedefaultPlatformPrimaryFeePercentage",
      "outputs": [],
      "stateMutability": "nonpayable",
      "type": "function"
    },
    {
      "inputs": [],
      "name": "defaultBlueprintSecondarySalePercentage",
      "outputs": [
        {
          "internalType": "uint32",
          "name": "",
          "type": "uint32"
        }
      ],
      "stateMutability": "view",
      "type": "function"
    },
    {
      "inputs": [],
      "name": "defaultPlatformPrimaryFeePercentage",
      "outputs": [
        {
          "internalType": "uint32",
          "name": "",
          "type": "uint32"
        }
      ],
      "stateMutability": "view",
      "type": "function"
    },
    {
      "inputs": [],
      "name": "defaultPlatformSecondarySalePercentage",
      "outputs": [
        {
          "internalType": "uint32",
          "name": "",
          "type": "uint32"
        }
      ],
      "stateMutability": "view",
      "type": "function"
    },
    {
      "inputs": [
        {
          "internalType": "uint256",
          "name": "tokenId",
          "type": "uint256"
        }
      ],
      "name": "getApproved",
      "outputs": [
        {
          "internalType": "address",
          "name": "",
          "type": "address"
        }
      ],
      "stateMutability": "view",
      "type": "function"
    },
    {
      "inputs": [
        {
          "internalType": "uint256",
          "name": "id",
          "type": "uint256"
        }
      ],
      "name": "getFeeBps",
      "outputs": [
        {
          "internalType": "uint32[]",
          "name": "",
          "type": "uint32[]"
        }
      ],
      "stateMutability": "view",
      "type": "function"
    },
    {
      "inputs": [
        {
          "internalType": "uint256",
          "name": "id",
          "type": "uint256"
        }
      ],
      "name": "getFeeRecipients",
      "outputs": [
        {
          "internalType": "address[]",
          "name": "",
          "type": "address[]"
        }
      ],
      "stateMutability": "view",
      "type": "function"
    },
    {
      "inputs": [
        {
          "internalType": "uint256",
          "name": "id",
          "type": "uint256"
        }
      ],
      "name": "getPrimaryFeeBps",
      "outputs": [
        {
          "internalType": "uint32[]",
          "name": "",
          "type": "uint32[]"
        }
      ],
      "stateMutability": "view",
      "type": "function"
    },
    {
      "inputs": [
        {
          "internalType": "uint256",
          "name": "id",
          "type": "uint256"
        }
      ],
      "name": "getPrimaryFeeRecipients",
      "outputs": [
        {
          "internalType": "address[]",
          "name": "",
          "type": "address[]"
        }
      ],
      "stateMutability": "view",
      "type": "function"
    },
    {
      "inputs": [
        {
          "internalType": "bytes32",
          "name": "role",
          "type": "bytes32"
        }
      ],
      "name": "getRoleAdmin",
      "outputs": [
        {
          "internalType": "bytes32",
          "name": "",
          "type": "bytes32"
        }
      ],
      "stateMutability": "view",
      "type": "function"
    },
    {
      "inputs": [
        {
          "internalType": "bytes32",
          "name": "role",
          "type": "bytes32"
        },
        {
          "internalType": "uint256",
          "name": "index",
          "type": "uint256"
        }
      ],
      "name": "getRoleMember",
      "outputs": [
        {
          "internalType": "address",
          "name": "",
          "type": "address"
        }
      ],
      "stateMutability": "view",
      "type": "function"
    },
    {
      "inputs": [
        {
          "internalType": "bytes32",
          "name": "role",
          "type": "bytes32"
        }
      ],
      "name": "getRoleMemberCount",
      "outputs": [
        {
          "internalType": "uint256",
          "name": "",
          "type": "uint256"
        }
      ],
      "stateMutability": "view",
      "type": "function"
    },
    {
      "inputs": [
        {
          "internalType": "bytes32",
          "name": "role",
          "type": "bytes32"
        },
        {
          "internalType": "address",
          "name": "account",
          "type": "address"
        }
      ],
      "name": "grantRole",
      "outputs": [],
      "stateMutability": "nonpayable",
      "type": "function"
    },
    {
      "inputs": [
        {
          "internalType": "bytes32",
          "name": "role",
          "type": "bytes32"
        },
        {
          "internalType": "address",
          "name": "account",
          "type": "address"
        }
      ],
      "name": "hasRole",
      "outputs": [
        {
          "internalType": "bool",
          "name": "",
          "type": "bool"
        }
      ],
      "stateMutability": "view",
      "type": "function"
    },
    {
      "inputs": [
        {
          "internalType": "string",
          "name": "name_",
          "type": "string"
        },
        {
          "internalType": "string",
          "name": "symbol_",
          "type": "string"
        }
      ],
      "name": "initialize",
      "outputs": [],
      "stateMutability": "nonpayable",
      "type": "function"
    },
    {
      "inputs": [
        {
          "internalType": "address",
          "name": "account",
          "type": "address"
        },
        {
          "internalType": "address",
          "name": "operator",
          "type": "address"
        }
      ],
      "name": "isApprovedForAll",
      "outputs": [
        {
          "internalType": "bool",
          "name": "",
          "type": "bool"
        }
      ],
      "stateMutability": "view",
      "type": "function"
    },
    {
      "inputs": [],
      "name": "latestErc721TokenIndex",
      "outputs": [
        {
          "internalType": "uint64",
          "name": "",
          "type": "uint64"
        }
      ],
      "stateMutability": "view",
      "type": "function"
    },
    {
      "inputs": [],
      "name": "name",
      "outputs": [
        {
          "internalType": "string",
          "name": "",
          "type": "string"
        }
      ],
      "stateMutability": "view",
      "type": "function"
    },
    {
      "inputs": [
        {
          "internalType": "uint256",
          "name": "tokenId",
          "type": "uint256"
        }
      ],
      "name": "ownerOf",
      "outputs": [
        {
          "internalType": "address",
          "name": "",
          "type": "address"
        }
      ],
      "stateMutability": "view",
      "type": "function"
    },
    {
      "inputs": [
        {
          "internalType": "uint256",
          "name": "blueprintID",
          "type": "uint256"
        }
      ],
      "name": "pauseSale",
      "outputs": [],
      "stateMutability": "nonpayable",
      "type": "function"
    },
    {
      "inputs": [
        {
          "internalType": "uint256",
          "name": "blueprintID",
          "type": "uint256"
        },
        {
          "internalType": "uint32",
          "name": "quantity",
          "type": "uint32"
        }
      ],
      "name": "preSaleMint",
      "outputs": [],
      "stateMutability": "nonpayable",
      "type": "function"
    },
    {
      "inputs": [
        {
          "internalType": "address",
          "name": "_artist",
          "type": "address"
        },
        {
          "internalType": "uint64",
          "name": "_capacity",
          "type": "uint64"
        },
        {
          "internalType": "uint128",
          "name": "_price",
          "type": "uint128"
        },
        {
          "internalType": "address",
          "name": "_erc20Token",
          "type": "address"
        },
        {
          "internalType": "string",
          "name": "_blueprintMetaData",
          "type": "string"
        },
        {
          "internalType": "string",
          "name": "_baseTokenUri",
          "type": "string"
        },
        {
          "internalType": "bytes32",
          "name": "_merkleroot",
          "type": "bytes32"
        },
        {
          "internalType": "uint32",
          "name": "_mintAmountArtist",
          "type": "uint32"
        },
        {
          "internalType": "uint32",
          "name": "_mintAmountPlatform",
          "type": "uint32"
        }
      ],
      "name": "prepareBlueprint",
      "outputs": [],
      "stateMutability": "nonpayable",
      "type": "function"
    },
    {
      "inputs": [
        {
          "internalType": "uint256",
          "name": "blueprintID",
          "type": "uint256"
        },
        {
          "internalType": "uint32",
          "name": "quantity",
          "type": "uint32"
        },
        {
          "internalType": "uint256",
          "name": "tokenAmount",
          "type": "uint256"
        },
        {
          "internalType": "bytes32[]",
          "name": "proof",
          "type": "bytes32[]"
        }
      ],
      "name": "purchaseBlueprints",
      "outputs": [],
      "stateMutability": "payable",
      "type": "function"
    },
    {
      "inputs": [
        {
          "internalType": "bytes32",
          "name": "role",
          "type": "bytes32"
        },
        {
          "internalType": "address",
          "name": "account",
          "type": "address"
        }
      ],
      "name": "renounceRole",
      "outputs": [],
      "stateMutability": "nonpayable",
      "type": "function"
    },
    {
      "inputs": [
        {
          "internalType": "uint256",
          "name": "blueprintID",
          "type": "uint256"
        },
        {
          "internalType": "string",
          "name": "randomSeed",
          "type": "string"
        }
      ],
      "name": "revealBlueprintSeed",
      "outputs": [],
      "stateMutability": "nonpayable",
      "type": "function"
    },
    {
      "inputs": [
        {
          "internalType": "bytes32",
          "name": "role",
          "type": "bytes32"
        },
        {
          "internalType": "address",
          "name": "account",
          "type": "address"
        }
      ],
      "name": "revokeRole",
      "outputs": [],
      "stateMutability": "nonpayable",
      "type": "function"
    },
    {
      "inputs": [
        {
          "internalType": "address",
          "name": "from",
          "type": "address"
        },
        {
          "internalType": "address",
          "name": "to",
          "type": "address"
        },
        {
          "internalType": "uint256",
          "name": "tokenId",
          "type": "uint256"
        }
      ],
      "name": "safeTransferFrom",
      "outputs": [],
      "stateMutability": "nonpayable",
      "type": "function"
    },
    {
      "inputs": [
        {
          "internalType": "address",
          "name": "from",
          "type": "address"
        },
        {
          "internalType": "address",
          "name": "to",
          "type": "address"
        },
        {
          "internalType": "uint256",
          "name": "tokenId",
          "type": "uint256"
        },
        {
          "internalType": "bytes",
          "name": "_data",
          "type": "bytes"
        }
      ],
      "name": "safeTransferFrom",
      "outputs": [],
      "stateMutability": "nonpayable",
      "type": "function"
    },
    {
      "inputs": [
        {
          "internalType": "address",
          "name": "operator",
          "type": "address"
        },
        {
          "internalType": "bool",
          "name": "approved",
          "type": "bool"
        }
      ],
      "name": "setApprovalForAll",
      "outputs": [],
      "stateMutability": "nonpayable",
      "type": "function"
    },
    {
      "inputs": [
        {
          "internalType": "address",
          "name": "_asyncSaleFeesRecipient",
          "type": "address"
        }
      ],
      "name": "setAsyncFeeRecipient",
      "outputs": [],
      "stateMutability": "nonpayable",
      "type": "function"
    },
    {
      "inputs": [
        {
          "internalType": "uint256",
          "name": "_blueprintID",
          "type": "uint256"
        },
        {
          "internalType": "address[]",
          "name": "_primaryFeeRecipients",
          "type": "address[]"
        },
        {
          "internalType": "uint32[]",
          "name": "_primaryFeeBPS",
          "type": "uint32[]"
        },
        {
          "internalType": "address[]",
          "name": "_secondaryFeeRecipients",
          "type": "address[]"
        },
        {
          "internalType": "uint32[]",
          "name": "_secondaryFeeBPS",
          "type": "uint32[]"
        }
      ],
      "name": "setFeeRecipients",
      "outputs": [],
      "stateMutability": "nonpayable",
      "type": "function"
    },
    {
      "inputs": [
        {
          "internalType": "bytes4",
          "name": "interfaceId",
          "type": "bytes4"
        }
      ],
      "name": "supportsInterface",
      "outputs": [
        {
          "internalType": "bool",
          "name": "",
          "type": "bool"
        }
      ],
      "stateMutability": "view",
      "type": "function"
    },
    {
      "inputs": [],
      "name": "symbol",
      "outputs": [
        {
          "internalType": "string",
          "name": "",
          "type": "string"
        }
      ],
      "stateMutability": "view",
      "type": "function"
    },
    {
      "inputs": [
        {
          "internalType": "uint256",
          "name": "tokenId",
          "type": "uint256"
        }
      ],
      "name": "tokenURI",
      "outputs": [
        {
          "internalType": "string",
          "name": "",
          "type": "string"
        }
      ],
      "stateMutability": "view",
      "type": "function"
    },
    {
      "inputs": [
        {
          "internalType": "address",
          "name": "from",
          "type": "address"
        },
        {
          "internalType": "address",
          "name": "to",
          "type": "address"
        },
        {
          "internalType": "uint256",
          "name": "tokenId",
          "type": "uint256"
        }
      ],
      "name": "transferFrom",
      "outputs": [],
      "stateMutability": "nonpayable",
      "type": "function"
    },
    {
      "inputs": [
        {
          "internalType": "uint256",
          "name": "blueprintID",
          "type": "uint256"
        }
      ],
      "name": "unpauseSale",
      "outputs": [],
      "stateMutability": "nonpayable",
      "type": "function"
    },
    {
      "inputs": [
        {
          "internalType": "uint256",
          "name": "blueprintID",
          "type": "uint256"
        },
        {
          "internalType": "string",
          "name": "newBaseTokenUri",
          "type": "string"
        }
      ],
      "name": "updateBaseTokenUri",
      "outputs": [],
      "stateMutability": "nonpayable",
      "type": "function"
    },
    {
      "inputs": [
        {
          "internalType": "address",
          "name": "_platform",
          "type": "address"
        }
      ],
      "name": "updatePlatformAddress",
      "outputs": [],
      "stateMutability": "nonpayable",
      "type": "function"
    },
    {
      "inputs": [
        {
          "internalType": "address payable",
          "name": "recipient",
          "type": "address"
        }
      ],
      "name": "withdrawAllFailedCredits",
      "outputs": [],
      "stateMutability": "nonpayable",
      "type": "function"
    }
  ],
  "transactionHash": "0x0121ff0400ac3d025f889654e92a285a1d9536d3851ac50e5bc57d0425900252",
  "args": [],
  "solcInputHash": "411141cb89775b667a59cf643de068da",
  "bytecode": "0x608060405234801561001057600080fd5b50614f75806100206000396000f3fe6080604052600436106102c95760003560e01c80637b4252c011610175578063c87b56dd116100dc578063ced3604311610095578063deb941481161006f578063deb941481461090f578063e985e9c514610930578063eaf2115d14610950578063f5b541a61461097557600080fd5b8063ced36043146108af578063d547741f146108cf578063de74654d146108ef57600080fd5b8063c87b56dd146107ea578063c90941b11461080a578063c9e632031461082a578063c9f2bd931461084a578063ca15c8731461086a578063cba991bf1461088a57600080fd5b806395d89b411161012e57806395d89b4114610740578063a217fddf14610755578063a22cb4651461076a578063aec970b01461078a578063b88d4fde146107aa578063b9c4d9fb146107ca57600080fd5b80637b4252c0146106a157806380ae4ebc146106b85780638f9f193f146106cd5780639010d07c146106ed57806391d148541461070d57806394a9c9c31461072d57600080fd5b806338e395cf116102345780634d073a5a116101ed57806366bf33be116101c757806366bf33be1461060b57806366c083d31461064157806368c31e261461066157806370a082311461068157600080fd5b80634d073a5a1461058a5780635d755484146105cb5780636352211e146105eb57600080fd5b806338e395cf146104ca57806339f4815f146104ea5780633a66e4b61461050a5780633b2522281461052a57806342842e0e1461054a5780634cd88b761461056a57600080fd5b80630ebd4c7f116102865780630ebd4c7f146103cc57806322235d69146103f957806323b872dd1461042c578063248a9ca31461044c5780632f2ff15d1461048a57806336568abe146104aa57600080fd5b8063018a62a6146102ce57806301ffc9a7146102f057806306fdde0314610325578063081812fc14610347578063095ea7b31461037f5780630a21a2111461039f575b600080fd5b3480156102da57600080fd5b506102ee6102e936600461471c565b6109a9565b005b3480156102fc57600080fd5b5061031061030b3660046145d3565b610a7e565b60405190151581526020015b60405180910390f35b34801561033157600080fd5b5061033a610aad565b60405161031c91906149ba565b34801561035357600080fd5b50610367610362366004614576565b610b3f565b6040516001600160a01b03909116815260200161031c565b34801561038b57600080fd5b506102ee61039a366004614456565b610bd4565b3480156103ab57600080fd5b506103bf6103ba366004614576565b610cea565b60405161031c919061492f565b3480156103d857600080fd5b506103ec6103e7366004614576565b610de6565b60405161031c919061497c565b34801561040557600080fd5b5061012d546104179063ffffffff1681565b60405163ffffffff909116815260200161031c565b34801561043857600080fd5b506102ee61044736600461436d565b610f45565b34801561045857600080fd5b5061047c610467366004614576565b600090815260c9602052604090206001015490565b60405190815260200161031c565b34801561049657600080fd5b506102ee6104a536600461458e565b610f76565b3480156104b657600080fd5b506102ee6104c536600461458e565b610f98565b3480156104d657600080fd5b506102ee6104e5366004614756565b610fba565b3480156104f657600080fd5b506102ee61050536600461471c565b611241565b34801561051657600080fd5b506102ee610525366004614576565b6112ff565b34801561053657600080fd5b506102ee610545366004614481565b6113b1565b34801561055657600080fd5b506102ee61056536600461436d565b61149e565b34801561057657600080fd5b506102ee61058536600461460b565b6114b9565b34801561059657600080fd5b5061012d546105b39064010000000090046001600160401b031681565b6040516001600160401b03909116815260200161031c565b3480156105d757600080fd5b506102ee6105e6366004614812565b6115ac565b3480156105f757600080fd5b50610367610606366004614576565b611610565b34801561061757600080fd5b5061062b610626366004614576565b611687565b60405161031c9a99989796959493929190614bb8565b34801561064d57600080fd5b506102ee61065c366004614812565b61179a565b34801561066d57600080fd5b506102ee61067c366004614576565b6117fe565b34801561068d57600080fd5b5061047c61069c366004614319565b6118e3565b3480156106ad57600080fd5b5061047c6101315481565b3480156106c457600080fd5b506102ee61196a565b3480156106d957600080fd5b506102ee6106e8366004614319565b6119e6565b3480156106f957600080fd5b506103676107083660046145b2565b611a2c565b34801561071957600080fd5b5061031061072836600461458e565b611a4b565b6102ee61073b366004614781565b611a76565b34801561074c57600080fd5b5061033a611c25565b34801561076157600080fd5b5061047c600081565b34801561077657600080fd5b506102ee610785366004614429565b611c34565b34801561079657600080fd5b506102ee6107a5366004614319565b611cf9565b3480156107b657600080fd5b506102ee6107c53660046143ad565b611d29565b3480156107d657600080fd5b506103bf6107e5366004614576565b611d61565b3480156107f657600080fd5b5061033a610805366004614576565b611ea3565b34801561081657600080fd5b506102ee610825366004614319565b611f8a565b34801561083657600080fd5b506102ee61084536600461466b565b612088565b34801561085657600080fd5b506102ee610865366004614576565b6121e3565b34801561087657600080fd5b5061047c610885366004614576565b6122ce565b34801561089657600080fd5b5061012d5461041790600160801b900463ffffffff1681565b3480156108bb57600080fd5b506103ec6108ca366004614576565b6122e5565b3480156108db57600080fd5b506102ee6108ea36600461458e565b6123b5565b3480156108fb57600080fd5b506102ee61090a366004614812565b6123bf565b34801561091b57600080fd5b5061012e54610367906001600160a01b031681565b34801561093c57600080fd5b5061031061094b366004614335565b6123fe565b34801561095c57600080fd5b5061012d5461041790600160601b900463ffffffff1681565b34801561098157600080fd5b5061047c7f97667070c54ef182b0f5858b034beac1b6f3089aa2d3188bb1e8929f4fa9b92981565b60006109b58133612459565b8260008082815261012f6020526040902060010154600160e01b900460ff1660038111156109f357634e487b7160e01b600052602160045260246000fd5b1415610a3f5760405162461bcd60e51b8152602060048201526016602482015275109b1d595c1c9a5b9d081b9bdd081c1c995c185c995960521b60448201526064015b60405180910390fd5b7f703604f30bacc0494165473e817b003a6db41ed8c598a9ff96093768d701f0958484604051610a70929190614b9f565b60405180910390a150505050565b6000610a89826124bd565b80610a985750610a988261250d565b80610aa75750610aa78261253e565b92915050565b606060658054610abc90614e38565b80601f0160208091040260200160405190810160405280929190818152602001828054610ae890614e38565b8015610b355780601f10610b0a57610100808354040283529160200191610b35565b820191906000526020600020905b815481529060010190602001808311610b1857829003601f168201915b5050505050905090565b6000818152606760205260408120546001600160a01b0316610bb85760405162461bcd60e51b815260206004820152602c60248201527f4552433732313a20617070726f76656420717565727920666f72206e6f6e657860448201526b34b9ba32b73a103a37b5b2b760a11b6064820152608401610a36565b506000908152606960205260409020546001600160a01b031690565b6000610bdf82611610565b9050806001600160a01b0316836001600160a01b03161415610c4d5760405162461bcd60e51b815260206004820152602160248201527f4552433732313a20617070726f76616c20746f2063757272656e74206f776e656044820152603960f91b6064820152608401610a36565b336001600160a01b0382161480610c695750610c6981336123fe565b610cdb5760405162461bcd60e51b815260206004820152603860248201527f4552433732313a20617070726f76652063616c6c6572206973206e6f74206f7760448201527f6e6572206e6f7220617070726f76656420666f7220616c6c00000000000000006064820152608401610a36565b610ce58383612563565b505050565b600081815261012f6020526040902060060154606090610d735760408051600180825281830190925260009160208083019080368337505061012e5482519293506001600160a01b031691839150600090610d5557634e487b7160e01b600052603260045260246000fd5b6001600160a01b039092166020928302919091019091015292915050565b600082815261012f602090815260409182902060060180548351818402810184019094528084529091830182828015610dd557602002820191906000526020600020905b81546001600160a01b03168152600190910190602001808311610db7575b50505050509050919050565b919050565b600081815261012f6020526040902060090154606090610eb75760408051600280825260608201835260009260208301908036833701905050905061012d60109054906101000a900463ffffffff1681600081518110610e5657634e487b7160e01b600052603260045260246000fd5b63ffffffff928316602091820292909201015261012d548251600160601b9091049091169082906001908110610e9c57634e487b7160e01b600052603260045260246000fd5b63ffffffff9092166020928302919091019091015292915050565b600082815261012f602090815260409182902060090180548351818402810184019094528084529091830182828015610dd557602002820191906000526020600020906000905b82829054906101000a900463ffffffff1663ffffffff1681526020019060040190602082600301049283019260010382029150808411610efe575094979650505050505050565b610f4f33826125d1565b610f6b5760405162461bcd60e51b8152600401610a3690614a6d565b610ce58383836126a8565b610f808282612848565b600082815260fb60205260409020610ce5908261286e565b610fa28282612883565b600082815260fb60205260409020610ce590826128fd565b610fc382612912565b61100f5760405162461bcd60e51b815260206004820181905260248201527f4d75737420626520707265706172656420616e64206e6f7420737461727465646044820152606401610a36565b610132546001600160a01b031633148061104a5750600082815261012f6020526040902060010154600160401b90046001600160a01b031633145b6110965760405162461bcd60e51b815260206004820152601860248201527f557365722063616e6e6f74206d696e742070726573616c6500000000000000006044820152606401610a36565b610132546001600160a01b031633141561116557600082815261012f602052604090205463ffffffff640100000000909104811690821611156111125760405162461bcd60e51b815260206004820152601460248201527343616e6e6f74206d696e74207175616e7469747960601b6044820152606401610a36565b600082815261012f602052604090208054829190600490611142908490640100000000900463ffffffff16614dad565b92506101000a81548163ffffffff021916908363ffffffff160217905550611233565b600082815261012f6020526040902060010154600160401b90046001600160a01b031633141561123357600082815261012f602052604090205463ffffffff90811690821611156111ef5760405162461bcd60e51b815260206004820152601460248201527343616e6e6f74206d696e74207175616e7469747960601b6044820152606401610a36565b600082815261012f60205260408120805483929061121490849063ffffffff16614dad565b92506101000a81548163ffffffff021916908363ffffffff1602179055505b61123d828261295a565b5050565b600061124d8133612459565b8260008082815261012f6020526040902060010154600160e01b900460ff16600381111561128b57634e487b7160e01b600052602160045260246000fd5b14156112d25760405162461bcd60e51b8152602060048201526016602482015275109b1d595c1c9a5b9d081b9bdd081c1c995c185c995960521b6044820152606401610a36565b600084815261012f6020908152604090912084516112f892600390920191860190613ffd565b5050505050565b600061130b8133612459565b8161131581612b74565b6113545760405162461bcd60e51b815260206004820152601060248201526f14d85b19481b9bdd081cdd185c9d195960821b6044820152606401610a36565b600083815261012f6020908152604091829020600101805460ff60e01b1916600360e01b17905590518481527f4616a0782e5635981b28be1cd36934a60655b462c370d8bd8092c969abc990d091015b60405180910390a1505050565b60006113bd8133612459565b60006101315490508a61012f600083815260200190815260200160002060010160086101000a8154816001600160a01b0302191690836001600160a01b031602179055508961012f600083815260200190815260200160002060000160086101000a8154816001600160401b0302191690836001600160401b031602179055508861012f600083815260200190815260200160002060000160106101000a8154816001600160801b0302191690836001600160801b03160217905550611487818988888888612b7d565b6114918188612c09565b5050505050505050505050565b610ce583838360405180602001604052806000815250611d29565b600054610100900460ff16806114d2575060005460ff16155b6114ee5760405162461bcd60e51b8152600401610a3690614a1f565b600054610100900460ff16158015611510576000805461ffff19166101011790555b61151a8383612d27565b61152261196a565b61152a612dae565b611535600033612e1d565b61155f7f97667070c54ef182b0f5858b034beac1b6f3089aa2d3188bb1e8929f4fa9b92933612e1d565b61013280546001600160a01b03199081163390811790925561012d805463ffffffff19166101f417905561012e805490911690911790558015610ce5576000805461ff0019169055505050565b60006115b88133612459565b61012d54612710906115d790600160801b900463ffffffff1684614cf3565b63ffffffff1611156115e857600080fd5b5061012d805463ffffffff909216600160601b0263ffffffff60601b19909216919091179055565b6000818152606760205260408120546001600160a01b031680610aa75760405162461bcd60e51b815260206004820152602960248201527f4552433732313a206f776e657220717565727920666f72206e6f6e657869737460448201526832b73a103a37b5b2b760b91b6064820152608401610a36565b61012f60205260009081526040902080546001820154600283015460038401805463ffffffff80861696640100000000870490911695600160401b8082046001600160401b0390811697600160801b9093046001600160801b031696908316959183046001600160a01b0390811695600160e01b90940460ff169491169290919061171190614e38565b80601f016020809104026020016040519081016040528092919081815260200182805461173d90614e38565b801561178a5780601f1061175f5761010080835404028352916020019161178a565b820191906000526020600020905b81548152906001019060200180831161176d57829003601f168201915b505050505090806004015490508a565b60006117a68133612459565b61012d54612710906117c590600160601b900463ffffffff1684614cf3565b63ffffffff1611156117d657600080fd5b5061012d805463ffffffff909216600160801b0263ffffffff60801b19909216919091179055565b600061180a8133612459565b6003600083815261012f6020526040902060010154600160e01b900460ff16600381111561184857634e487b7160e01b600052602160045260246000fd5b146118875760405162461bcd60e51b815260206004820152600f60248201526e14d85b19481b9bdd081c185d5cd959608a1b6044820152606401610a36565b600082815261012f6020908152604091829020600101805460ff60e01b1916600160e11b17905590518381527fdcba7a000ef2740d4daa9c60f3235ec53ea38eb4164b31d5470f76e01e52d7bd91015b60405180910390a15050565b60006001600160a01b03821661194e5760405162461bcd60e51b815260206004820152602a60248201527f4552433732313a2062616c616e636520717565727920666f7220746865207a65604482015269726f206164647265737360b01b6064820152608401610a36565b506001600160a01b031660009081526068602052604090205490565b600054610100900460ff1680611983575060005460ff16155b61199f5760405162461bcd60e51b8152600401610a3690614a1f565b600054610100900460ff161580156119c1576000805461ffff19166101011790555b6119d1632dde656160e21b612e27565b80156119e3576000805461ff00191690555b50565b60006119f28133612459565b6119fd600083610f76565b611a086000336123b5565b5061013280546001600160a01b0319166001600160a01b0392909216919091179055565b600082815260fb60205260408120611a449083612ea6565b9392505050565b600091825260c9602090815260408084206001600160a01b0393909316845291905290205460ff1690565b84848383611a8384612b74565b80611aab5750611a9284612912565b8015611aab5750611aab848463ffffffff168484612eb2565b611af75760405162461bcd60e51b815260206004820152601960248201527f4e6f7420617661696c61626c6520746f207075726368617365000000000000006044820152606401610a36565b600089815261012f60205260409020548990899063ffffffff8216600160401b9091046001600160401b03161015611b715760405162461bcd60e51b815260206004820152601960248201527f5175616e746974792065786365656473206361706163697479000000000000006044820152606401610a36565b60008b815261012f6020526040902060010154600160401b90046001600160a01b0316611ba08c8c8c84612ffb565b611baa8c8c61295a565b600160008d815261012f6020526040902060010154600160e01b900460ff166003811115611be857634e487b7160e01b600052602160045260246000fd5b1415611c175760008c815261012f602090815260408083203384526005019091529020805460ff191660011790555b505050505050505050505050565b606060668054610abc90614e38565b6001600160a01b038216331415611c8d5760405162461bcd60e51b815260206004820152601960248201527f4552433732313a20617070726f766520746f2063616c6c6572000000000000006044820152606401610a36565b336000818152606a602090815260408083206001600160a01b03871680855290835292819020805460ff191686151590811790915590519081529192917f17307eab39ab6107e8899845ad3d59bd9653f200f220920489ca2b5937696c31910160405180910390a35050565b6000611d058133612459565b5061012e80546001600160a01b0319166001600160a01b0392909216919091179055565b611d3333836125d1565b611d4f5760405162461bcd60e51b8152600401610a3690614a6d565b611d5b84848484613240565b50505050565b600081815261012f6020526040902060080154606090611e3757604080516002808252606082018352600092602083019080368337505061012e5482519293506001600160a01b031691839150600090611dcb57634e487b7160e01b600052603260045260246000fd5b60200260200101906001600160a01b031690816001600160a01b03168152505061012f600084815260200190815260200160002060010160089054906101000a90046001600160a01b031681600181518110610d5557634e487b7160e01b600052603260045260246000fd5b600082815261012f602090815260409182902060080180548351818402810184019094528084529091830182828015610dd5576020028201919060005260206000209081546001600160a01b03168152600190910190602001808311610db75750505050509050919050565b6000818152606760205260409020546060906001600160a01b0316611f225760405162461bcd60e51b815260206004820152602f60248201527f4552433732314d657461646174613a2055524920717565727920666f72206e6f60448201526e3732bc34b9ba32b73a103a37b5b2b760891b6064820152608401610a36565b6000611f3960408051602081019091526000815290565b90506000815111611f595760405180602001604052806000815250611a44565b80611f6384613273565b604051602001611f74929190614858565b6040516020818303038152906040529392505050565b336000908152610130602052604090205480611fe15760405162461bcd60e51b81526020600482015260166024820152756e6f206372656469747320746f20776974686472617760501b6044820152606401610a36565b3360009081526101306020526040808220829055516001600160a01b03841690614e2090849084818181858888f193505050503d8060008114612040576040519150601f19603f3d011682016040523d82523d6000602084013e612045565b606091505b5050905080610ce55760405162461bcd60e51b815260206004820152600f60248201526e1dda5d1a191c985dc819985a5b1959608a1b6044820152606401610a36565b60006120948133612459565b6001600087815261012f6020526040902060010154600160e01b900460ff1660038111156120d257634e487b7160e01b600052602160045260246000fd5b1461211f5760405162461bcd60e51b815260206004820152601c60248201527f53616c652073746172746564206f72206e6f74207072657061726564000000006044820152606401610a36565b612129858561338c565b1561217d57600086815261012f60209081526040909120865161215492600690920191880190614081565b50600086815261012f60209081526040909120855161217b926007909201918701906140d6565b505b612187838361338c565b156121db57600086815261012f6020908152604090912084516121b292600890920191860190614081565b50600086815261012f6020908152604090912083516121d9926009909201918501906140d6565b505b505050505050565b60006121ef8133612459565b6001600083815261012f6020526040902060010154600160e01b900460ff16600381111561222d57634e487b7160e01b600052602160045260246000fd5b1461227a5760405162461bcd60e51b815260206004820152601c60248201527f53616c652073746172746564206f72206e6f74207072657061726564000000006044820152606401610a36565b600082815261012f6020908152604091829020600101805460ff60e01b1916600160e11b17905590518381527fa78c547613f6306e7a70d1bd161c18a496cae1eeb8d4f9e58b60d69ad72ddf5891016118d7565b600081815260fb60205260408120610aa7906134ae565b600081815261012f602052604090206007015460609061234d5760408051600180825281830190925260009160208083019080368337505061012d54825192935063ffffffff1691839150600090610e9c57634e487b7160e01b600052603260045260246000fd5b600082815261012f602090815260409182902060070180548351818402810184019094528084529091830182828015610dd5576000918252602091829020805463ffffffff168452908202830192909160049101808411610efe575094979650505050505050565b610fa282826134b8565b60006123cb8133612459565b6127108263ffffffff1611156123e057600080fd5b5061012d805463ffffffff191663ffffffff92909216919091179055565b6001600160a01b038083166000908152606a6020908152604080832093851683529290529081205460ff1680611a445750611a447f97667070c54ef182b0f5858b034beac1b6f3089aa2d3188bb1e8929f4fa9b92983611a4b565b6124638282611a4b565b61123d5761247b816001600160a01b031660146134de565b6124868360206134de565b604051602001612497929190614887565b60408051601f198184030181529082905262461bcd60e51b8252610a36916004016149ba565b60006001600160e01b031982166380ac58cd60e01b14806124ee57506001600160e01b03198216635b5e139f60e01b145b80610aa757506301ffc9a760e01b6001600160e01b0319831614610aa7565b6000612518826124bd565b80610aa75750506001600160e01b03191660009081526097602052604090205460ff1690565b60006001600160e01b03198216635a05180f60e01b1480610aa75750610aa7826136bf565b600081815260696020526040902080546001600160a01b0319166001600160a01b038416908117909155819061259882611610565b6001600160a01b03167f8c5be1e5ebec7d5bd14f71427d1e84f3dd0314c0f7b2291e5b200ac8c7c3b92560405160405180910390a45050565b6000818152606760205260408120546001600160a01b031661264a5760405162461bcd60e51b815260206004820152602c60248201527f4552433732313a206f70657261746f7220717565727920666f72206e6f6e657860448201526b34b9ba32b73a103a37b5b2b760a11b6064820152608401610a36565b600061265583611610565b9050806001600160a01b0316846001600160a01b031614806126905750836001600160a01b031661268584610b3f565b6001600160a01b0316145b806126a057506126a081856123fe565b949350505050565b826001600160a01b03166126bb82611610565b6001600160a01b0316146127235760405162461bcd60e51b815260206004820152602960248201527f4552433732313a207472616e73666572206f6620746f6b656e2074686174206960448201526839903737ba1037bbb760b91b6064820152608401610a36565b6001600160a01b0382166127855760405162461bcd60e51b8152602060048201526024808201527f4552433732313a207472616e7366657220746f20746865207a65726f206164646044820152637265737360e01b6064820152608401610a36565b612790600082612563565b6001600160a01b03831660009081526068602052604081208054600192906127b9908490614d96565b90915550506001600160a01b03821660009081526068602052604081208054600192906127e7908490614cdb565b909155505060008181526067602052604080822080546001600160a01b0319166001600160a01b0386811691821790925591518493918716917fddf252ad1be2c89b69c2b068fc378daa952ba7f163c4a11628f55a4df523b3ef91a4505050565b600082815260c960205260409020600101546128648133612459565b610ce583836136e4565b6000611a44836001600160a01b03841661376a565b6001600160a01b03811633146128f35760405162461bcd60e51b815260206004820152602f60248201527f416363657373436f6e74726f6c3a2063616e206f6e6c792072656e6f756e636560448201526e103937b632b9903337b91039b2b63360891b6064820152608401610a36565b61123d82826137b9565b6000611a44836001600160a01b038416613820565b600060015b600083815261012f6020526040902060010154600160e01b900460ff16600381111561295357634e487b7160e01b600052602160045260246000fd5b1492915050565b600082815261012f60205260408120600181015490546001600160401b0391821692600160401b909104909116905b8363ffffffff168161ffff161015612ae5576129bb336129ad61ffff841686614cb9565b6001600160801b031661393d565b600043424185604051602001612a099493929190938452602084019290925260601b6bffffffffffffffffffffffff1916604083015260c01b6001600160c01b0319166054820152605c0190565b60408051808303601f190181529181528151602092830120600089815261012f9093529120600101549091507fbe53bef0e08aa61aa51091a6fa77b4a68c6da179f64097fa01f92beda583eecc908790600160401b90046001600160a01b031633612a7861ffff871689614cb9565b604080519485526001600160a01b03938416602086015291909216908301526001600160801b031660608201526001600160401b038516608082015260a0810183905260c00160405180910390a1612acf83614e15565b9250508080612add90614e73565b915050612989565b50600084815261012f60205260408120600101805463ffffffff86169290612b179084906001600160401b0316614d12565b82546101009290920a6001600160401b03818102199093169183160217909155600095865261012f602052604090952080546fffffffffffffffff00000000000000001916600160401b9390961692909202949094179055505050565b60006002612917565b612b878686613a7f565b600086815261012f602090815260409091208551612bad92600390920191870190613ffd565b508215612bca57600086815261012f602052604090206004018390555b600095865261012f6020526040909520805463ffffffff9687166401000000000267ffffffffffffffff19909116969092169590951717909355505050565b600082815261012f60205260409020600181018054600160e01b60ff60e01b1982168117835561012d8054640100000000908190046001600160401b0390811667ffffffffffffffff60ff60e01b01199095169490941790921790935592548254600160401b909104821693849392600492612c89928692910416614d12565b92506101000a8154816001600160401b0302191690836001600160401b031602179055506101316000815480929190612cc190614e95565b9091555050600083815261012f602052604090819020600181015491517f97660d9bc329402e809d4aabb7261513a7d331d8762d407be7e3316d08d188fd926113a4928792600160401b9092046001600160a01b03169186918891600390910190614abe565b600054610100900460ff1680612d40575060005460ff16155b612d5c5760405162461bcd60e51b8152600401610a3690614a1f565b600054610100900460ff16158015612d7e576000805461ffff19166101011790555b612d86613abf565b612d8e613abf565b612d988383613b29565b8015610ce5576000805461ff0019169055505050565b600054610100900460ff1680612dc7575060005460ff16155b612de35760405162461bcd60e51b8152600401610a3690614a1f565b600054610100900460ff16158015612e05576000805461ffff19166101011790555b612e0d613abf565b612e15613abf565b6119d1613abf565b610f808282613bbe565b6001600160e01b03198082161415612e815760405162461bcd60e51b815260206004820152601c60248201527f4552433136353a20696e76616c696420696e74657266616365206964000000006044820152606401610a36565b6001600160e01b0319166000908152609760205260409020805460ff19166001179055565b6000611a448383613bc8565b600081612ef55760405162461bcd60e51b8152602060048201526011602482015270139bc81c1c9bdbd9881c1c9bdd9a591959607a1b6044820152606401610a36565b600085815261012f6020908152604080832033845260050190915290205460ff1615612f555760405162461bcd60e51b815260206004820152600f60248201526e105b1c9958591e4818db185a5b5959608a1b6044820152606401610a36565b600085815261012f6020526040902060040154612ff1612fb733876040516bffffffffffffffffffffffff19606084901b1660208201526034810182905260009060540160405160208183030381529060405280519060200120905092915050565b82868680806020026020016040519081016040528093929190818152602001838360200280828437600092019190915250613c0092505050565b9695505050505050565b600084815261012f60205260409020600281015490546001600160a01b0390911690600160801b90046001600160801b0316816130f85783156130805760405162461bcd60e51b815260206004820152601b60248201527f43616e6e6f74207370656369667920746f6b656e20616d6f756e7400000000006044820152606401610a36565b6130908163ffffffff8716614d48565b6001600160801b031634146130e75760405162461bcd60e51b815260206004820181905260248201527f507572636861736520616d6f756e74206d757374206d617463682070726963656044820152606401610a36565b6130f386833486613c0d565b6121db565b34156131465760405162461bcd60e51b815260206004820152601960248201527f43616e6e6f7420737065636966792065746820616d6f756e74000000000000006044820152606401610a36565b6131568163ffffffff8716614d48565b6001600160801b031684146131ad5760405162461bcd60e51b815260206004820181905260248201527f507572636861736520616d6f756e74206d757374206d617463682070726963656044820152606401610a36565b6040516323b872dd60e01b8152336004820152306024820152604481018590526001600160a01b038316906323b872dd90606401602060405180830381600087803b1580156131fb57600080fd5b505af115801561320f573d6000803e3d6000fd5b505050506040513d601f19601f82011682018060405250810190613233919061455a565b506121db86838686613c0d565b61324b8484846126a8565b61325784848484613ce7565b611d5b5760405162461bcd60e51b8152600401610a36906149cd565b6060816132975750506040805180820190915260018152600360fc1b602082015290565b8160005b81156132c157806132ab81614e95565b91506132ba9050600a83614d34565b915061329b565b6000816001600160401b038111156132e957634e487b7160e01b600052604160045260246000fd5b6040519080825280601f01601f191660200182016040528015613313576020820181803683370190505b5090505b84156126a057613328600183614d96565b9150613335600a86614eb0565b613340906030614cdb565b60f81b81838151811061336357634e487b7160e01b600052603260045260246000fd5b60200101906001600160f81b031916908160001a905350613385600a86614d34565b9450613317565b60008251600014158061339f5750815115155b156134a55781518351146133f55760405162461bcd60e51b815260206004820152601b60248201527f4d69736d61746368656420726563697069656e747320262042707300000000006044820152606401610a36565b6000805b83518110156134495783818151811061342257634e487b7160e01b600052603260045260246000fd5b6020026020010151826134359190614cf3565b91508061344181614e95565b9150506133f9565b506127108163ffffffff16111561349b5760405162461bcd60e51b81526020600482015260166024820152754665652042707320657863656564206d6178696d756d60501b6044820152606401610a36565b6001915050610aa7565b50600092915050565b6000610aa7825490565b600082815260c960205260409020600101546134d48133612459565b610ce583836137b9565b606060006134ed836002614d77565b6134f8906002614cdb565b6001600160401b0381111561351d57634e487b7160e01b600052604160045260246000fd5b6040519080825280601f01601f191660200182016040528015613547576020820181803683370190505b509050600360fc1b8160008151811061357057634e487b7160e01b600052603260045260246000fd5b60200101906001600160f81b031916908160001a905350600f60fb1b816001815181106135ad57634e487b7160e01b600052603260045260246000fd5b60200101906001600160f81b031916908160001a90535060006135d1846002614d77565b6135dc906001614cdb565b90505b6001811115613670576f181899199a1a9b1b9c1cb0b131b232b360811b85600f166010811061361e57634e487b7160e01b600052603260045260246000fd5b1a60f81b82828151811061364257634e487b7160e01b600052603260045260246000fd5b60200101906001600160f81b031916908160001a90535060049490941c9361366981614dfe565b90506135df565b508315611a445760405162461bcd60e51b815260206004820181905260248201527f537472696e67733a20686578206c656e67746820696e73756666696369656e746044820152606401610a36565b60006001600160e01b03198216637965db0b60e01b1480610aa75750610aa78261250d565b6136ee8282611a4b565b61123d57600082815260c9602090815260408083206001600160a01b03851684529091529020805460ff191660011790556137263390565b6001600160a01b0316816001600160a01b0316837f2f8788117e7eff1d82e926ec794901d17c78024a50270940304540a733656f0d60405160405180910390a45050565b60008181526001830160205260408120546137b157508154600181810184556000848152602080822090930184905584548482528286019093526040902091909155610aa7565b506000610aa7565b6137c38282611a4b565b1561123d57600082815260c9602090815260408083206001600160a01b0385168085529252808320805460ff1916905551339285917ff6391f5c32d9c69d2a47ea670b442974b53935d1edc7fd64eb21e047a839171b9190a45050565b60008181526001830160205260408120548015613933576000613844600183614d96565b855490915060009061385890600190614d96565b90508181146138d957600086600001828154811061388657634e487b7160e01b600052603260045260246000fd5b90600052602060002001549050808760000184815481106138b757634e487b7160e01b600052603260045260246000fd5b6000918252602080832090910192909255918252600188019052604090208390555b85548690806138f857634e487b7160e01b600052603160045260246000fd5b600190038181906000526020600020016000905590558560010160008681526020019081526020016000206000905560019350505050610aa7565b6000915050610aa7565b6001600160a01b0382166139935760405162461bcd60e51b815260206004820181905260248201527f4552433732313a206d696e7420746f20746865207a65726f20616464726573736044820152606401610a36565b6000818152606760205260409020546001600160a01b0316156139f85760405162461bcd60e51b815260206004820152601c60248201527f4552433732313a20746f6b656e20616c7265616479206d696e746564000000006044820152606401610a36565b6001600160a01b0382166000908152606860205260408120805460019290613a21908490614cdb565b909155505060008181526067602052604080822080546001600160a01b0319166001600160a01b03861690811790915590518392907fddf252ad1be2c89b69c2b068fc378daa952ba7f163c4a11628f55a4df523b3ef908290a45050565b6001600160a01b0381161561123d57600082815261012f6020526040902060020180546001600160a01b0383166001600160a01b03199091161790555050565b600054610100900460ff1680613ad8575060005460ff16155b613af45760405162461bcd60e51b8152600401610a3690614a1f565b600054610100900460ff161580156119d1576000805461ffff191661010117905580156119e3576000805461ff001916905550565b600054610100900460ff1680613b42575060005460ff16155b613b5e5760405162461bcd60e51b8152600401610a3690614a1f565b600054610100900460ff16158015613b80576000805461ffff19166101011790555b8251613b93906065906020860190613ffd565b508151613ba7906066906020850190613ffd565b508015610ce5576000805461ff0019169055505050565b61123d82826136e4565b6000826000018281548110613bed57634e487b7160e01b600052603260045260246000fd5b9060005260206000200154905092915050565b60006126a0828486613df1565b6000613c1885610cea565b90506000613c25866122e5565b90506000805b8351811015613cc0576000613c6d87858481518110613c5a57634e487b7160e01b600052603260045260246000fd5b602002602001015163ffffffff16613eae565b9050613c798184614cdb565b9250613cad858381518110613c9e57634e487b7160e01b600052603260045260246000fd5b60200260200101518983613ec7565b5080613cb881614e95565b915050613c2b565b506000613ccd8287614d96565b11156121d9576121d98487613ce28489614d96565b613ec7565b60006001600160a01b0384163b15613de957604051630a85bd0160e11b81526001600160a01b0385169063150b7a0290613d2b9033908990889088906004016148fc565b602060405180830381600087803b158015613d4557600080fd5b505af1925050508015613d75575060408051601f3d908101601f19168201909252613d72918101906145ef565b60015b613dcf573d808015613da3576040519150601f19603f3d011682016040523d82523d6000602084013e613da8565b606091505b508051613dc75760405162461bcd60e51b8152600401610a36906149cd565b805181602001fd5b6001600160e01b031916630a85bd0160e11b1490506126a0565b5060016126a0565b600081815b8551811015613ea3576000868281518110613e2157634e487b7160e01b600052603260045260246000fd5b60200260200101519050808311613e63576040805160208101859052908101829052606001604051602081830303815290604052805190602001209250613e90565b60408051602081018390529081018490526060016040516020818303038152906040528051906020012092505b5080613e9b81614e95565b915050613df6565b509092149392505050565b6000612710613ebd8385614d77565b611a449190614d34565b6001600160a01b03821615613f585760405163a9059cbb60e01b81526001600160a01b0384811660048301526024820183905283169063a9059cbb90604401602060405180830381600087803b158015613f2057600080fd5b505af1158015613f34573d6000803e3d6000fd5b505050506040513d601f19601f82011682018060405250810190611d5b919061455a565b6000836001600160a01b031682614e2090604051600060405180830381858888f193505050503d8060008114613faa576040519150601f19603f3d011682016040523d82523d6000602084013e613faf565b606091505b5050905080611d5b576001600160a01b03841660009081526101306020526040902054613fdd908390614cdb565b6001600160a01b0385166000908152610130602052604090205550505050565b82805461400990614e38565b90600052602060002090601f01602090048101928261402b5760008555614071565b82601f1061404457805160ff1916838001178555614071565b82800160010185558215614071579182015b82811115614071578251825591602001919060010190614056565b5061407d92915061417c565b5090565b828054828255906000526020600020908101928215614071579160200282015b8281111561407157825182546001600160a01b0319166001600160a01b039091161782556020909201916001909101906140a1565b828054828255906000526020600020906007016008900481019282156140715791602002820160005b8382111561414357835183826101000a81548163ffffffff021916908363ffffffff16021790555092602001926004016020816003010492830192600103026140ff565b80156141735782816101000a81549063ffffffff0219169055600401602081600301049283019260010302614143565b505061407d9291505b5b8082111561407d576000815560010161417d565b60006001600160401b038311156141aa576141aa614ef0565b6141bd601f8401601f1916602001614c66565b90508281528383830111156141d157600080fd5b828260208301376000602084830101529392505050565b8035610de181614f06565b600082601f830112614203578081fd5b8135602061421861421383614c96565b614c66565b80838252828201915082860187848660051b8901011115614237578586fd5b855b8581101561425e57813561424c81614f06565b84529284019290840190600101614239565b5090979650505050505050565b600082601f83011261427b578081fd5b8135602061428b61421383614c96565b80838252828201915082860187848660051b89010111156142aa578586fd5b855b8581101561425e576142bd82614305565b845292840192908401906001016142ac565b600082601f8301126142df578081fd5b611a4483833560208501614191565b80356001600160801b0381168114610de157600080fd5b803563ffffffff81168114610de157600080fd5b60006020828403121561432a578081fd5b8135611a4481614f06565b60008060408385031215614347578081fd5b823561435281614f06565b9150602083013561436281614f06565b809150509250929050565b600080600060608486031215614381578081fd5b833561438c81614f06565b9250602084013561439c81614f06565b929592945050506040919091013590565b600080600080608085870312156143c2578081fd5b84356143cd81614f06565b935060208501356143dd81614f06565b92506040850135915060608501356001600160401b038111156143fe578182fd5b8501601f8101871361440e578182fd5b61441d87823560208401614191565b91505092959194509250565b6000806040838503121561443b578182fd5b823561444681614f06565b9150602083013561436281614f1b565b60008060408385031215614468578182fd5b823561447381614f06565b946020939093013593505050565b60008060008060008060008060006101208a8c03121561449f578687fd5b89356144aa81614f06565b985060208a01356001600160401b0380821682146144c6578889fd5b8199506144d560408d016142ee565b98506144e360608d016141e8565b975060808c01359150808211156144f8578687fd5b6145048d838e016142cf565b965060a08c0135915080821115614519578586fd5b506145268c828d016142cf565b94505060c08a0135925061453c60e08b01614305565b915061454b6101008b01614305565b90509295985092959850929598565b60006020828403121561456b578081fd5b8151611a4481614f1b565b600060208284031215614587578081fd5b5035919050565b600080604083850312156145a0578182fd5b82359150602083013561436281614f06565b600080604083850312156145c4578182fd5b50508035926020909101359150565b6000602082840312156145e4578081fd5b8135611a4481614f29565b600060208284031215614600578081fd5b8151611a4481614f29565b6000806040838503121561461d578182fd5b82356001600160401b0380821115614633578384fd5b61463f868387016142cf565b93506020850135915080821115614654578283fd5b50614661858286016142cf565b9150509250929050565b600080600080600060a08688031215614682578283fd5b8535945060208601356001600160401b038082111561469f578485fd5b6146ab89838a016141f3565b955060408801359150808211156146c0578485fd5b6146cc89838a0161426b565b945060608801359150808211156146e1578283fd5b6146ed89838a016141f3565b93506080880135915080821115614702578283fd5b5061470f8882890161426b565b9150509295509295909350565b6000806040838503121561472e578182fd5b8235915060208301356001600160401b0381111561474a578182fd5b614661858286016142cf565b60008060408385031215614768578182fd5b8235915061477860208401614305565b90509250929050565b600080600080600060808688031215614798578283fd5b853594506147a860208701614305565b93506040860135925060608601356001600160401b03808211156147ca578283fd5b818801915088601f8301126147dd578283fd5b8135818111156147eb578384fd5b8960208260051b85010111156147ff578384fd5b9699959850939650602001949392505050565b600060208284031215614823578081fd5b611a4482614305565b60008151808452614844816020860160208601614dd2565b601f01601f19169290920160200192915050565b6000835161486a818460208801614dd2565b83519083019061487e818360208801614dd2565b01949350505050565b7f416363657373436f6e74726f6c3a206163636f756e74200000000000000000008152600083516148bf816017850160208801614dd2565b7001034b99036b4b9b9b4b733903937b6329607d1b60179184019182015283516148f0816028840160208801614dd2565b01602801949350505050565b6001600160a01b0385811682528416602082015260408101839052608060608201819052600090612ff19083018461482c565b6020808252825182820181905260009190848201906040850190845b818110156149705783516001600160a01b03168352928401929184019160010161494b565b50909695505050505050565b6020808252825182820181905260009190848201906040850190845b8181101561497057835163ffffffff1683529284019291840191600101614998565b602081526000611a44602083018461482c565b60208082526032908201527f4552433732313a207472616e7366657220746f206e6f6e20455243373231526560408201527131b2b4bb32b91034b6b83632b6b2b73a32b960711b606082015260800190565b6020808252602e908201527f496e697469616c697a61626c653a20636f6e747261637420697320616c72656160408201526d191e481a5b9a5d1a585b1a5e995960921b606082015260800190565b60208082526031908201527f4552433732313a207472616e736665722063616c6c6572206973206e6f74206f6040820152701ddb995c881b9bdc88185c1c1c9bdd9959607a1b606082015260800190565b8581526000602060018060a01b038716818401526001600160401b038616604084015260a06060840152614af560a084018661482c565b838103608085015284548390600181811c9080831680614b1657607f831692505b868310811415614b3457634e487b7160e01b88526022600452602488fd5b828652602086019550808015614b515760018114614b6257614b8c565b60ff19851687528787019550614b8c565b60008b815260209020895b85811015614b8657815489820152908401908901614b6d565b88019650505b50939d9c50505050505050505050505050565b8281526040602082015260006126a0604083018461482c565b63ffffffff8b811682528a1660208201526001600160401b0389811660408301526001600160801b0389166060830152871660808201526001600160a01b03861660a0820152600061014060048710614c1f57634e487b7160e01b82526021600452602482fd5b8660c0840152614c3a60e08401876001600160a01b03169052565b80610100840152614c4d8184018661482c565b915050826101208301529b9a5050505050505050505050565b604051601f8201601f191681016001600160401b0381118282101715614c8e57614c8e614ef0565b604052919050565b60006001600160401b03821115614caf57614caf614ef0565b5060051b60200190565b60006001600160801b0380831681851680830382111561487e5761487e614ec4565b60008219821115614cee57614cee614ec4565b500190565b600063ffffffff80831681851680830382111561487e5761487e614ec4565b60006001600160401b0380831681851680830382111561487e5761487e614ec4565b600082614d4357614d43614eda565b500490565b60006001600160801b0380831681851681830481118215151615614d6e57614d6e614ec4565b02949350505050565b6000816000190483118215151615614d9157614d91614ec4565b500290565b600082821015614da857614da8614ec4565b500390565b600063ffffffff83811690831681811015614dca57614dca614ec4565b039392505050565b60005b83811015614ded578181015183820152602001614dd5565b83811115611d5b5750506000910152565b600081614e0d57614e0d614ec4565b506000190190565b60006001600160401b03821680614e2e57614e2e614ec4565b6000190192915050565b600181811c90821680614e4c57607f821691505b60208210811415614e6d57634e487b7160e01b600052602260045260246000fd5b50919050565b600061ffff80831681811415614e8b57614e8b614ec4565b6001019392505050565b6000600019821415614ea957614ea9614ec4565b5060010190565b600082614ebf57614ebf614eda565b500690565b634e487b7160e01b600052601160045260246000fd5b634e487b7160e01b600052601260045260246000fd5b634e487b7160e01b600052604160045260246000fd5b6001600160a01b03811681146119e357600080fd5b80151581146119e357600080fd5b6001600160e01b0319811681146119e357600080fdfea2646970667358221220029d06fd0fff15fdf2db569e4b8f820dfd599c7738e0c83b7c3ea17f6963cafd64736f6c63430008040033",
  "devdoc": {
    "kind": "dev",
    "methods": {
      "approve(address,uint256)": {
        "details": "See {IERC721-approve}."
      },
      "balanceOf(address)": {
        "details": "See {IERC721-balanceOf}."
      },
      "getApproved(uint256)": {
        "details": "See {IERC721-getApproved}."
      },
      "getRoleAdmin(bytes32)": {
        "details": "Returns the admin role that controls `role`. See {grantRole} and {revokeRole}. To change a role's admin, use {_setRoleAdmin}."
      },
      "getRoleMember(bytes32,uint256)": {
        "details": "Returns one of the accounts that have `role`. `index` must be a value between 0 and {getRoleMemberCount}, non-inclusive. Role bearers are not sorted in any particular way, and their ordering may change at any point. WARNING: When using {getRoleMember} and {getRoleMemberCount}, make sure you perform all queries on the same block. See the following https://forum.openzeppelin.com/t/iterating-over-elements-on-enumerableset-in-openzeppelin-contracts/2296[forum post] for more information."
      },
      "getRoleMemberCount(bytes32)": {
        "details": "Returns the number of accounts that have `role`. Can be used together with {getRoleMember} to enumerate all bearers of a role."
      },
      "grantRole(bytes32,address)": {
        "details": "Overload {grantRole} to track enumerable memberships"
      },
      "hasRole(bytes32,address)": {
        "details": "Returns `true` if `account` has been granted `role`."
      },
      "name()": {
        "details": "See {IERC721Metadata-name}."
      },
      "ownerOf(uint256)": {
        "details": "See {IERC721-ownerOf}."
      },
      "renounceRole(bytes32,address)": {
        "details": "Overload {renounceRole} to track enumerable memberships"
      },
      "revokeRole(bytes32,address)": {
        "details": "Overload {revokeRole} to track enumerable memberships"
      },
      "safeTransferFrom(address,address,uint256)": {
        "details": "See {IERC721-safeTransferFrom}."
      },
      "safeTransferFrom(address,address,uint256,bytes)": {
        "details": "See {IERC721-safeTransferFrom}."
      },
      "setApprovalForAll(address,bool)": {
        "details": "See {IERC721-setApprovalForAll}."
      },
      "symbol()": {
        "details": "See {IERC721Metadata-symbol}."
      },
      "tokenURI(uint256)": {
        "details": "See {IERC721Metadata-tokenURI}."
      },
      "transferFrom(address,address,uint256)": {
        "details": "See {IERC721-transferFrom}."
      }
    },
    "version": 1
  },
  "userdoc": {
    "kind": "user",
    "methods": {
      "isApprovedForAll(address,address)": {
        "notice": "Required function overide //////"
      },
      "updateBaseTokenUri(uint256,string)": {
        "notice": "ONLY ADMIN functions ///"
      }
    },
    "version": 1
  },
  "storageLayout": {
    "storage": [
      {
        "astId": 648,
        "contract": "contracts/contracts/Blueprint.sol:Blueprint",
        "label": "_initialized",
        "offset": 0,
        "slot": "0",
        "type": "t_bool"
      },
      {
        "astId": 651,
        "contract": "contracts/contracts/Blueprint.sol:Blueprint",
        "label": "_initializing",
        "offset": 1,
        "slot": "0",
        "type": "t_bool"
      },
      {
        "astId": 1983,
        "contract": "contracts/contracts/Blueprint.sol:Blueprint",
        "label": "__gap",
        "offset": 0,
        "slot": "1",
        "type": "t_array(t_uint256)50_storage"
      },
      {
        "astId": 2308,
        "contract": "contracts/contracts/Blueprint.sol:Blueprint",
        "label": "__gap",
        "offset": 0,
        "slot": "51",
        "type": "t_array(t_uint256)50_storage"
      },
      {
        "astId": 717,
        "contract": "contracts/contracts/Blueprint.sol:Blueprint",
        "label": "_name",
        "offset": 0,
        "slot": "101",
        "type": "t_string_storage"
      },
      {
        "astId": 719,
        "contract": "contracts/contracts/Blueprint.sol:Blueprint",
        "label": "_symbol",
        "offset": 0,
        "slot": "102",
        "type": "t_string_storage"
      },
      {
        "astId": 723,
        "contract": "contracts/contracts/Blueprint.sol:Blueprint",
        "label": "_owners",
        "offset": 0,
        "slot": "103",
        "type": "t_mapping(t_uint256,t_address)"
      },
      {
        "astId": 727,
        "contract": "contracts/contracts/Blueprint.sol:Blueprint",
        "label": "_balances",
        "offset": 0,
        "slot": "104",
        "type": "t_mapping(t_address,t_uint256)"
      },
      {
        "astId": 731,
        "contract": "contracts/contracts/Blueprint.sol:Blueprint",
        "label": "_tokenApprovals",
        "offset": 0,
        "slot": "105",
        "type": "t_mapping(t_uint256,t_address)"
      },
      {
        "astId": 737,
        "contract": "contracts/contracts/Blueprint.sol:Blueprint",
        "label": "_operatorApprovals",
        "offset": 0,
        "slot": "106",
        "type": "t_mapping(t_address,t_mapping(t_address,t_bool))"
      },
      {
        "astId": 1533,
        "contract": "contracts/contracts/Blueprint.sol:Blueprint",
        "label": "__gap",
        "offset": 0,
        "slot": "107",
        "type": "t_array(t_uint256)44_storage"
      },
      {
        "astId": 2219,
        "contract": "contracts/contracts/Blueprint.sol:Blueprint",
        "label": "_supportedInterfaces",
        "offset": 0,
        "slot": "151",
        "type": "t_mapping(t_bytes4,t_bool)"
      },
      {
        "astId": 2262,
        "contract": "contracts/contracts/Blueprint.sol:Blueprint",
        "label": "__gap",
        "offset": 0,
        "slot": "152",
        "type": "t_array(t_uint256)49_storage"
      },
      {
        "astId": 258,
        "contract": "contracts/contracts/Blueprint.sol:Blueprint",
        "label": "_roles",
        "offset": 0,
        "slot": "201",
        "type": "t_mapping(t_bytes32,t_struct(RoleData)253_storage)"
      },
      {
        "astId": 543,
        "contract": "contracts/contracts/Blueprint.sol:Blueprint",
        "label": "__gap",
        "offset": 0,
        "slot": "202",
        "type": "t_array(t_uint256)49_storage"
      },
      {
        "astId": 45,
        "contract": "contracts/contracts/Blueprint.sol:Blueprint",
        "label": "_roleMembers",
        "offset": 0,
        "slot": "251",
        "type": "t_mapping(t_bytes32,t_struct(AddressSet)2633_storage)"
      },
      {
        "astId": 208,
        "contract": "contracts/contracts/Blueprint.sol:Blueprint",
        "label": "__gap",
        "offset": 0,
        "slot": "252",
        "type": "t_array(t_uint256)49_storage"
      },
      {
        "astId": 3677,
        "contract": "contracts/contracts/Blueprint.sol:Blueprint",
        "label": "defaultPlatformPrimaryFeePercentage",
        "offset": 0,
        "slot": "301",
        "type": "t_uint32"
      },
      {
        "astId": 3679,
        "contract": "contracts/contracts/Blueprint.sol:Blueprint",
        "label": "latestErc721TokenIndex",
        "offset": 4,
        "slot": "301",
        "type": "t_uint64"
      },
      {
        "astId": 3681,
        "contract": "contracts/contracts/Blueprint.sol:Blueprint",
        "label": "defaultBlueprintSecondarySalePercentage",
        "offset": 12,
        "slot": "301",
        "type": "t_uint32"
      },
      {
        "astId": 3683,
        "contract": "contracts/contracts/Blueprint.sol:Blueprint",
        "label": "defaultPlatformSecondarySalePercentage",
        "offset": 16,
        "slot": "301",
        "type": "t_uint32"
      },
      {
        "astId": 3685,
        "contract": "contracts/contracts/Blueprint.sol:Blueprint",
        "label": "asyncSaleFeesRecipient",
        "offset": 0,
        "slot": "302",
        "type": "t_address"
      },
      {
        "astId": 3690,
        "contract": "contracts/contracts/Blueprint.sol:Blueprint",
        "label": "blueprints",
        "offset": 0,
        "slot": "303",
        "type": "t_mapping(t_uint256,t_struct(Blueprints)3746_storage)"
      },
      {
        "astId": 3694,
        "contract": "contracts/contracts/Blueprint.sol:Blueprint",
        "label": "failedTransferCredits",
        "offset": 0,
        "slot": "304",
        "type": "t_mapping(t_address,t_uint256)"
      },
      {
        "astId": 3696,
        "contract": "contracts/contracts/Blueprint.sol:Blueprint",
        "label": "blueprintIndex",
        "offset": 0,
        "slot": "305",
        "type": "t_uint256"
      },
      {
        "astId": 3698,
        "contract": "contracts/contracts/Blueprint.sol:Blueprint",
        "label": "platform",
        "offset": 0,
        "slot": "306",
        "type": "t_address"
      }
    ],
    "types": {
      "t_address": {
        "encoding": "inplace",
        "label": "address",
        "numberOfBytes": "20"
      },
      "t_array(t_address)dyn_storage": {
        "base": "t_address",
        "encoding": "dynamic_array",
        "label": "address[]",
        "numberOfBytes": "32"
      },
      "t_array(t_bytes32)dyn_storage": {
        "base": "t_bytes32",
        "encoding": "dynamic_array",
        "label": "bytes32[]",
        "numberOfBytes": "32"
      },
      "t_array(t_uint256)44_storage": {
        "base": "t_uint256",
        "encoding": "inplace",
        "label": "uint256[44]",
        "numberOfBytes": "1408"
      },
      "t_array(t_uint256)49_storage": {
        "base": "t_uint256",
        "encoding": "inplace",
        "label": "uint256[49]",
        "numberOfBytes": "1568"
      },
      "t_array(t_uint256)50_storage": {
        "base": "t_uint256",
        "encoding": "inplace",
        "label": "uint256[50]",
        "numberOfBytes": "1600"
      },
      "t_array(t_uint32)dyn_storage": {
        "base": "t_uint32",
        "encoding": "dynamic_array",
        "label": "uint32[]",
        "numberOfBytes": "32"
      },
      "t_bool": {
        "encoding": "inplace",
        "label": "bool",
        "numberOfBytes": "1"
      },
      "t_bytes32": {
        "encoding": "inplace",
        "label": "bytes32",
        "numberOfBytes": "32"
      },
      "t_bytes4": {
        "encoding": "inplace",
        "label": "bytes4",
        "numberOfBytes": "4"
      },
      "t_enum(SaleState)3708": {
        "encoding": "inplace",
        "label": "enum Blueprint.SaleState",
        "numberOfBytes": "1"
      },
      "t_mapping(t_address,t_bool)": {
        "encoding": "mapping",
        "key": "t_address",
        "label": "mapping(address => bool)",
        "numberOfBytes": "32",
        "value": "t_bool"
      },
      "t_mapping(t_address,t_mapping(t_address,t_bool))": {
        "encoding": "mapping",
        "key": "t_address",
        "label": "mapping(address => mapping(address => bool))",
        "numberOfBytes": "32",
        "value": "t_mapping(t_address,t_bool)"
      },
      "t_mapping(t_address,t_uint256)": {
        "encoding": "mapping",
        "key": "t_address",
        "label": "mapping(address => uint256)",
        "numberOfBytes": "32",
        "value": "t_uint256"
      },
      "t_mapping(t_bytes32,t_struct(AddressSet)2633_storage)": {
        "encoding": "mapping",
        "key": "t_bytes32",
        "label": "mapping(bytes32 => struct EnumerableSetUpgradeable.AddressSet)",
        "numberOfBytes": "32",
        "value": "t_struct(AddressSet)2633_storage"
      },
      "t_mapping(t_bytes32,t_struct(RoleData)253_storage)": {
        "encoding": "mapping",
        "key": "t_bytes32",
        "label": "mapping(bytes32 => struct AccessControlUpgradeable.RoleData)",
        "numberOfBytes": "32",
        "value": "t_struct(RoleData)253_storage"
      },
      "t_mapping(t_bytes32,t_uint256)": {
        "encoding": "mapping",
        "key": "t_bytes32",
        "label": "mapping(bytes32 => uint256)",
        "numberOfBytes": "32",
        "value": "t_uint256"
      },
      "t_mapping(t_bytes4,t_bool)": {
        "encoding": "mapping",
        "key": "t_bytes4",
        "label": "mapping(bytes4 => bool)",
        "numberOfBytes": "32",
        "value": "t_bool"
      },
      "t_mapping(t_uint256,t_address)": {
        "encoding": "mapping",
        "key": "t_uint256",
        "label": "mapping(uint256 => address)",
        "numberOfBytes": "32",
        "value": "t_address"
      },
      "t_mapping(t_uint256,t_struct(Blueprints)3746_storage)": {
        "encoding": "mapping",
        "key": "t_uint256",
        "label": "mapping(uint256 => struct Blueprint.Blueprints)",
        "numberOfBytes": "32",
        "value": "t_struct(Blueprints)3746_storage"
      },
      "t_string_storage": {
        "encoding": "bytes",
        "label": "string",
        "numberOfBytes": "32"
      },
      "t_struct(AddressSet)2633_storage": {
        "encoding": "inplace",
        "label": "struct EnumerableSetUpgradeable.AddressSet",
        "members": [
          {
            "astId": 2632,
            "contract": "contracts/contracts/Blueprint.sol:Blueprint",
            "label": "_inner",
            "offset": 0,
            "slot": "0",
            "type": "t_struct(Set)2332_storage"
          }
        ],
        "numberOfBytes": "64"
      },
      "t_struct(Blueprints)3746_storage": {
        "encoding": "inplace",
        "label": "struct Blueprint.Blueprints",
        "members": [
          {
            "astId": 3710,
            "contract": "contracts/contracts/Blueprint.sol:Blueprint",
            "label": "mintAmountArtist",
            "offset": 0,
            "slot": "0",
            "type": "t_uint32"
          },
          {
            "astId": 3712,
            "contract": "contracts/contracts/Blueprint.sol:Blueprint",
            "label": "mintAmountPlatform",
            "offset": 4,
            "slot": "0",
            "type": "t_uint32"
          },
          {
            "astId": 3714,
            "contract": "contracts/contracts/Blueprint.sol:Blueprint",
            "label": "capacity",
            "offset": 8,
            "slot": "0",
            "type": "t_uint64"
          },
          {
            "astId": 3716,
            "contract": "contracts/contracts/Blueprint.sol:Blueprint",
            "label": "price",
            "offset": 16,
            "slot": "0",
            "type": "t_uint128"
          },
          {
            "astId": 3718,
            "contract": "contracts/contracts/Blueprint.sol:Blueprint",
            "label": "erc721TokenIndex",
            "offset": 0,
            "slot": "1",
            "type": "t_uint64"
          },
          {
            "astId": 3720,
            "contract": "contracts/contracts/Blueprint.sol:Blueprint",
            "label": "artist",
            "offset": 8,
            "slot": "1",
            "type": "t_address"
          },
          {
            "astId": 3723,
            "contract": "contracts/contracts/Blueprint.sol:Blueprint",
            "label": "saleState",
            "offset": 28,
            "slot": "1",
            "type": "t_enum(SaleState)3708"
          },
          {
            "astId": 3725,
            "contract": "contracts/contracts/Blueprint.sol:Blueprint",
            "label": "ERC20Token",
            "offset": 0,
            "slot": "2",
            "type": "t_address"
          },
          {
            "astId": 3727,
            "contract": "contracts/contracts/Blueprint.sol:Blueprint",
            "label": "baseTokenUri",
            "offset": 0,
            "slot": "3",
            "type": "t_string_storage"
          },
          {
            "astId": 3729,
            "contract": "contracts/contracts/Blueprint.sol:Blueprint",
            "label": "merkleroot",
            "offset": 0,
            "slot": "4",
            "type": "t_bytes32"
          },
          {
            "astId": 3733,
            "contract": "contracts/contracts/Blueprint.sol:Blueprint",
            "label": "claimedWhitelistedPieces",
            "offset": 0,
            "slot": "5",
            "type": "t_mapping(t_address,t_bool)"
          },
          {
            "astId": 3736,
            "contract": "contracts/contracts/Blueprint.sol:Blueprint",
            "label": "primaryFeeRecipients",
            "offset": 0,
            "slot": "6",
            "type": "t_array(t_address)dyn_storage"
          },
          {
            "astId": 3739,
            "contract": "contracts/contracts/Blueprint.sol:Blueprint",
            "label": "primaryFeeBPS",
            "offset": 0,
            "slot": "7",
            "type": "t_array(t_uint32)dyn_storage"
          },
          {
            "astId": 3742,
            "contract": "contracts/contracts/Blueprint.sol:Blueprint",
            "label": "secondaryFeeRecipients",
            "offset": 0,
            "slot": "8",
            "type": "t_array(t_address)dyn_storage"
          },
          {
            "astId": 3745,
            "contract": "contracts/contracts/Blueprint.sol:Blueprint",
            "label": "secondaryFeeBPS",
            "offset": 0,
            "slot": "9",
            "type": "t_array(t_uint32)dyn_storage"
          }
        ],
        "numberOfBytes": "320"
      },
      "t_struct(RoleData)253_storage": {
        "encoding": "inplace",
        "label": "struct AccessControlUpgradeable.RoleData",
        "members": [
          {
            "astId": 250,
            "contract": "contracts/contracts/Blueprint.sol:Blueprint",
            "label": "members",
            "offset": 0,
            "slot": "0",
            "type": "t_mapping(t_address,t_bool)"
          },
          {
            "astId": 252,
            "contract": "contracts/contracts/Blueprint.sol:Blueprint",
            "label": "adminRole",
            "offset": 0,
            "slot": "1",
            "type": "t_bytes32"
          }
        ],
        "numberOfBytes": "64"
      },
      "t_struct(Set)2332_storage": {
        "encoding": "inplace",
        "label": "struct EnumerableSetUpgradeable.Set",
        "members": [
          {
            "astId": 2327,
            "contract": "contracts/contracts/Blueprint.sol:Blueprint",
            "label": "_values",
            "offset": 0,
            "slot": "0",
            "type": "t_array(t_bytes32)dyn_storage"
          },
          {
            "astId": 2331,
            "contract": "contracts/contracts/Blueprint.sol:Blueprint",
            "label": "_indexes",
            "offset": 0,
            "slot": "1",
            "type": "t_mapping(t_bytes32,t_uint256)"
          }
        ],
        "numberOfBytes": "64"
      },
      "t_uint128": {
        "encoding": "inplace",
        "label": "uint128",
        "numberOfBytes": "16"
      },
      "t_uint256": {
        "encoding": "inplace",
        "label": "uint256",
        "numberOfBytes": "32"
      },
      "t_uint32": {
        "encoding": "inplace",
        "label": "uint32",
        "numberOfBytes": "4"
      },
      "t_uint64": {
        "encoding": "inplace",
        "label": "uint64",
        "numberOfBytes": "8"
      }
    }
  }
}